{"bytecode":"60806040523480156200001157600080fd5b5060405162002eaf38038062002eaf833981016040819052620000349162000213565b604080518082018252600a815269139195185d141a5e195b60b21b60208083019182528351808501909452600484526304e4654560e41b908401526001600081905582519293926200008792906200016d565b5080516200009d9060029060208401906200016d565b505050620000ba620000b46200011760201b60201c565b6200011b565b6000600955603c600b55600c8190556040805180820190915260198082527f66696c7465723d2775726c2823677261797363616c652927200000000000000060209092019182526200010f91600d916200016d565b50506200026a565b3390565b600880546001600160a01b038381166001600160a01b0319831681179093556040519116919082907f8be0079c531659141344cd1fd0a4f28419497f9722a3daafe3b4186f6b6457e090600090a35050565b8280546200017b906200022d565b90600052602060002090601f0160209004810192826200019f5760008555620001ea565b82601f10620001ba57805160ff1916838001178555620001ea565b82800160010185558215620001ea579182015b82811115620001ea578251825591602001919060010190620001cd565b50620001f8929150620001fc565b5090565b5b80821115620001f85760008155600101620001fd565b6000602082840312156200022657600080fd5b5051919050565b600181811c908216806200024257607f821691505b602082108114156200026457634e487b7160e01b600052602260045260246000fd5b50919050565b612c35806200027a6000396000f3fe608060405234801561001057600080fd5b50600436106102115760003560e01c806370a0823111610125578063b92bff1b116100ad578063cf68d97e1161007c578063cf68d97e14610490578063d573170a146104a3578063e985e9c5146104c6578063f2fde38b14610502578063fa358de11461051557600080fd5b8063b92bff1b14610434578063bed34bba14610457578063c4d53dea1461046a578063c87b56dd1461047d57600080fd5b80638da5cb5b116100f45780638da5cb5b146103ed57806395d89b41146103fe578063a22cb46514610406578063b8703dc914610419578063b88d4fde1461042157600080fd5b806370a08231146103b6578063715018a6146103c957806371f33b31146103d157806380057b9a146103da57600080fd5b806316d7188f116101a857806330d871c61161017757806330d871c6146103575780633fddfd461461036a57806342842e0e1461037d5780636352211e146103905780636de0d89b146103a357600080fd5b806316d7188f146102e6578063186ce8641461030e5780632124bdb71461033157806323b872dd1461034457600080fd5b8063095ea7b3116101e4578063095ea7b3146102ac5780630b21a83b146102c15780630eca5990146102ca57806312ef6b97146102d357600080fd5b806301ffc9a71461021657806306fdde031461023e578063081812fc146102535780630937542f1461027e575b600080fd5b6102296102243660046122e6565b610539565b60405190151581526020015b60405180910390f35b61024661058b565b6040516102359190612905565b6102666102613660046123fe565b61061d565b6040516001600160a01b039091168152602001610235565b61029e61028c3660046123fe565b600e6020526000908152604090205481565b604051908152602001610235565b6102bf6102ba3660046122bc565b6106b7565b005b61029e60095481565b61029e600c5481565b6102466102e1366004612417565b6107cd565b6102296102f43660046123fe565b6000908152600a6020526040902054610100900460ff1690565b61029e61031c3660046123fe565b6000908152600a602052604090206002015490565b61024661033f366004612417565b610940565b6102bf6103523660046121da565b610b00565b610246610365366004612320565b610b31565b6102bf61037836600461218c565b610bc4565b6102bf61038b3660046121da565b610db0565b61026661039e3660046123fe565b610dcb565b6102466103b1366004612417565b610e42565b61029e6103c436600461218c565b6110b5565b6102bf61113c565b61029e600b5481565b6102466103e83660046123fe565b611172565b6008546001600160a01b0316610266565b610246611217565b6102bf610414366004612292565b611226565b6102466112eb565b6102bf61042f366004612216565b611379565b61029e6104423660046123fe565b6000908152600a602052604090206001015490565b610229610465366004612355565b6113b2565b6102466104783660046123b9565b61140b565b61024661048b3660046123fe565b6114ba565b6102bf61049e36600461243a565b611567565b6102296104b13660046123fe565b6000908152600a602052604090205460ff1690565b6102296104d43660046121a7565b6001600160a01b03918216600090815260066020908152604080832093909416825291909152205460ff1690565b6102bf61051036600461218c565b61161c565b6105286105233660046123fe565b6116b7565b6040516102359594939291906128cb565b60006001600160e01b031982166380ac58cd60e01b148061056a57506001600160e01b03198216635b5e139f60e01b145b8061058557506301ffc9a760e01b6001600160e01b03198316145b92915050565b60606001805461059a90612ab1565b80601f01602080910402602001604051908101604052809291908181526020018280546105c690612ab1565b80156106135780601f106105e857610100808354040283529160200191610613565b820191906000526020600020905b8154815290600101906020018083116105f657829003601f168201915b5050505050905090565b6000818152600360205260408120546001600160a01b031661069b5760405162461bcd60e51b815260206004820152602c60248201527f4552433732313a20617070726f76656420717565727920666f72206e6f6e657860448201526b34b9ba32b73a103a37b5b2b760a11b60648201526084015b60405180910390fd5b506000908152600560205260409020546001600160a01b031690565b60006106c282610dcb565b9050806001600160a01b0316836001600160a01b031614156107305760405162461bcd60e51b815260206004820152602160248201527f4552433732313a20617070726f76616c20746f2063757272656e74206f776e656044820152603960f91b6064820152608401610692565b336001600160a01b038216148061074c575061074c81336104d4565b6107be5760405162461bcd60e51b815260206004820152603860248201527f4552433732313a20617070726f76652063616c6c6572206973206e6f74206f7760448201527f6e6572206e6f7220617070726f76656420666f7220616c6c00000000000000006064820152608401610692565b6107c88383611773565b505050565b60606000604051806080016040528060608152602001612b60606091396000858152600a60209081526040808320815160a081018352815460ff80821615158352610100909104161515938101939093526001810154918301919091526002810154606083015260038101805494955092939192909160808401919061085290612ab1565b80601f016020809104026020016040519081016040528092919081815260200182805461087e90612ab1565b80156108cb5780601f106108a0576101008083540402835291602001916108cb565b820191906000526020600020905b8154815290600101906020018083116108ae57829003601f168201915b50505050508152505090506000604051806020016040528060008152509050816020015115610905576108fe8686610940565b9050610913565b610910866000610e42565b90505b828160405160200161092692919061250a565b604051602081830303815290604052935050505092915050565b6000828152600a60209081526040808320815160a081018352815460ff8082161515835261010090910416151593810193909352600181015491830191909152600281015460608381019190915260038201805491949392916080840191906109a890612ab1565b80601f01602080910402602001604051908101604052809291908181526020018280546109d490612ab1565b8015610a215780601f106109f657610100808354040283529160200191610a21565b820191906000526020600020905b815481529060010190602001808311610a0457829003601f168201915b505050919092525050604080516020810190915260008152919250508315610ad157600d8054610a5090612ab1565b80601f0160208091040260200160405190810160405280929190818152602001828054610a7c90612ab1565b8015610ac95780601f10610a9e57610100808354040283529160200191610ac9565b820191906000526020600020905b815481529060010190602001808311610aac57829003601f168201915b505050505090505b6080820151604051610ae79183916020016126e2565b6040516020818303038152906040529250505092915050565b610b0a33826117e1565b610b265760405162461bcd60e51b81526004016106929061299f565b6107c88383836118d4565b606060006040518060400160405280601a81526020017f646174613a696d6167652f7376672b786d6c3b6261736536342c00000000000081525090506000610b9784604051602001610b8391906124bf565b604051602081830303815290604052611a74565b90508181604051602001610bac9291906124db565b60405160208183030381529060405292505050919050565b6008546001600160a01b03163314610bee5760405162461bcd60e51b81526004016106929061296a565b600980546040805160a08101825260018152600060208083018290528284018290526060830191909152825180840190935293825268677261797363616c6560b81b93820193909352608083015290610c478383611bdc565b6000828152600a6020908152604091829020835181548386015115156101000261ff00199215159290921661ffff19909116171781559183015160018301556060830151600283015560808301518051849392610cab92600385019291019061202a565b5050506000828152600e60205260409020429055610cca8260016129f0565b915060006040518060a00160405280600015158152602001600115158152602001600081526020016000815260200160405180604001604052806005815260200164776869746560d81b8152508152509050610d268484611bdc565b6000838152600a6020908152604091829020835181548386015115156101000261ff00199215159290921661ffff19909116171781559183015160018301556060830151600283015560808301518051849392610d8a92600385019291019061202a565b5050506000838152600e60205260409020429055610da98360016129f0565b5050505050565b6107c883838360405180602001604052806000815250611379565b6000818152600360205260408120546001600160a01b0316806105855760405162461bcd60e51b815260206004820152602960248201527f4552433732313a206f776e657220717565727920666f72206e6f6e657869737460448201526832b73a103a37b5b2b760b91b6064820152608401610692565b6000828152600a60209081526040808320815160a081018352815460ff808216151583526101009091041615159381019390935260018101549183019190915260028101546060838101919091526003820180549194939291608084019190610eaa90612ab1565b80601f0160208091040260200160405190810160405280929190818152602001828054610ed690612ab1565b8015610f235780601f10610ef857610100808354040283529160200191610f23565b820191906000526020600020905b815481529060010190602001808311610f0657829003601f168201915b5050505050815250509050600060405180602001604052806000815250905060008260800151604051602001610f5991906126a6565b60405160208183030381529060405290508415610ffe57600d8054610f7d90612ab1565b80601f0160208091040260200160405190810160405280929190818152602001828054610fa990612ab1565b8015610ff65780601f10610fcb57610100808354040283529160200191610ff6565b820191906000526020600020905b815481529060010190602001808311610fd957829003601f168201915b505050505091505b61102f83608001516040518060400160405280600b81526020016a1d1c985b9cdc185c995b9d60aa1b8152506113b2565b1561106a575060408051808201909152601881527f7374796c653d2766696c6c2d6f7061636974793a20302720000000000000000060208201525b816110788460400151611bfa565b6110858560600151611bfa565b61109c6002600b546110979190612a2d565b611bfa565b8660800151604051602001610926959493929190612769565b60006001600160a01b0382166111205760405162461bcd60e51b815260206004820152602a60248201527f4552433732313a2062616c616e636520717565727920666f7220746865207a65604482015269726f206164647265737360b01b6064820152608401610692565b506001600160a01b031660009081526004602052604090205490565b6008546001600160a01b031633146111665760405162461bcd60e51b81526004016106929061296a565b6111706000611d23565b565b6000818152600a6020526040902060030180546060919061119290612ab1565b80601f01602080910402602001604051908101604052809291908181526020018280546111be90612ab1565b801561120b5780601f106111e05761010080835404028352916020019161120b565b820191906000526020600020905b8154815290600101906020018083116111ee57829003601f168201915b50505050509050919050565b60606002805461059a90612ab1565b6001600160a01b03821633141561127f5760405162461bcd60e51b815260206004820152601960248201527f4552433732313a20617070726f766520746f2063616c6c6572000000000000006044820152606401610692565b3360008181526006602090815260408083206001600160a01b03871680855290835292819020805460ff191686151590811790915590519081529192917f17307eab39ab6107e8899845ad3d59bd9653f200f220920489ca2b5937696c31910160405180910390a35050565b600d80546112f890612ab1565b80601f016020809104026020016040519081016040528092919081815260200182805461132490612ab1565b80156113715780601f1061134657610100808354040283529160200191611371565b820191906000526020600020905b81548152906001019060200180831161135457829003601f168201915b505050505081565b611384335b836117e1565b6113a05760405162461bcd60e51b81526004016106929061299f565b6113ac84848484611d75565b50505050565b6000816040516020016113c591906124bf565b60405160208183030381529060405280519060200120836040516020016113ec91906124bf565b6040516020818303038152906040528051906020012014905092915050565b6000818152600a60205260409020600101546060906114939061142d90611bfa565b6000848152600a602052604090206002015461144890611bfa565b6000858152600a602052604090206001015461146390611bfa565b6000868152600a602052604090206002015461147e90611bfa565b87604051602001610b8395949392919061254a565b6040516020016114a39190612849565b604051602081830303815290604052905092915050565b6000818152600360205260409020546060906001600160a01b03166115395760405162461bcd60e51b815260206004820152602f60248201527f4552433732314d657461646174613a2055524920717565727920666f72206e6f60448201526e3732bc34b9ba32b73a103a37b5b2b760891b6064820152608401610692565b60006115468360006107cd565b9050600061155382610b31565b905061155f818561140b565b949350505050565b6115703361137e565b61158c5760405162461bcd60e51b81526004016106929061299f565b600c546000838152600e602052604090205442916115a9916129f0565b10156115f75760405162461bcd60e51b815260206004820152601d60248201527f54696d652773207570206f6e206368616e67696e6720636f6c6f7273210000006044820152606401610692565b6000828152600a6020908152604090912082516107c89260039092019184019061202a565b6008546001600160a01b031633146116465760405162461bcd60e51b81526004016106929061296a565b6001600160a01b0381166116ab5760405162461bcd60e51b815260206004820152602660248201527f4f776e61626c653a206e6577206f776e657220697320746865207a65726f206160448201526564647265737360d01b6064820152608401610692565b6116b481611d23565b50565b600a60205260009081526040902080546001820154600283015460038401805460ff80861696610100909604169491906116f090612ab1565b80601f016020809104026020016040519081016040528092919081815260200182805461171c90612ab1565b80156117695780601f1061173e57610100808354040283529160200191611769565b820191906000526020600020905b81548152906001019060200180831161174c57829003601f168201915b5050505050905085565b600081815260056020526040902080546001600160a01b0319166001600160a01b03841690811790915581906117a882610dcb565b6001600160a01b03167f8c5be1e5ebec7d5bd14f71427d1e84f3dd0314c0f7b2291e5b200ac8c7c3b92560405160405180910390a45050565b6000818152600360205260408120546001600160a01b031661185a5760405162461bcd60e51b815260206004820152602c60248201527f4552433732313a206f70657261746f7220717565727920666f72206e6f6e657860448201526b34b9ba32b73a103a37b5b2b760a11b6064820152608401610692565b600061186583610dcb565b9050806001600160a01b0316846001600160a01b031614806118a05750836001600160a01b03166118958461061d565b6001600160a01b0316145b8061155f57506001600160a01b0380821660009081526006602090815260408083209388168352929052205460ff1661155f565b826001600160a01b03166118e782610dcb565b6001600160a01b03161461194f5760405162461bcd60e51b815260206004820152602960248201527f4552433732313a207472616e73666572206f6620746f6b656e2074686174206960448201526839903737ba1037bbb760b91b6064820152608401610692565b6001600160a01b0382166119b15760405162461bcd60e51b8152602060048201526024808201527f4552433732313a207472616e7366657220746f20746865207a65726f206164646044820152637265737360e01b6064820152608401610692565b6119bc600082611773565b6001600160a01b03831660009081526004602052604081208054600192906119e5908490612a6e565b90915550506001600160a01b0382166000908152600460205260408120805460019290611a139084906129f0565b909155505060008181526003602052604080822080546001600160a01b0319166001600160a01b0386811691821790925591518493918716917fddf252ad1be2c89b69c2b068fc378daa952ba7f163c4a11628f55a4df523b3ef91a4505050565b6060815160001415611a9457505060408051602081019091526000815290565b6000604051806060016040528060408152602001612bc06040913990506000600384516002611ac391906129f0565b611acd9190612a2d565b611ad8906004612a4f565b90506000611ae78260206129f0565b67ffffffffffffffff811115611aff57611aff612b33565b6040519080825280601f01601f191660200182016040528015611b29576020820181803683370190505b509050818152600183018586518101602084015b81831015611b975760039283018051603f601282901c811687015160f890811b8552600c83901c8216880151811b6001860152600683901c8216880151811b60028601529116860151901b93820193909352600401611b3d565b600389510660018114611bb15760028114611bc257611bce565b613d3d60f01b600119830152611bce565b603d60f81b6000198301525b509398975050505050505050565b611bf6828260405180602001604052806000815250611da8565b5050565b606081611c1e5750506040805180820190915260018152600360fc1b602082015290565b8160005b8115611c485780611c3281612aec565b9150611c419050600a83612a2d565b9150611c22565b60008167ffffffffffffffff811115611c6357611c63612b33565b6040519080825280601f01601f191660200182016040528015611c8d576020820181803683370190505b509050815b8515611d1a57611ca3600182612a6e565b90506000611cb2600a88612a2d565b611cbd90600a612a4f565b611cc79088612a6e565b611cd2906030612a08565b905060008160f81b905080848481518110611cef57611cef612b1d565b60200101906001600160f81b031916908160001a905350611d11600a89612a2d565b97505050611c92565b50949350505050565b600880546001600160a01b038381166001600160a01b0319831681179093556040519116919082907f8be0079c531659141344cd1fd0a4f28419497f9722a3daafe3b4186f6b6457e090600090a35050565b611d808484846118d4565b611d8c84848484611ddb565b6113ac5760405162461bcd60e51b815260040161069290612918565b611db28383611ee8565b611dbf6000848484611ddb565b6107c85760405162461bcd60e51b815260040161069290612918565b60006001600160a01b0384163b15611edd57604051630a85bd0160e11b81526001600160a01b0385169063150b7a0290611e1f90339089908890889060040161288e565b602060405180830381600087803b158015611e3957600080fd5b505af1925050508015611e69575060408051601f3d908101601f19168201909252611e6691810190612303565b60015b611ec3573d808015611e97576040519150601f19603f3d011682016040523d82523d6000602084013e611e9c565b606091505b508051611ebb5760405162461bcd60e51b815260040161069290612918565b805181602001fd5b6001600160e01b031916630a85bd0160e11b14905061155f565b506001949350505050565b6001600160a01b038216611f3e5760405162461bcd60e51b815260206004820181905260248201527f4552433732313a206d696e7420746f20746865207a65726f20616464726573736044820152606401610692565b6000818152600360205260409020546001600160a01b031615611fa35760405162461bcd60e51b815260206004820152601c60248201527f4552433732313a20746f6b656e20616c7265616479206d696e746564000000006044820152606401610692565b6001600160a01b0382166000908152600460205260408120805460019290611fcc9084906129f0565b909155505060008181526003602052604080822080546001600160a01b0319166001600160a01b03861690811790915590518392907fddf252ad1be2c89b69c2b068fc378daa952ba7f163c4a11628f55a4df523b3ef908290a45050565b82805461203690612ab1565b90600052602060002090601f016020900481019282612058576000855561209e565b82601f1061207157805160ff191683800117855561209e565b8280016001018555821561209e579182015b8281111561209e578251825591602001919060010190612083565b506120aa9291506120ae565b5090565b5b808211156120aa57600081556001016120af565b600067ffffffffffffffff808411156120de576120de612b33565b604051601f8501601f19908116603f0116810190828211818310171561210657612106612b33565b8160405280935085815286868601111561211f57600080fd5b858560208301376000602087830101525050509392505050565b80356001600160a01b038116811461215057600080fd5b919050565b8035801515811461215057600080fd5b600082601f83011261217657600080fd5b612185838335602085016120c3565b9392505050565b60006020828403121561219e57600080fd5b61218582612139565b600080604083850312156121ba57600080fd5b6121c383612139565b91506121d160208401612139565b90509250929050565b6000806000606084860312156121ef57600080fd5b6121f884612139565b925061220660208501612139565b9150604084013590509250925092565b6000806000806080858703121561222c57600080fd5b61223585612139565b935061224360208601612139565b925060408501359150606085013567ffffffffffffffff81111561226657600080fd5b8501601f8101871361227757600080fd5b612286878235602084016120c3565b91505092959194509250565b600080604083850312156122a557600080fd5b6122ae83612139565b91506121d160208401612155565b600080604083850312156122cf57600080fd5b6122d883612139565b946020939093013593505050565b6000602082840312156122f857600080fd5b813561218581612b49565b60006020828403121561231557600080fd5b815161218581612b49565b60006020828403121561233257600080fd5b813567ffffffffffffffff81111561234957600080fd5b61155f84828501612165565b6000806040838503121561236857600080fd5b823567ffffffffffffffff8082111561238057600080fd5b61238c86838701612165565b935060208501359150808211156123a257600080fd5b506123af85828601612165565b9150509250929050565b600080604083850312156123cc57600080fd5b823567ffffffffffffffff8111156123e357600080fd5b6123ef85828601612165565b95602094909401359450505050565b60006020828403121561241057600080fd5b5035919050565b6000806040838503121561242a57600080fd5b823591506121d160208401612155565b6000806040838503121561244d57600080fd5b82359150602083013567ffffffffffffffff81111561246b57600080fd5b6123af85828601612165565b6000815180845261248f816020860160208601612a85565b601f01601f19169290920160200192915050565b600081516124b5818560208601612a85565b9290920192915050565b600082516124d1818460208701612a85565b9190910192915050565b600083516124ed818460208801612a85565b835190830190612501818360208801612a85565b01949350505050565b6000835161251c818460208801612a85565b835190830190612530818360208801612a85565b651e17b9bb339f60d11b9101908152600601949350505050565b683d913730b6b2911d1160b91b8152855160009061256f816009850160208b01612a85565b61016160f51b600991840191820152865161259181600b840160208b01612a85565b7f222c20226465736372697074696f6e223a224120506978656c20666f7220616e600b92909101918201527f204e46546174222c202261747472696275746573223a205b7b2274726169745f602b8201527f74797065223a2022786c6f636174696f6e222c202276616c7565223a20000000604b820152855161261b816068840160208a01612a85565b7f7d2c207b2274726169745f74797065223a2022796c6f636174696f6e222c2022606892909101918201526703b30b63ab2911d160c51b608882015261269a61268c61268661266d60908501896124a3565b6c3eae96101134b6b0b3b2911d1160991b8152600d0190565b866124a3565b61227d60f01b815260020190565b98975050505050505050565b67272066696c6c3d2760c01b8152600082516126c9816008850160208701612a85565b61013960f51b6008939091019283015250600a01919050565b6701e31b4b931b632960c51b815260008351612705816008850160208801612a85565b7f2063783d27343530272063793d273435302720723d27343530272066696c6c3d600891840191820152602760f81b6028820152835161274c816029840160208801612a85565b631390179f60e11b60299290910191820152602d01949350505050565b6701e31b4b931b632960c51b815260008651602061278d8260088601838c01612a85565b642063783d2760d81b60089285019283015287516127b181600d8501848c01612a85565b65272063793d2760d01b600d939091019283015286516127d78160138501848b01612a85565b642720723d2760d81b6013939091019283015285516127fc8160188501848a01612a85565b67272066696c6c3d2760c01b60189390910192830152845161282381838501848901612a85565b61283b8282850101631390179f60e11b815260040190565b9a9950505050505050505050565b7f646174613a6170706c69636174696f6e2f6a736f6e3b6261736536342c00000081526000825161288181601d850160208701612a85565b91909101601d0192915050565b6001600160a01b03858116825284166020820152604081018390526080606082018190526000906128c190830184612477565b9695505050505050565b8515158152841515602082015283604082015282606082015260a0608082015260006128fa60a0830184612477565b979650505050505050565b6020815260006121856020830184612477565b60208082526032908201527f4552433732313a207472616e7366657220746f206e6f6e20455243373231526560408201527131b2b4bb32b91034b6b83632b6b2b73a32b960711b606082015260800190565b6020808252818101527f4f776e61626c653a2063616c6c6572206973206e6f7420746865206f776e6572604082015260600190565b60208082526031908201527f4552433732313a207472616e736665722063616c6c6572206973206e6f74206f6040820152701ddb995c881b9bdc88185c1c1c9bdd9959607a1b606082015260800190565b60008219821115612a0357612a03612b07565b500190565b600060ff821660ff84168060ff03821115612a2557612a25612b07565b019392505050565b600082612a4a57634e487b7160e01b600052601260045260246000fd5b500490565b6000816000190483118215151615612a6957612a69612b07565b500290565b600082821015612a8057612a80612b07565b500390565b60005b83811015612aa0578181015183820152602001612a88565b838111156113ac5750506000910152565b600181811c90821680612ac557607f821691505b60208210811415612ae657634e487b7160e01b600052602260045260246000fd5b50919050565b6000600019821415612b0057612b00612b07565b5060010190565b634e487b7160e01b600052601160045260246000fd5b634e487b7160e01b600052603260045260246000fd5b634e487b7160e01b600052604160045260246000fd5b6001600160e01b0319811681146116b457600080fdfe3c73766720786d6c6e733d27687474703a2f2f7777772e77332e6f72672f323030302f73766727206865696768743d27393030272077696474683d2739303027207374796c653d276261636b67726f756e642d636f6c6f723a626c61636b273e4142434445464748494a4b4c4d4e4f505152535455565758595a6162636465666768696a6b6c6d6e6f707172737475767778797a303132333435363738392b2fa26469706673582212203dd764dc1292554d873ff3b6d248b136b623cab3b3474683cc513b65d914136364736f6c63430008070033","bytecodeSha1":"e7a29a4b2d7e70e616ac4a9e43f749ba79b609b2","type":"contract","abi":[{"inputs":[{"internalType":"uint256","name":"_timeInterval","type":"uint256"}],"stateMutability":"nonpayable","type":"constructor","name":"constructor"},{"anonymous":false,"inputs":[{"indexed":true,"internalType":"address","name":"owner","type":"address"},{"indexed":true,"internalType":"address","name":"approved","type":"address"},{"indexed":true,"internalType":"uint256","name":"tokenId","type":"uint256"}],"name":"Approval","type":"event"},{"anonymous":false,"inputs":[{"indexed":true,"internalType":"address","name":"owner","type":"address"},{"indexed":true,"internalType":"address","name":"operator","type":"address"},{"indexed":false,"internalType":"bool","name":"approved","type":"bool"}],"name":"ApprovalForAll","type":"event"},{"anonymous":false,"inputs":[{"indexed":true,"internalType":"address","name":"previousOwner","type":"address"},{"indexed":true,"internalType":"address","name":"newOwner","type":"address"}],"name":"OwnershipTransferred","type":"event"},{"anonymous":false,"inputs":[{"indexed":true,"internalType":"address","name":"from","type":"address"},{"indexed":true,"internalType":"address","name":"to","type":"address"},{"indexed":true,"internalType":"uint256","name":"tokenId","type":"uint256"}],"name":"Transfer","type":"event"},{"inputs":[{"internalType":"address","name":"to","type":"address"},{"internalType":"uint256","name":"tokenId","type":"uint256"}],"name":"approve","outputs":[],"stateMutability":"nonpayable","type":"function"},{"inputs":[{"internalType":"address","name":"owner","type":"address"}],"name":"balanceOf","outputs":[{"internalType":"uint256","name":"","type":"uint256"}],"stateMutability":"view","type":"function"},{"inputs":[{"internalType":"uint256","name":"tokenId","type":"uint256"},{"internalType":"string","name":"color","type":"string"}],"name":"changeColor","outputs":[],"stateMutability":"nonpayable","type":"function"},{"inputs":[{"internalType":"string","name":"a","type":"string"},{"internalType":"string","name":"b","type":"string"}],"name":"compareStrings","outputs":[{"internalType":"bool","name":"","type":"bool"}],"stateMutability":"pure","type":"function"},{"inputs":[{"internalType":"string","name":"imageURI","type":"string"},{"internalType":"uint256","name":"tokenId","type":"uint256"}],"name":"formatTokenURI","outputs":[{"internalType":"string","name":"","type":"string"}],"stateMutability":"view","type":"function"},{"inputs":[{"internalType":"uint256","name":"tokenId","type":"uint256"}],"name":"getApproved","outputs":[{"internalType":"address","name":"","type":"address"}],"stateMutability":"view","type":"function"},{"inputs":[{"internalType":"uint256","name":"tokenId","type":"uint256"},{"internalType":"bool","name":"isGrayScale","type":"bool"}],"name":"getBaseSVG","outputs":[{"internalType":"string","name":"","type":"string"}],"stateMutability":"view","type":"function"},{"inputs":[{"internalType":"uint256","name":"tokenId","type":"uint256"},{"internalType":"bool","name":"isGrayScale","type":"bool"}],"name":"getBigCircleSVG","outputs":[{"internalType":"string","name":"","type":"string"}],"stateMutability":"view","type":"function"},{"inputs":[{"internalType":"uint256","name":"_tokenId","type":"uint256"}],"name":"getColor","outputs":[{"internalType":"string","name":"","type":"string"}],"stateMutability":"view","type":"function"},{"inputs":[{"internalType":"uint256","name":"_tokenId","type":"uint256"}],"name":"getIsBackground","outputs":[{"internalType":"bool","name":"","type":"bool"}],"stateMutability":"view","type":"function"},{"inputs":[{"internalType":"uint256","name":"_tokenId","type":"uint256"}],"name":"getIsBaseCircle","outputs":[{"internalType":"bool","name":"","type":"bool"}],"stateMutability":"view","type":"function"},{"inputs":[{"internalType":"uint256","name":"tokenId","type":"uint256"},{"internalType":"bool","name":"isGrayScale","type":"bool"}],"name":"getSVG","outputs":[{"internalType":"string","name":"","type":"string"}],"stateMutability":"view","type":"function"},{"inputs":[{"internalType":"uint256","name":"_tokenId","type":"uint256"}],"name":"getXlocation","outputs":[{"internalType":"uint256","name":"","type":"uint256"}],"stateMutability":"view","type":"function"},{"inputs":[{"internalType":"uint256","name":"_tokenId","type":"uint256"}],"name":"getYlocation","outputs":[{"internalType":"uint256","name":"","type":"uint256"}],"stateMutability":"view","type":"function"},{"inputs":[{"internalType":"address","name":"owner","type":"address"},{"internalType":"address","name":"operator","type":"address"}],"name":"isApprovedForAll","outputs":[{"internalType":"bool","name":"","type":"bool"}],"stateMutability":"view","type":"function"},{"inputs":[{"internalType":"address","name":"nftOwner","type":"address"}],"name":"mintSet","outputs":[],"stateMutability":"nonpayable","type":"function"},{"inputs":[],"name":"name","outputs":[{"internalType":"string","name":"","type":"string"}],"stateMutability":"view","type":"function"},{"inputs":[],"name":"owner","outputs":[{"internalType":"address","name":"","type":"address"}],"stateMutability":"view","type":"function"},{"inputs":[{"internalType":"uint256","name":"tokenId","type":"uint256"}],"name":"ownerOf","outputs":[{"internalType":"address","name":"","type":"address"}],"stateMutability":"view","type":"function"},{"inputs":[],"name":"renounceOwnership","outputs":[],"stateMutability":"nonpayable","type":"function"},{"inputs":[],"name":"s_grayScaleFilter","outputs":[{"internalType":"string","name":"","type":"string"}],"stateMutability":"view","type":"function"},{"inputs":[],"name":"s_pixelInterval","outputs":[{"internalType":"uint256","name":"","type":"uint256"}],"stateMutability":"view","type":"function"},{"inputs":[],"name":"s_timeInterval","outputs":[{"internalType":"uint256","name":"","type":"uint256"}],"stateMutability":"view","type":"function"},{"inputs":[],"name":"s_tokenCounter","outputs":[{"internalType":"uint256","name":"","type":"uint256"}],"stateMutability":"view","type":"function"},{"inputs":[{"internalType":"uint256","name":"","type":"uint256"}],"name":"s_tokenIdToPixel","outputs":[{"internalType":"bool","name":"isBackground","type":"bool"},{"internalType":"bool","name":"isBaseCircle","type":"bool"},{"internalType":"uint256","name":"xlocation","type":"uint256"},{"internalType":"uint256","name":"ylocation","type":"uint256"},{"internalType":"string","name":"color","type":"string"}],"stateMutability":"view","type":"function"},{"inputs":[{"internalType":"uint256","name":"","type":"uint256"}],"name":"s_tokenIdToStartTime","outputs":[{"internalType":"uint256","name":"","type":"uint256"}],"stateMutability":"view","type":"function"},{"inputs":[{"internalType":"address","name":"from","type":"address"},{"internalType":"address","name":"to","type":"address"},{"internalType":"uint256","name":"tokenId","type":"uint256"}],"name":"safeTransferFrom","outputs":[],"stateMutability":"nonpayable","type":"function"},{"inputs":[{"internalType":"address","name":"from","type":"address"},{"internalType":"address","name":"to","type":"address"},{"internalType":"uint256","name":"tokenId","type":"uint256"},{"internalType":"bytes","name":"_data","type":"bytes"}],"name":"safeTransferFrom","outputs":[],"stateMutability":"nonpayable","type":"function"},{"inputs":[{"internalType":"address","name":"operator","type":"address"},{"internalType":"bool","name":"approved","type":"bool"}],"name":"setApprovalForAll","outputs":[],"stateMutability":"nonpayable","type":"function"},{"inputs":[{"internalType":"bytes4","name":"interfaceId","type":"bytes4"}],"name":"supportsInterface","outputs":[{"internalType":"bool","name":"","type":"bool"}],"stateMutability":"view","type":"function"},{"inputs":[{"internalType":"string","name":"svg","type":"string"}],"name":"svgToImageURI","outputs":[{"internalType":"string","name":"","type":"string"}],"stateMutability":"pure","type":"function"},{"inputs":[],"name":"symbol","outputs":[{"internalType":"string","name":"","type":"string"}],"stateMutability":"view","type":"function"},{"inputs":[{"internalType":"uint256","name":"tokenId","type":"uint256"}],"name":"tokenURI","outputs":[{"internalType":"string","name":"","type":"string"}],"stateMutability":"view","type":"function"},{"inputs":[{"internalType":"address","name":"from","type":"address"},{"internalType":"address","name":"to","type":"address"},{"internalType":"uint256","name":"tokenId","type":"uint256"}],"name":"transferFrom","outputs":[],"stateMutability":"nonpayable","type":"function"},{"inputs":[{"internalType":"address","name":"newOwner","type":"address"}],"name":"transferOwnership","outputs":[],"stateMutability":"nonpayable","type":"function"}],"compiler":{"version":"0.8.7+commit.e28d00a7","evm_version":"istanbul","optimizer":{"enabled":true,"runs":200}},"contractName":"NFTatPixel","language":"Solidity","natspec":{"methods":{"approve(address,uint256)":{"details":"See {IERC721-approve}."},"balanceOf(address)":{"details":"See {IERC721-balanceOf}."},"getApproved(uint256)":{"details":"See {IERC721-getApproved}."},"isApprovedForAll(address,address)":{"details":"See {IERC721-isApprovedForAll}."},"name()":{"details":"See {IERC721Metadata-name}."},"owner()":{"details":"Returns the address of the current owner."},"ownerOf(uint256)":{"details":"See {IERC721-ownerOf}."},"renounceOwnership()":{"details":"Leaves the contract without owner. It will not be possible to call `onlyOwner` functions anymore. Can only be called by the current owner. NOTE: Renouncing ownership will leave the contract without an owner, thereby removing any functionality that is only available to the owner."},"safeTransferFrom(address,address,uint256)":{"details":"See {IERC721-safeTransferFrom}."},"safeTransferFrom(address,address,uint256,bytes)":{"details":"See {IERC721-safeTransferFrom}."},"setApprovalForAll(address,bool)":{"details":"See {IERC721-setApprovalForAll}."},"supportsInterface(bytes4)":{"details":"See {IERC165-supportsInterface}."},"symbol()":{"details":"See {IERC721Metadata-symbol}."},"tokenURI(uint256)":{"details":"See {IERC721Metadata-tokenURI}."},"transferFrom(address,address,uint256)":{"details":"See {IERC721-transferFrom}."},"transferOwnership(address)":{"details":"Transfers ownership of the contract to a new account (`newOwner`). Can only be called by the current owner."}},"kind":"dev","version":1},"opcodes":"PUSH1 0x80 PUSH1 0x40 MSTORE CALLVALUE DUP1 ISZERO PUSH2 0x10 JUMPI PUSH1 0x0 DUP1 REVERT JUMPDEST POP PUSH1 0x4 CALLDATASIZE LT PUSH2 0x211 JUMPI PUSH1 0x0 CALLDATALOAD PUSH1 0xE0 SHR DUP1 PUSH4 0x70A08231 GT PUSH2 0x125 JUMPI DUP1 PUSH4 0xB92BFF1B GT PUSH2 0xAD JUMPI DUP1 PUSH4 0xCF68D97E GT PUSH2 0x7C JUMPI DUP1 PUSH4 0xCF68D97E EQ PUSH2 0x490 JUMPI DUP1 PUSH4 0xD573170A EQ PUSH2 0x4A3 JUMPI DUP1 PUSH4 0xE985E9C5 EQ PUSH2 0x4C6 JUMPI DUP1 PUSH4 0xF2FDE38B EQ PUSH2 0x502 JUMPI DUP1 PUSH4 0xFA358DE1 EQ PUSH2 0x515 JUMPI PUSH1 0x0 DUP1 REVERT JUMPDEST DUP1 PUSH4 0xB92BFF1B EQ PUSH2 0x434 JUMPI DUP1 PUSH4 0xBED34BBA EQ PUSH2 0x457 JUMPI DUP1 PUSH4 0xC4D53DEA EQ PUSH2 0x46A JUMPI DUP1 PUSH4 0xC87B56DD EQ PUSH2 0x47D JUMPI PUSH1 0x0 DUP1 REVERT JUMPDEST DUP1 PUSH4 0x8DA5CB5B GT PUSH2 0xF4 JUMPI DUP1 PUSH4 0x8DA5CB5B EQ PUSH2 0x3ED JUMPI DUP1 PUSH4 0x95D89B41 EQ PUSH2 0x3FE JUMPI DUP1 PUSH4 0xA22CB465 EQ PUSH2 0x406 JUMPI DUP1 PUSH4 0xB8703DC9 EQ PUSH2 0x419 JUMPI DUP1 PUSH4 0xB88D4FDE EQ PUSH2 0x421 JUMPI PUSH1 0x0 DUP1 REVERT JUMPDEST DUP1 PUSH4 0x70A08231 EQ PUSH2 0x3B6 JUMPI DUP1 PUSH4 0x715018A6 EQ PUSH2 0x3C9 JUMPI DUP1 PUSH4 0x71F33B31 EQ PUSH2 0x3D1 JUMPI DUP1 PUSH4 0x80057B9A EQ PUSH2 0x3DA JUMPI PUSH1 0x0 DUP1 REVERT JUMPDEST DUP1 PUSH4 0x16D7188F GT PUSH2 0x1A8 JUMPI DUP1 PUSH4 0x30D871C6 GT PUSH2 0x177 JUMPI DUP1 PUSH4 0x30D871C6 EQ PUSH2 0x357 JUMPI DUP1 PUSH4 0x3FDDFD46 EQ PUSH2 0x36A JUMPI DUP1 PUSH4 0x42842E0E EQ PUSH2 0x37D JUMPI DUP1 PUSH4 0x6352211E EQ PUSH2 0x390 JUMPI DUP1 PUSH4 0x6DE0D89B EQ PUSH2 0x3A3 JUMPI PUSH1 0x0 DUP1 REVERT JUMPDEST DUP1 PUSH4 0x16D7188F EQ PUSH2 0x2E6 JUMPI DUP1 PUSH4 0x186CE864 EQ PUSH2 0x30E JUMPI DUP1 PUSH4 0x2124BDB7 EQ PUSH2 0x331 JUMPI DUP1 PUSH4 0x23B872DD EQ PUSH2 0x344 JUMPI PUSH1 0x0 DUP1 REVERT JUMPDEST DUP1 PUSH4 0x95EA7B3 GT PUSH2 0x1E4 JUMPI DUP1 PUSH4 0x95EA7B3 EQ PUSH2 0x2AC JUMPI DUP1 PUSH4 0xB21A83B EQ PUSH2 0x2C1 JUMPI DUP1 PUSH4 0xECA5990 EQ PUSH2 0x2CA JUMPI DUP1 PUSH4 0x12EF6B97 EQ PUSH2 0x2D3 JUMPI PUSH1 0x0 DUP1 REVERT JUMPDEST DUP1 PUSH4 0x1FFC9A7 EQ PUSH2 0x216 JUMPI DUP1 PUSH4 0x6FDDE03 EQ PUSH2 0x23E JUMPI DUP1 PUSH4 0x81812FC EQ PUSH2 0x253 JUMPI DUP1 PUSH4 0x937542F EQ PUSH2 0x27E JUMPI JUMPDEST PUSH1 0x0 DUP1 REVERT JUMPDEST PUSH2 0x229 PUSH2 0x224 CALLDATASIZE PUSH1 0x4 PUSH2 0x22E6 JUMP JUMPDEST PUSH2 0x539 JUMP JUMPDEST PUSH1 0x40 MLOAD SWAP1 ISZERO ISZERO DUP2 MSTORE PUSH1 0x20 ADD JUMPDEST PUSH1 0x40 MLOAD DUP1 SWAP2 SUB SWAP1 RETURN JUMPDEST PUSH2 0x246 PUSH2 0x58B JUMP JUMPDEST PUSH1 0x40 MLOAD PUSH2 0x235 SWAP2 SWAP1 PUSH2 0x2905 JUMP JUMPDEST PUSH2 0x266 PUSH2 0x261 CALLDATASIZE PUSH1 0x4 PUSH2 0x23FE JUMP JUMPDEST PUSH2 0x61D JUMP JUMPDEST PUSH1 0x40 MLOAD PUSH1 0x1 PUSH1 0x1 PUSH1 0xA0 SHL SUB SWAP1 SWAP2 AND DUP2 MSTORE PUSH1 0x20 ADD PUSH2 0x235 JUMP JUMPDEST PUSH2 0x29E PUSH2 0x28C CALLDATASIZE PUSH1 0x4 PUSH2 0x23FE JUMP JUMPDEST PUSH1 0xE PUSH1 0x20 MSTORE PUSH1 0x0 SWAP1 DUP2 MSTORE PUSH1 0x40 SWAP1 KECCAK256 SLOAD DUP2 JUMP JUMPDEST PUSH1 0x40 MLOAD SWAP1 DUP2 MSTORE PUSH1 0x20 ADD PUSH2 0x235 JUMP JUMPDEST PUSH2 0x2BF PUSH2 0x2BA CALLDATASIZE PUSH1 0x4 PUSH2 0x22BC JUMP JUMPDEST PUSH2 0x6B7 JUMP JUMPDEST STOP JUMPDEST PUSH2 0x29E PUSH1 0x9 SLOAD DUP2 JUMP JUMPDEST PUSH2 0x29E PUSH1 0xC SLOAD DUP2 JUMP JUMPDEST PUSH2 0x246 PUSH2 0x2E1 CALLDATASIZE PUSH1 0x4 PUSH2 0x2417 JUMP JUMPDEST PUSH2 0x7CD JUMP JUMPDEST PUSH2 0x229 PUSH2 0x2F4 CALLDATASIZE PUSH1 0x4 PUSH2 0x23FE JUMP JUMPDEST PUSH1 0x0 SWAP1 DUP2 MSTORE PUSH1 0xA PUSH1 0x20 MSTORE PUSH1 0x40 SWAP1 KECCAK256 SLOAD PUSH2 0x100 SWAP1 DIV PUSH1 0xFF AND SWAP1 JUMP JUMPDEST PUSH2 0x29E PUSH2 0x31C CALLDATASIZE PUSH1 0x4 PUSH2 0x23FE JUMP JUMPDEST PUSH1 0x0 SWAP1 DUP2 MSTORE PUSH1 0xA PUSH1 0x20 MSTORE PUSH1 0x40 SWAP1 KECCAK256 PUSH1 0x2 ADD SLOAD SWAP1 JUMP JUMPDEST PUSH2 0x246 PUSH2 0x33F CALLDATASIZE PUSH1 0x4 PUSH2 0x2417 JUMP JUMPDEST PUSH2 0x940 JUMP JUMPDEST PUSH2 0x2BF PUSH2 0x352 CALLDATASIZE PUSH1 0x4 PUSH2 0x21DA JUMP JUMPDEST PUSH2 0xB00 JUMP JUMPDEST PUSH2 0x246 PUSH2 0x365 CALLDATASIZE PUSH1 0x4 PUSH2 0x2320 JUMP JUMPDEST PUSH2 0xB31 JUMP JUMPDEST PUSH2 0x2BF PUSH2 0x378 CALLDATASIZE PUSH1 0x4 PUSH2 0x218C JUMP JUMPDEST PUSH2 0xBC4 JUMP JUMPDEST PUSH2 0x2BF PUSH2 0x38B CALLDATASIZE PUSH1 0x4 PUSH2 0x21DA JUMP JUMPDEST PUSH2 0xDB0 JUMP JUMPDEST PUSH2 0x266 PUSH2 0x39E CALLDATASIZE PUSH1 0x4 PUSH2 0x23FE JUMP JUMPDEST PUSH2 0xDCB JUMP JUMPDEST PUSH2 0x246 PUSH2 0x3B1 CALLDATASIZE PUSH1 0x4 PUSH2 0x2417 JUMP JUMPDEST PUSH2 0xE42 JUMP JUMPDEST PUSH2 0x29E PUSH2 0x3C4 CALLDATASIZE PUSH1 0x4 PUSH2 0x218C JUMP JUMPDEST PUSH2 0x10B5 JUMP JUMPDEST PUSH2 0x2BF PUSH2 0x113C JUMP JUMPDEST PUSH2 0x29E PUSH1 0xB SLOAD DUP2 JUMP JUMPDEST PUSH2 0x246 PUSH2 0x3E8 CALLDATASIZE PUSH1 0x4 PUSH2 0x23FE JUMP JUMPDEST PUSH2 0x1172 JUMP JUMPDEST PUSH1 0x8 SLOAD PUSH1 0x1 PUSH1 0x1 PUSH1 0xA0 SHL SUB AND PUSH2 0x266 JUMP JUMPDEST PUSH2 0x246 PUSH2 0x1217 JUMP JUMPDEST PUSH2 0x2BF PUSH2 0x414 CALLDATASIZE PUSH1 0x4 PUSH2 0x2292 JUMP JUMPDEST PUSH2 0x1226 JUMP JUMPDEST PUSH2 0x246 PUSH2 0x12EB JUMP JUMPDEST PUSH2 0x2BF PUSH2 0x42F CALLDATASIZE PUSH1 0x4 PUSH2 0x2216 JUMP JUMPDEST PUSH2 0x1379 JUMP JUMPDEST PUSH2 0x29E PUSH2 0x442 CALLDATASIZE PUSH1 0x4 PUSH2 0x23FE JUMP JUMPDEST PUSH1 0x0 SWAP1 DUP2 MSTORE PUSH1 0xA PUSH1 0x20 MSTORE PUSH1 0x40 SWAP1 KECCAK256 PUSH1 0x1 ADD SLOAD SWAP1 JUMP JUMPDEST PUSH2 0x229 PUSH2 0x465 CALLDATASIZE PUSH1 0x4 PUSH2 0x2355 JUMP JUMPDEST PUSH2 0x13B2 JUMP JUMPDEST PUSH2 0x246 PUSH2 0x478 CALLDATASIZE PUSH1 0x4 PUSH2 0x23B9 JUMP JUMPDEST PUSH2 0x140B JUMP JUMPDEST PUSH2 0x246 PUSH2 0x48B CALLDATASIZE PUSH1 0x4 PUSH2 0x23FE JUMP JUMPDEST PUSH2 0x14BA JUMP JUMPDEST PUSH2 0x2BF PUSH2 0x49E CALLDATASIZE PUSH1 0x4 PUSH2 0x243A JUMP JUMPDEST PUSH2 0x1567 JUMP JUMPDEST PUSH2 0x229 PUSH2 0x4B1 CALLDATASIZE PUSH1 0x4 PUSH2 0x23FE JUMP JUMPDEST PUSH1 0x0 SWAP1 DUP2 MSTORE PUSH1 0xA PUSH1 0x20 MSTORE PUSH1 0x40 SWAP1 KECCAK256 SLOAD PUSH1 0xFF AND SWAP1 JUMP JUMPDEST PUSH2 0x229 PUSH2 0x4D4 CALLDATASIZE PUSH1 0x4 PUSH2 0x21A7 JUMP JUMPDEST PUSH1 0x1 PUSH1 0x1 PUSH1 0xA0 SHL SUB SWAP2 DUP3 AND PUSH1 0x0 SWAP1 DUP2 MSTORE PUSH1 0x6 PUSH1 0x20 SWAP1 DUP2 MSTORE PUSH1 0x40 DUP1 DUP4 KECCAK256 SWAP4 SWAP1 SWAP5 AND DUP3 MSTORE SWAP2 SWAP1 SWAP2 MSTORE KECCAK256 SLOAD PUSH1 0xFF AND SWAP1 JUMP JUMPDEST PUSH2 0x2BF PUSH2 0x510 CALLDATASIZE PUSH1 0x4 PUSH2 0x218C JUMP JUMPDEST PUSH2 0x161C JUMP JUMPDEST PUSH2 0x528 PUSH2 0x523 CALLDATASIZE PUSH1 0x4 PUSH2 0x23FE JUMP JUMPDEST PUSH2 0x16B7 JUMP JUMPDEST PUSH1 0x40 MLOAD PUSH2 0x235 SWAP6 SWAP5 SWAP4 SWAP3 SWAP2 SWAP1 PUSH2 0x28CB JUMP JUMPDEST PUSH1 0x0 PUSH1 0x1 PUSH1 0x1 PUSH1 0xE0 SHL SUB NOT DUP3 AND PUSH4 0x80AC58CD PUSH1 0xE0 SHL EQ DUP1 PUSH2 0x56A JUMPI POP PUSH1 0x1 PUSH1 0x1 PUSH1 0xE0 SHL SUB NOT DUP3 AND PUSH4 0x5B5E139F PUSH1 0xE0 SHL EQ JUMPDEST DUP1 PUSH2 0x585 JUMPI POP PUSH4 0x1FFC9A7 PUSH1 0xE0 SHL PUSH1 0x1 PUSH1 0x1 PUSH1 0xE0 SHL SUB NOT DUP4 AND EQ JUMPDEST SWAP3 SWAP2 POP POP JUMP JUMPDEST PUSH1 0x60 PUSH1 0x1 DUP1 SLOAD PUSH2 0x59A SWAP1 PUSH2 0x2AB1 JUMP JUMPDEST DUP1 PUSH1 0x1F ADD PUSH1 0x20 DUP1 SWAP2 DIV MUL PUSH1 0x20 ADD PUSH1 0x40 MLOAD SWAP1 DUP2 ADD PUSH1 0x40 MSTORE DUP1 SWAP3 SWAP2 SWAP1 DUP2 DUP2 MSTORE PUSH1 0x20 ADD DUP3 DUP1 SLOAD PUSH2 0x5C6 SWAP1 PUSH2 0x2AB1 JUMP JUMPDEST DUP1 ISZERO PUSH2 0x613 JUMPI DUP1 PUSH1 0x1F LT PUSH2 0x5E8 JUMPI PUSH2 0x100 DUP1 DUP4 SLOAD DIV MUL DUP4 MSTORE SWAP2 PUSH1 0x20 ADD SWAP2 PUSH2 0x613 JUMP JUMPDEST DUP3 ADD SWAP2 SWAP1 PUSH1 0x0 MSTORE PUSH1 0x20 PUSH1 0x0 KECCAK256 SWAP1 JUMPDEST DUP2 SLOAD DUP2 MSTORE SWAP1 PUSH1 0x1 ADD SWAP1 PUSH1 0x20 ADD DUP1 DUP4 GT PUSH2 0x5F6 JUMPI DUP3 SWAP1 SUB PUSH1 0x1F AND DUP3 ADD SWAP2 JUMPDEST POP POP POP POP POP SWAP1 POP SWAP1 JUMP JUMPDEST PUSH1 0x0 DUP2 DUP2 MSTORE PUSH1 0x3 PUSH1 0x20 MSTORE PUSH1 0x40 DUP2 KECCAK256 SLOAD PUSH1 0x1 PUSH1 0x1 PUSH1 0xA0 SHL SUB AND PUSH2 0x69B JUMPI PUSH1 0x40 MLOAD PUSH3 0x461BCD PUSH1 0xE5 SHL DUP2 MSTORE PUSH1 0x20 PUSH1 0x4 DUP3 ADD MSTORE PUSH1 0x2C PUSH1 0x24 DUP3 ADD MSTORE PUSH32 0x4552433732313A20617070726F76656420717565727920666F72206E6F6E6578 PUSH1 0x44 DUP3 ADD MSTORE PUSH12 0x34B9BA32B73A103A37B5B2B7 PUSH1 0xA1 SHL PUSH1 0x64 DUP3 ADD MSTORE PUSH1 0x84 ADD JUMPDEST PUSH1 0x40 MLOAD DUP1 SWAP2 SUB SWAP1 REVERT JUMPDEST POP PUSH1 0x0 SWAP1 DUP2 MSTORE PUSH1 0x5 PUSH1 0x20 MSTORE PUSH1 0x40 SWAP1 KECCAK256 SLOAD PUSH1 0x1 PUSH1 0x1 PUSH1 0xA0 SHL SUB AND SWAP1 JUMP JUMPDEST PUSH1 0x0 PUSH2 0x6C2 DUP3 PUSH2 0xDCB JUMP JUMPDEST SWAP1 POP DUP1 PUSH1 0x1 PUSH1 0x1 PUSH1 0xA0 SHL SUB AND DUP4 PUSH1 0x1 PUSH1 0x1 PUSH1 0xA0 SHL SUB AND EQ ISZERO PUSH2 0x730 JUMPI PUSH1 0x40 MLOAD PUSH3 0x461BCD PUSH1 0xE5 SHL DUP2 MSTORE PUSH1 0x20 PUSH1 0x4 DUP3 ADD MSTORE PUSH1 0x21 PUSH1 0x24 DUP3 ADD MSTORE PUSH32 0x4552433732313A20617070726F76616C20746F2063757272656E74206F776E65 PUSH1 0x44 DUP3 ADD MSTORE PUSH1 0x39 PUSH1 0xF9 SHL PUSH1 0x64 DUP3 ADD MSTORE PUSH1 0x84 ADD PUSH2 0x692 JUMP JUMPDEST CALLER PUSH1 0x1 PUSH1 0x1 PUSH1 0xA0 SHL SUB DUP3 AND EQ DUP1 PUSH2 0x74C JUMPI POP PUSH2 0x74C DUP2 CALLER PUSH2 0x4D4 JUMP JUMPDEST PUSH2 0x7BE JUMPI PUSH1 0x40 MLOAD PUSH3 0x461BCD PUSH1 0xE5 SHL DUP2 MSTORE PUSH1 0x20 PUSH1 0x4 DUP3 ADD MSTORE PUSH1 0x38 PUSH1 0x24 DUP3 ADD MSTORE PUSH32 0x4552433732313A20617070726F76652063616C6C6572206973206E6F74206F77 PUSH1 0x44 DUP3 ADD MSTORE PUSH32 0x6E6572206E6F7220617070726F76656420666F7220616C6C0000000000000000 PUSH1 0x64 DUP3 ADD MSTORE PUSH1 0x84 ADD PUSH2 0x692 JUMP JUMPDEST PUSH2 0x7C8 DUP4 DUP4 PUSH2 0x1773 JUMP JUMPDEST POP POP POP JUMP JUMPDEST PUSH1 0x60 PUSH1 0x0 PUSH1 0x40 MLOAD DUP1 PUSH1 0x80 ADD PUSH1 0x40 MSTORE DUP1 PUSH1 0x60 DUP2 MSTORE PUSH1 0x20 ADD PUSH2 0x2B60 PUSH1 0x60 SWAP2 CODECOPY PUSH1 0x0 DUP6 DUP2 MSTORE PUSH1 0xA PUSH1 0x20 SWAP1 DUP2 MSTORE PUSH1 0x40 DUP1 DUP4 KECCAK256 DUP2 MLOAD PUSH1 0xA0 DUP2 ADD DUP4 MSTORE DUP2 SLOAD PUSH1 0xFF DUP1 DUP3 AND ISZERO ISZERO DUP4 MSTORE PUSH2 0x100 SWAP1 SWAP2 DIV AND ISZERO ISZERO SWAP4 DUP2 ADD SWAP4 SWAP1 SWAP4 MSTORE PUSH1 0x1 DUP2 ADD SLOAD SWAP2 DUP4 ADD SWAP2 SWAP1 SWAP2 MSTORE PUSH1 0x2 DUP2 ADD SLOAD PUSH1 0x60 DUP4 ADD MSTORE PUSH1 0x3 DUP2 ADD DUP1 SLOAD SWAP5 SWAP6 POP SWAP3 SWAP4 SWAP2 SWAP3 SWAP1 SWAP2 PUSH1 0x80 DUP5 ADD SWAP2 SWAP1 PUSH2 0x852 SWAP1 PUSH2 0x2AB1 JUMP JUMPDEST DUP1 PUSH1 0x1F ADD PUSH1 0x20 DUP1 SWAP2 DIV MUL PUSH1 0x20 ADD PUSH1 0x40 MLOAD SWAP1 DUP2 ADD PUSH1 0x40 MSTORE DUP1 SWAP3 SWAP2 SWAP1 DUP2 DUP2 MSTORE PUSH1 0x20 ADD DUP3 DUP1 SLOAD PUSH2 0x87E SWAP1 PUSH2 0x2AB1 JUMP JUMPDEST DUP1 ISZERO PUSH2 0x8CB JUMPI DUP1 PUSH1 0x1F LT PUSH2 0x8A0 JUMPI PUSH2 0x100 DUP1 DUP4 SLOAD DIV MUL DUP4 MSTORE SWAP2 PUSH1 0x20 ADD SWAP2 PUSH2 0x8CB JUMP JUMPDEST DUP3 ADD SWAP2 SWAP1 PUSH1 0x0 MSTORE PUSH1 0x20 PUSH1 0x0 KECCAK256 SWAP1 JUMPDEST DUP2 SLOAD DUP2 MSTORE SWAP1 PUSH1 0x1 ADD SWAP1 PUSH1 0x20 ADD DUP1 DUP4 GT PUSH2 0x8AE JUMPI DUP3 SWAP1 SUB PUSH1 0x1F AND DUP3 ADD SWAP2 JUMPDEST POP POP POP POP POP DUP2 MSTORE POP POP SWAP1 POP PUSH1 0x0 PUSH1 0x40 MLOAD DUP1 PUSH1 0x20 ADD PUSH1 0x40 MSTORE DUP1 PUSH1 0x0 DUP2 MSTORE POP SWAP1 POP DUP2 PUSH1 0x20 ADD MLOAD ISZERO PUSH2 0x905 JUMPI PUSH2 0x8FE DUP7 DUP7 PUSH2 0x940 JUMP JUMPDEST SWAP1 POP PUSH2 0x913 JUMP JUMPDEST PUSH2 0x910 DUP7 PUSH1 0x0 PUSH2 0xE42 JUMP JUMPDEST SWAP1 POP JUMPDEST DUP3 DUP2 PUSH1 0x40 MLOAD PUSH1 0x20 ADD PUSH2 0x926 SWAP3 SWAP2 SWAP1 PUSH2 0x250A JUMP JUMPDEST PUSH1 0x40 MLOAD PUSH1 0x20 DUP2 DUP4 SUB SUB DUP2 MSTORE SWAP1 PUSH1 0x40 MSTORE SWAP4 POP POP POP POP SWAP3 SWAP2 POP POP JUMP JUMPDEST PUSH1 0x0 DUP3 DUP2 MSTORE PUSH1 0xA PUSH1 0x20 SWAP1 DUP2 MSTORE PUSH1 0x40 DUP1 DUP4 KECCAK256 DUP2 MLOAD PUSH1 0xA0 DUP2 ADD DUP4 MSTORE DUP2 SLOAD PUSH1 0xFF DUP1 DUP3 AND ISZERO ISZERO DUP4 MSTORE PUSH2 0x100 SWAP1 SWAP2 DIV AND ISZERO ISZERO SWAP4 DUP2 ADD SWAP4 SWAP1 SWAP4 MSTORE PUSH1 0x1 DUP2 ADD SLOAD SWAP2 DUP4 ADD SWAP2 SWAP1 SWAP2 MSTORE PUSH1 0x2 DUP2 ADD SLOAD PUSH1 0x60 DUP4 DUP2 ADD SWAP2 SWAP1 SWAP2 MSTORE PUSH1 0x3 DUP3 ADD DUP1 SLOAD SWAP2 SWAP5 SWAP4 SWAP3 SWAP2 PUSH1 0x80 DUP5 ADD SWAP2 SWAP1 PUSH2 0x9A8 SWAP1 PUSH2 0x2AB1 JUMP JUMPDEST DUP1 PUSH1 0x1F ADD PUSH1 0x20 DUP1 SWAP2 DIV MUL PUSH1 0x20 ADD PUSH1 0x40 MLOAD SWAP1 DUP2 ADD PUSH1 0x40 MSTORE DUP1 SWAP3 SWAP2 SWAP1 DUP2 DUP2 MSTORE PUSH1 0x20 ADD DUP3 DUP1 SLOAD PUSH2 0x9D4 SWAP1 PUSH2 0x2AB1 JUMP JUMPDEST DUP1 ISZERO PUSH2 0xA21 JUMPI DUP1 PUSH1 0x1F LT PUSH2 0x9F6 JUMPI PUSH2 0x100 DUP1 DUP4 SLOAD DIV MUL DUP4 MSTORE SWAP2 PUSH1 0x20 ADD SWAP2 PUSH2 0xA21 JUMP JUMPDEST DUP3 ADD SWAP2 SWAP1 PUSH1 0x0 MSTORE PUSH1 0x20 PUSH1 0x0 KECCAK256 SWAP1 JUMPDEST DUP2 SLOAD DUP2 MSTORE SWAP1 PUSH1 0x1 ADD SWAP1 PUSH1 0x20 ADD DUP1 DUP4 GT PUSH2 0xA04 JUMPI DUP3 SWAP1 SUB PUSH1 0x1F AND DUP3 ADD SWAP2 JUMPDEST POP POP POP SWAP2 SWAP1 SWAP3 MSTORE POP POP PUSH1 0x40 DUP1 MLOAD PUSH1 0x20 DUP2 ADD SWAP1 SWAP2 MSTORE PUSH1 0x0 DUP2 MSTORE SWAP2 SWAP3 POP POP DUP4 ISZERO PUSH2 0xAD1 JUMPI PUSH1 0xD DUP1 SLOAD PUSH2 0xA50 SWAP1 PUSH2 0x2AB1 JUMP JUMPDEST DUP1 PUSH1 0x1F ADD PUSH1 0x20 DUP1 SWAP2 DIV MUL PUSH1 0x20 ADD PUSH1 0x40 MLOAD SWAP1 DUP2 ADD PUSH1 0x40 MSTORE DUP1 SWAP3 SWAP2 SWAP1 DUP2 DUP2 MSTORE PUSH1 0x20 ADD DUP3 DUP1 SLOAD PUSH2 0xA7C SWAP1 PUSH2 0x2AB1 JUMP JUMPDEST DUP1 ISZERO PUSH2 0xAC9 JUMPI DUP1 PUSH1 0x1F LT PUSH2 0xA9E JUMPI PUSH2 0x100 DUP1 DUP4 SLOAD DIV MUL DUP4 MSTORE SWAP2 PUSH1 0x20 ADD SWAP2 PUSH2 0xAC9 JUMP JUMPDEST DUP3 ADD SWAP2 SWAP1 PUSH1 0x0 MSTORE PUSH1 0x20 PUSH1 0x0 KECCAK256 SWAP1 JUMPDEST DUP2 SLOAD DUP2 MSTORE SWAP1 PUSH1 0x1 ADD SWAP1 PUSH1 0x20 ADD DUP1 DUP4 GT PUSH2 0xAAC JUMPI DUP3 SWAP1 SUB PUSH1 0x1F AND DUP3 ADD SWAP2 JUMPDEST POP POP POP POP POP SWAP1 POP JUMPDEST PUSH1 0x80 DUP3 ADD MLOAD PUSH1 0x40 MLOAD PUSH2 0xAE7 SWAP2 DUP4 SWAP2 PUSH1 0x20 ADD PUSH2 0x26E2 JUMP JUMPDEST PUSH1 0x40 MLOAD PUSH1 0x20 DUP2 DUP4 SUB SUB DUP2 MSTORE SWAP1 PUSH1 0x40 MSTORE SWAP3 POP POP POP SWAP3 SWAP2 POP POP JUMP JUMPDEST PUSH2 0xB0A CALLER DUP3 PUSH2 0x17E1 JUMP JUMPDEST PUSH2 0xB26 JUMPI PUSH1 0x40 MLOAD PUSH3 0x461BCD PUSH1 0xE5 SHL DUP2 MSTORE PUSH1 0x4 ADD PUSH2 0x692 SWAP1 PUSH2 0x299F JUMP JUMPDEST PUSH2 0x7C8 DUP4 DUP4 DUP4 PUSH2 0x18D4 JUMP JUMPDEST PUSH1 0x60 PUSH1 0x0 PUSH1 0x40 MLOAD DUP1 PUSH1 0x40 ADD PUSH1 0x40 MSTORE DUP1 PUSH1 0x1A DUP2 MSTORE PUSH1 0x20 ADD PUSH32 0x646174613A696D6167652F7376672B786D6C3B6261736536342C000000000000 DUP2 MSTORE POP SWAP1 POP PUSH1 0x0 PUSH2 0xB97 DUP5 PUSH1 0x40 MLOAD PUSH1 0x20 ADD PUSH2 0xB83 SWAP2 SWAP1 PUSH2 0x24BF JUMP JUMPDEST PUSH1 0x40 MLOAD PUSH1 0x20 DUP2 DUP4 SUB SUB DUP2 MSTORE SWAP1 PUSH1 0x40 MSTORE PUSH2 0x1A74 JUMP JUMPDEST SWAP1 POP DUP2 DUP2 PUSH1 0x40 MLOAD PUSH1 0x20 ADD PUSH2 0xBAC SWAP3 SWAP2 SWAP1 PUSH2 0x24DB JUMP JUMPDEST PUSH1 0x40 MLOAD PUSH1 0x20 DUP2 DUP4 SUB SUB DUP2 MSTORE SWAP1 PUSH1 0x40 MSTORE SWAP3 POP POP POP SWAP2 SWAP1 POP JUMP JUMPDEST PUSH1 0x8 SLOAD PUSH1 0x1 PUSH1 0x1 PUSH1 0xA0 SHL SUB AND CALLER EQ PUSH2 0xBEE JUMPI PUSH1 0x40 MLOAD PUSH3 0x461BCD PUSH1 0xE5 SHL DUP2 MSTORE PUSH1 0x4 ADD PUSH2 0x692 SWAP1 PUSH2 0x296A JUMP JUMPDEST PUSH1 0x9 DUP1 SLOAD PUSH1 0x40 DUP1 MLOAD PUSH1 0xA0 DUP2 ADD DUP3 MSTORE PUSH1 0x1 DUP2 MSTORE PUSH1 0x0 PUSH1 0x20 DUP1 DUP4 ADD DUP3 SWAP1 MSTORE DUP3 DUP5 ADD DUP3 SWAP1 MSTORE PUSH1 0x60 DUP4 ADD SWAP2 SWAP1 SWAP2 MSTORE DUP3 MLOAD DUP1 DUP5 ADD SWAP1 SWAP4 MSTORE SWAP4 DUP3 MSTORE PUSH9 0x677261797363616C65 PUSH1 0xB8 SHL SWAP4 DUP3 ADD SWAP4 SWAP1 SWAP4 MSTORE PUSH1 0x80 DUP4 ADD MSTORE SWAP1 PUSH2 0xC47 DUP4 DUP4 PUSH2 0x1BDC JUMP JUMPDEST PUSH1 0x0 DUP3 DUP2 MSTORE PUSH1 0xA PUSH1 0x20 SWAP1 DUP2 MSTORE PUSH1 0x40 SWAP2 DUP3 SWAP1 KECCAK256 DUP4 MLOAD DUP2 SLOAD DUP4 DUP7 ADD MLOAD ISZERO ISZERO PUSH2 0x100 MUL PUSH2 0xFF00 NOT SWAP3 ISZERO ISZERO SWAP3 SWAP1 SWAP3 AND PUSH2 0xFFFF NOT SWAP1 SWAP2 AND OR OR DUP2 SSTORE SWAP2 DUP4 ADD MLOAD PUSH1 0x1 DUP4 ADD SSTORE PUSH1 0x60 DUP4 ADD MLOAD PUSH1 0x2 DUP4 ADD SSTORE PUSH1 0x80 DUP4 ADD MLOAD DUP1 MLOAD DUP5 SWAP4 SWAP3 PUSH2 0xCAB SWAP3 PUSH1 0x3 DUP6 ADD SWAP3 SWAP2 ADD SWAP1 PUSH2 0x202A JUMP JUMPDEST POP POP POP PUSH1 0x0 DUP3 DUP2 MSTORE PUSH1 0xE PUSH1 0x20 MSTORE PUSH1 0x40 SWAP1 KECCAK256 TIMESTAMP SWAP1 SSTORE PUSH2 0xCCA DUP3 PUSH1 0x1 PUSH2 0x29F0 JUMP JUMPDEST SWAP2 POP PUSH1 0x0 PUSH1 0x40 MLOAD DUP1 PUSH1 0xA0 ADD PUSH1 0x40 MSTORE DUP1 PUSH1 0x0 ISZERO ISZERO DUP2 MSTORE PUSH1 0x20 ADD PUSH1 0x1 ISZERO ISZERO DUP2 MSTORE PUSH1 0x20 ADD PUSH1 0x0 DUP2 MSTORE PUSH1 0x20 ADD PUSH1 0x0 DUP2 MSTORE PUSH1 0x20 ADD PUSH1 0x40 MLOAD DUP1 PUSH1 0x40 ADD PUSH1 0x40 MSTORE DUP1 PUSH1 0x5 DUP2 MSTORE PUSH1 0x20 ADD PUSH5 0x7768697465 PUSH1 0xD8 SHL DUP2 MSTORE POP DUP2 MSTORE POP SWAP1 POP PUSH2 0xD26 DUP5 DUP5 PUSH2 0x1BDC JUMP JUMPDEST PUSH1 0x0 DUP4 DUP2 MSTORE PUSH1 0xA PUSH1 0x20 SWAP1 DUP2 MSTORE PUSH1 0x40 SWAP2 DUP3 SWAP1 KECCAK256 DUP4 MLOAD DUP2 SLOAD DUP4 DUP7 ADD MLOAD ISZERO ISZERO PUSH2 0x100 MUL PUSH2 0xFF00 NOT SWAP3 ISZERO ISZERO SWAP3 SWAP1 SWAP3 AND PUSH2 0xFFFF NOT SWAP1 SWAP2 AND OR OR DUP2 SSTORE SWAP2 DUP4 ADD MLOAD PUSH1 0x1 DUP4 ADD SSTORE PUSH1 0x60 DUP4 ADD MLOAD PUSH1 0x2 DUP4 ADD SSTORE PUSH1 0x80 DUP4 ADD MLOAD DUP1 MLOAD DUP5 SWAP4 SWAP3 PUSH2 0xD8A SWAP3 PUSH1 0x3 DUP6 ADD SWAP3 SWAP2 ADD SWAP1 PUSH2 0x202A JUMP JUMPDEST POP POP POP PUSH1 0x0 DUP4 DUP2 MSTORE PUSH1 0xE PUSH1 0x20 MSTORE PUSH1 0x40 SWAP1 KECCAK256 TIMESTAMP SWAP1 SSTORE PUSH2 0xDA9 DUP4 PUSH1 0x1 PUSH2 0x29F0 JUMP JUMPDEST POP POP POP POP POP JUMP JUMPDEST PUSH2 0x7C8 DUP4 DUP4 DUP4 PUSH1 0x40 MLOAD DUP1 PUSH1 0x20 ADD PUSH1 0x40 MSTORE DUP1 PUSH1 0x0 DUP2 MSTORE POP PUSH2 0x1379 JUMP JUMPDEST PUSH1 0x0 DUP2 DUP2 MSTORE PUSH1 0x3 PUSH1 0x20 MSTORE PUSH1 0x40 DUP2 KECCAK256 SLOAD PUSH1 0x1 PUSH1 0x1 PUSH1 0xA0 SHL SUB AND DUP1 PUSH2 0x585 JUMPI PUSH1 0x40 MLOAD PUSH3 0x461BCD PUSH1 0xE5 SHL DUP2 MSTORE PUSH1 0x20 PUSH1 0x4 DUP3 ADD MSTORE PUSH1 0x29 PUSH1 0x24 DUP3 ADD MSTORE PUSH32 0x4552433732313A206F776E657220717565727920666F72206E6F6E6578697374 PUSH1 0x44 DUP3 ADD MSTORE PUSH9 0x32B73A103A37B5B2B7 PUSH1 0xB9 SHL PUSH1 0x64 DUP3 ADD MSTORE PUSH1 0x84 ADD PUSH2 0x692 JUMP JUMPDEST PUSH1 0x0 DUP3 DUP2 MSTORE PUSH1 0xA PUSH1 0x20 SWAP1 DUP2 MSTORE PUSH1 0x40 DUP1 DUP4 KECCAK256 DUP2 MLOAD PUSH1 0xA0 DUP2 ADD DUP4 MSTORE DUP2 SLOAD PUSH1 0xFF DUP1 DUP3 AND ISZERO ISZERO DUP4 MSTORE PUSH2 0x100 SWAP1 SWAP2 DIV AND ISZERO ISZERO SWAP4 DUP2 ADD SWAP4 SWAP1 SWAP4 MSTORE PUSH1 0x1 DUP2 ADD SLOAD SWAP2 DUP4 ADD SWAP2 SWAP1 SWAP2 MSTORE PUSH1 0x2 DUP2 ADD SLOAD PUSH1 0x60 DUP4 DUP2 ADD SWAP2 SWAP1 SWAP2 MSTORE PUSH1 0x3 DUP3 ADD DUP1 SLOAD SWAP2 SWAP5 SWAP4 SWAP3 SWAP2 PUSH1 0x80 DUP5 ADD SWAP2 SWAP1 PUSH2 0xEAA SWAP1 PUSH2 0x2AB1 JUMP JUMPDEST DUP1 PUSH1 0x1F ADD PUSH1 0x20 DUP1 SWAP2 DIV MUL PUSH1 0x20 ADD PUSH1 0x40 MLOAD SWAP1 DUP2 ADD PUSH1 0x40 MSTORE DUP1 SWAP3 SWAP2 SWAP1 DUP2 DUP2 MSTORE PUSH1 0x20 ADD DUP3 DUP1 SLOAD PUSH2 0xED6 SWAP1 PUSH2 0x2AB1 JUMP JUMPDEST DUP1 ISZERO PUSH2 0xF23 JUMPI DUP1 PUSH1 0x1F LT PUSH2 0xEF8 JUMPI PUSH2 0x100 DUP1 DUP4 SLOAD DIV MUL DUP4 MSTORE SWAP2 PUSH1 0x20 ADD SWAP2 PUSH2 0xF23 JUMP JUMPDEST DUP3 ADD SWAP2 SWAP1 PUSH1 0x0 MSTORE PUSH1 0x20 PUSH1 0x0 KECCAK256 SWAP1 JUMPDEST DUP2 SLOAD DUP2 MSTORE SWAP1 PUSH1 0x1 ADD SWAP1 PUSH1 0x20 ADD DUP1 DUP4 GT PUSH2 0xF06 JUMPI DUP3 SWAP1 SUB PUSH1 0x1F AND DUP3 ADD SWAP2 JUMPDEST POP POP POP POP POP DUP2 MSTORE POP POP SWAP1 POP PUSH1 0x0 PUSH1 0x40 MLOAD DUP1 PUSH1 0x20 ADD PUSH1 0x40 MSTORE DUP1 PUSH1 0x0 DUP2 MSTORE POP SWAP1 POP PUSH1 0x0 DUP3 PUSH1 0x80 ADD MLOAD PUSH1 0x40 MLOAD PUSH1 0x20 ADD PUSH2 0xF59 SWAP2 SWAP1 PUSH2 0x26A6 JUMP JUMPDEST PUSH1 0x40 MLOAD PUSH1 0x20 DUP2 DUP4 SUB SUB DUP2 MSTORE SWAP1 PUSH1 0x40 MSTORE SWAP1 POP DUP5 ISZERO PUSH2 0xFFE JUMPI PUSH1 0xD DUP1 SLOAD PUSH2 0xF7D SWAP1 PUSH2 0x2AB1 JUMP JUMPDEST DUP1 PUSH1 0x1F ADD PUSH1 0x20 DUP1 SWAP2 DIV MUL PUSH1 0x20 ADD PUSH1 0x40 MLOAD SWAP1 DUP2 ADD PUSH1 0x40 MSTORE DUP1 SWAP3 SWAP2 SWAP1 DUP2 DUP2 MSTORE PUSH1 0x20 ADD DUP3 DUP1 SLOAD PUSH2 0xFA9 SWAP1 PUSH2 0x2AB1 JUMP JUMPDEST DUP1 ISZERO PUSH2 0xFF6 JUMPI DUP1 PUSH1 0x1F LT PUSH2 0xFCB JUMPI PUSH2 0x100 DUP1 DUP4 SLOAD DIV MUL DUP4 MSTORE SWAP2 PUSH1 0x20 ADD SWAP2 PUSH2 0xFF6 JUMP JUMPDEST DUP3 ADD SWAP2 SWAP1 PUSH1 0x0 MSTORE PUSH1 0x20 PUSH1 0x0 KECCAK256 SWAP1 JUMPDEST DUP2 SLOAD DUP2 MSTORE SWAP1 PUSH1 0x1 ADD SWAP1 PUSH1 0x20 ADD DUP1 DUP4 GT PUSH2 0xFD9 JUMPI DUP3 SWAP1 SUB PUSH1 0x1F AND DUP3 ADD SWAP2 JUMPDEST POP POP POP POP POP SWAP2 POP JUMPDEST PUSH2 0x102F DUP4 PUSH1 0x80 ADD MLOAD PUSH1 0x40 MLOAD DUP1 PUSH1 0x40 ADD PUSH1 0x40 MSTORE DUP1 PUSH1 0xB DUP2 MSTORE PUSH1 0x20 ADD PUSH11 0x1D1C985B9CDC185C995B9D PUSH1 0xAA SHL DUP2 MSTORE POP PUSH2 0x13B2 JUMP JUMPDEST ISZERO PUSH2 0x106A JUMPI POP PUSH1 0x40 DUP1 MLOAD DUP1 DUP3 ADD SWAP1 SWAP2 MSTORE PUSH1 0x18 DUP2 MSTORE PUSH32 0x7374796C653D2766696C6C2D6F7061636974793A203027200000000000000000 PUSH1 0x20 DUP3 ADD MSTORE JUMPDEST DUP2 PUSH2 0x1078 DUP5 PUSH1 0x40 ADD MLOAD PUSH2 0x1BFA JUMP JUMPDEST PUSH2 0x1085 DUP6 PUSH1 0x60 ADD MLOAD PUSH2 0x1BFA JUMP JUMPDEST PUSH2 0x109C PUSH1 0x2 PUSH1 0xB SLOAD PUSH2 0x1097 SWAP2 SWAP1 PUSH2 0x2A2D JUMP JUMPDEST PUSH2 0x1BFA JUMP JUMPDEST DUP7 PUSH1 0x80 ADD MLOAD PUSH1 0x40 MLOAD PUSH1 0x20 ADD PUSH2 0x926 SWAP6 SWAP5 SWAP4 SWAP3 SWAP2 SWAP1 PUSH2 0x2769 JUMP JUMPDEST PUSH1 0x0 PUSH1 0x1 PUSH1 0x1 PUSH1 0xA0 SHL SUB DUP3 AND PUSH2 0x1120 JUMPI PUSH1 0x40 MLOAD PUSH3 0x461BCD PUSH1 0xE5 SHL DUP2 MSTORE PUSH1 0x20 PUSH1 0x4 DUP3 ADD MSTORE PUSH1 0x2A PUSH1 0x24 DUP3 ADD MSTORE PUSH32 0x4552433732313A2062616C616E636520717565727920666F7220746865207A65 PUSH1 0x44 DUP3 ADD MSTORE PUSH10 0x726F2061646472657373 PUSH1 0xB0 SHL PUSH1 0x64 DUP3 ADD MSTORE PUSH1 0x84 ADD PUSH2 0x692 JUMP JUMPDEST POP PUSH1 0x1 PUSH1 0x1 PUSH1 0xA0 SHL SUB AND PUSH1 0x0 SWAP1 DUP2 MSTORE PUSH1 0x4 PUSH1 0x20 MSTORE PUSH1 0x40 SWAP1 KECCAK256 SLOAD SWAP1 JUMP JUMPDEST PUSH1 0x8 SLOAD PUSH1 0x1 PUSH1 0x1 PUSH1 0xA0 SHL SUB AND CALLER EQ PUSH2 0x1166 JUMPI PUSH1 0x40 MLOAD PUSH3 0x461BCD PUSH1 0xE5 SHL DUP2 MSTORE PUSH1 0x4 ADD PUSH2 0x692 SWAP1 PUSH2 0x296A JUMP JUMPDEST PUSH2 0x1170 PUSH1 0x0 PUSH2 0x1D23 JUMP JUMPDEST JUMP JUMPDEST PUSH1 0x0 DUP2 DUP2 MSTORE PUSH1 0xA PUSH1 0x20 MSTORE PUSH1 0x40 SWAP1 KECCAK256 PUSH1 0x3 ADD DUP1 SLOAD PUSH1 0x60 SWAP2 SWAP1 PUSH2 0x1192 SWAP1 PUSH2 0x2AB1 JUMP JUMPDEST DUP1 PUSH1 0x1F ADD PUSH1 0x20 DUP1 SWAP2 DIV MUL PUSH1 0x20 ADD PUSH1 0x40 MLOAD SWAP1 DUP2 ADD PUSH1 0x40 MSTORE DUP1 SWAP3 SWAP2 SWAP1 DUP2 DUP2 MSTORE PUSH1 0x20 ADD DUP3 DUP1 SLOAD PUSH2 0x11BE SWAP1 PUSH2 0x2AB1 JUMP JUMPDEST DUP1 ISZERO PUSH2 0x120B JUMPI DUP1 PUSH1 0x1F LT PUSH2 0x11E0 JUMPI PUSH2 0x100 DUP1 DUP4 SLOAD DIV MUL DUP4 MSTORE SWAP2 PUSH1 0x20 ADD SWAP2 PUSH2 0x120B JUMP JUMPDEST DUP3 ADD SWAP2 SWAP1 PUSH1 0x0 MSTORE PUSH1 0x20 PUSH1 0x0 KECCAK256 SWAP1 JUMPDEST DUP2 SLOAD DUP2 MSTORE SWAP1 PUSH1 0x1 ADD SWAP1 PUSH1 0x20 ADD DUP1 DUP4 GT PUSH2 0x11EE JUMPI DUP3 SWAP1 SUB PUSH1 0x1F AND DUP3 ADD SWAP2 JUMPDEST POP POP POP POP POP SWAP1 POP SWAP2 SWAP1 POP JUMP JUMPDEST PUSH1 0x60 PUSH1 0x2 DUP1 SLOAD PUSH2 0x59A SWAP1 PUSH2 0x2AB1 JUMP JUMPDEST PUSH1 0x1 PUSH1 0x1 PUSH1 0xA0 SHL SUB DUP3 AND CALLER EQ ISZERO PUSH2 0x127F JUMPI PUSH1 0x40 MLOAD PUSH3 0x461BCD PUSH1 0xE5 SHL DUP2 MSTORE PUSH1 0x20 PUSH1 0x4 DUP3 ADD MSTORE PUSH1 0x19 PUSH1 0x24 DUP3 ADD MSTORE PUSH32 0x4552433732313A20617070726F766520746F2063616C6C657200000000000000 PUSH1 0x44 DUP3 ADD MSTORE PUSH1 0x64 ADD PUSH2 0x692 JUMP JUMPDEST CALLER PUSH1 0x0 DUP2 DUP2 MSTORE PUSH1 0x6 PUSH1 0x20 SWAP1 DUP2 MSTORE PUSH1 0x40 DUP1 DUP4 KECCAK256 PUSH1 0x1 PUSH1 0x1 PUSH1 0xA0 SHL SUB DUP8 AND DUP1 DUP6 MSTORE SWAP1 DUP4 MSTORE SWAP3 DUP2 SWAP1 KECCAK256 DUP1 SLOAD PUSH1 0xFF NOT AND DUP7 ISZERO ISZERO SWAP1 DUP2 OR SWAP1 SWAP2 SSTORE SWAP1 MLOAD SWAP1 DUP2 MSTORE SWAP2 SWAP3 SWAP2 PUSH32 0x17307EAB39AB6107E8899845AD3D59BD9653F200F220920489CA2B5937696C31 SWAP2 ADD PUSH1 0x40 MLOAD DUP1 SWAP2 SUB SWAP1 LOG3 POP POP JUMP JUMPDEST PUSH1 0xD DUP1 SLOAD PUSH2 0x12F8 SWAP1 PUSH2 0x2AB1 JUMP JUMPDEST DUP1 PUSH1 0x1F ADD PUSH1 0x20 DUP1 SWAP2 DIV MUL PUSH1 0x20 ADD PUSH1 0x40 MLOAD SWAP1 DUP2 ADD PUSH1 0x40 MSTORE DUP1 SWAP3 SWAP2 SWAP1 DUP2 DUP2 MSTORE PUSH1 0x20 ADD DUP3 DUP1 SLOAD PUSH2 0x1324 SWAP1 PUSH2 0x2AB1 JUMP JUMPDEST DUP1 ISZERO PUSH2 0x1371 JUMPI DUP1 PUSH1 0x1F LT PUSH2 0x1346 JUMPI PUSH2 0x100 DUP1 DUP4 SLOAD DIV MUL DUP4 MSTORE SWAP2 PUSH1 0x20 ADD SWAP2 PUSH2 0x1371 JUMP JUMPDEST DUP3 ADD SWAP2 SWAP1 PUSH1 0x0 MSTORE PUSH1 0x20 PUSH1 0x0 KECCAK256 SWAP1 JUMPDEST DUP2 SLOAD DUP2 MSTORE SWAP1 PUSH1 0x1 ADD SWAP1 PUSH1 0x20 ADD DUP1 DUP4 GT PUSH2 0x1354 JUMPI DUP3 SWAP1 SUB PUSH1 0x1F AND DUP3 ADD SWAP2 JUMPDEST POP POP POP POP POP DUP2 JUMP JUMPDEST PUSH2 0x1384 CALLER JUMPDEST DUP4 PUSH2 0x17E1 JUMP JUMPDEST PUSH2 0x13A0 JUMPI PUSH1 0x40 MLOAD PUSH3 0x461BCD PUSH1 0xE5 SHL DUP2 MSTORE PUSH1 0x4 ADD PUSH2 0x692 SWAP1 PUSH2 0x299F JUMP JUMPDEST PUSH2 0x13AC DUP5 DUP5 DUP5 DUP5 PUSH2 0x1D75 JUMP JUMPDEST POP POP POP POP JUMP JUMPDEST PUSH1 0x0 DUP2 PUSH1 0x40 MLOAD PUSH1 0x20 ADD PUSH2 0x13C5 SWAP2 SWAP1 PUSH2 0x24BF JUMP JUMPDEST PUSH1 0x40 MLOAD PUSH1 0x20 DUP2 DUP4 SUB SUB DUP2 MSTORE SWAP1 PUSH1 0x40 MSTORE DUP1 MLOAD SWAP1 PUSH1 0x20 ADD KECCAK256 DUP4 PUSH1 0x40 MLOAD PUSH1 0x20 ADD PUSH2 0x13EC SWAP2 SWAP1 PUSH2 0x24BF JUMP JUMPDEST PUSH1 0x40 MLOAD PUSH1 0x20 DUP2 DUP4 SUB SUB DUP2 MSTORE SWAP1 PUSH1 0x40 MSTORE DUP1 MLOAD SWAP1 PUSH1 0x20 ADD KECCAK256 EQ SWAP1 POP SWAP3 SWAP2 POP POP JUMP JUMPDEST PUSH1 0x0 DUP2 DUP2 MSTORE PUSH1 0xA PUSH1 0x20 MSTORE PUSH1 0x40 SWAP1 KECCAK256 PUSH1 0x1 ADD SLOAD PUSH1 0x60 SWAP1 PUSH2 0x1493 SWAP1 PUSH2 0x142D SWAP1 PUSH2 0x1BFA JUMP JUMPDEST PUSH1 0x0 DUP5 DUP2 MSTORE PUSH1 0xA PUSH1 0x20 MSTORE PUSH1 0x40 SWAP1 KECCAK256 PUSH1 0x2 ADD SLOAD PUSH2 0x1448 SWAP1 PUSH2 0x1BFA JUMP JUMPDEST PUSH1 0x0 DUP6 DUP2 MSTORE PUSH1 0xA PUSH1 0x20 MSTORE PUSH1 0x40 SWAP1 KECCAK256 PUSH1 0x1 ADD SLOAD PUSH2 0x1463 SWAP1 PUSH2 0x1BFA JUMP JUMPDEST PUSH1 0x0 DUP7 DUP2 MSTORE PUSH1 0xA PUSH1 0x20 MSTORE PUSH1 0x40 SWAP1 KECCAK256 PUSH1 0x2 ADD SLOAD PUSH2 0x147E SWAP1 PUSH2 0x1BFA JUMP JUMPDEST DUP8 PUSH1 0x40 MLOAD PUSH1 0x20 ADD PUSH2 0xB83 SWAP6 SWAP5 SWAP4 SWAP3 SWAP2 SWAP1 PUSH2 0x254A JUMP JUMPDEST PUSH1 0x40 MLOAD PUSH1 0x20 ADD PUSH2 0x14A3 SWAP2 SWAP1 PUSH2 0x2849 JUMP JUMPDEST PUSH1 0x40 MLOAD PUSH1 0x20 DUP2 DUP4 SUB SUB DUP2 MSTORE SWAP1 PUSH1 0x40 MSTORE SWAP1 POP SWAP3 SWAP2 POP POP JUMP JUMPDEST PUSH1 0x0 DUP2 DUP2 MSTORE PUSH1 0x3 PUSH1 0x20 MSTORE PUSH1 0x40 SWAP1 KECCAK256 SLOAD PUSH1 0x60 SWAP1 PUSH1 0x1 PUSH1 0x1 PUSH1 0xA0 SHL SUB AND PUSH2 0x1539 JUMPI PUSH1 0x40 MLOAD PUSH3 0x461BCD PUSH1 0xE5 SHL DUP2 MSTORE PUSH1 0x20 PUSH1 0x4 DUP3 ADD MSTORE PUSH1 0x2F PUSH1 0x24 DUP3 ADD MSTORE PUSH32 0x4552433732314D657461646174613A2055524920717565727920666F72206E6F PUSH1 0x44 DUP3 ADD MSTORE PUSH15 0x3732BC34B9BA32B73A103A37B5B2B7 PUSH1 0x89 SHL PUSH1 0x64 DUP3 ADD MSTORE PUSH1 0x84 ADD PUSH2 0x692 JUMP JUMPDEST PUSH1 0x0 PUSH2 0x1546 DUP4 PUSH1 0x0 PUSH2 0x7CD JUMP JUMPDEST SWAP1 POP PUSH1 0x0 PUSH2 0x1553 DUP3 PUSH2 0xB31 JUMP JUMPDEST SWAP1 POP PUSH2 0x155F DUP2 DUP6 PUSH2 0x140B JUMP JUMPDEST SWAP5 SWAP4 POP POP POP POP JUMP JUMPDEST PUSH2 0x1570 CALLER PUSH2 0x137E JUMP JUMPDEST PUSH2 0x158C JUMPI PUSH1 0x40 MLOAD PUSH3 0x461BCD PUSH1 0xE5 SHL DUP2 MSTORE PUSH1 0x4 ADD PUSH2 0x692 SWAP1 PUSH2 0x299F JUMP JUMPDEST PUSH1 0xC SLOAD PUSH1 0x0 DUP4 DUP2 MSTORE PUSH1 0xE PUSH1 0x20 MSTORE PUSH1 0x40 SWAP1 KECCAK256 SLOAD TIMESTAMP SWAP2 PUSH2 0x15A9 SWAP2 PUSH2 0x29F0 JUMP JUMPDEST LT ISZERO PUSH2 0x15F7 JUMPI PUSH1 0x40 MLOAD PUSH3 0x461BCD PUSH1 0xE5 SHL DUP2 MSTORE PUSH1 0x20 PUSH1 0x4 DUP3 ADD MSTORE PUSH1 0x1D PUSH1 0x24 DUP3 ADD MSTORE PUSH32 0x54696D652773207570206F6E206368616E67696E6720636F6C6F727321000000 PUSH1 0x44 DUP3 ADD MSTORE PUSH1 0x64 ADD PUSH2 0x692 JUMP JUMPDEST PUSH1 0x0 DUP3 DUP2 MSTORE PUSH1 0xA PUSH1 0x20 SWAP1 DUP2 MSTORE PUSH1 0x40 SWAP1 SWAP2 KECCAK256 DUP3 MLOAD PUSH2 0x7C8 SWAP3 PUSH1 0x3 SWAP1 SWAP3 ADD SWAP2 DUP5 ADD SWAP1 PUSH2 0x202A JUMP JUMPDEST PUSH1 0x8 SLOAD PUSH1 0x1 PUSH1 0x1 PUSH1 0xA0 SHL SUB AND CALLER EQ PUSH2 0x1646 JUMPI PUSH1 0x40 MLOAD PUSH3 0x461BCD PUSH1 0xE5 SHL DUP2 MSTORE PUSH1 0x4 ADD PUSH2 0x692 SWAP1 PUSH2 0x296A JUMP JUMPDEST PUSH1 0x1 PUSH1 0x1 PUSH1 0xA0 SHL SUB DUP2 AND PUSH2 0x16AB JUMPI PUSH1 0x40 MLOAD PUSH3 0x461BCD PUSH1 0xE5 SHL DUP2 MSTORE PUSH1 0x20 PUSH1 0x4 DUP3 ADD MSTORE PUSH1 0x26 PUSH1 0x24 DUP3 ADD MSTORE PUSH32 0x4F776E61626C653A206E6577206F776E657220697320746865207A65726F2061 PUSH1 0x44 DUP3 ADD MSTORE PUSH6 0x646472657373 PUSH1 0xD0 SHL PUSH1 0x64 DUP3 ADD MSTORE PUSH1 0x84 ADD PUSH2 0x692 JUMP JUMPDEST PUSH2 0x16B4 DUP2 PUSH2 0x1D23 JUMP JUMPDEST POP JUMP JUMPDEST PUSH1 0xA PUSH1 0x20 MSTORE PUSH1 0x0 SWAP1 DUP2 MSTORE PUSH1 0x40 SWAP1 KECCAK256 DUP1 SLOAD PUSH1 0x1 DUP3 ADD SLOAD PUSH1 0x2 DUP4 ADD SLOAD PUSH1 0x3 DUP5 ADD DUP1 SLOAD PUSH1 0xFF DUP1 DUP7 AND SWAP7 PUSH2 0x100 SWAP1 SWAP7 DIV AND SWAP5 SWAP2 SWAP1 PUSH2 0x16F0 SWAP1 PUSH2 0x2AB1 JUMP JUMPDEST DUP1 PUSH1 0x1F ADD PUSH1 0x20 DUP1 SWAP2 DIV MUL PUSH1 0x20 ADD PUSH1 0x40 MLOAD SWAP1 DUP2 ADD PUSH1 0x40 MSTORE DUP1 SWAP3 SWAP2 SWAP1 DUP2 DUP2 MSTORE PUSH1 0x20 ADD DUP3 DUP1 SLOAD PUSH2 0x171C SWAP1 PUSH2 0x2AB1 JUMP JUMPDEST DUP1 ISZERO PUSH2 0x1769 JUMPI DUP1 PUSH1 0x1F LT PUSH2 0x173E JUMPI PUSH2 0x100 DUP1 DUP4 SLOAD DIV MUL DUP4 MSTORE SWAP2 PUSH1 0x20 ADD SWAP2 PUSH2 0x1769 JUMP JUMPDEST DUP3 ADD SWAP2 SWAP1 PUSH1 0x0 MSTORE PUSH1 0x20 PUSH1 0x0 KECCAK256 SWAP1 JUMPDEST DUP2 SLOAD DUP2 MSTORE SWAP1 PUSH1 0x1 ADD SWAP1 PUSH1 0x20 ADD DUP1 DUP4 GT PUSH2 0x174C JUMPI DUP3 SWAP1 SUB PUSH1 0x1F AND DUP3 ADD SWAP2 JUMPDEST POP POP POP POP POP SWAP1 POP DUP6 JUMP JUMPDEST PUSH1 0x0 DUP2 DUP2 MSTORE PUSH1 0x5 PUSH1 0x20 MSTORE PUSH1 0x40 SWAP1 KECCAK256 DUP1 SLOAD PUSH1 0x1 PUSH1 0x1 PUSH1 0xA0 SHL SUB NOT AND PUSH1 0x1 PUSH1 0x1 PUSH1 0xA0 SHL SUB DUP5 AND SWAP1 DUP2 OR SWAP1 SWAP2 SSTORE DUP2 SWAP1 PUSH2 0x17A8 DUP3 PUSH2 0xDCB JUMP JUMPDEST PUSH1 0x1 PUSH1 0x1 PUSH1 0xA0 SHL SUB AND PUSH32 0x8C5BE1E5EBEC7D5BD14F71427D1E84F3DD0314C0F7B2291E5B200AC8C7C3B925 PUSH1 0x40 MLOAD PUSH1 0x40 MLOAD DUP1 SWAP2 SUB SWAP1 LOG4 POP POP JUMP JUMPDEST PUSH1 0x0 DUP2 DUP2 MSTORE PUSH1 0x3 PUSH1 0x20 MSTORE PUSH1 0x40 DUP2 KECCAK256 SLOAD PUSH1 0x1 PUSH1 0x1 PUSH1 0xA0 SHL SUB AND PUSH2 0x185A JUMPI PUSH1 0x40 MLOAD PUSH3 0x461BCD PUSH1 0xE5 SHL DUP2 MSTORE PUSH1 0x20 PUSH1 0x4 DUP3 ADD MSTORE PUSH1 0x2C PUSH1 0x24 DUP3 ADD MSTORE PUSH32 0x4552433732313A206F70657261746F7220717565727920666F72206E6F6E6578 PUSH1 0x44 DUP3 ADD MSTORE PUSH12 0x34B9BA32B73A103A37B5B2B7 PUSH1 0xA1 SHL PUSH1 0x64 DUP3 ADD MSTORE PUSH1 0x84 ADD PUSH2 0x692 JUMP JUMPDEST PUSH1 0x0 PUSH2 0x1865 DUP4 PUSH2 0xDCB JUMP JUMPDEST SWAP1 POP DUP1 PUSH1 0x1 PUSH1 0x1 PUSH1 0xA0 SHL SUB AND DUP5 PUSH1 0x1 PUSH1 0x1 PUSH1 0xA0 SHL SUB AND EQ DUP1 PUSH2 0x18A0 JUMPI POP DUP4 PUSH1 0x1 PUSH1 0x1 PUSH1 0xA0 SHL SUB AND PUSH2 0x1895 DUP5 PUSH2 0x61D JUMP JUMPDEST PUSH1 0x1 PUSH1 0x1 PUSH1 0xA0 SHL SUB AND EQ JUMPDEST DUP1 PUSH2 0x155F JUMPI POP PUSH1 0x1 PUSH1 0x1 PUSH1 0xA0 SHL SUB DUP1 DUP3 AND PUSH1 0x0 SWAP1 DUP2 MSTORE PUSH1 0x6 PUSH1 0x20 SWAP1 DUP2 MSTORE PUSH1 0x40 DUP1 DUP4 KECCAK256 SWAP4 DUP9 AND DUP4 MSTORE SWAP3 SWAP1 MSTORE KECCAK256 SLOAD PUSH1 0xFF AND PUSH2 0x155F JUMP JUMPDEST DUP3 PUSH1 0x1 PUSH1 0x1 PUSH1 0xA0 SHL SUB AND PUSH2 0x18E7 DUP3 PUSH2 0xDCB JUMP JUMPDEST PUSH1 0x1 PUSH1 0x1 PUSH1 0xA0 SHL SUB AND EQ PUSH2 0x194F JUMPI PUSH1 0x40 MLOAD PUSH3 0x461BCD PUSH1 0xE5 SHL DUP2 MSTORE PUSH1 0x20 PUSH1 0x4 DUP3 ADD MSTORE PUSH1 0x29 PUSH1 0x24 DUP3 ADD MSTORE PUSH32 0x4552433732313A207472616E73666572206F6620746F6B656E20746861742069 PUSH1 0x44 DUP3 ADD MSTORE PUSH9 0x39903737BA1037BBB7 PUSH1 0xB9 SHL PUSH1 0x64 DUP3 ADD MSTORE PUSH1 0x84 ADD PUSH2 0x692 JUMP JUMPDEST PUSH1 0x1 PUSH1 0x1 PUSH1 0xA0 SHL SUB DUP3 AND PUSH2 0x19B1 JUMPI PUSH1 0x40 MLOAD PUSH3 0x461BCD PUSH1 0xE5 SHL DUP2 MSTORE PUSH1 0x20 PUSH1 0x4 DUP3 ADD MSTORE PUSH1 0x24 DUP1 DUP3 ADD MSTORE PUSH32 0x4552433732313A207472616E7366657220746F20746865207A65726F20616464 PUSH1 0x44 DUP3 ADD MSTORE PUSH4 0x72657373 PUSH1 0xE0 SHL PUSH1 0x64 DUP3 ADD MSTORE PUSH1 0x84 ADD PUSH2 0x692 JUMP JUMPDEST PUSH2 0x19BC PUSH1 0x0 DUP3 PUSH2 0x1773 JUMP JUMPDEST PUSH1 0x1 PUSH1 0x1 PUSH1 0xA0 SHL SUB DUP4 AND PUSH1 0x0 SWAP1 DUP2 MSTORE PUSH1 0x4 PUSH1 0x20 MSTORE PUSH1 0x40 DUP2 KECCAK256 DUP1 SLOAD PUSH1 0x1 SWAP3 SWAP1 PUSH2 0x19E5 SWAP1 DUP5 SWAP1 PUSH2 0x2A6E JUMP JUMPDEST SWAP1 SWAP2 SSTORE POP POP PUSH1 0x1 PUSH1 0x1 PUSH1 0xA0 SHL SUB DUP3 AND PUSH1 0x0 SWAP1 DUP2 MSTORE PUSH1 0x4 PUSH1 0x20 MSTORE PUSH1 0x40 DUP2 KECCAK256 DUP1 SLOAD PUSH1 0x1 SWAP3 SWAP1 PUSH2 0x1A13 SWAP1 DUP5 SWAP1 PUSH2 0x29F0 JUMP JUMPDEST SWAP1 SWAP2 SSTORE POP POP PUSH1 0x0 DUP2 DUP2 MSTORE PUSH1 0x3 PUSH1 0x20 MSTORE PUSH1 0x40 DUP1 DUP3 KECCAK256 DUP1 SLOAD PUSH1 0x1 PUSH1 0x1 PUSH1 0xA0 SHL SUB NOT AND PUSH1 0x1 PUSH1 0x1 PUSH1 0xA0 SHL SUB DUP7 DUP2 AND SWAP2 DUP3 OR SWAP1 SWAP3 SSTORE SWAP2 MLOAD DUP5 SWAP4 SWAP2 DUP8 AND SWAP2 PUSH32 0xDDF252AD1BE2C89B69C2B068FC378DAA952BA7F163C4A11628F55A4DF523B3EF SWAP2 LOG4 POP POP POP JUMP JUMPDEST PUSH1 0x60 DUP2 MLOAD PUSH1 0x0 EQ ISZERO PUSH2 0x1A94 JUMPI POP POP PUSH1 0x40 DUP1 MLOAD PUSH1 0x20 DUP2 ADD SWAP1 SWAP2 MSTORE PUSH1 0x0 DUP2 MSTORE SWAP1 JUMP JUMPDEST PUSH1 0x0 PUSH1 0x40 MLOAD DUP1 PUSH1 0x60 ADD PUSH1 0x40 MSTORE DUP1 PUSH1 0x40 DUP2 MSTORE PUSH1 0x20 ADD PUSH2 0x2BC0 PUSH1 0x40 SWAP2 CODECOPY SWAP1 POP PUSH1 0x0 PUSH1 0x3 DUP5 MLOAD PUSH1 0x2 PUSH2 0x1AC3 SWAP2 SWAP1 PUSH2 0x29F0 JUMP JUMPDEST PUSH2 0x1ACD SWAP2 SWAP1 PUSH2 0x2A2D JUMP JUMPDEST PUSH2 0x1AD8 SWAP1 PUSH1 0x4 PUSH2 0x2A4F JUMP JUMPDEST SWAP1 POP PUSH1 0x0 PUSH2 0x1AE7 DUP3 PUSH1 0x20 PUSH2 0x29F0 JUMP JUMPDEST PUSH8 0xFFFFFFFFFFFFFFFF DUP2 GT ISZERO PUSH2 0x1AFF JUMPI PUSH2 0x1AFF PUSH2 0x2B33 JUMP JUMPDEST PUSH1 0x40 MLOAD SWAP1 DUP1 DUP3 MSTORE DUP1 PUSH1 0x1F ADD PUSH1 0x1F NOT AND PUSH1 0x20 ADD DUP3 ADD PUSH1 0x40 MSTORE DUP1 ISZERO PUSH2 0x1B29 JUMPI PUSH1 0x20 DUP3 ADD DUP2 DUP1 CALLDATASIZE DUP4 CALLDATACOPY ADD SWAP1 POP JUMPDEST POP SWAP1 POP DUP2 DUP2 MSTORE PUSH1 0x1 DUP4 ADD DUP6 DUP7 MLOAD DUP2 ADD PUSH1 0x20 DUP5 ADD JUMPDEST DUP2 DUP4 LT ISZERO PUSH2 0x1B97 JUMPI PUSH1 0x3 SWAP3 DUP4 ADD DUP1 MLOAD PUSH1 0x3F PUSH1 0x12 DUP3 SWAP1 SHR DUP2 AND DUP8 ADD MLOAD PUSH1 0xF8 SWAP1 DUP2 SHL DUP6 MSTORE PUSH1 0xC DUP4 SWAP1 SHR DUP3 AND DUP9 ADD MLOAD DUP2 SHL PUSH1 0x1 DUP7 ADD MSTORE PUSH1 0x6 DUP4 SWAP1 SHR DUP3 AND DUP9 ADD MLOAD DUP2 SHL PUSH1 0x2 DUP7 ADD MSTORE SWAP2 AND DUP7 ADD MLOAD SWAP1 SHL SWAP4 DUP3 ADD SWAP4 SWAP1 SWAP4 MSTORE PUSH1 0x4 ADD PUSH2 0x1B3D JUMP JUMPDEST PUSH1 0x3 DUP10 MLOAD MOD PUSH1 0x1 DUP2 EQ PUSH2 0x1BB1 JUMPI PUSH1 0x2 DUP2 EQ PUSH2 0x1BC2 JUMPI PUSH2 0x1BCE JUMP JUMPDEST PUSH2 0x3D3D PUSH1 0xF0 SHL PUSH1 0x1 NOT DUP4 ADD MSTORE PUSH2 0x1BCE JUMP JUMPDEST PUSH1 0x3D PUSH1 0xF8 SHL PUSH1 0x0 NOT DUP4 ADD MSTORE JUMPDEST POP SWAP4 SWAP9 SWAP8 POP POP POP POP POP POP POP POP JUMP JUMPDEST PUSH2 0x1BF6 DUP3 DUP3 PUSH1 0x40 MLOAD DUP1 PUSH1 0x20 ADD PUSH1 0x40 MSTORE DUP1 PUSH1 0x0 DUP2 MSTORE POP PUSH2 0x1DA8 JUMP JUMPDEST POP POP JUMP JUMPDEST PUSH1 0x60 DUP2 PUSH2 0x1C1E JUMPI POP POP PUSH1 0x40 DUP1 MLOAD DUP1 DUP3 ADD SWAP1 SWAP2 MSTORE PUSH1 0x1 DUP2 MSTORE PUSH1 0x3 PUSH1 0xFC SHL PUSH1 0x20 DUP3 ADD MSTORE SWAP1 JUMP JUMPDEST DUP2 PUSH1 0x0 JUMPDEST DUP2 ISZERO PUSH2 0x1C48 JUMPI DUP1 PUSH2 0x1C32 DUP2 PUSH2 0x2AEC JUMP JUMPDEST SWAP2 POP PUSH2 0x1C41 SWAP1 POP PUSH1 0xA DUP4 PUSH2 0x2A2D JUMP JUMPDEST SWAP2 POP PUSH2 0x1C22 JUMP JUMPDEST PUSH1 0x0 DUP2 PUSH8 0xFFFFFFFFFFFFFFFF DUP2 GT ISZERO PUSH2 0x1C63 JUMPI PUSH2 0x1C63 PUSH2 0x2B33 JUMP JUMPDEST PUSH1 0x40 MLOAD SWAP1 DUP1 DUP3 MSTORE DUP1 PUSH1 0x1F ADD PUSH1 0x1F NOT AND PUSH1 0x20 ADD DUP3 ADD PUSH1 0x40 MSTORE DUP1 ISZERO PUSH2 0x1C8D JUMPI PUSH1 0x20 DUP3 ADD DUP2 DUP1 CALLDATASIZE DUP4 CALLDATACOPY ADD SWAP1 POP JUMPDEST POP SWAP1 POP DUP2 JUMPDEST DUP6 ISZERO PUSH2 0x1D1A JUMPI PUSH2 0x1CA3 PUSH1 0x1 DUP3 PUSH2 0x2A6E JUMP JUMPDEST SWAP1 POP PUSH1 0x0 PUSH2 0x1CB2 PUSH1 0xA DUP9 PUSH2 0x2A2D JUMP JUMPDEST PUSH2 0x1CBD SWAP1 PUSH1 0xA PUSH2 0x2A4F JUMP JUMPDEST PUSH2 0x1CC7 SWAP1 DUP9 PUSH2 0x2A6E JUMP JUMPDEST PUSH2 0x1CD2 SWAP1 PUSH1 0x30 PUSH2 0x2A08 JUMP JUMPDEST SWAP1 POP PUSH1 0x0 DUP2 PUSH1 0xF8 SHL SWAP1 POP DUP1 DUP5 DUP5 DUP2 MLOAD DUP2 LT PUSH2 0x1CEF JUMPI PUSH2 0x1CEF PUSH2 0x2B1D JUMP JUMPDEST PUSH1 0x20 ADD ADD SWAP1 PUSH1 0x1 PUSH1 0x1 PUSH1 0xF8 SHL SUB NOT AND SWAP1 DUP2 PUSH1 0x0 BYTE SWAP1 MSTORE8 POP PUSH2 0x1D11 PUSH1 0xA DUP10 PUSH2 0x2A2D JUMP JUMPDEST SWAP8 POP POP POP PUSH2 0x1C92 JUMP JUMPDEST POP SWAP5 SWAP4 POP POP POP POP JUMP JUMPDEST PUSH1 0x8 DUP1 SLOAD PUSH1 0x1 PUSH1 0x1 PUSH1 0xA0 SHL SUB DUP4 DUP2 AND PUSH1 0x1 PUSH1 0x1 PUSH1 0xA0 SHL SUB NOT DUP4 AND DUP2 OR SWAP1 SWAP4 SSTORE PUSH1 0x40 MLOAD SWAP2 AND SWAP2 SWAP1 DUP3 SWAP1 PUSH32 0x8BE0079C531659141344CD1FD0A4F28419497F9722A3DAAFE3B4186F6B6457E0 SWAP1 PUSH1 0x0 SWAP1 LOG3 POP POP JUMP JUMPDEST PUSH2 0x1D80 DUP5 DUP5 DUP5 PUSH2 0x18D4 JUMP JUMPDEST PUSH2 0x1D8C DUP5 DUP5 DUP5 DUP5 PUSH2 0x1DDB JUMP JUMPDEST PUSH2 0x13AC JUMPI PUSH1 0x40 MLOAD PUSH3 0x461BCD PUSH1 0xE5 SHL DUP2 MSTORE PUSH1 0x4 ADD PUSH2 0x692 SWAP1 PUSH2 0x2918 JUMP JUMPDEST PUSH2 0x1DB2 DUP4 DUP4 PUSH2 0x1EE8 JUMP JUMPDEST PUSH2 0x1DBF PUSH1 0x0 DUP5 DUP5 DUP5 PUSH2 0x1DDB JUMP JUMPDEST PUSH2 0x7C8 JUMPI PUSH1 0x40 MLOAD PUSH3 0x461BCD PUSH1 0xE5 SHL DUP2 MSTORE PUSH1 0x4 ADD PUSH2 0x692 SWAP1 PUSH2 0x2918 JUMP JUMPDEST PUSH1 0x0 PUSH1 0x1 PUSH1 0x1 PUSH1 0xA0 SHL SUB DUP5 AND EXTCODESIZE ISZERO PUSH2 0x1EDD JUMPI PUSH1 0x40 MLOAD PUSH4 0xA85BD01 PUSH1 0xE1 SHL DUP2 MSTORE PUSH1 0x1 PUSH1 0x1 PUSH1 0xA0 SHL SUB DUP6 AND SWAP1 PUSH4 0x150B7A02 SWAP1 PUSH2 0x1E1F SWAP1 CALLER SWAP1 DUP10 SWAP1 DUP9 SWAP1 DUP9 SWAP1 PUSH1 0x4 ADD PUSH2 0x288E JUMP JUMPDEST PUSH1 0x20 PUSH1 0x40 MLOAD DUP1 DUP4 SUB DUP2 PUSH1 0x0 DUP8 DUP1 EXTCODESIZE ISZERO DUP1 ISZERO PUSH2 0x1E39 JUMPI PUSH1 0x0 DUP1 REVERT JUMPDEST POP GAS CALL SWAP3 POP POP POP DUP1 ISZERO PUSH2 0x1E69 JUMPI POP PUSH1 0x40 DUP1 MLOAD PUSH1 0x1F RETURNDATASIZE SWAP1 DUP2 ADD PUSH1 0x1F NOT AND DUP3 ADD SWAP1 SWAP3 MSTORE PUSH2 0x1E66 SWAP2 DUP2 ADD SWAP1 PUSH2 0x2303 JUMP JUMPDEST PUSH1 0x1 JUMPDEST PUSH2 0x1EC3 JUMPI RETURNDATASIZE DUP1 DUP1 ISZERO PUSH2 0x1E97 JUMPI PUSH1 0x40 MLOAD SWAP2 POP PUSH1 0x1F NOT PUSH1 0x3F RETURNDATASIZE ADD AND DUP3 ADD PUSH1 0x40 MSTORE RETURNDATASIZE DUP3 MSTORE RETURNDATASIZE PUSH1 0x0 PUSH1 0x20 DUP5 ADD RETURNDATACOPY PUSH2 0x1E9C JUMP JUMPDEST PUSH1 0x60 SWAP2 POP JUMPDEST POP DUP1 MLOAD PUSH2 0x1EBB JUMPI PUSH1 0x40 MLOAD PUSH3 0x461BCD PUSH1 0xE5 SHL DUP2 MSTORE PUSH1 0x4 ADD PUSH2 0x692 SWAP1 PUSH2 0x2918 JUMP JUMPDEST DUP1 MLOAD DUP2 PUSH1 0x20 ADD REVERT JUMPDEST PUSH1 0x1 PUSH1 0x1 PUSH1 0xE0 SHL SUB NOT AND PUSH4 0xA85BD01 PUSH1 0xE1 SHL EQ SWAP1 POP PUSH2 0x155F JUMP JUMPDEST POP PUSH1 0x1 SWAP5 SWAP4 POP POP POP POP JUMP JUMPDEST PUSH1 0x1 PUSH1 0x1 PUSH1 0xA0 SHL SUB DUP3 AND PUSH2 0x1F3E JUMPI PUSH1 0x40 MLOAD PUSH3 0x461BCD PUSH1 0xE5 SHL DUP2 MSTORE PUSH1 0x20 PUSH1 0x4 DUP3 ADD DUP2 SWAP1 MSTORE PUSH1 0x24 DUP3 ADD MSTORE PUSH32 0x4552433732313A206D696E7420746F20746865207A65726F2061646472657373 PUSH1 0x44 DUP3 ADD MSTORE PUSH1 0x64 ADD PUSH2 0x692 JUMP JUMPDEST PUSH1 0x0 DUP2 DUP2 MSTORE PUSH1 0x3 PUSH1 0x20 MSTORE PUSH1 0x40 SWAP1 KECCAK256 SLOAD PUSH1 0x1 PUSH1 0x1 PUSH1 0xA0 SHL SUB AND ISZERO PUSH2 0x1FA3 JUMPI PUSH1 0x40 MLOAD PUSH3 0x461BCD PUSH1 0xE5 SHL DUP2 MSTORE PUSH1 0x20 PUSH1 0x4 DUP3 ADD MSTORE PUSH1 0x1C PUSH1 0x24 DUP3 ADD MSTORE PUSH32 0x4552433732313A20746F6B656E20616C7265616479206D696E74656400000000 PUSH1 0x44 DUP3 ADD MSTORE PUSH1 0x64 ADD PUSH2 0x692 JUMP JUMPDEST PUSH1 0x1 PUSH1 0x1 PUSH1 0xA0 SHL SUB DUP3 AND PUSH1 0x0 SWAP1 DUP2 MSTORE PUSH1 0x4 PUSH1 0x20 MSTORE PUSH1 0x40 DUP2 KECCAK256 DUP1 SLOAD PUSH1 0x1 SWAP3 SWAP1 PUSH2 0x1FCC SWAP1 DUP5 SWAP1 PUSH2 0x29F0 JUMP JUMPDEST SWAP1 SWAP2 SSTORE POP POP PUSH1 0x0 DUP2 DUP2 MSTORE PUSH1 0x3 PUSH1 0x20 MSTORE PUSH1 0x40 DUP1 DUP3 KECCAK256 DUP1 SLOAD PUSH1 0x1 PUSH1 0x1 PUSH1 0xA0 SHL SUB NOT AND PUSH1 0x1 PUSH1 0x1 PUSH1 0xA0 SHL SUB DUP7 AND SWAP1 DUP2 OR SWAP1 SWAP2 SSTORE SWAP1 MLOAD DUP4 SWAP3 SWAP1 PUSH32 0xDDF252AD1BE2C89B69C2B068FC378DAA952BA7F163C4A11628F55A4DF523B3EF SWAP1 DUP3 SWAP1 LOG4 POP POP JUMP JUMPDEST DUP3 DUP1 SLOAD PUSH2 0x2036 SWAP1 PUSH2 0x2AB1 JUMP JUMPDEST SWAP1 PUSH1 0x0 MSTORE PUSH1 0x20 PUSH1 0x0 KECCAK256 SWAP1 PUSH1 0x1F ADD PUSH1 0x20 SWAP1 DIV DUP2 ADD SWAP3 DUP3 PUSH2 0x2058 JUMPI PUSH1 0x0 DUP6 SSTORE PUSH2 0x209E JUMP JUMPDEST DUP3 PUSH1 0x1F LT PUSH2 0x2071 JUMPI DUP1 MLOAD PUSH1 0xFF NOT AND DUP4 DUP1 ADD OR DUP6 SSTORE PUSH2 0x209E JUMP JUMPDEST DUP3 DUP1 ADD PUSH1 0x1 ADD DUP6 SSTORE DUP3 ISZERO PUSH2 0x209E JUMPI SWAP2 DUP3 ADD JUMPDEST DUP3 DUP2 GT ISZERO PUSH2 0x209E JUMPI DUP3 MLOAD DUP3 SSTORE SWAP2 PUSH1 0x20 ADD SWAP2 SWAP1 PUSH1 0x1 ADD SWAP1 PUSH2 0x2083 JUMP JUMPDEST POP PUSH2 0x20AA SWAP3 SWAP2 POP PUSH2 0x20AE JUMP JUMPDEST POP SWAP1 JUMP JUMPDEST JUMPDEST DUP1 DUP3 GT ISZERO PUSH2 0x20AA JUMPI PUSH1 0x0 DUP2 SSTORE PUSH1 0x1 ADD PUSH2 0x20AF JUMP JUMPDEST PUSH1 0x0 PUSH8 0xFFFFFFFFFFFFFFFF DUP1 DUP5 GT ISZERO PUSH2 0x20DE JUMPI PUSH2 0x20DE PUSH2 0x2B33 JUMP JUMPDEST PUSH1 0x40 MLOAD PUSH1 0x1F DUP6 ADD PUSH1 0x1F NOT SWAP1 DUP2 AND PUSH1 0x3F ADD AND DUP2 ADD SWAP1 DUP3 DUP3 GT DUP2 DUP4 LT OR ISZERO PUSH2 0x2106 JUMPI PUSH2 0x2106 PUSH2 0x2B33 JUMP JUMPDEST DUP2 PUSH1 0x40 MSTORE DUP1 SWAP4 POP DUP6 DUP2 MSTORE DUP7 DUP7 DUP7 ADD GT ISZERO PUSH2 0x211F JUMPI PUSH1 0x0 DUP1 REVERT JUMPDEST DUP6 DUP6 PUSH1 0x20 DUP4 ADD CALLDATACOPY PUSH1 0x0 PUSH1 0x20 DUP8 DUP4 ADD ADD MSTORE POP POP POP SWAP4 SWAP3 POP POP POP JUMP JUMPDEST DUP1 CALLDATALOAD PUSH1 0x1 PUSH1 0x1 PUSH1 0xA0 SHL SUB DUP2 AND DUP2 EQ PUSH2 0x2150 JUMPI PUSH1 0x0 DUP1 REVERT JUMPDEST SWAP2 SWAP1 POP JUMP JUMPDEST DUP1 CALLDATALOAD DUP1 ISZERO ISZERO DUP2 EQ PUSH2 0x2150 JUMPI PUSH1 0x0 DUP1 REVERT JUMPDEST PUSH1 0x0 DUP3 PUSH1 0x1F DUP4 ADD SLT PUSH2 0x2176 JUMPI PUSH1 0x0 DUP1 REVERT JUMPDEST PUSH2 0x2185 DUP4 DUP4 CALLDATALOAD PUSH1 0x20 DUP6 ADD PUSH2 0x20C3 JUMP JUMPDEST SWAP4 SWAP3 POP POP POP JUMP JUMPDEST PUSH1 0x0 PUSH1 0x20 DUP3 DUP5 SUB SLT ISZERO PUSH2 0x219E JUMPI PUSH1 0x0 DUP1 REVERT JUMPDEST PUSH2 0x2185 DUP3 PUSH2 0x2139 JUMP JUMPDEST PUSH1 0x0 DUP1 PUSH1 0x40 DUP4 DUP6 SUB SLT ISZERO PUSH2 0x21BA JUMPI PUSH1 0x0 DUP1 REVERT JUMPDEST PUSH2 0x21C3 DUP4 PUSH2 0x2139 JUMP JUMPDEST SWAP2 POP PUSH2 0x21D1 PUSH1 0x20 DUP5 ADD PUSH2 0x2139 JUMP JUMPDEST SWAP1 POP SWAP3 POP SWAP3 SWAP1 POP JUMP JUMPDEST PUSH1 0x0 DUP1 PUSH1 0x0 PUSH1 0x60 DUP5 DUP7 SUB SLT ISZERO PUSH2 0x21EF JUMPI PUSH1 0x0 DUP1 REVERT JUMPDEST PUSH2 0x21F8 DUP5 PUSH2 0x2139 JUMP JUMPDEST SWAP3 POP PUSH2 0x2206 PUSH1 0x20 DUP6 ADD PUSH2 0x2139 JUMP JUMPDEST SWAP2 POP PUSH1 0x40 DUP5 ADD CALLDATALOAD SWAP1 POP SWAP3 POP SWAP3 POP SWAP3 JUMP JUMPDEST PUSH1 0x0 DUP1 PUSH1 0x0 DUP1 PUSH1 0x80 DUP6 DUP8 SUB SLT ISZERO PUSH2 0x222C JUMPI PUSH1 0x0 DUP1 REVERT JUMPDEST PUSH2 0x2235 DUP6 PUSH2 0x2139 JUMP JUMPDEST SWAP4 POP PUSH2 0x2243 PUSH1 0x20 DUP7 ADD PUSH2 0x2139 JUMP JUMPDEST SWAP3 POP PUSH1 0x40 DUP6 ADD CALLDATALOAD SWAP2 POP PUSH1 0x60 DUP6 ADD CALLDATALOAD PUSH8 0xFFFFFFFFFFFFFFFF DUP2 GT ISZERO PUSH2 0x2266 JUMPI PUSH1 0x0 DUP1 REVERT JUMPDEST DUP6 ADD PUSH1 0x1F DUP2 ADD DUP8 SGT PUSH2 0x2277 JUMPI PUSH1 0x0 DUP1 REVERT JUMPDEST PUSH2 0x2286 DUP8 DUP3 CALLDATALOAD PUSH1 0x20 DUP5 ADD PUSH2 0x20C3 JUMP JUMPDEST SWAP2 POP POP SWAP3 SWAP6 SWAP2 SWAP5 POP SWAP3 POP JUMP JUMPDEST PUSH1 0x0 DUP1 PUSH1 0x40 DUP4 DUP6 SUB SLT ISZERO PUSH2 0x22A5 JUMPI PUSH1 0x0 DUP1 REVERT JUMPDEST PUSH2 0x22AE DUP4 PUSH2 0x2139 JUMP JUMPDEST SWAP2 POP PUSH2 0x21D1 PUSH1 0x20 DUP5 ADD PUSH2 0x2155 JUMP JUMPDEST PUSH1 0x0 DUP1 PUSH1 0x40 DUP4 DUP6 SUB SLT ISZERO PUSH2 0x22CF JUMPI PUSH1 0x0 DUP1 REVERT JUMPDEST PUSH2 0x22D8 DUP4 PUSH2 0x2139 JUMP JUMPDEST SWAP5 PUSH1 0x20 SWAP4 SWAP1 SWAP4 ADD CALLDATALOAD SWAP4 POP POP POP JUMP JUMPDEST PUSH1 0x0 PUSH1 0x20 DUP3 DUP5 SUB SLT ISZERO PUSH2 0x22F8 JUMPI PUSH1 0x0 DUP1 REVERT JUMPDEST DUP2 CALLDATALOAD PUSH2 0x2185 DUP2 PUSH2 0x2B49 JUMP JUMPDEST PUSH1 0x0 PUSH1 0x20 DUP3 DUP5 SUB SLT ISZERO PUSH2 0x2315 JUMPI PUSH1 0x0 DUP1 REVERT JUMPDEST DUP2 MLOAD PUSH2 0x2185 DUP2 PUSH2 0x2B49 JUMP JUMPDEST PUSH1 0x0 PUSH1 0x20 DUP3 DUP5 SUB SLT ISZERO PUSH2 0x2332 JUMPI PUSH1 0x0 DUP1 REVERT JUMPDEST DUP2 CALLDATALOAD PUSH8 0xFFFFFFFFFFFFFFFF DUP2 GT ISZERO PUSH2 0x2349 JUMPI PUSH1 0x0 DUP1 REVERT JUMPDEST PUSH2 0x155F DUP5 DUP3 DUP6 ADD PUSH2 0x2165 JUMP JUMPDEST PUSH1 0x0 DUP1 PUSH1 0x40 DUP4 DUP6 SUB SLT ISZERO PUSH2 0x2368 JUMPI PUSH1 0x0 DUP1 REVERT JUMPDEST DUP3 CALLDATALOAD PUSH8 0xFFFFFFFFFFFFFFFF DUP1 DUP3 GT ISZERO PUSH2 0x2380 JUMPI PUSH1 0x0 DUP1 REVERT JUMPDEST PUSH2 0x238C DUP7 DUP4 DUP8 ADD PUSH2 0x2165 JUMP JUMPDEST SWAP4 POP PUSH1 0x20 DUP6 ADD CALLDATALOAD SWAP2 POP DUP1 DUP3 GT ISZERO PUSH2 0x23A2 JUMPI PUSH1 0x0 DUP1 REVERT JUMPDEST POP PUSH2 0x23AF DUP6 DUP3 DUP7 ADD PUSH2 0x2165 JUMP JUMPDEST SWAP2 POP POP SWAP3 POP SWAP3 SWAP1 POP JUMP JUMPDEST PUSH1 0x0 DUP1 PUSH1 0x40 DUP4 DUP6 SUB SLT ISZERO PUSH2 0x23CC JUMPI PUSH1 0x0 DUP1 REVERT JUMPDEST DUP3 CALLDATALOAD PUSH8 0xFFFFFFFFFFFFFFFF DUP2 GT ISZERO PUSH2 0x23E3 JUMPI PUSH1 0x0 DUP1 REVERT JUMPDEST PUSH2 0x23EF DUP6 DUP3 DUP7 ADD PUSH2 0x2165 JUMP JUMPDEST SWAP6 PUSH1 0x20 SWAP5 SWAP1 SWAP5 ADD CALLDATALOAD SWAP5 POP POP POP POP JUMP JUMPDEST PUSH1 0x0 PUSH1 0x20 DUP3 DUP5 SUB SLT ISZERO PUSH2 0x2410 JUMPI PUSH1 0x0 DUP1 REVERT JUMPDEST POP CALLDATALOAD SWAP2 SWAP1 POP JUMP JUMPDEST PUSH1 0x0 DUP1 PUSH1 0x40 DUP4 DUP6 SUB SLT ISZERO PUSH2 0x242A JUMPI PUSH1 0x0 DUP1 REVERT JUMPDEST DUP3 CALLDATALOAD SWAP2 POP PUSH2 0x21D1 PUSH1 0x20 DUP5 ADD PUSH2 0x2155 JUMP JUMPDEST PUSH1 0x0 DUP1 PUSH1 0x40 DUP4 DUP6 SUB SLT ISZERO PUSH2 0x244D JUMPI PUSH1 0x0 DUP1 REVERT JUMPDEST DUP3 CALLDATALOAD SWAP2 POP PUSH1 0x20 DUP4 ADD CALLDATALOAD PUSH8 0xFFFFFFFFFFFFFFFF DUP2 GT ISZERO PUSH2 0x246B JUMPI PUSH1 0x0 DUP1 REVERT JUMPDEST PUSH2 0x23AF DUP6 DUP3 DUP7 ADD PUSH2 0x2165 JUMP JUMPDEST PUSH1 0x0 DUP2 MLOAD DUP1 DUP5 MSTORE PUSH2 0x248F DUP2 PUSH1 0x20 DUP7 ADD PUSH1 0x20 DUP7 ADD PUSH2 0x2A85 JUMP JUMPDEST PUSH1 0x1F ADD PUSH1 0x1F NOT AND SWAP3 SWAP1 SWAP3 ADD PUSH1 0x20 ADD SWAP3 SWAP2 POP POP JUMP JUMPDEST PUSH1 0x0 DUP2 MLOAD PUSH2 0x24B5 DUP2 DUP6 PUSH1 0x20 DUP7 ADD PUSH2 0x2A85 JUMP JUMPDEST SWAP3 SWAP1 SWAP3 ADD SWAP3 SWAP2 POP POP JUMP JUMPDEST PUSH1 0x0 DUP3 MLOAD PUSH2 0x24D1 DUP2 DUP5 PUSH1 0x20 DUP8 ADD PUSH2 0x2A85 JUMP JUMPDEST SWAP2 SWAP1 SWAP2 ADD SWAP3 SWAP2 POP POP JUMP JUMPDEST PUSH1 0x0 DUP4 MLOAD PUSH2 0x24ED DUP2 DUP5 PUSH1 0x20 DUP9 ADD PUSH2 0x2A85 JUMP JUMPDEST DUP4 MLOAD SWAP1 DUP4 ADD SWAP1 PUSH2 0x2501 DUP2 DUP4 PUSH1 0x20 DUP9 ADD PUSH2 0x2A85 JUMP JUMPDEST ADD SWAP5 SWAP4 POP POP POP POP JUMP JUMPDEST PUSH1 0x0 DUP4 MLOAD PUSH2 0x251C DUP2 DUP5 PUSH1 0x20 DUP9 ADD PUSH2 0x2A85 JUMP JUMPDEST DUP4 MLOAD SWAP1 DUP4 ADD SWAP1 PUSH2 0x2530 DUP2 DUP4 PUSH1 0x20 DUP9 ADD PUSH2 0x2A85 JUMP JUMPDEST PUSH6 0x1E17B9BB339F PUSH1 0xD1 SHL SWAP2 ADD SWAP1 DUP2 MSTORE PUSH1 0x6 ADD SWAP5 SWAP4 POP POP POP POP JUMP JUMPDEST PUSH9 0x3D913730B6B2911D11 PUSH1 0xB9 SHL DUP2 MSTORE DUP6 MLOAD PUSH1 0x0 SWAP1 PUSH2 0x256F DUP2 PUSH1 0x9 DUP6 ADD PUSH1 0x20 DUP12 ADD PUSH2 0x2A85 JUMP JUMPDEST PUSH2 0x161 PUSH1 0xF5 SHL PUSH1 0x9 SWAP2 DUP5 ADD SWAP2 DUP3 ADD MSTORE DUP7 MLOAD PUSH2 0x2591 DUP2 PUSH1 0xB DUP5 ADD PUSH1 0x20 DUP12 ADD PUSH2 0x2A85 JUMP JUMPDEST PUSH32 0x222C20226465736372697074696F6E223A224120506978656C20666F7220616E PUSH1 0xB SWAP3 SWAP1 SWAP2 ADD SWAP2 DUP3 ADD MSTORE PUSH32 0x204E46546174222C202261747472696275746573223A205B7B2274726169745F PUSH1 0x2B DUP3 ADD MSTORE PUSH32 0x74797065223A2022786C6F636174696F6E222C202276616C7565223A20000000 PUSH1 0x4B DUP3 ADD MSTORE DUP6 MLOAD PUSH2 0x261B DUP2 PUSH1 0x68 DUP5 ADD PUSH1 0x20 DUP11 ADD PUSH2 0x2A85 JUMP JUMPDEST PUSH32 0x7D2C207B2274726169745F74797065223A2022796C6F636174696F6E222C2022 PUSH1 0x68 SWAP3 SWAP1 SWAP2 ADD SWAP2 DUP3 ADD MSTORE PUSH8 0x3B30B63AB2911D1 PUSH1 0xC5 SHL PUSH1 0x88 DUP3 ADD MSTORE PUSH2 0x269A PUSH2 0x268C PUSH2 0x2686 PUSH2 0x266D PUSH1 0x90 DUP6 ADD DUP10 PUSH2 0x24A3 JUMP JUMPDEST PUSH13 0x3EAE96101134B6B0B3B2911D11 PUSH1 0x99 SHL DUP2 MSTORE PUSH1 0xD ADD SWAP1 JUMP JUMPDEST DUP7 PUSH2 0x24A3 JUMP JUMPDEST PUSH2 0x227D PUSH1 0xF0 SHL DUP2 MSTORE PUSH1 0x2 ADD SWAP1 JUMP JUMPDEST SWAP9 SWAP8 POP POP POP POP POP POP POP POP JUMP JUMPDEST PUSH8 0x272066696C6C3D27 PUSH1 0xC0 SHL DUP2 MSTORE PUSH1 0x0 DUP3 MLOAD PUSH2 0x26C9 DUP2 PUSH1 0x8 DUP6 ADD PUSH1 0x20 DUP8 ADD PUSH2 0x2A85 JUMP JUMPDEST PUSH2 0x139 PUSH1 0xF5 SHL PUSH1 0x8 SWAP4 SWAP1 SWAP2 ADD SWAP3 DUP4 ADD MSTORE POP PUSH1 0xA ADD SWAP2 SWAP1 POP JUMP JUMPDEST PUSH8 0x1E31B4B931B6329 PUSH1 0xC5 SHL DUP2 MSTORE PUSH1 0x0 DUP4 MLOAD PUSH2 0x2705 DUP2 PUSH1 0x8 DUP6 ADD PUSH1 0x20 DUP9 ADD PUSH2 0x2A85 JUMP JUMPDEST PUSH32 0x2063783D27343530272063793D273435302720723D27343530272066696C6C3D PUSH1 0x8 SWAP2 DUP5 ADD SWAP2 DUP3 ADD MSTORE PUSH1 0x27 PUSH1 0xF8 SHL PUSH1 0x28 DUP3 ADD MSTORE DUP4 MLOAD PUSH2 0x274C DUP2 PUSH1 0x29 DUP5 ADD PUSH1 0x20 DUP9 ADD PUSH2 0x2A85 JUMP JUMPDEST PUSH4 0x1390179F PUSH1 0xE1 SHL PUSH1 0x29 SWAP3 SWAP1 SWAP2 ADD SWAP2 DUP3 ADD MSTORE PUSH1 0x2D ADD SWAP5 SWAP4 POP POP POP POP JUMP JUMPDEST PUSH8 0x1E31B4B931B6329 PUSH1 0xC5 SHL DUP2 MSTORE PUSH1 0x0 DUP7 MLOAD PUSH1 0x20 PUSH2 0x278D DUP3 PUSH1 0x8 DUP7 ADD DUP4 DUP13 ADD PUSH2 0x2A85 JUMP JUMPDEST PUSH5 0x2063783D27 PUSH1 0xD8 SHL PUSH1 0x8 SWAP3 DUP6 ADD SWAP3 DUP4 ADD MSTORE DUP8 MLOAD PUSH2 0x27B1 DUP2 PUSH1 0xD DUP6 ADD DUP5 DUP13 ADD PUSH2 0x2A85 JUMP JUMPDEST PUSH6 0x272063793D27 PUSH1 0xD0 SHL PUSH1 0xD SWAP4 SWAP1 SWAP2 ADD SWAP3 DUP4 ADD MSTORE DUP7 MLOAD PUSH2 0x27D7 DUP2 PUSH1 0x13 DUP6 ADD DUP5 DUP12 ADD PUSH2 0x2A85 JUMP JUMPDEST PUSH5 0x2720723D27 PUSH1 0xD8 SHL PUSH1 0x13 SWAP4 SWAP1 SWAP2 ADD SWAP3 DUP4 ADD MSTORE DUP6 MLOAD PUSH2 0x27FC DUP2 PUSH1 0x18 DUP6 ADD DUP5 DUP11 ADD PUSH2 0x2A85 JUMP JUMPDEST PUSH8 0x272066696C6C3D27 PUSH1 0xC0 SHL PUSH1 0x18 SWAP4 SWAP1 SWAP2 ADD SWAP3 DUP4 ADD MSTORE DUP5 MLOAD PUSH2 0x2823 DUP2 DUP4 DUP6 ADD DUP5 DUP10 ADD PUSH2 0x2A85 JUMP JUMPDEST PUSH2 0x283B DUP3 DUP3 DUP6 ADD ADD PUSH4 0x1390179F PUSH1 0xE1 SHL DUP2 MSTORE PUSH1 0x4 ADD SWAP1 JUMP JUMPDEST SWAP11 SWAP10 POP POP POP POP POP POP POP POP POP POP JUMP JUMPDEST PUSH32 0x646174613A6170706C69636174696F6E2F6A736F6E3B6261736536342C000000 DUP2 MSTORE PUSH1 0x0 DUP3 MLOAD PUSH2 0x2881 DUP2 PUSH1 0x1D DUP6 ADD PUSH1 0x20 DUP8 ADD PUSH2 0x2A85 JUMP JUMPDEST SWAP2 SWAP1 SWAP2 ADD PUSH1 0x1D ADD SWAP3 SWAP2 POP POP JUMP JUMPDEST PUSH1 0x1 PUSH1 0x1 PUSH1 0xA0 SHL SUB DUP6 DUP2 AND DUP3 MSTORE DUP5 AND PUSH1 0x20 DUP3 ADD MSTORE PUSH1 0x40 DUP2 ADD DUP4 SWAP1 MSTORE PUSH1 0x80 PUSH1 0x60 DUP3 ADD DUP2 SWAP1 MSTORE PUSH1 0x0 SWAP1 PUSH2 0x28C1 SWAP1 DUP4 ADD DUP5 PUSH2 0x2477 JUMP JUMPDEST SWAP7 SWAP6 POP POP POP POP POP POP JUMP JUMPDEST DUP6 ISZERO ISZERO DUP2 MSTORE DUP5 ISZERO ISZERO PUSH1 0x20 DUP3 ADD MSTORE DUP4 PUSH1 0x40 DUP3 ADD MSTORE DUP3 PUSH1 0x60 DUP3 ADD MSTORE PUSH1 0xA0 PUSH1 0x80 DUP3 ADD MSTORE PUSH1 0x0 PUSH2 0x28FA PUSH1 0xA0 DUP4 ADD DUP5 PUSH2 0x2477 JUMP JUMPDEST SWAP8 SWAP7 POP POP POP POP POP POP POP JUMP JUMPDEST PUSH1 0x20 DUP2 MSTORE PUSH1 0x0 PUSH2 0x2185 PUSH1 0x20 DUP4 ADD DUP5 PUSH2 0x2477 JUMP JUMPDEST PUSH1 0x20 DUP1 DUP3 MSTORE PUSH1 0x32 SWAP1 DUP3 ADD MSTORE PUSH32 0x4552433732313A207472616E7366657220746F206E6F6E204552433732315265 PUSH1 0x40 DUP3 ADD MSTORE PUSH18 0x31B2B4BB32B91034B6B83632B6B2B73A32B9 PUSH1 0x71 SHL PUSH1 0x60 DUP3 ADD MSTORE PUSH1 0x80 ADD SWAP1 JUMP JUMPDEST PUSH1 0x20 DUP1 DUP3 MSTORE DUP2 DUP2 ADD MSTORE PUSH32 0x4F776E61626C653A2063616C6C6572206973206E6F7420746865206F776E6572 PUSH1 0x40 DUP3 ADD MSTORE PUSH1 0x60 ADD SWAP1 JUMP JUMPDEST PUSH1 0x20 DUP1 DUP3 MSTORE PUSH1 0x31 SWAP1 DUP3 ADD MSTORE PUSH32 0x4552433732313A207472616E736665722063616C6C6572206973206E6F74206F PUSH1 0x40 DUP3 ADD MSTORE PUSH17 0x1DDB995C881B9BDC88185C1C1C9BDD9959 PUSH1 0x7A SHL PUSH1 0x60 DUP3 ADD MSTORE PUSH1 0x80 ADD SWAP1 JUMP JUMPDEST PUSH1 0x0 DUP3 NOT DUP3 GT ISZERO PUSH2 0x2A03 JUMPI PUSH2 0x2A03 PUSH2 0x2B07 JUMP JUMPDEST POP ADD SWAP1 JUMP JUMPDEST PUSH1 0x0 PUSH1 0xFF DUP3 AND PUSH1 0xFF DUP5 AND DUP1 PUSH1 0xFF SUB DUP3 GT ISZERO PUSH2 0x2A25 JUMPI PUSH2 0x2A25 PUSH2 0x2B07 JUMP JUMPDEST ADD SWAP4 SWAP3 POP POP POP JUMP JUMPDEST PUSH1 0x0 DUP3 PUSH2 0x2A4A JUMPI PUSH4 0x4E487B71 PUSH1 0xE0 SHL PUSH1 0x0 MSTORE PUSH1 0x12 PUSH1 0x4 MSTORE PUSH1 0x24 PUSH1 0x0 REVERT JUMPDEST POP DIV SWAP1 JUMP JUMPDEST PUSH1 0x0 DUP2 PUSH1 0x0 NOT DIV DUP4 GT DUP3 ISZERO ISZERO AND ISZERO PUSH2 0x2A69 JUMPI PUSH2 0x2A69 PUSH2 0x2B07 JUMP JUMPDEST POP MUL SWAP1 JUMP JUMPDEST PUSH1 0x0 DUP3 DUP3 LT ISZERO PUSH2 0x2A80 JUMPI PUSH2 0x2A80 PUSH2 0x2B07 JUMP JUMPDEST POP SUB SWAP1 JUMP JUMPDEST PUSH1 0x0 JUMPDEST DUP4 DUP2 LT ISZERO PUSH2 0x2AA0 JUMPI DUP2 DUP2 ADD MLOAD DUP4 DUP3 ADD MSTORE PUSH1 0x20 ADD PUSH2 0x2A88 JUMP JUMPDEST DUP4 DUP2 GT ISZERO PUSH2 0x13AC JUMPI POP POP PUSH1 0x0 SWAP2 ADD MSTORE JUMP JUMPDEST PUSH1 0x1 DUP2 DUP2 SHR SWAP1 DUP3 AND DUP1 PUSH2 0x2AC5 JUMPI PUSH1 0x7F DUP3 AND SWAP2 POP JUMPDEST PUSH1 0x20 DUP3 LT DUP2 EQ ISZERO PUSH2 0x2AE6 JUMPI PUSH4 0x4E487B71 PUSH1 0xE0 SHL PUSH1 0x0 MSTORE PUSH1 0x22 PUSH1 0x4 MSTORE PUSH1 0x24 PUSH1 0x0 REVERT JUMPDEST POP SWAP2 SWAP1 POP JUMP JUMPDEST PUSH1 0x0 PUSH1 0x0 NOT DUP3 EQ ISZERO PUSH2 0x2B00 JUMPI PUSH2 0x2B00 PUSH2 0x2B07 JUMP JUMPDEST POP PUSH1 0x1 ADD SWAP1 JUMP JUMPDEST PUSH4 0x4E487B71 PUSH1 0xE0 SHL PUSH1 0x0 MSTORE PUSH1 0x11 PUSH1 0x4 MSTORE PUSH1 0x24 PUSH1 0x0 REVERT JUMPDEST PUSH4 0x4E487B71 PUSH1 0xE0 SHL PUSH1 0x0 MSTORE PUSH1 0x32 PUSH1 0x4 MSTORE PUSH1 0x24 PUSH1 0x0 REVERT JUMPDEST PUSH4 0x4E487B71 PUSH1 0xE0 SHL PUSH1 0x0 MSTORE PUSH1 0x41 PUSH1 0x4 MSTORE PUSH1 0x24 PUSH1 0x0 REVERT JUMPDEST PUSH1 0x1 PUSH1 0x1 PUSH1 0xE0 SHL SUB NOT DUP2 AND DUP2 EQ PUSH2 0x16B4 JUMPI PUSH1 0x0 DUP1 REVERT INVALID EXTCODECOPY PUSH20 0x766720786D6C6E733D27687474703A2F2F777777 0x2E PUSH24 0x332E6F72672F323030302F73766727206865696768743D27 CODECOPY ADDRESS ADDRESS 0x27 KECCAK256 PUSH24 0x696474683D2739303027207374796C653D276261636B6772 PUSH16 0x756E642D636F6C6F723A626C61636B27 RETURNDATACOPY COINBASE TIMESTAMP NUMBER DIFFICULTY GASLIMIT CHAINID SELFBALANCE BASEFEE 0x49 0x4A 0x4B 0x4C 0x4D 0x4E 0x4F POP MLOAD MSTORE MSTORE8 SLOAD SSTORE JUMP JUMPI PC MSIZE GAS PUSH2 0x6263 PUSH5 0x6566676869 PUSH11 0x6B6C6D6E6F707172737475 PUSH23 0x7778797A303132333435363738392B2FA2646970667358 0x22 SLT KECCAK256 RETURNDATASIZE 0xD7 PUSH5 0xDC1292554D DUP8 EXTCODEHASH RETURN 0xB6 0xD2 BASEFEE 0xB1 CALLDATASIZE 0xB6 0x23 0xCA 0xB3 0xB3 SELFBALANCE CHAINID DUP4 0xCC MLOAD EXTCODESIZE PUSH6 0xD91413636473 PUSH16 0x6C634300080700330000000000000000 ","sha1":"7c6f046f7b83018c6e7d093356ad2fd47cbbee8c","source":"// SPDX-License-Identifier: MIT\npragma solidity ^0.8.0;\n\nimport \"@openzeppelin/contracts/security/ReentrancyGuard.sol\";\nimport \"@openzeppelin/contracts/token/ERC721/extensions/ERC721URIStorage.sol\";\nimport \"@openzeppelin/contracts/access/Ownable.sol\";\nimport \"./library/base64.sol\";\n\n\ncontract NFTatPixel is ReentrancyGuard, ERC721URIStorage, Ownable {\n    uint256 public s_tokenCounter;\n    mapping(uint256 => Pixel) public s_tokenIdToPixel;\n    uint256 public s_pixelInterval;\n    uint256 public s_timeInterval;\n    string public s_grayScaleFilter;\n    mapping(uint256 => uint256) public s_tokenIdToStartTime;\n\n    constructor(uint256 _timeInterval) ERC721(\"NFTatPixel\", \"NFTP\") {\n        s_tokenCounter = 0;\n        s_pixelInterval = 60;\n        s_timeInterval = _timeInterval;\n        s_grayScaleFilter = \"filter='url(#grayscale)' \";\n    }\n\n    struct Pixel {\n        bool isBackground;\n        bool isBaseCircle;\n        uint256 xlocation;\n        uint256 ylocation;\n        string color;\n    }\n\n    function getIsBackground(uint256 _tokenId) public view returns (bool) {\n        return s_tokenIdToPixel[_tokenId].isBackground;\n    }\n\n    function getIsBaseCircle(uint256 _tokenId) public view returns (bool) {\n        return s_tokenIdToPixel[_tokenId].isBaseCircle;\n    }\n\n    function getXlocation(uint256 _tokenId) public view returns (uint256) {\n        return s_tokenIdToPixel[_tokenId].xlocation;\n    }\n\n    function getYlocation(uint256 _tokenId) public view returns (uint256) {\n        return s_tokenIdToPixel[_tokenId].ylocation;\n    }\n\n    function getColor(uint256 _tokenId) public view returns (string memory) {\n        return s_tokenIdToPixel[_tokenId].color;\n    }\n\n    function changeColor(uint256 tokenId, string memory color) public {\n        require(\n            _isApprovedOrOwner(_msgSender(), tokenId),\n            \"ERC721: transfer caller is not owner nor approved\"\n        );\n        require(s_tokenIdToStartTime[tokenId] + s_timeInterval >= block.timestamp, \"Time's up on changing colors!\");\n        // grayscale is a keyword\n        // transparent is a keyword\n        s_tokenIdToPixel[tokenId].color = color;\n    }\n\n    // right now it's just the nftat.sol that can call this\n    function mintSet(address nftOwner) public onlyOwner {\n        // we mint the 2 special tokens, background, and base circle\n        uint256 tokenCounter = s_tokenCounter;\n        // background\n        Pixel memory backGroundPixel = Pixel(true, false, 0, 0, \"grayscale\");\n        _safeMint(nftOwner, tokenCounter);\n        s_tokenIdToPixel[tokenCounter] = backGroundPixel;\n        s_tokenIdToStartTime[tokenCounter] = block.timestamp;\n        tokenCounter = tokenCounter + 1;\n        \n        // circle\n        Pixel memory circlePixel = Pixel(false, true, 0, 0, \"white\");\n        _safeMint(nftOwner, tokenCounter);\n        s_tokenIdToPixel[tokenCounter] = circlePixel;\n        s_tokenIdToStartTime[tokenCounter] = block.timestamp;\n        tokenCounter = tokenCounter + 1;\n\n        // // 225 makes it 15 x 15\n        // uint256 pixelInterval = s_pixelInterval;\n        // for(uint256 x = 0; x < 15; x++) {\n        //     for(uint256 y = 0; y < 15; y++) {\n        //         Pixel memory pixel = Pixel(false, false, (x * pixelInterval) + (pixelInterval/2), (y * pixelInterval) + (pixelInterval/2), \"transparent\");\n        //         _safeMint(nftOwner, tokenCounter);\n        //         s_tokenIdToPixel[tokenCounter] = pixel;\n        //         s_tokenIdToStartTime[tokenCounter] = block.timestamp;\n        //         tokenCounter = tokenCounter + 1;\n        //     }\n        // }\n        // s_tokenCounter = s_tokenCounter + (15 * 15) + 2;\n    }\n\n    function tokenURI(uint256 tokenId) public view override returns (string memory) {\n        require(_exists(tokenId), \"ERC721Metadata: URI query for nonexistent token\");\n        // we default all to not grayscale\n        string memory svg = getSVG(tokenId, false);\n        string memory imageURI = svgToImageURI(svg);\n        return formatTokenURI(imageURI, tokenId);\n    }\n\n    function getBaseSVG(uint256 tokenId, bool isGrayScale) public view returns (string memory) {\n        Pixel memory pixel = s_tokenIdToPixel[tokenId];\n        string memory filter = \"\";\n        string memory fill = string(abi.encodePacked(\"' fill='\", pixel.color, \"' \"));\n        if (isGrayScale) {\n            filter = s_grayScaleFilter;\n        }\n        if (compareStrings(pixel.color, \"transparent\")) {\n            fill = \"style='fill-opacity: 0' \";\n        }\n        return string(abi.encodePacked(\"<circle \", filter, \" cx='\", uint2str(pixel.xlocation), \"' cy='\",uint2str(pixel.ylocation) ,\"' r='\",uint2str(s_pixelInterval / 2) ,\"' fill='\",pixel.color ,\"' />\"));\n    }\n\n    function getBigCircleSVG(uint256 tokenId, bool isGrayScale) public view returns (string memory) {\n        Pixel memory pixel = s_tokenIdToPixel[tokenId];\n        string memory filter = \"\";\n        if (isGrayScale) {\n            filter = s_grayScaleFilter;\n        }\n        return string(abi.encodePacked(\"<circle \", filter ,\" cx='450' cy='450' r='450' fill='\", pixel.color ,\"' />\"));\n    }\n\n    function getSVG(uint256 tokenId, bool isGrayScale) public view returns (string memory) {\n        string memory base = \"<svg xmlns='http://www.w3.org/2000/svg' height='900' width='900' style='background-color:black'>\";\n        Pixel memory pixel = s_tokenIdToPixel[tokenId];\n        string memory baseSvg = \"\";\n        if (pixel.isBaseCircle) {\n            baseSvg = getBigCircleSVG(tokenId, isGrayScale);\n        } else {\n            baseSvg = getBaseSVG(tokenId, false);\n        }\n        return string(abi.encodePacked(base, baseSvg, \"</svg>\"));\n    }\n\n    function formatTokenURI(string memory imageURI, uint256 tokenId) public view returns (string memory) {\n        return string(\n                abi.encodePacked(\n                    \"data:application/json;base64,\",\n                    Base64.encode(\n                        bytes(\n                            abi.encodePacked(\n                                '{\"name\":\"',\n                                uint2str(s_tokenIdToPixel[tokenId].xlocation), ', ', uint2str(s_tokenIdToPixel[tokenId].ylocation),  // You can add whatever name here\n                                '\", \"description\":\"A Pixel for an NFTat\", \"attributes\": [{\"trait_type\": \"xlocation\", \"value\": ', uint2str(s_tokenIdToPixel[tokenId].xlocation),'}, {\"trait_type\": \"ylocation\", \"value\": ',uint2str(s_tokenIdToPixel[tokenId].ylocation),'}], \"image\":\"',imageURI,'\"}'\n                            )\n                        )\n                    )\n                )\n            );\n    }\n\n    function svgToImageURI(string memory svg) public pure returns (string memory) {\n        // example:\n        // <svg width='500' height='500' viewBox='0 0 285 350' fill='none' xmlns='http://www.w3.org/2000/svg'><path fill='black' d='M150,0,L75,200,L225,200,Z'></path></svg>\n        // data:image/svg+xml;base64,PHN2ZyB3aWR0aD0nNTAwJyBoZWlnaHQ9JzUwMCcgdmlld0JveD0nMCAwIDI4NSAzNTAnIGZpbGw9J25vbmUnIHhtbG5zPSdodHRwOi8vd3d3LnczLm9yZy8yMDAwL3N2Zyc+PHBhdGggZmlsbD0nYmxhY2snIGQ9J00xNTAsMCxMNzUsMjAwLEwyMjUsMjAwLFonPjwvcGF0aD48L3N2Zz4=\n        string memory baseURL = \"data:image/svg+xml;base64,\";\n        string memory svgBase64Encoded = Base64.encode(bytes(string(abi.encodePacked(svg))));\n        return string(abi.encodePacked(baseURL,svgBase64Encoded));\n    }\n\n    // From: https://stackoverflow.com/a/65707309/11969592\n    function uint2str(uint _i) internal pure returns (string memory _uintAsString) {\n        if (_i == 0) {\n            return \"0\";\n        }\n        uint j = _i;\n        uint len;\n        while (j != 0) {\n            len++;\n            j /= 10;\n        }\n        bytes memory bstr = new bytes(len);\n        uint k = len;\n        while (_i != 0) {\n            k = k-1;\n            uint8 temp = (48 + uint8(_i - _i / 10 * 10));\n            bytes1 b1 = bytes1(temp);\n            bstr[k] = b1;\n            _i /= 10;\n        }\n        return string(bstr);\n    }\n\n    function compareStrings(string memory a, string memory b) public pure returns (bool) {\n        return (keccak256(abi.encodePacked((a))) == keccak256(abi.encodePacked((b))));\n    }\n\n}\n","sourcePath":"contracts/NFTatPixel.sol","deployment":{"address":"0x05Ab72Df7aB9ce447eEDe355fbA82a1E89E75df2","chainid":"42","blockHeight":27420771}}