{"bytecode":"60806040523480156200001157600080fd5b506040516200320538038062003205833981016040819052620000349162000213565b604080518082018252600a815269139195185d141a5e195b60b21b60208083019182528351808501909452600484526304e4654560e41b908401526001600081905582519293926200008792906200016d565b5080516200009d9060029060208401906200016d565b505050620000ba620000b46200011760201b60201c565b6200011b565b6000600955603c600b55600c8190556040805180820190915260198082527f66696c7465723d2775726c2823677261797363616c652927200000000000000060209092019182526200010f91600d916200016d565b50506200026a565b3390565b600880546001600160a01b038381166001600160a01b0319831681179093556040519116919082907f8be0079c531659141344cd1fd0a4f28419497f9722a3daafe3b4186f6b6457e090600090a35050565b8280546200017b906200022d565b90600052602060002090601f0160209004810192826200019f5760008555620001ea565b82601f10620001ba57805160ff1916838001178555620001ea565b82800160010185558215620001ea579182015b82811115620001ea578251825591602001919060010190620001cd565b50620001f8929150620001fc565b5090565b5b80821115620001f85760008155600101620001fd565b6000602082840312156200022657600080fd5b5051919050565b600181811c908216806200024257607f821691505b602082108114156200026457634e487b7160e01b600052602260045260246000fd5b50919050565b612f8b806200027a6000396000f3fe608060405234801561001057600080fd5b50600436106102275760003560e01c806370a0823111610130578063b92bff1b116100b8578063d49ada6f1161007c578063d49ada6f146104cc578063d573170a146104df578063e985e9c514610502578063f2fde38b1461053e578063fa358de11461055157600080fd5b8063b92bff1b1461045d578063bed34bba14610480578063c4d53dea14610493578063c87b56dd146104a6578063cf68d97e146104b957600080fd5b80638da5cb5b116100ff5780638da5cb5b1461041657806395d89b4114610427578063a22cb4651461042f578063b8703dc914610442578063b88d4fde1461044a57600080fd5b806370a08231146103df578063715018a6146103f257806371f33b31146103fa57806380057b9a1461040357600080fd5b806316d7188f116101b357806330d871c61161018257806330d871c6146103805780633fddfd461461039357806342842e0e146103a65780636352211e146103b95780636de0d89b146103cc57600080fd5b806316d7188f1461030f578063186ce864146103375780632124bdb71461035a57806323b872dd1461036d57600080fd5b8063095ea7b3116101fa578063095ea7b3146102c25780630b21a83b146102d75780630eca5990146102e057806312ef6b97146102e957806314a028c5146102fc57600080fd5b806301ffc9a71461022c57806306fdde0314610254578063081812fc146102695780630937542f14610294575b600080fd5b61023f61023a36600461263c565b610575565b60405190151581526020015b60405180910390f35b61025c6105c7565b60405161024b9190612c5b565b61027c610277366004612754565b610659565b6040516001600160a01b03909116815260200161024b565b6102b46102a2366004612754565b600e6020526000908152604090205481565b60405190815260200161024b565b6102d56102d0366004612612565b6106f3565b005b6102b460095481565b6102b4600c5481565b61025c6102f736600461276d565b610809565b6102d561030a3660046124e2565b61097c565b61023f61031d366004612754565b6000908152600a6020526040902054610100900460ff1690565b6102b4610345366004612754565b6000908152600a602052604090206002015490565b61025c61036836600461276d565b610b0c565b6102d561037b366004612530565b610ccc565b61025c61038e366004612676565b610cfd565b6102d56103a13660046124e2565b610d90565b6102d56103b4366004612530565b610f7e565b61027c6103c7366004612754565b610f99565b61025c6103da36600461276d565b611010565b6102b46103ed3660046124e2565b611283565b6102d561130a565b6102b4600b5481565b61025c610411366004612754565b611340565b6008546001600160a01b031661027c565b61025c6113e5565b6102d561043d3660046125e8565b6113f4565b61025c6114b9565b6102d561045836600461256c565b611547565b6102b461046b366004612754565b6000908152600a602052604090206001015490565b61023f61048e3660046126ab565b611580565b61025c6104a136600461270f565b6115d9565b61025c6104b4366004612754565b611688565b6102d56104c7366004612790565b611735565b6102d56104da3660046124e2565b6117ea565b61023f6104ed366004612754565b6000908152600a602052604090205460ff1690565b61023f6105103660046124fd565b6001600160a01b03918216600090815260066020908152604080832093909416825291909152205460ff1690565b6102d561054c3660046124e2565b611972565b61056461055f366004612754565b611a0d565b60405161024b959493929190612c21565b60006001600160e01b031982166380ac58cd60e01b14806105a657506001600160e01b03198216635b5e139f60e01b145b806105c157506301ffc9a760e01b6001600160e01b03198316145b92915050565b6060600180546105d690612e07565b80601f016020809104026020016040519081016040528092919081815260200182805461060290612e07565b801561064f5780601f106106245761010080835404028352916020019161064f565b820191906000526020600020905b81548152906001019060200180831161063257829003601f168201915b5050505050905090565b6000818152600360205260408120546001600160a01b03166106d75760405162461bcd60e51b815260206004820152602c60248201527f4552433732313a20617070726f76656420717565727920666f72206e6f6e657860448201526b34b9ba32b73a103a37b5b2b760a11b60648201526084015b60405180910390fd5b506000908152600560205260409020546001600160a01b031690565b60006106fe82610f99565b9050806001600160a01b0316836001600160a01b0316141561076c5760405162461bcd60e51b815260206004820152602160248201527f4552433732313a20617070726f76616c20746f2063757272656e74206f776e656044820152603960f91b60648201526084016106ce565b336001600160a01b038216148061078857506107888133610510565b6107fa5760405162461bcd60e51b815260206004820152603860248201527f4552433732313a20617070726f76652063616c6c6572206973206e6f74206f7760448201527f6e6572206e6f7220617070726f76656420666f7220616c6c000000000000000060648201526084016106ce565b6108048383611ac9565b505050565b60606000604051806080016040528060608152602001612eb6606091396000858152600a60209081526040808320815160a081018352815460ff80821615158352610100909104161515938101939093526001810154918301919091526002810154606083015260038101805494955092939192909160808401919061088e90612e07565b80601f01602080910402602001604051908101604052809291908181526020018280546108ba90612e07565b80156109075780601f106108dc57610100808354040283529160200191610907565b820191906000526020600020905b8154815290600101906020018083116108ea57829003601f168201915b505050505081525050905060006040518060200160405280600081525090508160200151156109415761093a8686610b0c565b905061094f565b61094c866000611010565b90505b8281604051602001610962929190612860565b604051602081830303815290604052935050505092915050565b6008546001600160a01b031633146109a65760405162461bcd60e51b81526004016106ce90612cc0565b600954600b5460085b600f811015610b045760005b600f811015610af1576040805160a0810182526000808252602082018190529181016109e8600287612d83565b6109f28787612da5565b6109fc9190612d46565b8152602001610a0c600287612d83565b610a168786612da5565b610a209190612d46565b81526020016040518060400160405280600b81526020016a1d1c985b9cdc185c995b9d60aa1b8152508152509050610a588686611b37565b6000858152600a6020908152604091829020835181548386015115156101000261ff00199215159290921661ffff19909116171781559183015160018301556060830151600283015560808301518051849392610abc926003850192910190612380565b5050506000858152600e60205260409020429055610adb856001612d46565b9450508080610ae990612e42565b9150506109bb565b5080610afc81612e42565b9150506109af565b505060095550565b6000828152600a60209081526040808320815160a081018352815460ff808216151583526101009091041615159381019390935260018101549183019190915260028101546060838101919091526003820180549194939291608084019190610b7490612e07565b80601f0160208091040260200160405190810160405280929190818152602001828054610ba090612e07565b8015610bed5780601f10610bc257610100808354040283529160200191610bed565b820191906000526020600020905b815481529060010190602001808311610bd057829003601f168201915b505050919092525050604080516020810190915260008152919250508315610c9d57600d8054610c1c90612e07565b80601f0160208091040260200160405190810160405280929190818152602001828054610c4890612e07565b8015610c955780601f10610c6a57610100808354040283529160200191610c95565b820191906000526020600020905b815481529060010190602001808311610c7857829003601f168201915b505050505090505b6080820151604051610cb3918391602001612a38565b6040516020818303038152906040529250505092915050565b610cd63382611b55565b610cf25760405162461bcd60e51b81526004016106ce90612cf5565b610804838383611c48565b606060006040518060400160405280601a81526020017f646174613a696d6167652f7376672b786d6c3b6261736536342c00000000000081525090506000610d6384604051602001610d4f9190612815565b604051602081830303815290604052611de8565b90508181604051602001610d78929190612831565b60405160208183030381529060405292505050919050565b6008546001600160a01b03163314610dba5760405162461bcd60e51b81526004016106ce90612cc0565b600980546040805160a08101825260018152600060208083018290528284018290526060830191909152825180840190935293825268677261797363616c6560b81b93820193909352608083015290610e138383611b37565b6000828152600a6020908152604091829020835181548386015115156101000261ff00199215159290921661ffff19909116171781559183015160018301556060830151600283015560808301518051849392610e77926003850192910190612380565b5050506000828152600e60205260409020429055610e96826001612d46565b915060006040518060a00160405280600015158152602001600115158152602001600081526020016000815260200160405180604001604052806005815260200164776869746560d81b8152508152509050610ef28484611b37565b6000838152600a6020908152604091829020835181548386015115156101000261ff00199215159290921661ffff19909116171781559183015160018301556060830151600283015560808301518051849392610f56926003850192910190612380565b5050506000838152600e60205260409020429055610f75836001612d46565b60095550505050565b61080483838360405180602001604052806000815250611547565b6000818152600360205260408120546001600160a01b0316806105c15760405162461bcd60e51b815260206004820152602960248201527f4552433732313a206f776e657220717565727920666f72206e6f6e657869737460448201526832b73a103a37b5b2b760b91b60648201526084016106ce565b6000828152600a60209081526040808320815160a081018352815460ff80821615158352610100909104161515938101939093526001810154918301919091526002810154606083810191909152600382018054919493929160808401919061107890612e07565b80601f01602080910402602001604051908101604052809291908181526020018280546110a490612e07565b80156110f15780601f106110c6576101008083540402835291602001916110f1565b820191906000526020600020905b8154815290600101906020018083116110d457829003601f168201915b505050505081525050905060006040518060200160405280600081525090506000826080015160405160200161112791906129fc565b604051602081830303815290604052905084156111cc57600d805461114b90612e07565b80601f016020809104026020016040519081016040528092919081815260200182805461117790612e07565b80156111c45780601f10611199576101008083540402835291602001916111c4565b820191906000526020600020905b8154815290600101906020018083116111a757829003601f168201915b505050505091505b6111fd83608001516040518060400160405280600b81526020016a1d1c985b9cdc185c995b9d60aa1b815250611580565b15611238575060408051808201909152601881527f7374796c653d2766696c6c2d6f7061636974793a20302720000000000000000060208201525b816112468460400151611f50565b6112538560600151611f50565b61126a6002600b546112659190612d83565b611f50565b8660800151604051602001610962959493929190612abf565b60006001600160a01b0382166112ee5760405162461bcd60e51b815260206004820152602a60248201527f4552433732313a2062616c616e636520717565727920666f7220746865207a65604482015269726f206164647265737360b01b60648201526084016106ce565b506001600160a01b031660009081526004602052604090205490565b6008546001600160a01b031633146113345760405162461bcd60e51b81526004016106ce90612cc0565b61133e6000612079565b565b6000818152600a6020526040902060030180546060919061136090612e07565b80601f016020809104026020016040519081016040528092919081815260200182805461138c90612e07565b80156113d95780601f106113ae576101008083540402835291602001916113d9565b820191906000526020600020905b8154815290600101906020018083116113bc57829003601f168201915b50505050509050919050565b6060600280546105d690612e07565b6001600160a01b03821633141561144d5760405162461bcd60e51b815260206004820152601960248201527f4552433732313a20617070726f766520746f2063616c6c65720000000000000060448201526064016106ce565b3360008181526006602090815260408083206001600160a01b03871680855290835292819020805460ff191686151590811790915590519081529192917f17307eab39ab6107e8899845ad3d59bd9653f200f220920489ca2b5937696c31910160405180910390a35050565b600d80546114c690612e07565b80601f01602080910402602001604051908101604052809291908181526020018280546114f290612e07565b801561153f5780601f106115145761010080835404028352916020019161153f565b820191906000526020600020905b81548152906001019060200180831161152257829003601f168201915b505050505081565b611552335b83611b55565b61156e5760405162461bcd60e51b81526004016106ce90612cf5565b61157a848484846120cb565b50505050565b6000816040516020016115939190612815565b60405160208183030381529060405280519060200120836040516020016115ba9190612815565b6040516020818303038152906040528051906020012014905092915050565b6000818152600a6020526040902060010154606090611661906115fb90611f50565b6000848152600a602052604090206002015461161690611f50565b6000858152600a602052604090206001015461163190611f50565b6000868152600a602052604090206002015461164c90611f50565b87604051602001610d4f9594939291906128a0565b6040516020016116719190612b9f565b604051602081830303815290604052905092915050565b6000818152600360205260409020546060906001600160a01b03166117075760405162461bcd60e51b815260206004820152602f60248201527f4552433732314d657461646174613a2055524920717565727920666f72206e6f60448201526e3732bc34b9ba32b73a103a37b5b2b760891b60648201526084016106ce565b6000611714836000610809565b9050600061172182610cfd565b905061172d81856115d9565b949350505050565b61173e3361154c565b61175a5760405162461bcd60e51b81526004016106ce90612cf5565b600c546000838152600e6020526040902054429161177791612d46565b10156117c55760405162461bcd60e51b815260206004820152601d60248201527f54696d652773207570206f6e206368616e67696e6720636f6c6f72732100000060448201526064016106ce565b6000828152600a60209081526040909120825161080492600390920191840190612380565b6008546001600160a01b031633146118145760405162461bcd60e51b81526004016106ce90612cc0565b600954600b5460005b6008811015610b045760005b600f81101561195f576040805160a081018252600080825260208201819052918101611856600287612d83565b6118608787612da5565b61186a9190612d46565b815260200161187a600287612d83565b6118848786612da5565b61188e9190612d46565b81526020016040518060400160405280600b81526020016a1d1c985b9cdc185c995b9d60aa1b81525081525090506118c68686611b37565b6000858152600a6020908152604091829020835181548386015115156101000261ff00199215159290921661ffff1990911617178155918301516001830155606083015160028301556080830151805184939261192a926003850192910190612380565b5050506000858152600e60205260409020429055611949856001612d46565b945050808061195790612e42565b915050611829565b508061196a81612e42565b91505061181d565b6008546001600160a01b0316331461199c5760405162461bcd60e51b81526004016106ce90612cc0565b6001600160a01b038116611a015760405162461bcd60e51b815260206004820152602660248201527f4f776e61626c653a206e6577206f776e657220697320746865207a65726f206160448201526564647265737360d01b60648201526084016106ce565b611a0a81612079565b50565b600a60205260009081526040902080546001820154600283015460038401805460ff8086169661010090960416949190611a4690612e07565b80601f0160208091040260200160405190810160405280929190818152602001828054611a7290612e07565b8015611abf5780601f10611a9457610100808354040283529160200191611abf565b820191906000526020600020905b815481529060010190602001808311611aa257829003601f168201915b5050505050905085565b600081815260056020526040902080546001600160a01b0319166001600160a01b0384169081179091558190611afe82610f99565b6001600160a01b03167f8c5be1e5ebec7d5bd14f71427d1e84f3dd0314c0f7b2291e5b200ac8c7c3b92560405160405180910390a45050565b611b518282604051806020016040528060008152506120fe565b5050565b6000818152600360205260408120546001600160a01b0316611bce5760405162461bcd60e51b815260206004820152602c60248201527f4552433732313a206f70657261746f7220717565727920666f72206e6f6e657860448201526b34b9ba32b73a103a37b5b2b760a11b60648201526084016106ce565b6000611bd983610f99565b9050806001600160a01b0316846001600160a01b03161480611c145750836001600160a01b0316611c0984610659565b6001600160a01b0316145b8061172d57506001600160a01b0380821660009081526006602090815260408083209388168352929052205460ff1661172d565b826001600160a01b0316611c5b82610f99565b6001600160a01b031614611cc35760405162461bcd60e51b815260206004820152602960248201527f4552433732313a207472616e73666572206f6620746f6b656e2074686174206960448201526839903737ba1037bbb760b91b60648201526084016106ce565b6001600160a01b038216611d255760405162461bcd60e51b8152602060048201526024808201527f4552433732313a207472616e7366657220746f20746865207a65726f206164646044820152637265737360e01b60648201526084016106ce565b611d30600082611ac9565b6001600160a01b0383166000908152600460205260408120805460019290611d59908490612dc4565b90915550506001600160a01b0382166000908152600460205260408120805460019290611d87908490612d46565b909155505060008181526003602052604080822080546001600160a01b0319166001600160a01b0386811691821790925591518493918716917fddf252ad1be2c89b69c2b068fc378daa952ba7f163c4a11628f55a4df523b3ef91a4505050565b6060815160001415611e0857505060408051602081019091526000815290565b6000604051806060016040528060408152602001612f166040913990506000600384516002611e379190612d46565b611e419190612d83565b611e4c906004612da5565b90506000611e5b826020612d46565b67ffffffffffffffff811115611e7357611e73612e89565b6040519080825280601f01601f191660200182016040528015611e9d576020820181803683370190505b509050818152600183018586518101602084015b81831015611f0b5760039283018051603f601282901c811687015160f890811b8552600c83901c8216880151811b6001860152600683901c8216880151811b60028601529116860151901b93820193909352600401611eb1565b600389510660018114611f255760028114611f3657611f42565b613d3d60f01b600119830152611f42565b603d60f81b6000198301525b509398975050505050505050565b606081611f745750506040805180820190915260018152600360fc1b602082015290565b8160005b8115611f9e5780611f8881612e42565b9150611f979050600a83612d83565b9150611f78565b60008167ffffffffffffffff811115611fb957611fb9612e89565b6040519080825280601f01601f191660200182016040528015611fe3576020820181803683370190505b509050815b851561207057611ff9600182612dc4565b90506000612008600a88612d83565b61201390600a612da5565b61201d9088612dc4565b612028906030612d5e565b905060008160f81b90508084848151811061204557612045612e73565b60200101906001600160f81b031916908160001a905350612067600a89612d83565b97505050611fe8565b50949350505050565b600880546001600160a01b038381166001600160a01b0319831681179093556040519116919082907f8be0079c531659141344cd1fd0a4f28419497f9722a3daafe3b4186f6b6457e090600090a35050565b6120d6848484611c48565b6120e284848484612131565b61157a5760405162461bcd60e51b81526004016106ce90612c6e565b612108838361223e565b6121156000848484612131565b6108045760405162461bcd60e51b81526004016106ce90612c6e565b60006001600160a01b0384163b1561223357604051630a85bd0160e11b81526001600160a01b0385169063150b7a0290612175903390899088908890600401612be4565b602060405180830381600087803b15801561218f57600080fd5b505af19250505080156121bf575060408051601f3d908101601f191682019092526121bc91810190612659565b60015b612219573d8080156121ed576040519150601f19603f3d011682016040523d82523d6000602084013e6121f2565b606091505b5080516122115760405162461bcd60e51b81526004016106ce90612c6e565b805181602001fd5b6001600160e01b031916630a85bd0160e11b14905061172d565b506001949350505050565b6001600160a01b0382166122945760405162461bcd60e51b815260206004820181905260248201527f4552433732313a206d696e7420746f20746865207a65726f206164647265737360448201526064016106ce565b6000818152600360205260409020546001600160a01b0316156122f95760405162461bcd60e51b815260206004820152601c60248201527f4552433732313a20746f6b656e20616c7265616479206d696e7465640000000060448201526064016106ce565b6001600160a01b0382166000908152600460205260408120805460019290612322908490612d46565b909155505060008181526003602052604080822080546001600160a01b0319166001600160a01b03861690811790915590518392907fddf252ad1be2c89b69c2b068fc378daa952ba7f163c4a11628f55a4df523b3ef908290a45050565b82805461238c90612e07565b90600052602060002090601f0160209004810192826123ae57600085556123f4565b82601f106123c757805160ff19168380011785556123f4565b828001600101855582156123f4579182015b828111156123f45782518255916020019190600101906123d9565b50612400929150612404565b5090565b5b808211156124005760008155600101612405565b600067ffffffffffffffff8084111561243457612434612e89565b604051601f8501601f19908116603f0116810190828211818310171561245c5761245c612e89565b8160405280935085815286868601111561247557600080fd5b858560208301376000602087830101525050509392505050565b80356001600160a01b03811681146124a657600080fd5b919050565b803580151581146124a657600080fd5b600082601f8301126124cc57600080fd5b6124db83833560208501612419565b9392505050565b6000602082840312156124f457600080fd5b6124db8261248f565b6000806040838503121561251057600080fd5b6125198361248f565b91506125276020840161248f565b90509250929050565b60008060006060848603121561254557600080fd5b61254e8461248f565b925061255c6020850161248f565b9150604084013590509250925092565b6000806000806080858703121561258257600080fd5b61258b8561248f565b93506125996020860161248f565b925060408501359150606085013567ffffffffffffffff8111156125bc57600080fd5b8501601f810187136125cd57600080fd5b6125dc87823560208401612419565b91505092959194509250565b600080604083850312156125fb57600080fd5b6126048361248f565b9150612527602084016124ab565b6000806040838503121561262557600080fd5b61262e8361248f565b946020939093013593505050565b60006020828403121561264e57600080fd5b81356124db81612e9f565b60006020828403121561266b57600080fd5b81516124db81612e9f565b60006020828403121561268857600080fd5b813567ffffffffffffffff81111561269f57600080fd5b61172d848285016124bb565b600080604083850312156126be57600080fd5b823567ffffffffffffffff808211156126d657600080fd5b6126e2868387016124bb565b935060208501359150808211156126f857600080fd5b50612705858286016124bb565b9150509250929050565b6000806040838503121561272257600080fd5b823567ffffffffffffffff81111561273957600080fd5b612745858286016124bb565b95602094909401359450505050565b60006020828403121561276657600080fd5b5035919050565b6000806040838503121561278057600080fd5b82359150612527602084016124ab565b600080604083850312156127a357600080fd5b82359150602083013567ffffffffffffffff8111156127c157600080fd5b612705858286016124bb565b600081518084526127e5816020860160208601612ddb565b601f01601f19169290920160200192915050565b6000815161280b818560208601612ddb565b9290920192915050565b60008251612827818460208701612ddb565b9190910192915050565b60008351612843818460208801612ddb565b835190830190612857818360208801612ddb565b01949350505050565b60008351612872818460208801612ddb565b835190830190612886818360208801612ddb565b651e17b9bb339f60d11b9101908152600601949350505050565b683d913730b6b2911d1160b91b815285516000906128c5816009850160208b01612ddb565b61016160f51b60099184019182015286516128e781600b840160208b01612ddb565b7f222c20226465736372697074696f6e223a224120506978656c20666f7220616e600b92909101918201527f204e46546174222c202261747472696275746573223a205b7b2274726169745f602b8201527f74797065223a2022786c6f636174696f6e222c202276616c7565223a20000000604b8201528551612971816068840160208a01612ddb565b7f7d2c207b2274726169745f74797065223a2022796c6f636174696f6e222c2022606892909101918201526703b30b63ab2911d160c51b60888201526129f06129e26129dc6129c360908501896127f9565b6c3eae96101134b6b0b3b2911d1160991b8152600d0190565b866127f9565b61227d60f01b815260020190565b98975050505050505050565b67272066696c6c3d2760c01b815260008251612a1f816008850160208701612ddb565b61013960f51b6008939091019283015250600a01919050565b6701e31b4b931b632960c51b815260008351612a5b816008850160208801612ddb565b7f2063783d27343530272063793d273435302720723d27343530272066696c6c3d600891840191820152602760f81b60288201528351612aa2816029840160208801612ddb565b631390179f60e11b60299290910191820152602d01949350505050565b6701e31b4b931b632960c51b8152600086516020612ae38260088601838c01612ddb565b642063783d2760d81b6008928501928301528751612b0781600d8501848c01612ddb565b65272063793d2760d01b600d93909101928301528651612b2d8160138501848b01612ddb565b642720723d2760d81b601393909101928301528551612b528160188501848a01612ddb565b67272066696c6c3d2760c01b601893909101928301528451612b7981838501848901612ddb565b612b918282850101631390179f60e11b815260040190565b9a9950505050505050505050565b7f646174613a6170706c69636174696f6e2f6a736f6e3b6261736536342c000000815260008251612bd781601d850160208701612ddb565b91909101601d0192915050565b6001600160a01b0385811682528416602082015260408101839052608060608201819052600090612c17908301846127cd565b9695505050505050565b8515158152841515602082015283604082015282606082015260a060808201526000612c5060a08301846127cd565b979650505050505050565b6020815260006124db60208301846127cd565b60208082526032908201527f4552433732313a207472616e7366657220746f206e6f6e20455243373231526560408201527131b2b4bb32b91034b6b83632b6b2b73a32b960711b606082015260800190565b6020808252818101527f4f776e61626c653a2063616c6c6572206973206e6f7420746865206f776e6572604082015260600190565b60208082526031908201527f4552433732313a207472616e736665722063616c6c6572206973206e6f74206f6040820152701ddb995c881b9bdc88185c1c1c9bdd9959607a1b606082015260800190565b60008219821115612d5957612d59612e5d565b500190565b600060ff821660ff84168060ff03821115612d7b57612d7b612e5d565b019392505050565b600082612da057634e487b7160e01b600052601260045260246000fd5b500490565b6000816000190483118215151615612dbf57612dbf612e5d565b500290565b600082821015612dd657612dd6612e5d565b500390565b60005b83811015612df6578181015183820152602001612dde565b8381111561157a5750506000910152565b600181811c90821680612e1b57607f821691505b60208210811415612e3c57634e487b7160e01b600052602260045260246000fd5b50919050565b6000600019821415612e5657612e56612e5d565b5060010190565b634e487b7160e01b600052601160045260246000fd5b634e487b7160e01b600052603260045260246000fd5b634e487b7160e01b600052604160045260246000fd5b6001600160e01b031981168114611a0a57600080fdfe3c73766720786d6c6e733d27687474703a2f2f7777772e77332e6f72672f323030302f73766727206865696768743d27393030272077696474683d2739303027207374796c653d276261636b67726f756e642d636f6c6f723a626c61636b273e4142434445464748494a4b4c4d4e4f505152535455565758595a6162636465666768696a6b6c6d6e6f707172737475767778797a303132333435363738392b2fa2646970667358221220d4468bbfb5ce0a6781dcf5160ebafd7638020bc54540723d87aa0e14672f5ff864736f6c63430008070033","bytecodeSha1":"264b54437e0d2939dad6a73a605129e71af9acb3","type":"contract","abi":[{"inputs":[{"internalType":"uint256","name":"_timeInterval","type":"uint256"}],"stateMutability":"nonpayable","type":"constructor","name":"constructor"},{"anonymous":false,"inputs":[{"indexed":true,"internalType":"address","name":"owner","type":"address"},{"indexed":true,"internalType":"address","name":"approved","type":"address"},{"indexed":true,"internalType":"uint256","name":"tokenId","type":"uint256"}],"name":"Approval","type":"event"},{"anonymous":false,"inputs":[{"indexed":true,"internalType":"address","name":"owner","type":"address"},{"indexed":true,"internalType":"address","name":"operator","type":"address"},{"indexed":false,"internalType":"bool","name":"approved","type":"bool"}],"name":"ApprovalForAll","type":"event"},{"anonymous":false,"inputs":[{"indexed":true,"internalType":"address","name":"previousOwner","type":"address"},{"indexed":true,"internalType":"address","name":"newOwner","type":"address"}],"name":"OwnershipTransferred","type":"event"},{"anonymous":false,"inputs":[{"indexed":true,"internalType":"address","name":"from","type":"address"},{"indexed":true,"internalType":"address","name":"to","type":"address"},{"indexed":true,"internalType":"uint256","name":"tokenId","type":"uint256"}],"name":"Transfer","type":"event"},{"inputs":[{"internalType":"address","name":"to","type":"address"},{"internalType":"uint256","name":"tokenId","type":"uint256"}],"name":"approve","outputs":[],"stateMutability":"nonpayable","type":"function"},{"inputs":[{"internalType":"address","name":"owner","type":"address"}],"name":"balanceOf","outputs":[{"internalType":"uint256","name":"","type":"uint256"}],"stateMutability":"view","type":"function"},{"inputs":[{"internalType":"uint256","name":"tokenId","type":"uint256"},{"internalType":"string","name":"color","type":"string"}],"name":"changeColor","outputs":[],"stateMutability":"nonpayable","type":"function"},{"inputs":[{"internalType":"string","name":"a","type":"string"},{"internalType":"string","name":"b","type":"string"}],"name":"compareStrings","outputs":[{"internalType":"bool","name":"","type":"bool"}],"stateMutability":"pure","type":"function"},{"inputs":[{"internalType":"string","name":"imageURI","type":"string"},{"internalType":"uint256","name":"tokenId","type":"uint256"}],"name":"formatTokenURI","outputs":[{"internalType":"string","name":"","type":"string"}],"stateMutability":"view","type":"function"},{"inputs":[{"internalType":"uint256","name":"tokenId","type":"uint256"}],"name":"getApproved","outputs":[{"internalType":"address","name":"","type":"address"}],"stateMutability":"view","type":"function"},{"inputs":[{"internalType":"uint256","name":"tokenId","type":"uint256"},{"internalType":"bool","name":"isGrayScale","type":"bool"}],"name":"getBaseSVG","outputs":[{"internalType":"string","name":"","type":"string"}],"stateMutability":"view","type":"function"},{"inputs":[{"internalType":"uint256","name":"tokenId","type":"uint256"},{"internalType":"bool","name":"isGrayScale","type":"bool"}],"name":"getBigCircleSVG","outputs":[{"internalType":"string","name":"","type":"string"}],"stateMutability":"view","type":"function"},{"inputs":[{"internalType":"uint256","name":"_tokenId","type":"uint256"}],"name":"getColor","outputs":[{"internalType":"string","name":"","type":"string"}],"stateMutability":"view","type":"function"},{"inputs":[{"internalType":"uint256","name":"_tokenId","type":"uint256"}],"name":"getIsBackground","outputs":[{"internalType":"bool","name":"","type":"bool"}],"stateMutability":"view","type":"function"},{"inputs":[{"internalType":"uint256","name":"_tokenId","type":"uint256"}],"name":"getIsBaseCircle","outputs":[{"internalType":"bool","name":"","type":"bool"}],"stateMutability":"view","type":"function"},{"inputs":[{"internalType":"uint256","name":"tokenId","type":"uint256"},{"internalType":"bool","name":"isGrayScale","type":"bool"}],"name":"getSVG","outputs":[{"internalType":"string","name":"","type":"string"}],"stateMutability":"view","type":"function"},{"inputs":[{"internalType":"uint256","name":"_tokenId","type":"uint256"}],"name":"getXlocation","outputs":[{"internalType":"uint256","name":"","type":"uint256"}],"stateMutability":"view","type":"function"},{"inputs":[{"internalType":"uint256","name":"_tokenId","type":"uint256"}],"name":"getYlocation","outputs":[{"internalType":"uint256","name":"","type":"uint256"}],"stateMutability":"view","type":"function"},{"inputs":[{"internalType":"address","name":"owner","type":"address"},{"internalType":"address","name":"operator","type":"address"}],"name":"isApprovedForAll","outputs":[{"internalType":"bool","name":"","type":"bool"}],"stateMutability":"view","type":"function"},{"inputs":[{"internalType":"address","name":"nftOwner","type":"address"}],"name":"mintBatchOne","outputs":[],"stateMutability":"nonpayable","type":"function"},{"inputs":[{"internalType":"address","name":"nftOwner","type":"address"}],"name":"mintBatchTwo","outputs":[],"stateMutability":"nonpayable","type":"function"},{"inputs":[{"internalType":"address","name":"nftOwner","type":"address"}],"name":"mintSet","outputs":[],"stateMutability":"nonpayable","type":"function"},{"inputs":[],"name":"name","outputs":[{"internalType":"string","name":"","type":"string"}],"stateMutability":"view","type":"function"},{"inputs":[],"name":"owner","outputs":[{"internalType":"address","name":"","type":"address"}],"stateMutability":"view","type":"function"},{"inputs":[{"internalType":"uint256","name":"tokenId","type":"uint256"}],"name":"ownerOf","outputs":[{"internalType":"address","name":"","type":"address"}],"stateMutability":"view","type":"function"},{"inputs":[],"name":"renounceOwnership","outputs":[],"stateMutability":"nonpayable","type":"function"},{"inputs":[],"name":"s_grayScaleFilter","outputs":[{"internalType":"string","name":"","type":"string"}],"stateMutability":"view","type":"function"},{"inputs":[],"name":"s_pixelInterval","outputs":[{"internalType":"uint256","name":"","type":"uint256"}],"stateMutability":"view","type":"function"},{"inputs":[],"name":"s_timeInterval","outputs":[{"internalType":"uint256","name":"","type":"uint256"}],"stateMutability":"view","type":"function"},{"inputs":[],"name":"s_tokenCounter","outputs":[{"internalType":"uint256","name":"","type":"uint256"}],"stateMutability":"view","type":"function"},{"inputs":[{"internalType":"uint256","name":"","type":"uint256"}],"name":"s_tokenIdToPixel","outputs":[{"internalType":"bool","name":"isBackground","type":"bool"},{"internalType":"bool","name":"isBaseCircle","type":"bool"},{"internalType":"uint256","name":"xlocation","type":"uint256"},{"internalType":"uint256","name":"ylocation","type":"uint256"},{"internalType":"string","name":"color","type":"string"}],"stateMutability":"view","type":"function"},{"inputs":[{"internalType":"uint256","name":"","type":"uint256"}],"name":"s_tokenIdToStartTime","outputs":[{"internalType":"uint256","name":"","type":"uint256"}],"stateMutability":"view","type":"function"},{"inputs":[{"internalType":"address","name":"from","type":"address"},{"internalType":"address","name":"to","type":"address"},{"internalType":"uint256","name":"tokenId","type":"uint256"}],"name":"safeTransferFrom","outputs":[],"stateMutability":"nonpayable","type":"function"},{"inputs":[{"internalType":"address","name":"from","type":"address"},{"internalType":"address","name":"to","type":"address"},{"internalType":"uint256","name":"tokenId","type":"uint256"},{"internalType":"bytes","name":"_data","type":"bytes"}],"name":"safeTransferFrom","outputs":[],"stateMutability":"nonpayable","type":"function"},{"inputs":[{"internalType":"address","name":"operator","type":"address"},{"internalType":"bool","name":"approved","type":"bool"}],"name":"setApprovalForAll","outputs":[],"stateMutability":"nonpayable","type":"function"},{"inputs":[{"internalType":"bytes4","name":"interfaceId","type":"bytes4"}],"name":"supportsInterface","outputs":[{"internalType":"bool","name":"","type":"bool"}],"stateMutability":"view","type":"function"},{"inputs":[{"internalType":"string","name":"svg","type":"string"}],"name":"svgToImageURI","outputs":[{"internalType":"string","name":"","type":"string"}],"stateMutability":"pure","type":"function"},{"inputs":[],"name":"symbol","outputs":[{"internalType":"string","name":"","type":"string"}],"stateMutability":"view","type":"function"},{"inputs":[{"internalType":"uint256","name":"tokenId","type":"uint256"}],"name":"tokenURI","outputs":[{"internalType":"string","name":"","type":"string"}],"stateMutability":"view","type":"function"},{"inputs":[{"internalType":"address","name":"from","type":"address"},{"internalType":"address","name":"to","type":"address"},{"internalType":"uint256","name":"tokenId","type":"uint256"}],"name":"transferFrom","outputs":[],"stateMutability":"nonpayable","type":"function"},{"inputs":[{"internalType":"address","name":"newOwner","type":"address"}],"name":"transferOwnership","outputs":[],"stateMutability":"nonpayable","type":"function"}],"compiler":{"version":"0.8.7+commit.e28d00a7","evm_version":"istanbul","optimizer":{"enabled":true,"runs":200}},"contractName":"NFTatPixel","language":"Solidity","natspec":{"methods":{"approve(address,uint256)":{"details":"See {IERC721-approve}."},"balanceOf(address)":{"details":"See {IERC721-balanceOf}."},"getApproved(uint256)":{"details":"See {IERC721-getApproved}."},"isApprovedForAll(address,address)":{"details":"See {IERC721-isApprovedForAll}."},"name()":{"details":"See {IERC721Metadata-name}."},"owner()":{"details":"Returns the address of the current owner."},"ownerOf(uint256)":{"details":"See {IERC721-ownerOf}."},"renounceOwnership()":{"details":"Leaves the contract without owner. It will not be possible to call `onlyOwner` functions anymore. Can only be called by the current owner. NOTE: Renouncing ownership will leave the contract without an owner, thereby removing any functionality that is only available to the owner."},"safeTransferFrom(address,address,uint256)":{"details":"See {IERC721-safeTransferFrom}."},"safeTransferFrom(address,address,uint256,bytes)":{"details":"See {IERC721-safeTransferFrom}."},"setApprovalForAll(address,bool)":{"details":"See {IERC721-setApprovalForAll}."},"supportsInterface(bytes4)":{"details":"See {IERC165-supportsInterface}."},"symbol()":{"details":"See {IERC721Metadata-symbol}."},"tokenURI(uint256)":{"details":"See {IERC721Metadata-tokenURI}."},"transferFrom(address,address,uint256)":{"details":"See {IERC721-transferFrom}."},"transferOwnership(address)":{"details":"Transfers ownership of the contract to a new account (`newOwner`). Can only be called by the current owner."}},"kind":"dev","version":1},"opcodes":"PUSH1 0x80 PUSH1 0x40 MSTORE CALLVALUE DUP1 ISZERO PUSH2 0x10 JUMPI PUSH1 0x0 DUP1 REVERT JUMPDEST POP PUSH1 0x4 CALLDATASIZE LT PUSH2 0x227 JUMPI PUSH1 0x0 CALLDATALOAD PUSH1 0xE0 SHR DUP1 PUSH4 0x70A08231 GT PUSH2 0x130 JUMPI DUP1 PUSH4 0xB92BFF1B GT PUSH2 0xB8 JUMPI DUP1 PUSH4 0xD49ADA6F GT PUSH2 0x7C JUMPI DUP1 PUSH4 0xD49ADA6F EQ PUSH2 0x4CC JUMPI DUP1 PUSH4 0xD573170A EQ PUSH2 0x4DF JUMPI DUP1 PUSH4 0xE985E9C5 EQ PUSH2 0x502 JUMPI DUP1 PUSH4 0xF2FDE38B EQ PUSH2 0x53E JUMPI DUP1 PUSH4 0xFA358DE1 EQ PUSH2 0x551 JUMPI PUSH1 0x0 DUP1 REVERT JUMPDEST DUP1 PUSH4 0xB92BFF1B EQ PUSH2 0x45D JUMPI DUP1 PUSH4 0xBED34BBA EQ PUSH2 0x480 JUMPI DUP1 PUSH4 0xC4D53DEA EQ PUSH2 0x493 JUMPI DUP1 PUSH4 0xC87B56DD EQ PUSH2 0x4A6 JUMPI DUP1 PUSH4 0xCF68D97E EQ PUSH2 0x4B9 JUMPI PUSH1 0x0 DUP1 REVERT JUMPDEST DUP1 PUSH4 0x8DA5CB5B GT PUSH2 0xFF JUMPI DUP1 PUSH4 0x8DA5CB5B EQ PUSH2 0x416 JUMPI DUP1 PUSH4 0x95D89B41 EQ PUSH2 0x427 JUMPI DUP1 PUSH4 0xA22CB465 EQ PUSH2 0x42F JUMPI DUP1 PUSH4 0xB8703DC9 EQ PUSH2 0x442 JUMPI DUP1 PUSH4 0xB88D4FDE EQ PUSH2 0x44A JUMPI PUSH1 0x0 DUP1 REVERT JUMPDEST DUP1 PUSH4 0x70A08231 EQ PUSH2 0x3DF JUMPI DUP1 PUSH4 0x715018A6 EQ PUSH2 0x3F2 JUMPI DUP1 PUSH4 0x71F33B31 EQ PUSH2 0x3FA JUMPI DUP1 PUSH4 0x80057B9A EQ PUSH2 0x403 JUMPI PUSH1 0x0 DUP1 REVERT JUMPDEST DUP1 PUSH4 0x16D7188F GT PUSH2 0x1B3 JUMPI DUP1 PUSH4 0x30D871C6 GT PUSH2 0x182 JUMPI DUP1 PUSH4 0x30D871C6 EQ PUSH2 0x380 JUMPI DUP1 PUSH4 0x3FDDFD46 EQ PUSH2 0x393 JUMPI DUP1 PUSH4 0x42842E0E EQ PUSH2 0x3A6 JUMPI DUP1 PUSH4 0x6352211E EQ PUSH2 0x3B9 JUMPI DUP1 PUSH4 0x6DE0D89B EQ PUSH2 0x3CC JUMPI PUSH1 0x0 DUP1 REVERT JUMPDEST DUP1 PUSH4 0x16D7188F EQ PUSH2 0x30F JUMPI DUP1 PUSH4 0x186CE864 EQ PUSH2 0x337 JUMPI DUP1 PUSH4 0x2124BDB7 EQ PUSH2 0x35A JUMPI DUP1 PUSH4 0x23B872DD EQ PUSH2 0x36D JUMPI PUSH1 0x0 DUP1 REVERT JUMPDEST DUP1 PUSH4 0x95EA7B3 GT PUSH2 0x1FA JUMPI DUP1 PUSH4 0x95EA7B3 EQ PUSH2 0x2C2 JUMPI DUP1 PUSH4 0xB21A83B EQ PUSH2 0x2D7 JUMPI DUP1 PUSH4 0xECA5990 EQ PUSH2 0x2E0 JUMPI DUP1 PUSH4 0x12EF6B97 EQ PUSH2 0x2E9 JUMPI DUP1 PUSH4 0x14A028C5 EQ PUSH2 0x2FC JUMPI PUSH1 0x0 DUP1 REVERT JUMPDEST DUP1 PUSH4 0x1FFC9A7 EQ PUSH2 0x22C JUMPI DUP1 PUSH4 0x6FDDE03 EQ PUSH2 0x254 JUMPI DUP1 PUSH4 0x81812FC EQ PUSH2 0x269 JUMPI DUP1 PUSH4 0x937542F EQ PUSH2 0x294 JUMPI JUMPDEST PUSH1 0x0 DUP1 REVERT JUMPDEST PUSH2 0x23F PUSH2 0x23A CALLDATASIZE PUSH1 0x4 PUSH2 0x263C JUMP JUMPDEST PUSH2 0x575 JUMP JUMPDEST PUSH1 0x40 MLOAD SWAP1 ISZERO ISZERO DUP2 MSTORE PUSH1 0x20 ADD JUMPDEST PUSH1 0x40 MLOAD DUP1 SWAP2 SUB SWAP1 RETURN JUMPDEST PUSH2 0x25C PUSH2 0x5C7 JUMP JUMPDEST PUSH1 0x40 MLOAD PUSH2 0x24B SWAP2 SWAP1 PUSH2 0x2C5B JUMP JUMPDEST PUSH2 0x27C PUSH2 0x277 CALLDATASIZE PUSH1 0x4 PUSH2 0x2754 JUMP JUMPDEST PUSH2 0x659 JUMP JUMPDEST PUSH1 0x40 MLOAD PUSH1 0x1 PUSH1 0x1 PUSH1 0xA0 SHL SUB SWAP1 SWAP2 AND DUP2 MSTORE PUSH1 0x20 ADD PUSH2 0x24B JUMP JUMPDEST PUSH2 0x2B4 PUSH2 0x2A2 CALLDATASIZE PUSH1 0x4 PUSH2 0x2754 JUMP JUMPDEST PUSH1 0xE PUSH1 0x20 MSTORE PUSH1 0x0 SWAP1 DUP2 MSTORE PUSH1 0x40 SWAP1 KECCAK256 SLOAD DUP2 JUMP JUMPDEST PUSH1 0x40 MLOAD SWAP1 DUP2 MSTORE PUSH1 0x20 ADD PUSH2 0x24B JUMP JUMPDEST PUSH2 0x2D5 PUSH2 0x2D0 CALLDATASIZE PUSH1 0x4 PUSH2 0x2612 JUMP JUMPDEST PUSH2 0x6F3 JUMP JUMPDEST STOP JUMPDEST PUSH2 0x2B4 PUSH1 0x9 SLOAD DUP2 JUMP JUMPDEST PUSH2 0x2B4 PUSH1 0xC SLOAD DUP2 JUMP JUMPDEST PUSH2 0x25C PUSH2 0x2F7 CALLDATASIZE PUSH1 0x4 PUSH2 0x276D JUMP JUMPDEST PUSH2 0x809 JUMP JUMPDEST PUSH2 0x2D5 PUSH2 0x30A CALLDATASIZE PUSH1 0x4 PUSH2 0x24E2 JUMP JUMPDEST PUSH2 0x97C JUMP JUMPDEST PUSH2 0x23F PUSH2 0x31D CALLDATASIZE PUSH1 0x4 PUSH2 0x2754 JUMP JUMPDEST PUSH1 0x0 SWAP1 DUP2 MSTORE PUSH1 0xA PUSH1 0x20 MSTORE PUSH1 0x40 SWAP1 KECCAK256 SLOAD PUSH2 0x100 SWAP1 DIV PUSH1 0xFF AND SWAP1 JUMP JUMPDEST PUSH2 0x2B4 PUSH2 0x345 CALLDATASIZE PUSH1 0x4 PUSH2 0x2754 JUMP JUMPDEST PUSH1 0x0 SWAP1 DUP2 MSTORE PUSH1 0xA PUSH1 0x20 MSTORE PUSH1 0x40 SWAP1 KECCAK256 PUSH1 0x2 ADD SLOAD SWAP1 JUMP JUMPDEST PUSH2 0x25C PUSH2 0x368 CALLDATASIZE PUSH1 0x4 PUSH2 0x276D JUMP JUMPDEST PUSH2 0xB0C JUMP JUMPDEST PUSH2 0x2D5 PUSH2 0x37B CALLDATASIZE PUSH1 0x4 PUSH2 0x2530 JUMP JUMPDEST PUSH2 0xCCC JUMP JUMPDEST PUSH2 0x25C PUSH2 0x38E CALLDATASIZE PUSH1 0x4 PUSH2 0x2676 JUMP JUMPDEST PUSH2 0xCFD JUMP JUMPDEST PUSH2 0x2D5 PUSH2 0x3A1 CALLDATASIZE PUSH1 0x4 PUSH2 0x24E2 JUMP JUMPDEST PUSH2 0xD90 JUMP JUMPDEST PUSH2 0x2D5 PUSH2 0x3B4 CALLDATASIZE PUSH1 0x4 PUSH2 0x2530 JUMP JUMPDEST PUSH2 0xF7E JUMP JUMPDEST PUSH2 0x27C PUSH2 0x3C7 CALLDATASIZE PUSH1 0x4 PUSH2 0x2754 JUMP JUMPDEST PUSH2 0xF99 JUMP JUMPDEST PUSH2 0x25C PUSH2 0x3DA CALLDATASIZE PUSH1 0x4 PUSH2 0x276D JUMP JUMPDEST PUSH2 0x1010 JUMP JUMPDEST PUSH2 0x2B4 PUSH2 0x3ED CALLDATASIZE PUSH1 0x4 PUSH2 0x24E2 JUMP JUMPDEST PUSH2 0x1283 JUMP JUMPDEST PUSH2 0x2D5 PUSH2 0x130A JUMP JUMPDEST PUSH2 0x2B4 PUSH1 0xB SLOAD DUP2 JUMP JUMPDEST PUSH2 0x25C PUSH2 0x411 CALLDATASIZE PUSH1 0x4 PUSH2 0x2754 JUMP JUMPDEST PUSH2 0x1340 JUMP JUMPDEST PUSH1 0x8 SLOAD PUSH1 0x1 PUSH1 0x1 PUSH1 0xA0 SHL SUB AND PUSH2 0x27C JUMP JUMPDEST PUSH2 0x25C PUSH2 0x13E5 JUMP JUMPDEST PUSH2 0x2D5 PUSH2 0x43D CALLDATASIZE PUSH1 0x4 PUSH2 0x25E8 JUMP JUMPDEST PUSH2 0x13F4 JUMP JUMPDEST PUSH2 0x25C PUSH2 0x14B9 JUMP JUMPDEST PUSH2 0x2D5 PUSH2 0x458 CALLDATASIZE PUSH1 0x4 PUSH2 0x256C JUMP JUMPDEST PUSH2 0x1547 JUMP JUMPDEST PUSH2 0x2B4 PUSH2 0x46B CALLDATASIZE PUSH1 0x4 PUSH2 0x2754 JUMP JUMPDEST PUSH1 0x0 SWAP1 DUP2 MSTORE PUSH1 0xA PUSH1 0x20 MSTORE PUSH1 0x40 SWAP1 KECCAK256 PUSH1 0x1 ADD SLOAD SWAP1 JUMP JUMPDEST PUSH2 0x23F PUSH2 0x48E CALLDATASIZE PUSH1 0x4 PUSH2 0x26AB JUMP JUMPDEST PUSH2 0x1580 JUMP JUMPDEST PUSH2 0x25C PUSH2 0x4A1 CALLDATASIZE PUSH1 0x4 PUSH2 0x270F JUMP JUMPDEST PUSH2 0x15D9 JUMP JUMPDEST PUSH2 0x25C PUSH2 0x4B4 CALLDATASIZE PUSH1 0x4 PUSH2 0x2754 JUMP JUMPDEST PUSH2 0x1688 JUMP JUMPDEST PUSH2 0x2D5 PUSH2 0x4C7 CALLDATASIZE PUSH1 0x4 PUSH2 0x2790 JUMP JUMPDEST PUSH2 0x1735 JUMP JUMPDEST PUSH2 0x2D5 PUSH2 0x4DA CALLDATASIZE PUSH1 0x4 PUSH2 0x24E2 JUMP JUMPDEST PUSH2 0x17EA JUMP JUMPDEST PUSH2 0x23F PUSH2 0x4ED CALLDATASIZE PUSH1 0x4 PUSH2 0x2754 JUMP JUMPDEST PUSH1 0x0 SWAP1 DUP2 MSTORE PUSH1 0xA PUSH1 0x20 MSTORE PUSH1 0x40 SWAP1 KECCAK256 SLOAD PUSH1 0xFF AND SWAP1 JUMP JUMPDEST PUSH2 0x23F PUSH2 0x510 CALLDATASIZE PUSH1 0x4 PUSH2 0x24FD JUMP JUMPDEST PUSH1 0x1 PUSH1 0x1 PUSH1 0xA0 SHL SUB SWAP2 DUP3 AND PUSH1 0x0 SWAP1 DUP2 MSTORE PUSH1 0x6 PUSH1 0x20 SWAP1 DUP2 MSTORE PUSH1 0x40 DUP1 DUP4 KECCAK256 SWAP4 SWAP1 SWAP5 AND DUP3 MSTORE SWAP2 SWAP1 SWAP2 MSTORE KECCAK256 SLOAD PUSH1 0xFF AND SWAP1 JUMP JUMPDEST PUSH2 0x2D5 PUSH2 0x54C CALLDATASIZE PUSH1 0x4 PUSH2 0x24E2 JUMP JUMPDEST PUSH2 0x1972 JUMP JUMPDEST PUSH2 0x564 PUSH2 0x55F CALLDATASIZE PUSH1 0x4 PUSH2 0x2754 JUMP JUMPDEST PUSH2 0x1A0D JUMP JUMPDEST PUSH1 0x40 MLOAD PUSH2 0x24B SWAP6 SWAP5 SWAP4 SWAP3 SWAP2 SWAP1 PUSH2 0x2C21 JUMP JUMPDEST PUSH1 0x0 PUSH1 0x1 PUSH1 0x1 PUSH1 0xE0 SHL SUB NOT DUP3 AND PUSH4 0x80AC58CD PUSH1 0xE0 SHL EQ DUP1 PUSH2 0x5A6 JUMPI POP PUSH1 0x1 PUSH1 0x1 PUSH1 0xE0 SHL SUB NOT DUP3 AND PUSH4 0x5B5E139F PUSH1 0xE0 SHL EQ JUMPDEST DUP1 PUSH2 0x5C1 JUMPI POP PUSH4 0x1FFC9A7 PUSH1 0xE0 SHL PUSH1 0x1 PUSH1 0x1 PUSH1 0xE0 SHL SUB NOT DUP4 AND EQ JUMPDEST SWAP3 SWAP2 POP POP JUMP JUMPDEST PUSH1 0x60 PUSH1 0x1 DUP1 SLOAD PUSH2 0x5D6 SWAP1 PUSH2 0x2E07 JUMP JUMPDEST DUP1 PUSH1 0x1F ADD PUSH1 0x20 DUP1 SWAP2 DIV MUL PUSH1 0x20 ADD PUSH1 0x40 MLOAD SWAP1 DUP2 ADD PUSH1 0x40 MSTORE DUP1 SWAP3 SWAP2 SWAP1 DUP2 DUP2 MSTORE PUSH1 0x20 ADD DUP3 DUP1 SLOAD PUSH2 0x602 SWAP1 PUSH2 0x2E07 JUMP JUMPDEST DUP1 ISZERO PUSH2 0x64F JUMPI DUP1 PUSH1 0x1F LT PUSH2 0x624 JUMPI PUSH2 0x100 DUP1 DUP4 SLOAD DIV MUL DUP4 MSTORE SWAP2 PUSH1 0x20 ADD SWAP2 PUSH2 0x64F JUMP JUMPDEST DUP3 ADD SWAP2 SWAP1 PUSH1 0x0 MSTORE PUSH1 0x20 PUSH1 0x0 KECCAK256 SWAP1 JUMPDEST DUP2 SLOAD DUP2 MSTORE SWAP1 PUSH1 0x1 ADD SWAP1 PUSH1 0x20 ADD DUP1 DUP4 GT PUSH2 0x632 JUMPI DUP3 SWAP1 SUB PUSH1 0x1F AND DUP3 ADD SWAP2 JUMPDEST POP POP POP POP POP SWAP1 POP SWAP1 JUMP JUMPDEST PUSH1 0x0 DUP2 DUP2 MSTORE PUSH1 0x3 PUSH1 0x20 MSTORE PUSH1 0x40 DUP2 KECCAK256 SLOAD PUSH1 0x1 PUSH1 0x1 PUSH1 0xA0 SHL SUB AND PUSH2 0x6D7 JUMPI PUSH1 0x40 MLOAD PUSH3 0x461BCD PUSH1 0xE5 SHL DUP2 MSTORE PUSH1 0x20 PUSH1 0x4 DUP3 ADD MSTORE PUSH1 0x2C PUSH1 0x24 DUP3 ADD MSTORE PUSH32 0x4552433732313A20617070726F76656420717565727920666F72206E6F6E6578 PUSH1 0x44 DUP3 ADD MSTORE PUSH12 0x34B9BA32B73A103A37B5B2B7 PUSH1 0xA1 SHL PUSH1 0x64 DUP3 ADD MSTORE PUSH1 0x84 ADD JUMPDEST PUSH1 0x40 MLOAD DUP1 SWAP2 SUB SWAP1 REVERT JUMPDEST POP PUSH1 0x0 SWAP1 DUP2 MSTORE PUSH1 0x5 PUSH1 0x20 MSTORE PUSH1 0x40 SWAP1 KECCAK256 SLOAD PUSH1 0x1 PUSH1 0x1 PUSH1 0xA0 SHL SUB AND SWAP1 JUMP JUMPDEST PUSH1 0x0 PUSH2 0x6FE DUP3 PUSH2 0xF99 JUMP JUMPDEST SWAP1 POP DUP1 PUSH1 0x1 PUSH1 0x1 PUSH1 0xA0 SHL SUB AND DUP4 PUSH1 0x1 PUSH1 0x1 PUSH1 0xA0 SHL SUB AND EQ ISZERO PUSH2 0x76C JUMPI PUSH1 0x40 MLOAD PUSH3 0x461BCD PUSH1 0xE5 SHL DUP2 MSTORE PUSH1 0x20 PUSH1 0x4 DUP3 ADD MSTORE PUSH1 0x21 PUSH1 0x24 DUP3 ADD MSTORE PUSH32 0x4552433732313A20617070726F76616C20746F2063757272656E74206F776E65 PUSH1 0x44 DUP3 ADD MSTORE PUSH1 0x39 PUSH1 0xF9 SHL PUSH1 0x64 DUP3 ADD MSTORE PUSH1 0x84 ADD PUSH2 0x6CE JUMP JUMPDEST CALLER PUSH1 0x1 PUSH1 0x1 PUSH1 0xA0 SHL SUB DUP3 AND EQ DUP1 PUSH2 0x788 JUMPI POP PUSH2 0x788 DUP2 CALLER PUSH2 0x510 JUMP JUMPDEST PUSH2 0x7FA JUMPI PUSH1 0x40 MLOAD PUSH3 0x461BCD PUSH1 0xE5 SHL DUP2 MSTORE PUSH1 0x20 PUSH1 0x4 DUP3 ADD MSTORE PUSH1 0x38 PUSH1 0x24 DUP3 ADD MSTORE PUSH32 0x4552433732313A20617070726F76652063616C6C6572206973206E6F74206F77 PUSH1 0x44 DUP3 ADD MSTORE PUSH32 0x6E6572206E6F7220617070726F76656420666F7220616C6C0000000000000000 PUSH1 0x64 DUP3 ADD MSTORE PUSH1 0x84 ADD PUSH2 0x6CE JUMP JUMPDEST PUSH2 0x804 DUP4 DUP4 PUSH2 0x1AC9 JUMP JUMPDEST POP POP POP JUMP JUMPDEST PUSH1 0x60 PUSH1 0x0 PUSH1 0x40 MLOAD DUP1 PUSH1 0x80 ADD PUSH1 0x40 MSTORE DUP1 PUSH1 0x60 DUP2 MSTORE PUSH1 0x20 ADD PUSH2 0x2EB6 PUSH1 0x60 SWAP2 CODECOPY PUSH1 0x0 DUP6 DUP2 MSTORE PUSH1 0xA PUSH1 0x20 SWAP1 DUP2 MSTORE PUSH1 0x40 DUP1 DUP4 KECCAK256 DUP2 MLOAD PUSH1 0xA0 DUP2 ADD DUP4 MSTORE DUP2 SLOAD PUSH1 0xFF DUP1 DUP3 AND ISZERO ISZERO DUP4 MSTORE PUSH2 0x100 SWAP1 SWAP2 DIV AND ISZERO ISZERO SWAP4 DUP2 ADD SWAP4 SWAP1 SWAP4 MSTORE PUSH1 0x1 DUP2 ADD SLOAD SWAP2 DUP4 ADD SWAP2 SWAP1 SWAP2 MSTORE PUSH1 0x2 DUP2 ADD SLOAD PUSH1 0x60 DUP4 ADD MSTORE PUSH1 0x3 DUP2 ADD DUP1 SLOAD SWAP5 SWAP6 POP SWAP3 SWAP4 SWAP2 SWAP3 SWAP1 SWAP2 PUSH1 0x80 DUP5 ADD SWAP2 SWAP1 PUSH2 0x88E SWAP1 PUSH2 0x2E07 JUMP JUMPDEST DUP1 PUSH1 0x1F ADD PUSH1 0x20 DUP1 SWAP2 DIV MUL PUSH1 0x20 ADD PUSH1 0x40 MLOAD SWAP1 DUP2 ADD PUSH1 0x40 MSTORE DUP1 SWAP3 SWAP2 SWAP1 DUP2 DUP2 MSTORE PUSH1 0x20 ADD DUP3 DUP1 SLOAD PUSH2 0x8BA SWAP1 PUSH2 0x2E07 JUMP JUMPDEST DUP1 ISZERO PUSH2 0x907 JUMPI DUP1 PUSH1 0x1F LT PUSH2 0x8DC JUMPI PUSH2 0x100 DUP1 DUP4 SLOAD DIV MUL DUP4 MSTORE SWAP2 PUSH1 0x20 ADD SWAP2 PUSH2 0x907 JUMP JUMPDEST DUP3 ADD SWAP2 SWAP1 PUSH1 0x0 MSTORE PUSH1 0x20 PUSH1 0x0 KECCAK256 SWAP1 JUMPDEST DUP2 SLOAD DUP2 MSTORE SWAP1 PUSH1 0x1 ADD SWAP1 PUSH1 0x20 ADD DUP1 DUP4 GT PUSH2 0x8EA JUMPI DUP3 SWAP1 SUB PUSH1 0x1F AND DUP3 ADD SWAP2 JUMPDEST POP POP POP POP POP DUP2 MSTORE POP POP SWAP1 POP PUSH1 0x0 PUSH1 0x40 MLOAD DUP1 PUSH1 0x20 ADD PUSH1 0x40 MSTORE DUP1 PUSH1 0x0 DUP2 MSTORE POP SWAP1 POP DUP2 PUSH1 0x20 ADD MLOAD ISZERO PUSH2 0x941 JUMPI PUSH2 0x93A DUP7 DUP7 PUSH2 0xB0C JUMP JUMPDEST SWAP1 POP PUSH2 0x94F JUMP JUMPDEST PUSH2 0x94C DUP7 PUSH1 0x0 PUSH2 0x1010 JUMP JUMPDEST SWAP1 POP JUMPDEST DUP3 DUP2 PUSH1 0x40 MLOAD PUSH1 0x20 ADD PUSH2 0x962 SWAP3 SWAP2 SWAP1 PUSH2 0x2860 JUMP JUMPDEST PUSH1 0x40 MLOAD PUSH1 0x20 DUP2 DUP4 SUB SUB DUP2 MSTORE SWAP1 PUSH1 0x40 MSTORE SWAP4 POP POP POP POP SWAP3 SWAP2 POP POP JUMP JUMPDEST PUSH1 0x8 SLOAD PUSH1 0x1 PUSH1 0x1 PUSH1 0xA0 SHL SUB AND CALLER EQ PUSH2 0x9A6 JUMPI PUSH1 0x40 MLOAD PUSH3 0x461BCD PUSH1 0xE5 SHL DUP2 MSTORE PUSH1 0x4 ADD PUSH2 0x6CE SWAP1 PUSH2 0x2CC0 JUMP JUMPDEST PUSH1 0x9 SLOAD PUSH1 0xB SLOAD PUSH1 0x8 JUMPDEST PUSH1 0xF DUP2 LT ISZERO PUSH2 0xB04 JUMPI PUSH1 0x0 JUMPDEST PUSH1 0xF DUP2 LT ISZERO PUSH2 0xAF1 JUMPI PUSH1 0x40 DUP1 MLOAD PUSH1 0xA0 DUP2 ADD DUP3 MSTORE PUSH1 0x0 DUP1 DUP3 MSTORE PUSH1 0x20 DUP3 ADD DUP2 SWAP1 MSTORE SWAP2 DUP2 ADD PUSH2 0x9E8 PUSH1 0x2 DUP8 PUSH2 0x2D83 JUMP JUMPDEST PUSH2 0x9F2 DUP8 DUP8 PUSH2 0x2DA5 JUMP JUMPDEST PUSH2 0x9FC SWAP2 SWAP1 PUSH2 0x2D46 JUMP JUMPDEST DUP2 MSTORE PUSH1 0x20 ADD PUSH2 0xA0C PUSH1 0x2 DUP8 PUSH2 0x2D83 JUMP JUMPDEST PUSH2 0xA16 DUP8 DUP7 PUSH2 0x2DA5 JUMP JUMPDEST PUSH2 0xA20 SWAP2 SWAP1 PUSH2 0x2D46 JUMP JUMPDEST DUP2 MSTORE PUSH1 0x20 ADD PUSH1 0x40 MLOAD DUP1 PUSH1 0x40 ADD PUSH1 0x40 MSTORE DUP1 PUSH1 0xB DUP2 MSTORE PUSH1 0x20 ADD PUSH11 0x1D1C985B9CDC185C995B9D PUSH1 0xAA SHL DUP2 MSTORE POP DUP2 MSTORE POP SWAP1 POP PUSH2 0xA58 DUP7 DUP7 PUSH2 0x1B37 JUMP JUMPDEST PUSH1 0x0 DUP6 DUP2 MSTORE PUSH1 0xA PUSH1 0x20 SWAP1 DUP2 MSTORE PUSH1 0x40 SWAP2 DUP3 SWAP1 KECCAK256 DUP4 MLOAD DUP2 SLOAD DUP4 DUP7 ADD MLOAD ISZERO ISZERO PUSH2 0x100 MUL PUSH2 0xFF00 NOT SWAP3 ISZERO ISZERO SWAP3 SWAP1 SWAP3 AND PUSH2 0xFFFF NOT SWAP1 SWAP2 AND OR OR DUP2 SSTORE SWAP2 DUP4 ADD MLOAD PUSH1 0x1 DUP4 ADD SSTORE PUSH1 0x60 DUP4 ADD MLOAD PUSH1 0x2 DUP4 ADD SSTORE PUSH1 0x80 DUP4 ADD MLOAD DUP1 MLOAD DUP5 SWAP4 SWAP3 PUSH2 0xABC SWAP3 PUSH1 0x3 DUP6 ADD SWAP3 SWAP2 ADD SWAP1 PUSH2 0x2380 JUMP JUMPDEST POP POP POP PUSH1 0x0 DUP6 DUP2 MSTORE PUSH1 0xE PUSH1 0x20 MSTORE PUSH1 0x40 SWAP1 KECCAK256 TIMESTAMP SWAP1 SSTORE PUSH2 0xADB DUP6 PUSH1 0x1 PUSH2 0x2D46 JUMP JUMPDEST SWAP5 POP POP DUP1 DUP1 PUSH2 0xAE9 SWAP1 PUSH2 0x2E42 JUMP JUMPDEST SWAP2 POP POP PUSH2 0x9BB JUMP JUMPDEST POP DUP1 PUSH2 0xAFC DUP2 PUSH2 0x2E42 JUMP JUMPDEST SWAP2 POP POP PUSH2 0x9AF JUMP JUMPDEST POP POP PUSH1 0x9 SSTORE POP JUMP JUMPDEST PUSH1 0x0 DUP3 DUP2 MSTORE PUSH1 0xA PUSH1 0x20 SWAP1 DUP2 MSTORE PUSH1 0x40 DUP1 DUP4 KECCAK256 DUP2 MLOAD PUSH1 0xA0 DUP2 ADD DUP4 MSTORE DUP2 SLOAD PUSH1 0xFF DUP1 DUP3 AND ISZERO ISZERO DUP4 MSTORE PUSH2 0x100 SWAP1 SWAP2 DIV AND ISZERO ISZERO SWAP4 DUP2 ADD SWAP4 SWAP1 SWAP4 MSTORE PUSH1 0x1 DUP2 ADD SLOAD SWAP2 DUP4 ADD SWAP2 SWAP1 SWAP2 MSTORE PUSH1 0x2 DUP2 ADD SLOAD PUSH1 0x60 DUP4 DUP2 ADD SWAP2 SWAP1 SWAP2 MSTORE PUSH1 0x3 DUP3 ADD DUP1 SLOAD SWAP2 SWAP5 SWAP4 SWAP3 SWAP2 PUSH1 0x80 DUP5 ADD SWAP2 SWAP1 PUSH2 0xB74 SWAP1 PUSH2 0x2E07 JUMP JUMPDEST DUP1 PUSH1 0x1F ADD PUSH1 0x20 DUP1 SWAP2 DIV MUL PUSH1 0x20 ADD PUSH1 0x40 MLOAD SWAP1 DUP2 ADD PUSH1 0x40 MSTORE DUP1 SWAP3 SWAP2 SWAP1 DUP2 DUP2 MSTORE PUSH1 0x20 ADD DUP3 DUP1 SLOAD PUSH2 0xBA0 SWAP1 PUSH2 0x2E07 JUMP JUMPDEST DUP1 ISZERO PUSH2 0xBED JUMPI DUP1 PUSH1 0x1F LT PUSH2 0xBC2 JUMPI PUSH2 0x100 DUP1 DUP4 SLOAD DIV MUL DUP4 MSTORE SWAP2 PUSH1 0x20 ADD SWAP2 PUSH2 0xBED JUMP JUMPDEST DUP3 ADD SWAP2 SWAP1 PUSH1 0x0 MSTORE PUSH1 0x20 PUSH1 0x0 KECCAK256 SWAP1 JUMPDEST DUP2 SLOAD DUP2 MSTORE SWAP1 PUSH1 0x1 ADD SWAP1 PUSH1 0x20 ADD DUP1 DUP4 GT PUSH2 0xBD0 JUMPI DUP3 SWAP1 SUB PUSH1 0x1F AND DUP3 ADD SWAP2 JUMPDEST POP POP POP SWAP2 SWAP1 SWAP3 MSTORE POP POP PUSH1 0x40 DUP1 MLOAD PUSH1 0x20 DUP2 ADD SWAP1 SWAP2 MSTORE PUSH1 0x0 DUP2 MSTORE SWAP2 SWAP3 POP POP DUP4 ISZERO PUSH2 0xC9D JUMPI PUSH1 0xD DUP1 SLOAD PUSH2 0xC1C SWAP1 PUSH2 0x2E07 JUMP JUMPDEST DUP1 PUSH1 0x1F ADD PUSH1 0x20 DUP1 SWAP2 DIV MUL PUSH1 0x20 ADD PUSH1 0x40 MLOAD SWAP1 DUP2 ADD PUSH1 0x40 MSTORE DUP1 SWAP3 SWAP2 SWAP1 DUP2 DUP2 MSTORE PUSH1 0x20 ADD DUP3 DUP1 SLOAD PUSH2 0xC48 SWAP1 PUSH2 0x2E07 JUMP JUMPDEST DUP1 ISZERO PUSH2 0xC95 JUMPI DUP1 PUSH1 0x1F LT PUSH2 0xC6A JUMPI PUSH2 0x100 DUP1 DUP4 SLOAD DIV MUL DUP4 MSTORE SWAP2 PUSH1 0x20 ADD SWAP2 PUSH2 0xC95 JUMP JUMPDEST DUP3 ADD SWAP2 SWAP1 PUSH1 0x0 MSTORE PUSH1 0x20 PUSH1 0x0 KECCAK256 SWAP1 JUMPDEST DUP2 SLOAD DUP2 MSTORE SWAP1 PUSH1 0x1 ADD SWAP1 PUSH1 0x20 ADD DUP1 DUP4 GT PUSH2 0xC78 JUMPI DUP3 SWAP1 SUB PUSH1 0x1F AND DUP3 ADD SWAP2 JUMPDEST POP POP POP POP POP SWAP1 POP JUMPDEST PUSH1 0x80 DUP3 ADD MLOAD PUSH1 0x40 MLOAD PUSH2 0xCB3 SWAP2 DUP4 SWAP2 PUSH1 0x20 ADD PUSH2 0x2A38 JUMP JUMPDEST PUSH1 0x40 MLOAD PUSH1 0x20 DUP2 DUP4 SUB SUB DUP2 MSTORE SWAP1 PUSH1 0x40 MSTORE SWAP3 POP POP POP SWAP3 SWAP2 POP POP JUMP JUMPDEST PUSH2 0xCD6 CALLER DUP3 PUSH2 0x1B55 JUMP JUMPDEST PUSH2 0xCF2 JUMPI PUSH1 0x40 MLOAD PUSH3 0x461BCD PUSH1 0xE5 SHL DUP2 MSTORE PUSH1 0x4 ADD PUSH2 0x6CE SWAP1 PUSH2 0x2CF5 JUMP JUMPDEST PUSH2 0x804 DUP4 DUP4 DUP4 PUSH2 0x1C48 JUMP JUMPDEST PUSH1 0x60 PUSH1 0x0 PUSH1 0x40 MLOAD DUP1 PUSH1 0x40 ADD PUSH1 0x40 MSTORE DUP1 PUSH1 0x1A DUP2 MSTORE PUSH1 0x20 ADD PUSH32 0x646174613A696D6167652F7376672B786D6C3B6261736536342C000000000000 DUP2 MSTORE POP SWAP1 POP PUSH1 0x0 PUSH2 0xD63 DUP5 PUSH1 0x40 MLOAD PUSH1 0x20 ADD PUSH2 0xD4F SWAP2 SWAP1 PUSH2 0x2815 JUMP JUMPDEST PUSH1 0x40 MLOAD PUSH1 0x20 DUP2 DUP4 SUB SUB DUP2 MSTORE SWAP1 PUSH1 0x40 MSTORE PUSH2 0x1DE8 JUMP JUMPDEST SWAP1 POP DUP2 DUP2 PUSH1 0x40 MLOAD PUSH1 0x20 ADD PUSH2 0xD78 SWAP3 SWAP2 SWAP1 PUSH2 0x2831 JUMP JUMPDEST PUSH1 0x40 MLOAD PUSH1 0x20 DUP2 DUP4 SUB SUB DUP2 MSTORE SWAP1 PUSH1 0x40 MSTORE SWAP3 POP POP POP SWAP2 SWAP1 POP JUMP JUMPDEST PUSH1 0x8 SLOAD PUSH1 0x1 PUSH1 0x1 PUSH1 0xA0 SHL SUB AND CALLER EQ PUSH2 0xDBA JUMPI PUSH1 0x40 MLOAD PUSH3 0x461BCD PUSH1 0xE5 SHL DUP2 MSTORE PUSH1 0x4 ADD PUSH2 0x6CE SWAP1 PUSH2 0x2CC0 JUMP JUMPDEST PUSH1 0x9 DUP1 SLOAD PUSH1 0x40 DUP1 MLOAD PUSH1 0xA0 DUP2 ADD DUP3 MSTORE PUSH1 0x1 DUP2 MSTORE PUSH1 0x0 PUSH1 0x20 DUP1 DUP4 ADD DUP3 SWAP1 MSTORE DUP3 DUP5 ADD DUP3 SWAP1 MSTORE PUSH1 0x60 DUP4 ADD SWAP2 SWAP1 SWAP2 MSTORE DUP3 MLOAD DUP1 DUP5 ADD SWAP1 SWAP4 MSTORE SWAP4 DUP3 MSTORE PUSH9 0x677261797363616C65 PUSH1 0xB8 SHL SWAP4 DUP3 ADD SWAP4 SWAP1 SWAP4 MSTORE PUSH1 0x80 DUP4 ADD MSTORE SWAP1 PUSH2 0xE13 DUP4 DUP4 PUSH2 0x1B37 JUMP JUMPDEST PUSH1 0x0 DUP3 DUP2 MSTORE PUSH1 0xA PUSH1 0x20 SWAP1 DUP2 MSTORE PUSH1 0x40 SWAP2 DUP3 SWAP1 KECCAK256 DUP4 MLOAD DUP2 SLOAD DUP4 DUP7 ADD MLOAD ISZERO ISZERO PUSH2 0x100 MUL PUSH2 0xFF00 NOT SWAP3 ISZERO ISZERO SWAP3 SWAP1 SWAP3 AND PUSH2 0xFFFF NOT SWAP1 SWAP2 AND OR OR DUP2 SSTORE SWAP2 DUP4 ADD MLOAD PUSH1 0x1 DUP4 ADD SSTORE PUSH1 0x60 DUP4 ADD MLOAD PUSH1 0x2 DUP4 ADD SSTORE PUSH1 0x80 DUP4 ADD MLOAD DUP1 MLOAD DUP5 SWAP4 SWAP3 PUSH2 0xE77 SWAP3 PUSH1 0x3 DUP6 ADD SWAP3 SWAP2 ADD SWAP1 PUSH2 0x2380 JUMP JUMPDEST POP POP POP PUSH1 0x0 DUP3 DUP2 MSTORE PUSH1 0xE PUSH1 0x20 MSTORE PUSH1 0x40 SWAP1 KECCAK256 TIMESTAMP SWAP1 SSTORE PUSH2 0xE96 DUP3 PUSH1 0x1 PUSH2 0x2D46 JUMP JUMPDEST SWAP2 POP PUSH1 0x0 PUSH1 0x40 MLOAD DUP1 PUSH1 0xA0 ADD PUSH1 0x40 MSTORE DUP1 PUSH1 0x0 ISZERO ISZERO DUP2 MSTORE PUSH1 0x20 ADD PUSH1 0x1 ISZERO ISZERO DUP2 MSTORE PUSH1 0x20 ADD PUSH1 0x0 DUP2 MSTORE PUSH1 0x20 ADD PUSH1 0x0 DUP2 MSTORE PUSH1 0x20 ADD PUSH1 0x40 MLOAD DUP1 PUSH1 0x40 ADD PUSH1 0x40 MSTORE DUP1 PUSH1 0x5 DUP2 MSTORE PUSH1 0x20 ADD PUSH5 0x7768697465 PUSH1 0xD8 SHL DUP2 MSTORE POP DUP2 MSTORE POP SWAP1 POP PUSH2 0xEF2 DUP5 DUP5 PUSH2 0x1B37 JUMP JUMPDEST PUSH1 0x0 DUP4 DUP2 MSTORE PUSH1 0xA PUSH1 0x20 SWAP1 DUP2 MSTORE PUSH1 0x40 SWAP2 DUP3 SWAP1 KECCAK256 DUP4 MLOAD DUP2 SLOAD DUP4 DUP7 ADD MLOAD ISZERO ISZERO PUSH2 0x100 MUL PUSH2 0xFF00 NOT SWAP3 ISZERO ISZERO SWAP3 SWAP1 SWAP3 AND PUSH2 0xFFFF NOT SWAP1 SWAP2 AND OR OR DUP2 SSTORE SWAP2 DUP4 ADD MLOAD PUSH1 0x1 DUP4 ADD SSTORE PUSH1 0x60 DUP4 ADD MLOAD PUSH1 0x2 DUP4 ADD SSTORE PUSH1 0x80 DUP4 ADD MLOAD DUP1 MLOAD DUP5 SWAP4 SWAP3 PUSH2 0xF56 SWAP3 PUSH1 0x3 DUP6 ADD SWAP3 SWAP2 ADD SWAP1 PUSH2 0x2380 JUMP JUMPDEST POP POP POP PUSH1 0x0 DUP4 DUP2 MSTORE PUSH1 0xE PUSH1 0x20 MSTORE PUSH1 0x40 SWAP1 KECCAK256 TIMESTAMP SWAP1 SSTORE PUSH2 0xF75 DUP4 PUSH1 0x1 PUSH2 0x2D46 JUMP JUMPDEST PUSH1 0x9 SSTORE POP POP POP POP JUMP JUMPDEST PUSH2 0x804 DUP4 DUP4 DUP4 PUSH1 0x40 MLOAD DUP1 PUSH1 0x20 ADD PUSH1 0x40 MSTORE DUP1 PUSH1 0x0 DUP2 MSTORE POP PUSH2 0x1547 JUMP JUMPDEST PUSH1 0x0 DUP2 DUP2 MSTORE PUSH1 0x3 PUSH1 0x20 MSTORE PUSH1 0x40 DUP2 KECCAK256 SLOAD PUSH1 0x1 PUSH1 0x1 PUSH1 0xA0 SHL SUB AND DUP1 PUSH2 0x5C1 JUMPI PUSH1 0x40 MLOAD PUSH3 0x461BCD PUSH1 0xE5 SHL DUP2 MSTORE PUSH1 0x20 PUSH1 0x4 DUP3 ADD MSTORE PUSH1 0x29 PUSH1 0x24 DUP3 ADD MSTORE PUSH32 0x4552433732313A206F776E657220717565727920666F72206E6F6E6578697374 PUSH1 0x44 DUP3 ADD MSTORE PUSH9 0x32B73A103A37B5B2B7 PUSH1 0xB9 SHL PUSH1 0x64 DUP3 ADD MSTORE PUSH1 0x84 ADD PUSH2 0x6CE JUMP JUMPDEST PUSH1 0x0 DUP3 DUP2 MSTORE PUSH1 0xA PUSH1 0x20 SWAP1 DUP2 MSTORE PUSH1 0x40 DUP1 DUP4 KECCAK256 DUP2 MLOAD PUSH1 0xA0 DUP2 ADD DUP4 MSTORE DUP2 SLOAD PUSH1 0xFF DUP1 DUP3 AND ISZERO ISZERO DUP4 MSTORE PUSH2 0x100 SWAP1 SWAP2 DIV AND ISZERO ISZERO SWAP4 DUP2 ADD SWAP4 SWAP1 SWAP4 MSTORE PUSH1 0x1 DUP2 ADD SLOAD SWAP2 DUP4 ADD SWAP2 SWAP1 SWAP2 MSTORE PUSH1 0x2 DUP2 ADD SLOAD PUSH1 0x60 DUP4 DUP2 ADD SWAP2 SWAP1 SWAP2 MSTORE PUSH1 0x3 DUP3 ADD DUP1 SLOAD SWAP2 SWAP5 SWAP4 SWAP3 SWAP2 PUSH1 0x80 DUP5 ADD SWAP2 SWAP1 PUSH2 0x1078 SWAP1 PUSH2 0x2E07 JUMP JUMPDEST DUP1 PUSH1 0x1F ADD PUSH1 0x20 DUP1 SWAP2 DIV MUL PUSH1 0x20 ADD PUSH1 0x40 MLOAD SWAP1 DUP2 ADD PUSH1 0x40 MSTORE DUP1 SWAP3 SWAP2 SWAP1 DUP2 DUP2 MSTORE PUSH1 0x20 ADD DUP3 DUP1 SLOAD PUSH2 0x10A4 SWAP1 PUSH2 0x2E07 JUMP JUMPDEST DUP1 ISZERO PUSH2 0x10F1 JUMPI DUP1 PUSH1 0x1F LT PUSH2 0x10C6 JUMPI PUSH2 0x100 DUP1 DUP4 SLOAD DIV MUL DUP4 MSTORE SWAP2 PUSH1 0x20 ADD SWAP2 PUSH2 0x10F1 JUMP JUMPDEST DUP3 ADD SWAP2 SWAP1 PUSH1 0x0 MSTORE PUSH1 0x20 PUSH1 0x0 KECCAK256 SWAP1 JUMPDEST DUP2 SLOAD DUP2 MSTORE SWAP1 PUSH1 0x1 ADD SWAP1 PUSH1 0x20 ADD DUP1 DUP4 GT PUSH2 0x10D4 JUMPI DUP3 SWAP1 SUB PUSH1 0x1F AND DUP3 ADD SWAP2 JUMPDEST POP POP POP POP POP DUP2 MSTORE POP POP SWAP1 POP PUSH1 0x0 PUSH1 0x40 MLOAD DUP1 PUSH1 0x20 ADD PUSH1 0x40 MSTORE DUP1 PUSH1 0x0 DUP2 MSTORE POP SWAP1 POP PUSH1 0x0 DUP3 PUSH1 0x80 ADD MLOAD PUSH1 0x40 MLOAD PUSH1 0x20 ADD PUSH2 0x1127 SWAP2 SWAP1 PUSH2 0x29FC JUMP JUMPDEST PUSH1 0x40 MLOAD PUSH1 0x20 DUP2 DUP4 SUB SUB DUP2 MSTORE SWAP1 PUSH1 0x40 MSTORE SWAP1 POP DUP5 ISZERO PUSH2 0x11CC JUMPI PUSH1 0xD DUP1 SLOAD PUSH2 0x114B SWAP1 PUSH2 0x2E07 JUMP JUMPDEST DUP1 PUSH1 0x1F ADD PUSH1 0x20 DUP1 SWAP2 DIV MUL PUSH1 0x20 ADD PUSH1 0x40 MLOAD SWAP1 DUP2 ADD PUSH1 0x40 MSTORE DUP1 SWAP3 SWAP2 SWAP1 DUP2 DUP2 MSTORE PUSH1 0x20 ADD DUP3 DUP1 SLOAD PUSH2 0x1177 SWAP1 PUSH2 0x2E07 JUMP JUMPDEST DUP1 ISZERO PUSH2 0x11C4 JUMPI DUP1 PUSH1 0x1F LT PUSH2 0x1199 JUMPI PUSH2 0x100 DUP1 DUP4 SLOAD DIV MUL DUP4 MSTORE SWAP2 PUSH1 0x20 ADD SWAP2 PUSH2 0x11C4 JUMP JUMPDEST DUP3 ADD SWAP2 SWAP1 PUSH1 0x0 MSTORE PUSH1 0x20 PUSH1 0x0 KECCAK256 SWAP1 JUMPDEST DUP2 SLOAD DUP2 MSTORE SWAP1 PUSH1 0x1 ADD SWAP1 PUSH1 0x20 ADD DUP1 DUP4 GT PUSH2 0x11A7 JUMPI DUP3 SWAP1 SUB PUSH1 0x1F AND DUP3 ADD SWAP2 JUMPDEST POP POP POP POP POP SWAP2 POP JUMPDEST PUSH2 0x11FD DUP4 PUSH1 0x80 ADD MLOAD PUSH1 0x40 MLOAD DUP1 PUSH1 0x40 ADD PUSH1 0x40 MSTORE DUP1 PUSH1 0xB DUP2 MSTORE PUSH1 0x20 ADD PUSH11 0x1D1C985B9CDC185C995B9D PUSH1 0xAA SHL DUP2 MSTORE POP PUSH2 0x1580 JUMP JUMPDEST ISZERO PUSH2 0x1238 JUMPI POP PUSH1 0x40 DUP1 MLOAD DUP1 DUP3 ADD SWAP1 SWAP2 MSTORE PUSH1 0x18 DUP2 MSTORE PUSH32 0x7374796C653D2766696C6C2D6F7061636974793A203027200000000000000000 PUSH1 0x20 DUP3 ADD MSTORE JUMPDEST DUP2 PUSH2 0x1246 DUP5 PUSH1 0x40 ADD MLOAD PUSH2 0x1F50 JUMP JUMPDEST PUSH2 0x1253 DUP6 PUSH1 0x60 ADD MLOAD PUSH2 0x1F50 JUMP JUMPDEST PUSH2 0x126A PUSH1 0x2 PUSH1 0xB SLOAD PUSH2 0x1265 SWAP2 SWAP1 PUSH2 0x2D83 JUMP JUMPDEST PUSH2 0x1F50 JUMP JUMPDEST DUP7 PUSH1 0x80 ADD MLOAD PUSH1 0x40 MLOAD PUSH1 0x20 ADD PUSH2 0x962 SWAP6 SWAP5 SWAP4 SWAP3 SWAP2 SWAP1 PUSH2 0x2ABF JUMP JUMPDEST PUSH1 0x0 PUSH1 0x1 PUSH1 0x1 PUSH1 0xA0 SHL SUB DUP3 AND PUSH2 0x12EE JUMPI PUSH1 0x40 MLOAD PUSH3 0x461BCD PUSH1 0xE5 SHL DUP2 MSTORE PUSH1 0x20 PUSH1 0x4 DUP3 ADD MSTORE PUSH1 0x2A PUSH1 0x24 DUP3 ADD MSTORE PUSH32 0x4552433732313A2062616C616E636520717565727920666F7220746865207A65 PUSH1 0x44 DUP3 ADD MSTORE PUSH10 0x726F2061646472657373 PUSH1 0xB0 SHL PUSH1 0x64 DUP3 ADD MSTORE PUSH1 0x84 ADD PUSH2 0x6CE JUMP JUMPDEST POP PUSH1 0x1 PUSH1 0x1 PUSH1 0xA0 SHL SUB AND PUSH1 0x0 SWAP1 DUP2 MSTORE PUSH1 0x4 PUSH1 0x20 MSTORE PUSH1 0x40 SWAP1 KECCAK256 SLOAD SWAP1 JUMP JUMPDEST PUSH1 0x8 SLOAD PUSH1 0x1 PUSH1 0x1 PUSH1 0xA0 SHL SUB AND CALLER EQ PUSH2 0x1334 JUMPI PUSH1 0x40 MLOAD PUSH3 0x461BCD PUSH1 0xE5 SHL DUP2 MSTORE PUSH1 0x4 ADD PUSH2 0x6CE SWAP1 PUSH2 0x2CC0 JUMP JUMPDEST PUSH2 0x133E PUSH1 0x0 PUSH2 0x2079 JUMP JUMPDEST JUMP JUMPDEST PUSH1 0x0 DUP2 DUP2 MSTORE PUSH1 0xA PUSH1 0x20 MSTORE PUSH1 0x40 SWAP1 KECCAK256 PUSH1 0x3 ADD DUP1 SLOAD PUSH1 0x60 SWAP2 SWAP1 PUSH2 0x1360 SWAP1 PUSH2 0x2E07 JUMP JUMPDEST DUP1 PUSH1 0x1F ADD PUSH1 0x20 DUP1 SWAP2 DIV MUL PUSH1 0x20 ADD PUSH1 0x40 MLOAD SWAP1 DUP2 ADD PUSH1 0x40 MSTORE DUP1 SWAP3 SWAP2 SWAP1 DUP2 DUP2 MSTORE PUSH1 0x20 ADD DUP3 DUP1 SLOAD PUSH2 0x138C SWAP1 PUSH2 0x2E07 JUMP JUMPDEST DUP1 ISZERO PUSH2 0x13D9 JUMPI DUP1 PUSH1 0x1F LT PUSH2 0x13AE JUMPI PUSH2 0x100 DUP1 DUP4 SLOAD DIV MUL DUP4 MSTORE SWAP2 PUSH1 0x20 ADD SWAP2 PUSH2 0x13D9 JUMP JUMPDEST DUP3 ADD SWAP2 SWAP1 PUSH1 0x0 MSTORE PUSH1 0x20 PUSH1 0x0 KECCAK256 SWAP1 JUMPDEST DUP2 SLOAD DUP2 MSTORE SWAP1 PUSH1 0x1 ADD SWAP1 PUSH1 0x20 ADD DUP1 DUP4 GT PUSH2 0x13BC JUMPI DUP3 SWAP1 SUB PUSH1 0x1F AND DUP3 ADD SWAP2 JUMPDEST POP POP POP POP POP SWAP1 POP SWAP2 SWAP1 POP JUMP JUMPDEST PUSH1 0x60 PUSH1 0x2 DUP1 SLOAD PUSH2 0x5D6 SWAP1 PUSH2 0x2E07 JUMP JUMPDEST PUSH1 0x1 PUSH1 0x1 PUSH1 0xA0 SHL SUB DUP3 AND CALLER EQ ISZERO PUSH2 0x144D JUMPI PUSH1 0x40 MLOAD PUSH3 0x461BCD PUSH1 0xE5 SHL DUP2 MSTORE PUSH1 0x20 PUSH1 0x4 DUP3 ADD MSTORE PUSH1 0x19 PUSH1 0x24 DUP3 ADD MSTORE PUSH32 0x4552433732313A20617070726F766520746F2063616C6C657200000000000000 PUSH1 0x44 DUP3 ADD MSTORE PUSH1 0x64 ADD PUSH2 0x6CE JUMP JUMPDEST CALLER PUSH1 0x0 DUP2 DUP2 MSTORE PUSH1 0x6 PUSH1 0x20 SWAP1 DUP2 MSTORE PUSH1 0x40 DUP1 DUP4 KECCAK256 PUSH1 0x1 PUSH1 0x1 PUSH1 0xA0 SHL SUB DUP8 AND DUP1 DUP6 MSTORE SWAP1 DUP4 MSTORE SWAP3 DUP2 SWAP1 KECCAK256 DUP1 SLOAD PUSH1 0xFF NOT AND DUP7 ISZERO ISZERO SWAP1 DUP2 OR SWAP1 SWAP2 SSTORE SWAP1 MLOAD SWAP1 DUP2 MSTORE SWAP2 SWAP3 SWAP2 PUSH32 0x17307EAB39AB6107E8899845AD3D59BD9653F200F220920489CA2B5937696C31 SWAP2 ADD PUSH1 0x40 MLOAD DUP1 SWAP2 SUB SWAP1 LOG3 POP POP JUMP JUMPDEST PUSH1 0xD DUP1 SLOAD PUSH2 0x14C6 SWAP1 PUSH2 0x2E07 JUMP JUMPDEST DUP1 PUSH1 0x1F ADD PUSH1 0x20 DUP1 SWAP2 DIV MUL PUSH1 0x20 ADD PUSH1 0x40 MLOAD SWAP1 DUP2 ADD PUSH1 0x40 MSTORE DUP1 SWAP3 SWAP2 SWAP1 DUP2 DUP2 MSTORE PUSH1 0x20 ADD DUP3 DUP1 SLOAD PUSH2 0x14F2 SWAP1 PUSH2 0x2E07 JUMP JUMPDEST DUP1 ISZERO PUSH2 0x153F JUMPI DUP1 PUSH1 0x1F LT PUSH2 0x1514 JUMPI PUSH2 0x100 DUP1 DUP4 SLOAD DIV MUL DUP4 MSTORE SWAP2 PUSH1 0x20 ADD SWAP2 PUSH2 0x153F JUMP JUMPDEST DUP3 ADD SWAP2 SWAP1 PUSH1 0x0 MSTORE PUSH1 0x20 PUSH1 0x0 KECCAK256 SWAP1 JUMPDEST DUP2 SLOAD DUP2 MSTORE SWAP1 PUSH1 0x1 ADD SWAP1 PUSH1 0x20 ADD DUP1 DUP4 GT PUSH2 0x1522 JUMPI DUP3 SWAP1 SUB PUSH1 0x1F AND DUP3 ADD SWAP2 JUMPDEST POP POP POP POP POP DUP2 JUMP JUMPDEST PUSH2 0x1552 CALLER JUMPDEST DUP4 PUSH2 0x1B55 JUMP JUMPDEST PUSH2 0x156E JUMPI PUSH1 0x40 MLOAD PUSH3 0x461BCD PUSH1 0xE5 SHL DUP2 MSTORE PUSH1 0x4 ADD PUSH2 0x6CE SWAP1 PUSH2 0x2CF5 JUMP JUMPDEST PUSH2 0x157A DUP5 DUP5 DUP5 DUP5 PUSH2 0x20CB JUMP JUMPDEST POP POP POP POP JUMP JUMPDEST PUSH1 0x0 DUP2 PUSH1 0x40 MLOAD PUSH1 0x20 ADD PUSH2 0x1593 SWAP2 SWAP1 PUSH2 0x2815 JUMP JUMPDEST PUSH1 0x40 MLOAD PUSH1 0x20 DUP2 DUP4 SUB SUB DUP2 MSTORE SWAP1 PUSH1 0x40 MSTORE DUP1 MLOAD SWAP1 PUSH1 0x20 ADD KECCAK256 DUP4 PUSH1 0x40 MLOAD PUSH1 0x20 ADD PUSH2 0x15BA SWAP2 SWAP1 PUSH2 0x2815 JUMP JUMPDEST PUSH1 0x40 MLOAD PUSH1 0x20 DUP2 DUP4 SUB SUB DUP2 MSTORE SWAP1 PUSH1 0x40 MSTORE DUP1 MLOAD SWAP1 PUSH1 0x20 ADD KECCAK256 EQ SWAP1 POP SWAP3 SWAP2 POP POP JUMP JUMPDEST PUSH1 0x0 DUP2 DUP2 MSTORE PUSH1 0xA PUSH1 0x20 MSTORE PUSH1 0x40 SWAP1 KECCAK256 PUSH1 0x1 ADD SLOAD PUSH1 0x60 SWAP1 PUSH2 0x1661 SWAP1 PUSH2 0x15FB SWAP1 PUSH2 0x1F50 JUMP JUMPDEST PUSH1 0x0 DUP5 DUP2 MSTORE PUSH1 0xA PUSH1 0x20 MSTORE PUSH1 0x40 SWAP1 KECCAK256 PUSH1 0x2 ADD SLOAD PUSH2 0x1616 SWAP1 PUSH2 0x1F50 JUMP JUMPDEST PUSH1 0x0 DUP6 DUP2 MSTORE PUSH1 0xA PUSH1 0x20 MSTORE PUSH1 0x40 SWAP1 KECCAK256 PUSH1 0x1 ADD SLOAD PUSH2 0x1631 SWAP1 PUSH2 0x1F50 JUMP JUMPDEST PUSH1 0x0 DUP7 DUP2 MSTORE PUSH1 0xA PUSH1 0x20 MSTORE PUSH1 0x40 SWAP1 KECCAK256 PUSH1 0x2 ADD SLOAD PUSH2 0x164C SWAP1 PUSH2 0x1F50 JUMP JUMPDEST DUP8 PUSH1 0x40 MLOAD PUSH1 0x20 ADD PUSH2 0xD4F SWAP6 SWAP5 SWAP4 SWAP3 SWAP2 SWAP1 PUSH2 0x28A0 JUMP JUMPDEST PUSH1 0x40 MLOAD PUSH1 0x20 ADD PUSH2 0x1671 SWAP2 SWAP1 PUSH2 0x2B9F JUMP JUMPDEST PUSH1 0x40 MLOAD PUSH1 0x20 DUP2 DUP4 SUB SUB DUP2 MSTORE SWAP1 PUSH1 0x40 MSTORE SWAP1 POP SWAP3 SWAP2 POP POP JUMP JUMPDEST PUSH1 0x0 DUP2 DUP2 MSTORE PUSH1 0x3 PUSH1 0x20 MSTORE PUSH1 0x40 SWAP1 KECCAK256 SLOAD PUSH1 0x60 SWAP1 PUSH1 0x1 PUSH1 0x1 PUSH1 0xA0 SHL SUB AND PUSH2 0x1707 JUMPI PUSH1 0x40 MLOAD PUSH3 0x461BCD PUSH1 0xE5 SHL DUP2 MSTORE PUSH1 0x20 PUSH1 0x4 DUP3 ADD MSTORE PUSH1 0x2F PUSH1 0x24 DUP3 ADD MSTORE PUSH32 0x4552433732314D657461646174613A2055524920717565727920666F72206E6F PUSH1 0x44 DUP3 ADD MSTORE PUSH15 0x3732BC34B9BA32B73A103A37B5B2B7 PUSH1 0x89 SHL PUSH1 0x64 DUP3 ADD MSTORE PUSH1 0x84 ADD PUSH2 0x6CE JUMP JUMPDEST PUSH1 0x0 PUSH2 0x1714 DUP4 PUSH1 0x0 PUSH2 0x809 JUMP JUMPDEST SWAP1 POP PUSH1 0x0 PUSH2 0x1721 DUP3 PUSH2 0xCFD JUMP JUMPDEST SWAP1 POP PUSH2 0x172D DUP2 DUP6 PUSH2 0x15D9 JUMP JUMPDEST SWAP5 SWAP4 POP POP POP POP JUMP JUMPDEST PUSH2 0x173E CALLER PUSH2 0x154C JUMP JUMPDEST PUSH2 0x175A JUMPI PUSH1 0x40 MLOAD PUSH3 0x461BCD PUSH1 0xE5 SHL DUP2 MSTORE PUSH1 0x4 ADD PUSH2 0x6CE SWAP1 PUSH2 0x2CF5 JUMP JUMPDEST PUSH1 0xC SLOAD PUSH1 0x0 DUP4 DUP2 MSTORE PUSH1 0xE PUSH1 0x20 MSTORE PUSH1 0x40 SWAP1 KECCAK256 SLOAD TIMESTAMP SWAP2 PUSH2 0x1777 SWAP2 PUSH2 0x2D46 JUMP JUMPDEST LT ISZERO PUSH2 0x17C5 JUMPI PUSH1 0x40 MLOAD PUSH3 0x461BCD PUSH1 0xE5 SHL DUP2 MSTORE PUSH1 0x20 PUSH1 0x4 DUP3 ADD MSTORE PUSH1 0x1D PUSH1 0x24 DUP3 ADD MSTORE PUSH32 0x54696D652773207570206F6E206368616E67696E6720636F6C6F727321000000 PUSH1 0x44 DUP3 ADD MSTORE PUSH1 0x64 ADD PUSH2 0x6CE JUMP JUMPDEST PUSH1 0x0 DUP3 DUP2 MSTORE PUSH1 0xA PUSH1 0x20 SWAP1 DUP2 MSTORE PUSH1 0x40 SWAP1 SWAP2 KECCAK256 DUP3 MLOAD PUSH2 0x804 SWAP3 PUSH1 0x3 SWAP1 SWAP3 ADD SWAP2 DUP5 ADD SWAP1 PUSH2 0x2380 JUMP JUMPDEST PUSH1 0x8 SLOAD PUSH1 0x1 PUSH1 0x1 PUSH1 0xA0 SHL SUB AND CALLER EQ PUSH2 0x1814 JUMPI PUSH1 0x40 MLOAD PUSH3 0x461BCD PUSH1 0xE5 SHL DUP2 MSTORE PUSH1 0x4 ADD PUSH2 0x6CE SWAP1 PUSH2 0x2CC0 JUMP JUMPDEST PUSH1 0x9 SLOAD PUSH1 0xB SLOAD PUSH1 0x0 JUMPDEST PUSH1 0x8 DUP2 LT ISZERO PUSH2 0xB04 JUMPI PUSH1 0x0 JUMPDEST PUSH1 0xF DUP2 LT ISZERO PUSH2 0x195F JUMPI PUSH1 0x40 DUP1 MLOAD PUSH1 0xA0 DUP2 ADD DUP3 MSTORE PUSH1 0x0 DUP1 DUP3 MSTORE PUSH1 0x20 DUP3 ADD DUP2 SWAP1 MSTORE SWAP2 DUP2 ADD PUSH2 0x1856 PUSH1 0x2 DUP8 PUSH2 0x2D83 JUMP JUMPDEST PUSH2 0x1860 DUP8 DUP8 PUSH2 0x2DA5 JUMP JUMPDEST PUSH2 0x186A SWAP2 SWAP1 PUSH2 0x2D46 JUMP JUMPDEST DUP2 MSTORE PUSH1 0x20 ADD PUSH2 0x187A PUSH1 0x2 DUP8 PUSH2 0x2D83 JUMP JUMPDEST PUSH2 0x1884 DUP8 DUP7 PUSH2 0x2DA5 JUMP JUMPDEST PUSH2 0x188E SWAP2 SWAP1 PUSH2 0x2D46 JUMP JUMPDEST DUP2 MSTORE PUSH1 0x20 ADD PUSH1 0x40 MLOAD DUP1 PUSH1 0x40 ADD PUSH1 0x40 MSTORE DUP1 PUSH1 0xB DUP2 MSTORE PUSH1 0x20 ADD PUSH11 0x1D1C985B9CDC185C995B9D PUSH1 0xAA SHL DUP2 MSTORE POP DUP2 MSTORE POP SWAP1 POP PUSH2 0x18C6 DUP7 DUP7 PUSH2 0x1B37 JUMP JUMPDEST PUSH1 0x0 DUP6 DUP2 MSTORE PUSH1 0xA PUSH1 0x20 SWAP1 DUP2 MSTORE PUSH1 0x40 SWAP2 DUP3 SWAP1 KECCAK256 DUP4 MLOAD DUP2 SLOAD DUP4 DUP7 ADD MLOAD ISZERO ISZERO PUSH2 0x100 MUL PUSH2 0xFF00 NOT SWAP3 ISZERO ISZERO SWAP3 SWAP1 SWAP3 AND PUSH2 0xFFFF NOT SWAP1 SWAP2 AND OR OR DUP2 SSTORE SWAP2 DUP4 ADD MLOAD PUSH1 0x1 DUP4 ADD SSTORE PUSH1 0x60 DUP4 ADD MLOAD PUSH1 0x2 DUP4 ADD SSTORE PUSH1 0x80 DUP4 ADD MLOAD DUP1 MLOAD DUP5 SWAP4 SWAP3 PUSH2 0x192A SWAP3 PUSH1 0x3 DUP6 ADD SWAP3 SWAP2 ADD SWAP1 PUSH2 0x2380 JUMP JUMPDEST POP POP POP PUSH1 0x0 DUP6 DUP2 MSTORE PUSH1 0xE PUSH1 0x20 MSTORE PUSH1 0x40 SWAP1 KECCAK256 TIMESTAMP SWAP1 SSTORE PUSH2 0x1949 DUP6 PUSH1 0x1 PUSH2 0x2D46 JUMP JUMPDEST SWAP5 POP POP DUP1 DUP1 PUSH2 0x1957 SWAP1 PUSH2 0x2E42 JUMP JUMPDEST SWAP2 POP POP PUSH2 0x1829 JUMP JUMPDEST POP DUP1 PUSH2 0x196A DUP2 PUSH2 0x2E42 JUMP JUMPDEST SWAP2 POP POP PUSH2 0x181D JUMP JUMPDEST PUSH1 0x8 SLOAD PUSH1 0x1 PUSH1 0x1 PUSH1 0xA0 SHL SUB AND CALLER EQ PUSH2 0x199C JUMPI PUSH1 0x40 MLOAD PUSH3 0x461BCD PUSH1 0xE5 SHL DUP2 MSTORE PUSH1 0x4 ADD PUSH2 0x6CE SWAP1 PUSH2 0x2CC0 JUMP JUMPDEST PUSH1 0x1 PUSH1 0x1 PUSH1 0xA0 SHL SUB DUP2 AND PUSH2 0x1A01 JUMPI PUSH1 0x40 MLOAD PUSH3 0x461BCD PUSH1 0xE5 SHL DUP2 MSTORE PUSH1 0x20 PUSH1 0x4 DUP3 ADD MSTORE PUSH1 0x26 PUSH1 0x24 DUP3 ADD MSTORE PUSH32 0x4F776E61626C653A206E6577206F776E657220697320746865207A65726F2061 PUSH1 0x44 DUP3 ADD MSTORE PUSH6 0x646472657373 PUSH1 0xD0 SHL PUSH1 0x64 DUP3 ADD MSTORE PUSH1 0x84 ADD PUSH2 0x6CE JUMP JUMPDEST PUSH2 0x1A0A DUP2 PUSH2 0x2079 JUMP JUMPDEST POP JUMP JUMPDEST PUSH1 0xA PUSH1 0x20 MSTORE PUSH1 0x0 SWAP1 DUP2 MSTORE PUSH1 0x40 SWAP1 KECCAK256 DUP1 SLOAD PUSH1 0x1 DUP3 ADD SLOAD PUSH1 0x2 DUP4 ADD SLOAD PUSH1 0x3 DUP5 ADD DUP1 SLOAD PUSH1 0xFF DUP1 DUP7 AND SWAP7 PUSH2 0x100 SWAP1 SWAP7 DIV AND SWAP5 SWAP2 SWAP1 PUSH2 0x1A46 SWAP1 PUSH2 0x2E07 JUMP JUMPDEST DUP1 PUSH1 0x1F ADD PUSH1 0x20 DUP1 SWAP2 DIV MUL PUSH1 0x20 ADD PUSH1 0x40 MLOAD SWAP1 DUP2 ADD PUSH1 0x40 MSTORE DUP1 SWAP3 SWAP2 SWAP1 DUP2 DUP2 MSTORE PUSH1 0x20 ADD DUP3 DUP1 SLOAD PUSH2 0x1A72 SWAP1 PUSH2 0x2E07 JUMP JUMPDEST DUP1 ISZERO PUSH2 0x1ABF JUMPI DUP1 PUSH1 0x1F LT PUSH2 0x1A94 JUMPI PUSH2 0x100 DUP1 DUP4 SLOAD DIV MUL DUP4 MSTORE SWAP2 PUSH1 0x20 ADD SWAP2 PUSH2 0x1ABF JUMP JUMPDEST DUP3 ADD SWAP2 SWAP1 PUSH1 0x0 MSTORE PUSH1 0x20 PUSH1 0x0 KECCAK256 SWAP1 JUMPDEST DUP2 SLOAD DUP2 MSTORE SWAP1 PUSH1 0x1 ADD SWAP1 PUSH1 0x20 ADD DUP1 DUP4 GT PUSH2 0x1AA2 JUMPI DUP3 SWAP1 SUB PUSH1 0x1F AND DUP3 ADD SWAP2 JUMPDEST POP POP POP POP POP SWAP1 POP DUP6 JUMP JUMPDEST PUSH1 0x0 DUP2 DUP2 MSTORE PUSH1 0x5 PUSH1 0x20 MSTORE PUSH1 0x40 SWAP1 KECCAK256 DUP1 SLOAD PUSH1 0x1 PUSH1 0x1 PUSH1 0xA0 SHL SUB NOT AND PUSH1 0x1 PUSH1 0x1 PUSH1 0xA0 SHL SUB DUP5 AND SWAP1 DUP2 OR SWAP1 SWAP2 SSTORE DUP2 SWAP1 PUSH2 0x1AFE DUP3 PUSH2 0xF99 JUMP JUMPDEST PUSH1 0x1 PUSH1 0x1 PUSH1 0xA0 SHL SUB AND PUSH32 0x8C5BE1E5EBEC7D5BD14F71427D1E84F3DD0314C0F7B2291E5B200AC8C7C3B925 PUSH1 0x40 MLOAD PUSH1 0x40 MLOAD DUP1 SWAP2 SUB SWAP1 LOG4 POP POP JUMP JUMPDEST PUSH2 0x1B51 DUP3 DUP3 PUSH1 0x40 MLOAD DUP1 PUSH1 0x20 ADD PUSH1 0x40 MSTORE DUP1 PUSH1 0x0 DUP2 MSTORE POP PUSH2 0x20FE JUMP JUMPDEST POP POP JUMP JUMPDEST PUSH1 0x0 DUP2 DUP2 MSTORE PUSH1 0x3 PUSH1 0x20 MSTORE PUSH1 0x40 DUP2 KECCAK256 SLOAD PUSH1 0x1 PUSH1 0x1 PUSH1 0xA0 SHL SUB AND PUSH2 0x1BCE JUMPI PUSH1 0x40 MLOAD PUSH3 0x461BCD PUSH1 0xE5 SHL DUP2 MSTORE PUSH1 0x20 PUSH1 0x4 DUP3 ADD MSTORE PUSH1 0x2C PUSH1 0x24 DUP3 ADD MSTORE PUSH32 0x4552433732313A206F70657261746F7220717565727920666F72206E6F6E6578 PUSH1 0x44 DUP3 ADD MSTORE PUSH12 0x34B9BA32B73A103A37B5B2B7 PUSH1 0xA1 SHL PUSH1 0x64 DUP3 ADD MSTORE PUSH1 0x84 ADD PUSH2 0x6CE JUMP JUMPDEST PUSH1 0x0 PUSH2 0x1BD9 DUP4 PUSH2 0xF99 JUMP JUMPDEST SWAP1 POP DUP1 PUSH1 0x1 PUSH1 0x1 PUSH1 0xA0 SHL SUB AND DUP5 PUSH1 0x1 PUSH1 0x1 PUSH1 0xA0 SHL SUB AND EQ DUP1 PUSH2 0x1C14 JUMPI POP DUP4 PUSH1 0x1 PUSH1 0x1 PUSH1 0xA0 SHL SUB AND PUSH2 0x1C09 DUP5 PUSH2 0x659 JUMP JUMPDEST PUSH1 0x1 PUSH1 0x1 PUSH1 0xA0 SHL SUB AND EQ JUMPDEST DUP1 PUSH2 0x172D JUMPI POP PUSH1 0x1 PUSH1 0x1 PUSH1 0xA0 SHL SUB DUP1 DUP3 AND PUSH1 0x0 SWAP1 DUP2 MSTORE PUSH1 0x6 PUSH1 0x20 SWAP1 DUP2 MSTORE PUSH1 0x40 DUP1 DUP4 KECCAK256 SWAP4 DUP9 AND DUP4 MSTORE SWAP3 SWAP1 MSTORE KECCAK256 SLOAD PUSH1 0xFF AND PUSH2 0x172D JUMP JUMPDEST DUP3 PUSH1 0x1 PUSH1 0x1 PUSH1 0xA0 SHL SUB AND PUSH2 0x1C5B DUP3 PUSH2 0xF99 JUMP JUMPDEST PUSH1 0x1 PUSH1 0x1 PUSH1 0xA0 SHL SUB AND EQ PUSH2 0x1CC3 JUMPI PUSH1 0x40 MLOAD PUSH3 0x461BCD PUSH1 0xE5 SHL DUP2 MSTORE PUSH1 0x20 PUSH1 0x4 DUP3 ADD MSTORE PUSH1 0x29 PUSH1 0x24 DUP3 ADD MSTORE PUSH32 0x4552433732313A207472616E73666572206F6620746F6B656E20746861742069 PUSH1 0x44 DUP3 ADD MSTORE PUSH9 0x39903737BA1037BBB7 PUSH1 0xB9 SHL PUSH1 0x64 DUP3 ADD MSTORE PUSH1 0x84 ADD PUSH2 0x6CE JUMP JUMPDEST PUSH1 0x1 PUSH1 0x1 PUSH1 0xA0 SHL SUB DUP3 AND PUSH2 0x1D25 JUMPI PUSH1 0x40 MLOAD PUSH3 0x461BCD PUSH1 0xE5 SHL DUP2 MSTORE PUSH1 0x20 PUSH1 0x4 DUP3 ADD MSTORE PUSH1 0x24 DUP1 DUP3 ADD MSTORE PUSH32 0x4552433732313A207472616E7366657220746F20746865207A65726F20616464 PUSH1 0x44 DUP3 ADD MSTORE PUSH4 0x72657373 PUSH1 0xE0 SHL PUSH1 0x64 DUP3 ADD MSTORE PUSH1 0x84 ADD PUSH2 0x6CE JUMP JUMPDEST PUSH2 0x1D30 PUSH1 0x0 DUP3 PUSH2 0x1AC9 JUMP JUMPDEST PUSH1 0x1 PUSH1 0x1 PUSH1 0xA0 SHL SUB DUP4 AND PUSH1 0x0 SWAP1 DUP2 MSTORE PUSH1 0x4 PUSH1 0x20 MSTORE PUSH1 0x40 DUP2 KECCAK256 DUP1 SLOAD PUSH1 0x1 SWAP3 SWAP1 PUSH2 0x1D59 SWAP1 DUP5 SWAP1 PUSH2 0x2DC4 JUMP JUMPDEST SWAP1 SWAP2 SSTORE POP POP PUSH1 0x1 PUSH1 0x1 PUSH1 0xA0 SHL SUB DUP3 AND PUSH1 0x0 SWAP1 DUP2 MSTORE PUSH1 0x4 PUSH1 0x20 MSTORE PUSH1 0x40 DUP2 KECCAK256 DUP1 SLOAD PUSH1 0x1 SWAP3 SWAP1 PUSH2 0x1D87 SWAP1 DUP5 SWAP1 PUSH2 0x2D46 JUMP JUMPDEST SWAP1 SWAP2 SSTORE POP POP PUSH1 0x0 DUP2 DUP2 MSTORE PUSH1 0x3 PUSH1 0x20 MSTORE PUSH1 0x40 DUP1 DUP3 KECCAK256 DUP1 SLOAD PUSH1 0x1 PUSH1 0x1 PUSH1 0xA0 SHL SUB NOT AND PUSH1 0x1 PUSH1 0x1 PUSH1 0xA0 SHL SUB DUP7 DUP2 AND SWAP2 DUP3 OR SWAP1 SWAP3 SSTORE SWAP2 MLOAD DUP5 SWAP4 SWAP2 DUP8 AND SWAP2 PUSH32 0xDDF252AD1BE2C89B69C2B068FC378DAA952BA7F163C4A11628F55A4DF523B3EF SWAP2 LOG4 POP POP POP JUMP JUMPDEST PUSH1 0x60 DUP2 MLOAD PUSH1 0x0 EQ ISZERO PUSH2 0x1E08 JUMPI POP POP PUSH1 0x40 DUP1 MLOAD PUSH1 0x20 DUP2 ADD SWAP1 SWAP2 MSTORE PUSH1 0x0 DUP2 MSTORE SWAP1 JUMP JUMPDEST PUSH1 0x0 PUSH1 0x40 MLOAD DUP1 PUSH1 0x60 ADD PUSH1 0x40 MSTORE DUP1 PUSH1 0x40 DUP2 MSTORE PUSH1 0x20 ADD PUSH2 0x2F16 PUSH1 0x40 SWAP2 CODECOPY SWAP1 POP PUSH1 0x0 PUSH1 0x3 DUP5 MLOAD PUSH1 0x2 PUSH2 0x1E37 SWAP2 SWAP1 PUSH2 0x2D46 JUMP JUMPDEST PUSH2 0x1E41 SWAP2 SWAP1 PUSH2 0x2D83 JUMP JUMPDEST PUSH2 0x1E4C SWAP1 PUSH1 0x4 PUSH2 0x2DA5 JUMP JUMPDEST SWAP1 POP PUSH1 0x0 PUSH2 0x1E5B DUP3 PUSH1 0x20 PUSH2 0x2D46 JUMP JUMPDEST PUSH8 0xFFFFFFFFFFFFFFFF DUP2 GT ISZERO PUSH2 0x1E73 JUMPI PUSH2 0x1E73 PUSH2 0x2E89 JUMP JUMPDEST PUSH1 0x40 MLOAD SWAP1 DUP1 DUP3 MSTORE DUP1 PUSH1 0x1F ADD PUSH1 0x1F NOT AND PUSH1 0x20 ADD DUP3 ADD PUSH1 0x40 MSTORE DUP1 ISZERO PUSH2 0x1E9D JUMPI PUSH1 0x20 DUP3 ADD DUP2 DUP1 CALLDATASIZE DUP4 CALLDATACOPY ADD SWAP1 POP JUMPDEST POP SWAP1 POP DUP2 DUP2 MSTORE PUSH1 0x1 DUP4 ADD DUP6 DUP7 MLOAD DUP2 ADD PUSH1 0x20 DUP5 ADD JUMPDEST DUP2 DUP4 LT ISZERO PUSH2 0x1F0B JUMPI PUSH1 0x3 SWAP3 DUP4 ADD DUP1 MLOAD PUSH1 0x3F PUSH1 0x12 DUP3 SWAP1 SHR DUP2 AND DUP8 ADD MLOAD PUSH1 0xF8 SWAP1 DUP2 SHL DUP6 MSTORE PUSH1 0xC DUP4 SWAP1 SHR DUP3 AND DUP9 ADD MLOAD DUP2 SHL PUSH1 0x1 DUP7 ADD MSTORE PUSH1 0x6 DUP4 SWAP1 SHR DUP3 AND DUP9 ADD MLOAD DUP2 SHL PUSH1 0x2 DUP7 ADD MSTORE SWAP2 AND DUP7 ADD MLOAD SWAP1 SHL SWAP4 DUP3 ADD SWAP4 SWAP1 SWAP4 MSTORE PUSH1 0x4 ADD PUSH2 0x1EB1 JUMP JUMPDEST PUSH1 0x3 DUP10 MLOAD MOD PUSH1 0x1 DUP2 EQ PUSH2 0x1F25 JUMPI PUSH1 0x2 DUP2 EQ PUSH2 0x1F36 JUMPI PUSH2 0x1F42 JUMP JUMPDEST PUSH2 0x3D3D PUSH1 0xF0 SHL PUSH1 0x1 NOT DUP4 ADD MSTORE PUSH2 0x1F42 JUMP JUMPDEST PUSH1 0x3D PUSH1 0xF8 SHL PUSH1 0x0 NOT DUP4 ADD MSTORE JUMPDEST POP SWAP4 SWAP9 SWAP8 POP POP POP POP POP POP POP POP JUMP JUMPDEST PUSH1 0x60 DUP2 PUSH2 0x1F74 JUMPI POP POP PUSH1 0x40 DUP1 MLOAD DUP1 DUP3 ADD SWAP1 SWAP2 MSTORE PUSH1 0x1 DUP2 MSTORE PUSH1 0x3 PUSH1 0xFC SHL PUSH1 0x20 DUP3 ADD MSTORE SWAP1 JUMP JUMPDEST DUP2 PUSH1 0x0 JUMPDEST DUP2 ISZERO PUSH2 0x1F9E JUMPI DUP1 PUSH2 0x1F88 DUP2 PUSH2 0x2E42 JUMP JUMPDEST SWAP2 POP PUSH2 0x1F97 SWAP1 POP PUSH1 0xA DUP4 PUSH2 0x2D83 JUMP JUMPDEST SWAP2 POP PUSH2 0x1F78 JUMP JUMPDEST PUSH1 0x0 DUP2 PUSH8 0xFFFFFFFFFFFFFFFF DUP2 GT ISZERO PUSH2 0x1FB9 JUMPI PUSH2 0x1FB9 PUSH2 0x2E89 JUMP JUMPDEST PUSH1 0x40 MLOAD SWAP1 DUP1 DUP3 MSTORE DUP1 PUSH1 0x1F ADD PUSH1 0x1F NOT AND PUSH1 0x20 ADD DUP3 ADD PUSH1 0x40 MSTORE DUP1 ISZERO PUSH2 0x1FE3 JUMPI PUSH1 0x20 DUP3 ADD DUP2 DUP1 CALLDATASIZE DUP4 CALLDATACOPY ADD SWAP1 POP JUMPDEST POP SWAP1 POP DUP2 JUMPDEST DUP6 ISZERO PUSH2 0x2070 JUMPI PUSH2 0x1FF9 PUSH1 0x1 DUP3 PUSH2 0x2DC4 JUMP JUMPDEST SWAP1 POP PUSH1 0x0 PUSH2 0x2008 PUSH1 0xA DUP9 PUSH2 0x2D83 JUMP JUMPDEST PUSH2 0x2013 SWAP1 PUSH1 0xA PUSH2 0x2DA5 JUMP JUMPDEST PUSH2 0x201D SWAP1 DUP9 PUSH2 0x2DC4 JUMP JUMPDEST PUSH2 0x2028 SWAP1 PUSH1 0x30 PUSH2 0x2D5E JUMP JUMPDEST SWAP1 POP PUSH1 0x0 DUP2 PUSH1 0xF8 SHL SWAP1 POP DUP1 DUP5 DUP5 DUP2 MLOAD DUP2 LT PUSH2 0x2045 JUMPI PUSH2 0x2045 PUSH2 0x2E73 JUMP JUMPDEST PUSH1 0x20 ADD ADD SWAP1 PUSH1 0x1 PUSH1 0x1 PUSH1 0xF8 SHL SUB NOT AND SWAP1 DUP2 PUSH1 0x0 BYTE SWAP1 MSTORE8 POP PUSH2 0x2067 PUSH1 0xA DUP10 PUSH2 0x2D83 JUMP JUMPDEST SWAP8 POP POP POP PUSH2 0x1FE8 JUMP JUMPDEST POP SWAP5 SWAP4 POP POP POP POP JUMP JUMPDEST PUSH1 0x8 DUP1 SLOAD PUSH1 0x1 PUSH1 0x1 PUSH1 0xA0 SHL SUB DUP4 DUP2 AND PUSH1 0x1 PUSH1 0x1 PUSH1 0xA0 SHL SUB NOT DUP4 AND DUP2 OR SWAP1 SWAP4 SSTORE PUSH1 0x40 MLOAD SWAP2 AND SWAP2 SWAP1 DUP3 SWAP1 PUSH32 0x8BE0079C531659141344CD1FD0A4F28419497F9722A3DAAFE3B4186F6B6457E0 SWAP1 PUSH1 0x0 SWAP1 LOG3 POP POP JUMP JUMPDEST PUSH2 0x20D6 DUP5 DUP5 DUP5 PUSH2 0x1C48 JUMP JUMPDEST PUSH2 0x20E2 DUP5 DUP5 DUP5 DUP5 PUSH2 0x2131 JUMP JUMPDEST PUSH2 0x157A JUMPI PUSH1 0x40 MLOAD PUSH3 0x461BCD PUSH1 0xE5 SHL DUP2 MSTORE PUSH1 0x4 ADD PUSH2 0x6CE SWAP1 PUSH2 0x2C6E JUMP JUMPDEST PUSH2 0x2108 DUP4 DUP4 PUSH2 0x223E JUMP JUMPDEST PUSH2 0x2115 PUSH1 0x0 DUP5 DUP5 DUP5 PUSH2 0x2131 JUMP JUMPDEST PUSH2 0x804 JUMPI PUSH1 0x40 MLOAD PUSH3 0x461BCD PUSH1 0xE5 SHL DUP2 MSTORE PUSH1 0x4 ADD PUSH2 0x6CE SWAP1 PUSH2 0x2C6E JUMP JUMPDEST PUSH1 0x0 PUSH1 0x1 PUSH1 0x1 PUSH1 0xA0 SHL SUB DUP5 AND EXTCODESIZE ISZERO PUSH2 0x2233 JUMPI PUSH1 0x40 MLOAD PUSH4 0xA85BD01 PUSH1 0xE1 SHL DUP2 MSTORE PUSH1 0x1 PUSH1 0x1 PUSH1 0xA0 SHL SUB DUP6 AND SWAP1 PUSH4 0x150B7A02 SWAP1 PUSH2 0x2175 SWAP1 CALLER SWAP1 DUP10 SWAP1 DUP9 SWAP1 DUP9 SWAP1 PUSH1 0x4 ADD PUSH2 0x2BE4 JUMP JUMPDEST PUSH1 0x20 PUSH1 0x40 MLOAD DUP1 DUP4 SUB DUP2 PUSH1 0x0 DUP8 DUP1 EXTCODESIZE ISZERO DUP1 ISZERO PUSH2 0x218F JUMPI PUSH1 0x0 DUP1 REVERT JUMPDEST POP GAS CALL SWAP3 POP POP POP DUP1 ISZERO PUSH2 0x21BF JUMPI POP PUSH1 0x40 DUP1 MLOAD PUSH1 0x1F RETURNDATASIZE SWAP1 DUP2 ADD PUSH1 0x1F NOT AND DUP3 ADD SWAP1 SWAP3 MSTORE PUSH2 0x21BC SWAP2 DUP2 ADD SWAP1 PUSH2 0x2659 JUMP JUMPDEST PUSH1 0x1 JUMPDEST PUSH2 0x2219 JUMPI RETURNDATASIZE DUP1 DUP1 ISZERO PUSH2 0x21ED JUMPI PUSH1 0x40 MLOAD SWAP2 POP PUSH1 0x1F NOT PUSH1 0x3F RETURNDATASIZE ADD AND DUP3 ADD PUSH1 0x40 MSTORE RETURNDATASIZE DUP3 MSTORE RETURNDATASIZE PUSH1 0x0 PUSH1 0x20 DUP5 ADD RETURNDATACOPY PUSH2 0x21F2 JUMP JUMPDEST PUSH1 0x60 SWAP2 POP JUMPDEST POP DUP1 MLOAD PUSH2 0x2211 JUMPI PUSH1 0x40 MLOAD PUSH3 0x461BCD PUSH1 0xE5 SHL DUP2 MSTORE PUSH1 0x4 ADD PUSH2 0x6CE SWAP1 PUSH2 0x2C6E JUMP JUMPDEST DUP1 MLOAD DUP2 PUSH1 0x20 ADD REVERT JUMPDEST PUSH1 0x1 PUSH1 0x1 PUSH1 0xE0 SHL SUB NOT AND PUSH4 0xA85BD01 PUSH1 0xE1 SHL EQ SWAP1 POP PUSH2 0x172D JUMP JUMPDEST POP PUSH1 0x1 SWAP5 SWAP4 POP POP POP POP JUMP JUMPDEST PUSH1 0x1 PUSH1 0x1 PUSH1 0xA0 SHL SUB DUP3 AND PUSH2 0x2294 JUMPI PUSH1 0x40 MLOAD PUSH3 0x461BCD PUSH1 0xE5 SHL DUP2 MSTORE PUSH1 0x20 PUSH1 0x4 DUP3 ADD DUP2 SWAP1 MSTORE PUSH1 0x24 DUP3 ADD MSTORE PUSH32 0x4552433732313A206D696E7420746F20746865207A65726F2061646472657373 PUSH1 0x44 DUP3 ADD MSTORE PUSH1 0x64 ADD PUSH2 0x6CE JUMP JUMPDEST PUSH1 0x0 DUP2 DUP2 MSTORE PUSH1 0x3 PUSH1 0x20 MSTORE PUSH1 0x40 SWAP1 KECCAK256 SLOAD PUSH1 0x1 PUSH1 0x1 PUSH1 0xA0 SHL SUB AND ISZERO PUSH2 0x22F9 JUMPI PUSH1 0x40 MLOAD PUSH3 0x461BCD PUSH1 0xE5 SHL DUP2 MSTORE PUSH1 0x20 PUSH1 0x4 DUP3 ADD MSTORE PUSH1 0x1C PUSH1 0x24 DUP3 ADD MSTORE PUSH32 0x4552433732313A20746F6B656E20616C7265616479206D696E74656400000000 PUSH1 0x44 DUP3 ADD MSTORE PUSH1 0x64 ADD PUSH2 0x6CE JUMP JUMPDEST PUSH1 0x1 PUSH1 0x1 PUSH1 0xA0 SHL SUB DUP3 AND PUSH1 0x0 SWAP1 DUP2 MSTORE PUSH1 0x4 PUSH1 0x20 MSTORE PUSH1 0x40 DUP2 KECCAK256 DUP1 SLOAD PUSH1 0x1 SWAP3 SWAP1 PUSH2 0x2322 SWAP1 DUP5 SWAP1 PUSH2 0x2D46 JUMP JUMPDEST SWAP1 SWAP2 SSTORE POP POP PUSH1 0x0 DUP2 DUP2 MSTORE PUSH1 0x3 PUSH1 0x20 MSTORE PUSH1 0x40 DUP1 DUP3 KECCAK256 DUP1 SLOAD PUSH1 0x1 PUSH1 0x1 PUSH1 0xA0 SHL SUB NOT AND PUSH1 0x1 PUSH1 0x1 PUSH1 0xA0 SHL SUB DUP7 AND SWAP1 DUP2 OR SWAP1 SWAP2 SSTORE SWAP1 MLOAD DUP4 SWAP3 SWAP1 PUSH32 0xDDF252AD1BE2C89B69C2B068FC378DAA952BA7F163C4A11628F55A4DF523B3EF SWAP1 DUP3 SWAP1 LOG4 POP POP JUMP JUMPDEST DUP3 DUP1 SLOAD PUSH2 0x238C SWAP1 PUSH2 0x2E07 JUMP JUMPDEST SWAP1 PUSH1 0x0 MSTORE PUSH1 0x20 PUSH1 0x0 KECCAK256 SWAP1 PUSH1 0x1F ADD PUSH1 0x20 SWAP1 DIV DUP2 ADD SWAP3 DUP3 PUSH2 0x23AE JUMPI PUSH1 0x0 DUP6 SSTORE PUSH2 0x23F4 JUMP JUMPDEST DUP3 PUSH1 0x1F LT PUSH2 0x23C7 JUMPI DUP1 MLOAD PUSH1 0xFF NOT AND DUP4 DUP1 ADD OR DUP6 SSTORE PUSH2 0x23F4 JUMP JUMPDEST DUP3 DUP1 ADD PUSH1 0x1 ADD DUP6 SSTORE DUP3 ISZERO PUSH2 0x23F4 JUMPI SWAP2 DUP3 ADD JUMPDEST DUP3 DUP2 GT ISZERO PUSH2 0x23F4 JUMPI DUP3 MLOAD DUP3 SSTORE SWAP2 PUSH1 0x20 ADD SWAP2 SWAP1 PUSH1 0x1 ADD SWAP1 PUSH2 0x23D9 JUMP JUMPDEST POP PUSH2 0x2400 SWAP3 SWAP2 POP PUSH2 0x2404 JUMP JUMPDEST POP SWAP1 JUMP JUMPDEST JUMPDEST DUP1 DUP3 GT ISZERO PUSH2 0x2400 JUMPI PUSH1 0x0 DUP2 SSTORE PUSH1 0x1 ADD PUSH2 0x2405 JUMP JUMPDEST PUSH1 0x0 PUSH8 0xFFFFFFFFFFFFFFFF DUP1 DUP5 GT ISZERO PUSH2 0x2434 JUMPI PUSH2 0x2434 PUSH2 0x2E89 JUMP JUMPDEST PUSH1 0x40 MLOAD PUSH1 0x1F DUP6 ADD PUSH1 0x1F NOT SWAP1 DUP2 AND PUSH1 0x3F ADD AND DUP2 ADD SWAP1 DUP3 DUP3 GT DUP2 DUP4 LT OR ISZERO PUSH2 0x245C JUMPI PUSH2 0x245C PUSH2 0x2E89 JUMP JUMPDEST DUP2 PUSH1 0x40 MSTORE DUP1 SWAP4 POP DUP6 DUP2 MSTORE DUP7 DUP7 DUP7 ADD GT ISZERO PUSH2 0x2475 JUMPI PUSH1 0x0 DUP1 REVERT JUMPDEST DUP6 DUP6 PUSH1 0x20 DUP4 ADD CALLDATACOPY PUSH1 0x0 PUSH1 0x20 DUP8 DUP4 ADD ADD MSTORE POP POP POP SWAP4 SWAP3 POP POP POP JUMP JUMPDEST DUP1 CALLDATALOAD PUSH1 0x1 PUSH1 0x1 PUSH1 0xA0 SHL SUB DUP2 AND DUP2 EQ PUSH2 0x24A6 JUMPI PUSH1 0x0 DUP1 REVERT JUMPDEST SWAP2 SWAP1 POP JUMP JUMPDEST DUP1 CALLDATALOAD DUP1 ISZERO ISZERO DUP2 EQ PUSH2 0x24A6 JUMPI PUSH1 0x0 DUP1 REVERT JUMPDEST PUSH1 0x0 DUP3 PUSH1 0x1F DUP4 ADD SLT PUSH2 0x24CC JUMPI PUSH1 0x0 DUP1 REVERT JUMPDEST PUSH2 0x24DB DUP4 DUP4 CALLDATALOAD PUSH1 0x20 DUP6 ADD PUSH2 0x2419 JUMP JUMPDEST SWAP4 SWAP3 POP POP POP JUMP JUMPDEST PUSH1 0x0 PUSH1 0x20 DUP3 DUP5 SUB SLT ISZERO PUSH2 0x24F4 JUMPI PUSH1 0x0 DUP1 REVERT JUMPDEST PUSH2 0x24DB DUP3 PUSH2 0x248F JUMP JUMPDEST PUSH1 0x0 DUP1 PUSH1 0x40 DUP4 DUP6 SUB SLT ISZERO PUSH2 0x2510 JUMPI PUSH1 0x0 DUP1 REVERT JUMPDEST PUSH2 0x2519 DUP4 PUSH2 0x248F JUMP JUMPDEST SWAP2 POP PUSH2 0x2527 PUSH1 0x20 DUP5 ADD PUSH2 0x248F JUMP JUMPDEST SWAP1 POP SWAP3 POP SWAP3 SWAP1 POP JUMP JUMPDEST PUSH1 0x0 DUP1 PUSH1 0x0 PUSH1 0x60 DUP5 DUP7 SUB SLT ISZERO PUSH2 0x2545 JUMPI PUSH1 0x0 DUP1 REVERT JUMPDEST PUSH2 0x254E DUP5 PUSH2 0x248F JUMP JUMPDEST SWAP3 POP PUSH2 0x255C PUSH1 0x20 DUP6 ADD PUSH2 0x248F JUMP JUMPDEST SWAP2 POP PUSH1 0x40 DUP5 ADD CALLDATALOAD SWAP1 POP SWAP3 POP SWAP3 POP SWAP3 JUMP JUMPDEST PUSH1 0x0 DUP1 PUSH1 0x0 DUP1 PUSH1 0x80 DUP6 DUP8 SUB SLT ISZERO PUSH2 0x2582 JUMPI PUSH1 0x0 DUP1 REVERT JUMPDEST PUSH2 0x258B DUP6 PUSH2 0x248F JUMP JUMPDEST SWAP4 POP PUSH2 0x2599 PUSH1 0x20 DUP7 ADD PUSH2 0x248F JUMP JUMPDEST SWAP3 POP PUSH1 0x40 DUP6 ADD CALLDATALOAD SWAP2 POP PUSH1 0x60 DUP6 ADD CALLDATALOAD PUSH8 0xFFFFFFFFFFFFFFFF DUP2 GT ISZERO PUSH2 0x25BC JUMPI PUSH1 0x0 DUP1 REVERT JUMPDEST DUP6 ADD PUSH1 0x1F DUP2 ADD DUP8 SGT PUSH2 0x25CD JUMPI PUSH1 0x0 DUP1 REVERT JUMPDEST PUSH2 0x25DC DUP8 DUP3 CALLDATALOAD PUSH1 0x20 DUP5 ADD PUSH2 0x2419 JUMP JUMPDEST SWAP2 POP POP SWAP3 SWAP6 SWAP2 SWAP5 POP SWAP3 POP JUMP JUMPDEST PUSH1 0x0 DUP1 PUSH1 0x40 DUP4 DUP6 SUB SLT ISZERO PUSH2 0x25FB JUMPI PUSH1 0x0 DUP1 REVERT JUMPDEST PUSH2 0x2604 DUP4 PUSH2 0x248F JUMP JUMPDEST SWAP2 POP PUSH2 0x2527 PUSH1 0x20 DUP5 ADD PUSH2 0x24AB JUMP JUMPDEST PUSH1 0x0 DUP1 PUSH1 0x40 DUP4 DUP6 SUB SLT ISZERO PUSH2 0x2625 JUMPI PUSH1 0x0 DUP1 REVERT JUMPDEST PUSH2 0x262E DUP4 PUSH2 0x248F JUMP JUMPDEST SWAP5 PUSH1 0x20 SWAP4 SWAP1 SWAP4 ADD CALLDATALOAD SWAP4 POP POP POP JUMP JUMPDEST PUSH1 0x0 PUSH1 0x20 DUP3 DUP5 SUB SLT ISZERO PUSH2 0x264E JUMPI PUSH1 0x0 DUP1 REVERT JUMPDEST DUP2 CALLDATALOAD PUSH2 0x24DB DUP2 PUSH2 0x2E9F JUMP JUMPDEST PUSH1 0x0 PUSH1 0x20 DUP3 DUP5 SUB SLT ISZERO PUSH2 0x266B JUMPI PUSH1 0x0 DUP1 REVERT JUMPDEST DUP2 MLOAD PUSH2 0x24DB DUP2 PUSH2 0x2E9F JUMP JUMPDEST PUSH1 0x0 PUSH1 0x20 DUP3 DUP5 SUB SLT ISZERO PUSH2 0x2688 JUMPI PUSH1 0x0 DUP1 REVERT JUMPDEST DUP2 CALLDATALOAD PUSH8 0xFFFFFFFFFFFFFFFF DUP2 GT ISZERO PUSH2 0x269F JUMPI PUSH1 0x0 DUP1 REVERT JUMPDEST PUSH2 0x172D DUP5 DUP3 DUP6 ADD PUSH2 0x24BB JUMP JUMPDEST PUSH1 0x0 DUP1 PUSH1 0x40 DUP4 DUP6 SUB SLT ISZERO PUSH2 0x26BE JUMPI PUSH1 0x0 DUP1 REVERT JUMPDEST DUP3 CALLDATALOAD PUSH8 0xFFFFFFFFFFFFFFFF DUP1 DUP3 GT ISZERO PUSH2 0x26D6 JUMPI PUSH1 0x0 DUP1 REVERT JUMPDEST PUSH2 0x26E2 DUP7 DUP4 DUP8 ADD PUSH2 0x24BB JUMP JUMPDEST SWAP4 POP PUSH1 0x20 DUP6 ADD CALLDATALOAD SWAP2 POP DUP1 DUP3 GT ISZERO PUSH2 0x26F8 JUMPI PUSH1 0x0 DUP1 REVERT JUMPDEST POP PUSH2 0x2705 DUP6 DUP3 DUP7 ADD PUSH2 0x24BB JUMP JUMPDEST SWAP2 POP POP SWAP3 POP SWAP3 SWAP1 POP JUMP JUMPDEST PUSH1 0x0 DUP1 PUSH1 0x40 DUP4 DUP6 SUB SLT ISZERO PUSH2 0x2722 JUMPI PUSH1 0x0 DUP1 REVERT JUMPDEST DUP3 CALLDATALOAD PUSH8 0xFFFFFFFFFFFFFFFF DUP2 GT ISZERO PUSH2 0x2739 JUMPI PUSH1 0x0 DUP1 REVERT JUMPDEST PUSH2 0x2745 DUP6 DUP3 DUP7 ADD PUSH2 0x24BB JUMP JUMPDEST SWAP6 PUSH1 0x20 SWAP5 SWAP1 SWAP5 ADD CALLDATALOAD SWAP5 POP POP POP POP JUMP JUMPDEST PUSH1 0x0 PUSH1 0x20 DUP3 DUP5 SUB SLT ISZERO PUSH2 0x2766 JUMPI PUSH1 0x0 DUP1 REVERT JUMPDEST POP CALLDATALOAD SWAP2 SWAP1 POP JUMP JUMPDEST PUSH1 0x0 DUP1 PUSH1 0x40 DUP4 DUP6 SUB SLT ISZERO PUSH2 0x2780 JUMPI PUSH1 0x0 DUP1 REVERT JUMPDEST DUP3 CALLDATALOAD SWAP2 POP PUSH2 0x2527 PUSH1 0x20 DUP5 ADD PUSH2 0x24AB JUMP JUMPDEST PUSH1 0x0 DUP1 PUSH1 0x40 DUP4 DUP6 SUB SLT ISZERO PUSH2 0x27A3 JUMPI PUSH1 0x0 DUP1 REVERT JUMPDEST DUP3 CALLDATALOAD SWAP2 POP PUSH1 0x20 DUP4 ADD CALLDATALOAD PUSH8 0xFFFFFFFFFFFFFFFF DUP2 GT ISZERO PUSH2 0x27C1 JUMPI PUSH1 0x0 DUP1 REVERT JUMPDEST PUSH2 0x2705 DUP6 DUP3 DUP7 ADD PUSH2 0x24BB JUMP JUMPDEST PUSH1 0x0 DUP2 MLOAD DUP1 DUP5 MSTORE PUSH2 0x27E5 DUP2 PUSH1 0x20 DUP7 ADD PUSH1 0x20 DUP7 ADD PUSH2 0x2DDB JUMP JUMPDEST PUSH1 0x1F ADD PUSH1 0x1F NOT AND SWAP3 SWAP1 SWAP3 ADD PUSH1 0x20 ADD SWAP3 SWAP2 POP POP JUMP JUMPDEST PUSH1 0x0 DUP2 MLOAD PUSH2 0x280B DUP2 DUP6 PUSH1 0x20 DUP7 ADD PUSH2 0x2DDB JUMP JUMPDEST SWAP3 SWAP1 SWAP3 ADD SWAP3 SWAP2 POP POP JUMP JUMPDEST PUSH1 0x0 DUP3 MLOAD PUSH2 0x2827 DUP2 DUP5 PUSH1 0x20 DUP8 ADD PUSH2 0x2DDB JUMP JUMPDEST SWAP2 SWAP1 SWAP2 ADD SWAP3 SWAP2 POP POP JUMP JUMPDEST PUSH1 0x0 DUP4 MLOAD PUSH2 0x2843 DUP2 DUP5 PUSH1 0x20 DUP9 ADD PUSH2 0x2DDB JUMP JUMPDEST DUP4 MLOAD SWAP1 DUP4 ADD SWAP1 PUSH2 0x2857 DUP2 DUP4 PUSH1 0x20 DUP9 ADD PUSH2 0x2DDB JUMP JUMPDEST ADD SWAP5 SWAP4 POP POP POP POP JUMP JUMPDEST PUSH1 0x0 DUP4 MLOAD PUSH2 0x2872 DUP2 DUP5 PUSH1 0x20 DUP9 ADD PUSH2 0x2DDB JUMP JUMPDEST DUP4 MLOAD SWAP1 DUP4 ADD SWAP1 PUSH2 0x2886 DUP2 DUP4 PUSH1 0x20 DUP9 ADD PUSH2 0x2DDB JUMP JUMPDEST PUSH6 0x1E17B9BB339F PUSH1 0xD1 SHL SWAP2 ADD SWAP1 DUP2 MSTORE PUSH1 0x6 ADD SWAP5 SWAP4 POP POP POP POP JUMP JUMPDEST PUSH9 0x3D913730B6B2911D11 PUSH1 0xB9 SHL DUP2 MSTORE DUP6 MLOAD PUSH1 0x0 SWAP1 PUSH2 0x28C5 DUP2 PUSH1 0x9 DUP6 ADD PUSH1 0x20 DUP12 ADD PUSH2 0x2DDB JUMP JUMPDEST PUSH2 0x161 PUSH1 0xF5 SHL PUSH1 0x9 SWAP2 DUP5 ADD SWAP2 DUP3 ADD MSTORE DUP7 MLOAD PUSH2 0x28E7 DUP2 PUSH1 0xB DUP5 ADD PUSH1 0x20 DUP12 ADD PUSH2 0x2DDB JUMP JUMPDEST PUSH32 0x222C20226465736372697074696F6E223A224120506978656C20666F7220616E PUSH1 0xB SWAP3 SWAP1 SWAP2 ADD SWAP2 DUP3 ADD MSTORE PUSH32 0x204E46546174222C202261747472696275746573223A205B7B2274726169745F PUSH1 0x2B DUP3 ADD MSTORE PUSH32 0x74797065223A2022786C6F636174696F6E222C202276616C7565223A20000000 PUSH1 0x4B DUP3 ADD MSTORE DUP6 MLOAD PUSH2 0x2971 DUP2 PUSH1 0x68 DUP5 ADD PUSH1 0x20 DUP11 ADD PUSH2 0x2DDB JUMP JUMPDEST PUSH32 0x7D2C207B2274726169745F74797065223A2022796C6F636174696F6E222C2022 PUSH1 0x68 SWAP3 SWAP1 SWAP2 ADD SWAP2 DUP3 ADD MSTORE PUSH8 0x3B30B63AB2911D1 PUSH1 0xC5 SHL PUSH1 0x88 DUP3 ADD MSTORE PUSH2 0x29F0 PUSH2 0x29E2 PUSH2 0x29DC PUSH2 0x29C3 PUSH1 0x90 DUP6 ADD DUP10 PUSH2 0x27F9 JUMP JUMPDEST PUSH13 0x3EAE96101134B6B0B3B2911D11 PUSH1 0x99 SHL DUP2 MSTORE PUSH1 0xD ADD SWAP1 JUMP JUMPDEST DUP7 PUSH2 0x27F9 JUMP JUMPDEST PUSH2 0x227D PUSH1 0xF0 SHL DUP2 MSTORE PUSH1 0x2 ADD SWAP1 JUMP JUMPDEST SWAP9 SWAP8 POP POP POP POP POP POP POP POP JUMP JUMPDEST PUSH8 0x272066696C6C3D27 PUSH1 0xC0 SHL DUP2 MSTORE PUSH1 0x0 DUP3 MLOAD PUSH2 0x2A1F DUP2 PUSH1 0x8 DUP6 ADD PUSH1 0x20 DUP8 ADD PUSH2 0x2DDB JUMP JUMPDEST PUSH2 0x139 PUSH1 0xF5 SHL PUSH1 0x8 SWAP4 SWAP1 SWAP2 ADD SWAP3 DUP4 ADD MSTORE POP PUSH1 0xA ADD SWAP2 SWAP1 POP JUMP JUMPDEST PUSH8 0x1E31B4B931B6329 PUSH1 0xC5 SHL DUP2 MSTORE PUSH1 0x0 DUP4 MLOAD PUSH2 0x2A5B DUP2 PUSH1 0x8 DUP6 ADD PUSH1 0x20 DUP9 ADD PUSH2 0x2DDB JUMP JUMPDEST PUSH32 0x2063783D27343530272063793D273435302720723D27343530272066696C6C3D PUSH1 0x8 SWAP2 DUP5 ADD SWAP2 DUP3 ADD MSTORE PUSH1 0x27 PUSH1 0xF8 SHL PUSH1 0x28 DUP3 ADD MSTORE DUP4 MLOAD PUSH2 0x2AA2 DUP2 PUSH1 0x29 DUP5 ADD PUSH1 0x20 DUP9 ADD PUSH2 0x2DDB JUMP JUMPDEST PUSH4 0x1390179F PUSH1 0xE1 SHL PUSH1 0x29 SWAP3 SWAP1 SWAP2 ADD SWAP2 DUP3 ADD MSTORE PUSH1 0x2D ADD SWAP5 SWAP4 POP POP POP POP JUMP JUMPDEST PUSH8 0x1E31B4B931B6329 PUSH1 0xC5 SHL DUP2 MSTORE PUSH1 0x0 DUP7 MLOAD PUSH1 0x20 PUSH2 0x2AE3 DUP3 PUSH1 0x8 DUP7 ADD DUP4 DUP13 ADD PUSH2 0x2DDB JUMP JUMPDEST PUSH5 0x2063783D27 PUSH1 0xD8 SHL PUSH1 0x8 SWAP3 DUP6 ADD SWAP3 DUP4 ADD MSTORE DUP8 MLOAD PUSH2 0x2B07 DUP2 PUSH1 0xD DUP6 ADD DUP5 DUP13 ADD PUSH2 0x2DDB JUMP JUMPDEST PUSH6 0x272063793D27 PUSH1 0xD0 SHL PUSH1 0xD SWAP4 SWAP1 SWAP2 ADD SWAP3 DUP4 ADD MSTORE DUP7 MLOAD PUSH2 0x2B2D DUP2 PUSH1 0x13 DUP6 ADD DUP5 DUP12 ADD PUSH2 0x2DDB JUMP JUMPDEST PUSH5 0x2720723D27 PUSH1 0xD8 SHL PUSH1 0x13 SWAP4 SWAP1 SWAP2 ADD SWAP3 DUP4 ADD MSTORE DUP6 MLOAD PUSH2 0x2B52 DUP2 PUSH1 0x18 DUP6 ADD DUP5 DUP11 ADD PUSH2 0x2DDB JUMP JUMPDEST PUSH8 0x272066696C6C3D27 PUSH1 0xC0 SHL PUSH1 0x18 SWAP4 SWAP1 SWAP2 ADD SWAP3 DUP4 ADD MSTORE DUP5 MLOAD PUSH2 0x2B79 DUP2 DUP4 DUP6 ADD DUP5 DUP10 ADD PUSH2 0x2DDB JUMP JUMPDEST PUSH2 0x2B91 DUP3 DUP3 DUP6 ADD ADD PUSH4 0x1390179F PUSH1 0xE1 SHL DUP2 MSTORE PUSH1 0x4 ADD SWAP1 JUMP JUMPDEST SWAP11 SWAP10 POP POP POP POP POP POP POP POP POP POP JUMP JUMPDEST PUSH32 0x646174613A6170706C69636174696F6E2F6A736F6E3B6261736536342C000000 DUP2 MSTORE PUSH1 0x0 DUP3 MLOAD PUSH2 0x2BD7 DUP2 PUSH1 0x1D DUP6 ADD PUSH1 0x20 DUP8 ADD PUSH2 0x2DDB JUMP JUMPDEST SWAP2 SWAP1 SWAP2 ADD PUSH1 0x1D ADD SWAP3 SWAP2 POP POP JUMP JUMPDEST PUSH1 0x1 PUSH1 0x1 PUSH1 0xA0 SHL SUB DUP6 DUP2 AND DUP3 MSTORE DUP5 AND PUSH1 0x20 DUP3 ADD MSTORE PUSH1 0x40 DUP2 ADD DUP4 SWAP1 MSTORE PUSH1 0x80 PUSH1 0x60 DUP3 ADD DUP2 SWAP1 MSTORE PUSH1 0x0 SWAP1 PUSH2 0x2C17 SWAP1 DUP4 ADD DUP5 PUSH2 0x27CD JUMP JUMPDEST SWAP7 SWAP6 POP POP POP POP POP POP JUMP JUMPDEST DUP6 ISZERO ISZERO DUP2 MSTORE DUP5 ISZERO ISZERO PUSH1 0x20 DUP3 ADD MSTORE DUP4 PUSH1 0x40 DUP3 ADD MSTORE DUP3 PUSH1 0x60 DUP3 ADD MSTORE PUSH1 0xA0 PUSH1 0x80 DUP3 ADD MSTORE PUSH1 0x0 PUSH2 0x2C50 PUSH1 0xA0 DUP4 ADD DUP5 PUSH2 0x27CD JUMP JUMPDEST SWAP8 SWAP7 POP POP POP POP POP POP POP JUMP JUMPDEST PUSH1 0x20 DUP2 MSTORE PUSH1 0x0 PUSH2 0x24DB PUSH1 0x20 DUP4 ADD DUP5 PUSH2 0x27CD JUMP JUMPDEST PUSH1 0x20 DUP1 DUP3 MSTORE PUSH1 0x32 SWAP1 DUP3 ADD MSTORE PUSH32 0x4552433732313A207472616E7366657220746F206E6F6E204552433732315265 PUSH1 0x40 DUP3 ADD MSTORE PUSH18 0x31B2B4BB32B91034B6B83632B6B2B73A32B9 PUSH1 0x71 SHL PUSH1 0x60 DUP3 ADD MSTORE PUSH1 0x80 ADD SWAP1 JUMP JUMPDEST PUSH1 0x20 DUP1 DUP3 MSTORE DUP2 DUP2 ADD MSTORE PUSH32 0x4F776E61626C653A2063616C6C6572206973206E6F7420746865206F776E6572 PUSH1 0x40 DUP3 ADD MSTORE PUSH1 0x60 ADD SWAP1 JUMP JUMPDEST PUSH1 0x20 DUP1 DUP3 MSTORE PUSH1 0x31 SWAP1 DUP3 ADD MSTORE PUSH32 0x4552433732313A207472616E736665722063616C6C6572206973206E6F74206F PUSH1 0x40 DUP3 ADD MSTORE PUSH17 0x1DDB995C881B9BDC88185C1C1C9BDD9959 PUSH1 0x7A SHL PUSH1 0x60 DUP3 ADD MSTORE PUSH1 0x80 ADD SWAP1 JUMP JUMPDEST PUSH1 0x0 DUP3 NOT DUP3 GT ISZERO PUSH2 0x2D59 JUMPI PUSH2 0x2D59 PUSH2 0x2E5D JUMP JUMPDEST POP ADD SWAP1 JUMP JUMPDEST PUSH1 0x0 PUSH1 0xFF DUP3 AND PUSH1 0xFF DUP5 AND DUP1 PUSH1 0xFF SUB DUP3 GT ISZERO PUSH2 0x2D7B JUMPI PUSH2 0x2D7B PUSH2 0x2E5D JUMP JUMPDEST ADD SWAP4 SWAP3 POP POP POP JUMP JUMPDEST PUSH1 0x0 DUP3 PUSH2 0x2DA0 JUMPI PUSH4 0x4E487B71 PUSH1 0xE0 SHL PUSH1 0x0 MSTORE PUSH1 0x12 PUSH1 0x4 MSTORE PUSH1 0x24 PUSH1 0x0 REVERT JUMPDEST POP DIV SWAP1 JUMP JUMPDEST PUSH1 0x0 DUP2 PUSH1 0x0 NOT DIV DUP4 GT DUP3 ISZERO ISZERO AND ISZERO PUSH2 0x2DBF JUMPI PUSH2 0x2DBF PUSH2 0x2E5D JUMP JUMPDEST POP MUL SWAP1 JUMP JUMPDEST PUSH1 0x0 DUP3 DUP3 LT ISZERO PUSH2 0x2DD6 JUMPI PUSH2 0x2DD6 PUSH2 0x2E5D JUMP JUMPDEST POP SUB SWAP1 JUMP JUMPDEST PUSH1 0x0 JUMPDEST DUP4 DUP2 LT ISZERO PUSH2 0x2DF6 JUMPI DUP2 DUP2 ADD MLOAD DUP4 DUP3 ADD MSTORE PUSH1 0x20 ADD PUSH2 0x2DDE JUMP JUMPDEST DUP4 DUP2 GT ISZERO PUSH2 0x157A JUMPI POP POP PUSH1 0x0 SWAP2 ADD MSTORE JUMP JUMPDEST PUSH1 0x1 DUP2 DUP2 SHR SWAP1 DUP3 AND DUP1 PUSH2 0x2E1B JUMPI PUSH1 0x7F DUP3 AND SWAP2 POP JUMPDEST PUSH1 0x20 DUP3 LT DUP2 EQ ISZERO PUSH2 0x2E3C JUMPI PUSH4 0x4E487B71 PUSH1 0xE0 SHL PUSH1 0x0 MSTORE PUSH1 0x22 PUSH1 0x4 MSTORE PUSH1 0x24 PUSH1 0x0 REVERT JUMPDEST POP SWAP2 SWAP1 POP JUMP JUMPDEST PUSH1 0x0 PUSH1 0x0 NOT DUP3 EQ ISZERO PUSH2 0x2E56 JUMPI PUSH2 0x2E56 PUSH2 0x2E5D JUMP JUMPDEST POP PUSH1 0x1 ADD SWAP1 JUMP JUMPDEST PUSH4 0x4E487B71 PUSH1 0xE0 SHL PUSH1 0x0 MSTORE PUSH1 0x11 PUSH1 0x4 MSTORE PUSH1 0x24 PUSH1 0x0 REVERT JUMPDEST PUSH4 0x4E487B71 PUSH1 0xE0 SHL PUSH1 0x0 MSTORE PUSH1 0x32 PUSH1 0x4 MSTORE PUSH1 0x24 PUSH1 0x0 REVERT JUMPDEST PUSH4 0x4E487B71 PUSH1 0xE0 SHL PUSH1 0x0 MSTORE PUSH1 0x41 PUSH1 0x4 MSTORE PUSH1 0x24 PUSH1 0x0 REVERT JUMPDEST PUSH1 0x1 PUSH1 0x1 PUSH1 0xE0 SHL SUB NOT DUP2 AND DUP2 EQ PUSH2 0x1A0A JUMPI PUSH1 0x0 DUP1 REVERT INVALID EXTCODECOPY PUSH20 0x766720786D6C6E733D27687474703A2F2F777777 0x2E PUSH24 0x332E6F72672F323030302F73766727206865696768743D27 CODECOPY ADDRESS ADDRESS 0x27 KECCAK256 PUSH24 0x696474683D2739303027207374796C653D276261636B6772 PUSH16 0x756E642D636F6C6F723A626C61636B27 RETURNDATACOPY COINBASE TIMESTAMP NUMBER DIFFICULTY GASLIMIT CHAINID SELFBALANCE BASEFEE 0x49 0x4A 0x4B 0x4C 0x4D 0x4E 0x4F POP MLOAD MSTORE MSTORE8 SLOAD SSTORE JUMP JUMPI PC MSIZE GAS PUSH2 0x6263 PUSH5 0x6566676869 PUSH11 0x6B6C6D6E6F707172737475 PUSH23 0x7778797A303132333435363738392B2FA2646970667358 0x22 SLT KECCAK256 0xD4 CHAINID DUP12 0xBF 0xB5 0xCE EXP PUSH8 0x81DCF5160EBAFD76 CODESIZE MUL SIGNEXTEND 0xC5 GASLIMIT BLOCKHASH PUSH19 0x3D87AA0E14672F5FF864736F6C634300080700 CALLER ","sha1":"791b35f2320870b9ff39c8e03fa4fc8915384366","source":"// SPDX-License-Identifier: MIT\npragma solidity ^0.8.0;\n\nimport \"@openzeppelin/contracts/security/ReentrancyGuard.sol\";\nimport \"@openzeppelin/contracts/token/ERC721/extensions/ERC721URIStorage.sol\";\nimport \"@openzeppelin/contracts/access/Ownable.sol\";\nimport \"./library/base64.sol\";\n\n\ncontract NFTatPixel is ReentrancyGuard, ERC721URIStorage, Ownable {\n    uint256 public s_tokenCounter;\n    mapping(uint256 => Pixel) public s_tokenIdToPixel;\n    uint256 public s_pixelInterval;\n    uint256 public s_timeInterval;\n    string public s_grayScaleFilter;\n    mapping(uint256 => uint256) public s_tokenIdToStartTime;\n\n    constructor(uint256 _timeInterval) ERC721(\"NFTatPixel\", \"NFTP\") {\n        s_tokenCounter = 0;\n        s_pixelInterval = 60;\n        s_timeInterval = _timeInterval;\n        s_grayScaleFilter = \"filter='url(#grayscale)' \";\n    }\n\n    struct Pixel {\n        bool isBackground;\n        bool isBaseCircle;\n        uint256 xlocation;\n        uint256 ylocation;\n        string color;\n    }\n\n    function getIsBackground(uint256 _tokenId) public view returns (bool) {\n        return s_tokenIdToPixel[_tokenId].isBackground;\n    }\n\n    function getIsBaseCircle(uint256 _tokenId) public view returns (bool) {\n        return s_tokenIdToPixel[_tokenId].isBaseCircle;\n    }\n\n    function getXlocation(uint256 _tokenId) public view returns (uint256) {\n        return s_tokenIdToPixel[_tokenId].xlocation;\n    }\n\n    function getYlocation(uint256 _tokenId) public view returns (uint256) {\n        return s_tokenIdToPixel[_tokenId].ylocation;\n    }\n\n    function getColor(uint256 _tokenId) public view returns (string memory) {\n        return s_tokenIdToPixel[_tokenId].color;\n    }\n\n    function changeColor(uint256 tokenId, string memory color) public {\n        require(\n            _isApprovedOrOwner(_msgSender(), tokenId),\n            \"ERC721: transfer caller is not owner nor approved\"\n        );\n        require(s_tokenIdToStartTime[tokenId] + s_timeInterval >= block.timestamp, \"Time's up on changing colors!\");\n        // grayscale is a keyword\n        // transparent is a keyword\n        s_tokenIdToPixel[tokenId].color = color;\n    }\n\n    // right now it's just the nftat.sol that can call this\n    function mintSet(address nftOwner) public onlyOwner {\n        // we mint the 2 special tokens, background, and base circle\n        uint256 tokenCounter = s_tokenCounter;\n        // background\n        Pixel memory backGroundPixel = Pixel(true, false, 0, 0, \"grayscale\");\n        _safeMint(nftOwner, tokenCounter);\n        s_tokenIdToPixel[tokenCounter] = backGroundPixel;\n        s_tokenIdToStartTime[tokenCounter] = block.timestamp;\n        tokenCounter = tokenCounter + 1;\n        \n        // circle\n        Pixel memory circlePixel = Pixel(false, true, 0, 0, \"white\");\n        _safeMint(nftOwner, tokenCounter);\n        s_tokenIdToPixel[tokenCounter] = circlePixel;\n        s_tokenIdToStartTime[tokenCounter] = block.timestamp;\n        tokenCounter = tokenCounter + 1;\n        s_tokenCounter = tokenCounter;\n    }\n\n    function mintBatchOne(address nftOwner) public onlyOwner {\n        uint256 tokenCounter = s_tokenCounter;\n        // // 225 makes it 15 x 15\n        uint256 pixelInterval = s_pixelInterval;\n        for(uint256 x = 0; x < 8; x++) {\n            for(uint256 y = 0; y < 15; y++) {\n                Pixel memory pixel = Pixel(false, false, (x * pixelInterval) + (pixelInterval/2), (y * pixelInterval) + (pixelInterval/2), \"transparent\");\n                _safeMint(nftOwner, tokenCounter);\n                s_tokenIdToPixel[tokenCounter] = pixel;\n                s_tokenIdToStartTime[tokenCounter] = block.timestamp;\n                tokenCounter = tokenCounter + 1;\n            }\n        }\n        s_tokenCounter = tokenCounter;\n    }\n\n    function mintBatchTwo(address nftOwner) public onlyOwner {\n        uint256 tokenCounter = s_tokenCounter;\n        // // 225 makes it 15 x 15\n        uint256 pixelInterval = s_pixelInterval;\n        for(uint256 x = 8; x < 15; x++) {\n            for(uint256 y = 0; y < 15; y++) {\n                Pixel memory pixel = Pixel(false, false, (x * pixelInterval) + (pixelInterval/2), (y * pixelInterval) + (pixelInterval/2), \"transparent\");\n                _safeMint(nftOwner, tokenCounter);\n                s_tokenIdToPixel[tokenCounter] = pixel;\n                s_tokenIdToStartTime[tokenCounter] = block.timestamp;\n                tokenCounter = tokenCounter + 1;\n            }\n        }\n        s_tokenCounter = tokenCounter;\n    }\n\n    function tokenURI(uint256 tokenId) public view override returns (string memory) {\n        require(_exists(tokenId), \"ERC721Metadata: URI query for nonexistent token\");\n        // we default all to not grayscale\n        string memory svg = getSVG(tokenId, false);\n        string memory imageURI = svgToImageURI(svg);\n        return formatTokenURI(imageURI, tokenId);\n    }\n\n    function getBaseSVG(uint256 tokenId, bool isGrayScale) public view returns (string memory) {\n        Pixel memory pixel = s_tokenIdToPixel[tokenId];\n        string memory filter = \"\";\n        string memory fill = string(abi.encodePacked(\"' fill='\", pixel.color, \"' \"));\n        if (isGrayScale) {\n            filter = s_grayScaleFilter;\n        }\n        if (compareStrings(pixel.color, \"transparent\")) {\n            fill = \"style='fill-opacity: 0' \";\n        }\n        return string(abi.encodePacked(\"<circle \", filter, \" cx='\", uint2str(pixel.xlocation), \"' cy='\",uint2str(pixel.ylocation) ,\"' r='\",uint2str(s_pixelInterval / 2) ,\"' fill='\",pixel.color ,\"' />\"));\n    }\n\n    function getBigCircleSVG(uint256 tokenId, bool isGrayScale) public view returns (string memory) {\n        Pixel memory pixel = s_tokenIdToPixel[tokenId];\n        string memory filter = \"\";\n        if (isGrayScale) {\n            filter = s_grayScaleFilter;\n        }\n        return string(abi.encodePacked(\"<circle \", filter ,\" cx='450' cy='450' r='450' fill='\", pixel.color ,\"' />\"));\n    }\n\n    function getSVG(uint256 tokenId, bool isGrayScale) public view returns (string memory) {\n        string memory base = \"<svg xmlns='http://www.w3.org/2000/svg' height='900' width='900' style='background-color:black'>\";\n        Pixel memory pixel = s_tokenIdToPixel[tokenId];\n        string memory baseSvg = \"\";\n        if (pixel.isBaseCircle) {\n            baseSvg = getBigCircleSVG(tokenId, isGrayScale);\n        } else {\n            baseSvg = getBaseSVG(tokenId, false);\n        }\n        return string(abi.encodePacked(base, baseSvg, \"</svg>\"));\n    }\n\n    function formatTokenURI(string memory imageURI, uint256 tokenId) public view returns (string memory) {\n        return string(\n                abi.encodePacked(\n                    \"data:application/json;base64,\",\n                    Base64.encode(\n                        bytes(\n                            abi.encodePacked(\n                                '{\"name\":\"',\n                                uint2str(s_tokenIdToPixel[tokenId].xlocation), ', ', uint2str(s_tokenIdToPixel[tokenId].ylocation),  // You can add whatever name here\n                                '\", \"description\":\"A Pixel for an NFTat\", \"attributes\": [{\"trait_type\": \"xlocation\", \"value\": ', uint2str(s_tokenIdToPixel[tokenId].xlocation),'}, {\"trait_type\": \"ylocation\", \"value\": ',uint2str(s_tokenIdToPixel[tokenId].ylocation),'}], \"image\":\"',imageURI,'\"}'\n                            )\n                        )\n                    )\n                )\n            );\n    }\n\n    function svgToImageURI(string memory svg) public pure returns (string memory) {\n        // example:\n        // <svg width='500' height='500' viewBox='0 0 285 350' fill='none' xmlns='http://www.w3.org/2000/svg'><path fill='black' d='M150,0,L75,200,L225,200,Z'></path></svg>\n        // data:image/svg+xml;base64,PHN2ZyB3aWR0aD0nNTAwJyBoZWlnaHQ9JzUwMCcgdmlld0JveD0nMCAwIDI4NSAzNTAnIGZpbGw9J25vbmUnIHhtbG5zPSdodHRwOi8vd3d3LnczLm9yZy8yMDAwL3N2Zyc+PHBhdGggZmlsbD0nYmxhY2snIGQ9J00xNTAsMCxMNzUsMjAwLEwyMjUsMjAwLFonPjwvcGF0aD48L3N2Zz4=\n        string memory baseURL = \"data:image/svg+xml;base64,\";\n        string memory svgBase64Encoded = Base64.encode(bytes(string(abi.encodePacked(svg))));\n        return string(abi.encodePacked(baseURL,svgBase64Encoded));\n    }\n\n    // From: https://stackoverflow.com/a/65707309/11969592\n    function uint2str(uint _i) internal pure returns (string memory _uintAsString) {\n        if (_i == 0) {\n            return \"0\";\n        }\n        uint j = _i;\n        uint len;\n        while (j != 0) {\n            len++;\n            j /= 10;\n        }\n        bytes memory bstr = new bytes(len);\n        uint k = len;\n        while (_i != 0) {\n            k = k-1;\n            uint8 temp = (48 + uint8(_i - _i / 10 * 10));\n            bytes1 b1 = bytes1(temp);\n            bstr[k] = b1;\n            _i /= 10;\n        }\n        return string(bstr);\n    }\n\n    function compareStrings(string memory a, string memory b) public pure returns (bool) {\n        return (keccak256(abi.encodePacked((a))) == keccak256(abi.encodePacked((b))));\n    }\n\n}\n","sourcePath":"contracts/NFTatPixel.sol","deployment":{"address":"0x5f9a966F9b250B17FA16e96B18c4c8905B487EFB","chainid":"42","blockHeight":27421035}}