{"abi":[{"inputs":[{"internalType":"uint256","name":"_minStaked","type":"uint256"},{"internalType":"bytes32","name":"_subjectiveOracleJobId","type":"bytes32"},{"internalType":"address","name":"_subjectiveOracleAddress","type":"address"},{"internalType":"address","name":"_link","type":"address"},{"internalType":"uint256","name":"_subjectiveOracleFee","type":"uint256"}],"stateMutability":"nonpayable","type":"constructor","name":"constructor"},{"anonymous":false,"inputs":[{"indexed":true,"internalType":"address","name":"owner","type":"address"},{"indexed":true,"internalType":"address","name":"approved","type":"address"},{"indexed":true,"internalType":"uint256","name":"tokenId","type":"uint256"}],"name":"Approval","type":"event"},{"anonymous":false,"inputs":[{"indexed":true,"internalType":"address","name":"owner","type":"address"},{"indexed":true,"internalType":"address","name":"operator","type":"address"},{"indexed":false,"internalType":"bool","name":"approved","type":"bool"}],"name":"ApprovalForAll","type":"event"},{"anonymous":false,"inputs":[{"indexed":true,"internalType":"bytes32","name":"id","type":"bytes32"}],"name":"ChainlinkCancelled","type":"event"},{"anonymous":false,"inputs":[{"indexed":true,"internalType":"bytes32","name":"id","type":"bytes32"}],"name":"ChainlinkFulfilled","type":"event"},{"anonymous":false,"inputs":[{"indexed":true,"internalType":"bytes32","name":"id","type":"bytes32"}],"name":"ChainlinkRequested","type":"event"},{"anonymous":false,"inputs":[{"indexed":true,"internalType":"address","name":"previousOwner","type":"address"},{"indexed":true,"internalType":"address","name":"newOwner","type":"address"}],"name":"OwnershipTransferred","type":"event"},{"anonymous":false,"inputs":[{"indexed":true,"internalType":"address","name":"from","type":"address"},{"indexed":true,"internalType":"address","name":"to","type":"address"},{"indexed":true,"internalType":"uint256","name":"tokenId","type":"uint256"}],"name":"Transfer","type":"event"},{"inputs":[{"internalType":"address","name":"to","type":"address"},{"internalType":"uint256","name":"tokenId","type":"uint256"}],"name":"approve","outputs":[],"stateMutability":"nonpayable","type":"function"},{"inputs":[{"internalType":"address","name":"owner","type":"address"}],"name":"balanceOf","outputs":[{"internalType":"uint256","name":"","type":"uint256"}],"stateMutability":"view","type":"function"},{"inputs":[{"internalType":"string","name":"a","type":"string"},{"internalType":"string","name":"b","type":"string"}],"name":"compareStrings","outputs":[{"internalType":"bool","name":"","type":"bool"}],"stateMutability":"pure","type":"function"},{"inputs":[{"internalType":"string","name":"imageURI","type":"string"},{"internalType":"string","name":"_tattood","type":"string"}],"name":"formatTokenURI","outputs":[{"internalType":"string","name":"","type":"string"}],"stateMutability":"pure","type":"function"},{"inputs":[{"internalType":"bytes32","name":"_requestId","type":"bytes32"},{"internalType":"bool","name":"_tattoodStatus","type":"bool"}],"name":"fulfill","outputs":[],"stateMutability":"nonpayable","type":"function"},{"inputs":[{"internalType":"uint256","name":"tokenId","type":"uint256"}],"name":"getApproved","outputs":[{"internalType":"address","name":"","type":"address"}],"stateMutability":"view","type":"function"},{"inputs":[{"internalType":"uint256","name":"tokenId","type":"uint256"}],"name":"getSVG","outputs":[{"internalType":"string","name":"","type":"string"}],"stateMutability":"view","type":"function"},{"inputs":[{"internalType":"address","name":"owner","type":"address"},{"internalType":"address","name":"operator","type":"address"}],"name":"isApprovedForAll","outputs":[{"internalType":"bool","name":"","type":"bool"}],"stateMutability":"view","type":"function"},{"inputs":[],"name":"name","outputs":[{"internalType":"string","name":"","type":"string"}],"stateMutability":"view","type":"function"},{"inputs":[],"name":"owner","outputs":[{"internalType":"address","name":"","type":"address"}],"stateMutability":"view","type":"function"},{"inputs":[{"internalType":"uint256","name":"tokenId","type":"uint256"}],"name":"ownerOf","outputs":[{"internalType":"address","name":"","type":"address"}],"stateMutability":"view","type":"function"},{"inputs":[],"name":"renounceOwnership","outputs":[],"stateMutability":"nonpayable","type":"function"},{"inputs":[{"internalType":"bytes32","name":"","type":"bytes32"}],"name":"requestIdToTattoodPersonId","outputs":[{"internalType":"uint256","name":"","type":"uint256"}],"stateMutability":"view","type":"function"},{"inputs":[],"name":"s_minimumStaked","outputs":[{"internalType":"uint256","name":"","type":"uint256"}],"stateMutability":"view","type":"function"},{"inputs":[],"name":"s_nftCounter","outputs":[{"internalType":"uint256","name":"","type":"uint256"}],"stateMutability":"view","type":"function"},{"inputs":[],"name":"s_pixelsContract","outputs":[{"internalType":"contract NFTatPixel","name":"","type":"address"}],"stateMutability":"view","type":"function"},{"inputs":[],"name":"s_subjectiveOracleAddress","outputs":[{"internalType":"address","name":"","type":"address"}],"stateMutability":"view","type":"function"},{"inputs":[],"name":"s_subjectiveOracleFee","outputs":[{"internalType":"uint256","name":"","type":"uint256"}],"stateMutability":"view","type":"function"},{"inputs":[],"name":"s_subjectiveOracleJobId","outputs":[{"internalType":"bytes32","name":"","type":"bytes32"}],"stateMutability":"view","type":"function"},{"inputs":[],"name":"s_timeInterval","outputs":[{"internalType":"uint256","name":"","type":"uint256"}],"stateMutability":"view","type":"function"},{"inputs":[{"internalType":"uint256","name":"","type":"uint256"}],"name":"s_tokenIdToTattoodPerson","outputs":[{"internalType":"uint256","name":"stakedAmount","type":"uint256"},{"internalType":"bool","name":"tattood","type":"bool"},{"internalType":"address","name":"addressOfTattoodPerson","type":"address"}],"stateMutability":"view","type":"function"},{"inputs":[{"internalType":"address","name":"from","type":"address"},{"internalType":"address","name":"to","type":"address"},{"internalType":"uint256","name":"tokenId","type":"uint256"}],"name":"safeTransferFrom","outputs":[],"stateMutability":"nonpayable","type":"function"},{"inputs":[{"internalType":"address","name":"from","type":"address"},{"internalType":"address","name":"to","type":"address"},{"internalType":"uint256","name":"tokenId","type":"uint256"},{"internalType":"bytes","name":"_data","type":"bytes"}],"name":"safeTransferFrom","outputs":[],"stateMutability":"nonpayable","type":"function"},{"inputs":[{"internalType":"address","name":"operator","type":"address"},{"internalType":"bool","name":"approved","type":"bool"}],"name":"setApprovalForAll","outputs":[],"stateMutability":"nonpayable","type":"function"},{"inputs":[{"internalType":"bool","name":"_isOpen","type":"bool"}],"name":"setOpen","outputs":[],"stateMutability":"nonpayable","type":"function"},{"inputs":[],"name":"stakeTat","outputs":[],"stateMutability":"payable","type":"function"},{"inputs":[{"internalType":"bytes4","name":"interfaceId","type":"bytes4"}],"name":"supportsInterface","outputs":[{"internalType":"bool","name":"","type":"bool"}],"stateMutability":"view","type":"function"},{"inputs":[{"internalType":"string","name":"svg","type":"string"}],"name":"svgToImageURI","outputs":[{"internalType":"string","name":"","type":"string"}],"stateMutability":"pure","type":"function"},{"inputs":[],"name":"symbol","outputs":[{"internalType":"string","name":"","type":"string"}],"stateMutability":"view","type":"function"},{"inputs":[{"internalType":"uint256","name":"tokenId","type":"uint256"}],"name":"tokenURI","outputs":[{"internalType":"string","name":"","type":"string"}],"stateMutability":"view","type":"function"},{"inputs":[{"internalType":"address","name":"from","type":"address"},{"internalType":"address","name":"to","type":"address"},{"internalType":"uint256","name":"tokenId","type":"uint256"}],"name":"transferFrom","outputs":[],"stateMutability":"nonpayable","type":"function"},{"inputs":[{"internalType":"address","name":"newOwner","type":"address"}],"name":"transferOwnership","outputs":[],"stateMutability":"nonpayable","type":"function"},{"inputs":[{"internalType":"uint256","name":"tattoodPersonId","type":"uint256"}],"name":"updateVotes","outputs":[{"internalType":"bytes32","name":"requestId","type":"bytes32"}],"stateMutability":"nonpayable","type":"function"}],"bytecode":"608060405260016006553480156200001657600080fd5b50604051620061b3380380620061b383398101604081905262000039916200038a565b604080518082018252600580825264139195185d60da1b602080840191909152835180850190945290835264139195105560da1b90830152600160005590620000823362000191565b81516200009790600890602085019062000294565b508051620000ad90600990602084019062000294565b5050506001600160a01b038216620000cf57620000c9620001e3565b620000eb565b600480546001600160a01b0319166001600160a01b0384161790555b620d2f006017819055600f8690556010859055601180546001600160a01b0319166001600160a01b0386161790556012829055600060138190556014805460ff19169055604051909190620001409062000323565b908152602001604051809103906000f08015801562000163573d6000803e3d6000fd5b50601680546001600160a01b0319166001600160a01b0392909216919091179055506200041c945050505050565b600180546001600160a01b038381166001600160a01b0319831681179093556040519116919082907f8be0079c531659141344cd1fd0a4f28419497f9722a3daafe3b4186f6b6457e090600090a35050565b6200029273c89bd4e1632d3a43cb03aaad5262cbe4038bc5716001600160a01b03166338cc48316040518163ffffffff1660e01b815260040160206040518083038186803b1580156200023557600080fd5b505afa1580156200024a573d6000803e3d6000fd5b505050506040513d601f19601f8201168201806040525081019062000270919062000365565b600480546001600160a01b0319166001600160a01b0392909216919091179055565b565b828054620002a290620003df565b90600052602060002090601f016020900481019282620002c6576000855562000311565b82601f10620002e157805160ff191683800117855562000311565b8280016001018555821562000311579182015b8281111562000311578251825591602001919060010190620002f4565b506200031f92915062000331565b5090565b61302a806200318983390190565b5b808211156200031f576000815560010162000332565b80516001600160a01b03811681146200036057600080fd5b919050565b6000602082840312156200037857600080fd5b620003838262000348565b9392505050565b600080600080600060a08688031215620003a357600080fd5b8551945060208601519350620003bc6040870162000348565b9250620003cc6060870162000348565b9150608086015190509295509295909350565b600181811c90821680620003f457607f821691505b602082108114156200041657634e487b7160e01b600052602260045260246000fd5b50919050565b612d5d806200042c6000396000f3fe6080604052600436106101ee5760003560e01c80636352211e1161010d578063a6038169116100a0578063c87b56dd1161006f578063c87b56dd146105c0578063dd3dd8eb146105e0578063e985e9c5146105e8578063f2fde38b14610631578063fd68990a1461065157600080fd5b8063a603816914610533578063b88d4fde14610560578063be985ac914610580578063bed34bba146105a057600080fd5b8063857718d9116100dc578063857718d9146104755780638da5cb5b146104e057806395d89b41146104fe578063a22cb4651461051357600080fd5b80636352211e146104005780636fdca5e01461042057806370a0823114610440578063715018a61461046057600080fd5b806329addf091161018557806342842e0e1161015457806342842e0e1461038a5780634c7f25b4146103aa57806356029272146103ca57806356074cba146103ea57600080fd5b806329addf091461031e57806330d871c6146103345780633ebaccdb146103545780634088093f1461036a57600080fd5b8063095ea7b3116101c1578063095ea7b3146102a65780630eca5990146102c85780631cfb86c9146102de57806323b872dd146102fe57600080fd5b806301ffc9a7146101f3578063034c9c131461022857806306fdde031461024c578063081812fc1461026e575b600080fd5b3480156101ff57600080fd5b5061021361020e3660046124c2565b610671565b60405190151581526020015b60405180910390f35b34801561023457600080fd5b5061023e60135481565b60405190815260200161021f565b34801561025857600080fd5b506102616106c3565b60405161021f9190612a04565b34801561027a57600080fd5b5061028e610289366004612484565b610755565b6040516001600160a01b03909116815260200161021f565b3480156102b257600080fd5b506102c66102c1366004612420565b6107ef565b005b3480156102d457600080fd5b5061023e60175481565b3480156102ea57600080fd5b5060165461028e906001600160a01b031681565b34801561030a57600080fd5b506102c6610319366004612331565b610905565b34801561032a57600080fd5b5061023e60105481565b34801561034057600080fd5b5061026161034f3660046124fc565b610936565b34801561036057600080fd5b5061023e600f5481565b34801561037657600080fd5b5061023e610385366004612484565b6109c9565b34801561039657600080fd5b506102c66103a5366004612331565b610ab2565b3480156103b657600080fd5b5060115461028e906001600160a01b031681565b3480156103d657600080fd5b506102616103e536600461259f565b610acd565b3480156103f657600080fd5b5061023e60125481565b34801561040c57600080fd5b5061028e61041b366004612484565b610b0c565b34801561042c57600080fd5b506102c661043b36600461244a565b610b83565b34801561044c57600080fd5b5061023e61045b3660046122e3565b610bc0565b34801561046c57600080fd5b506102c6610c47565b34801561048157600080fd5b506104bc610490366004612484565b6018602052600090815260409020805460019091015460ff81169061010090046001600160a01b031683565b6040805193845291151560208401526001600160a01b03169082015260600161021f565b3480156104ec57600080fd5b506001546001600160a01b031661028e565b34801561050a57600080fd5b50610261610c7d565b34801561051f57600080fd5b506102c661052e3660046123e9565b610c8c565b34801561053f57600080fd5b5061023e61054e366004612484565b60156020526000908152604090205481565b34801561056c57600080fd5b506102c661057b36600461236d565b610d51565b34801561058c57600080fd5b5061026161059b366004612484565b610d89565b3480156105ac57600080fd5b506102136105bb36600461259f565b611233565b3480156105cc57600080fd5b506102616105db366004612484565b61128c565b6102c6611319565b3480156105f457600080fd5b506102136106033660046122fe565b6001600160a01b039182166000908152600d6020908152604080832093909416825291909152205460ff1690565b34801561063d57600080fd5b506102c661064c3660046122e3565b611519565b34801561065d57600080fd5b506102c661066c36600461249d565b6115b4565b60006001600160e01b031982166380ac58cd60e01b14806106a257506001600160e01b03198216635b5e139f60e01b145b806106bd57506301ffc9a760e01b6001600160e01b03198316145b92915050565b6060600880546106d290612bd6565b80601f01602080910402602001604051908101604052809291908181526020018280546106fe90612bd6565b801561074b5780601f106107205761010080835404028352916020019161074b565b820191906000526020600020905b81548152906001019060200180831161072e57829003601f168201915b5050505050905090565b6000818152600a60205260408120546001600160a01b03166107d35760405162461bcd60e51b815260206004820152602c60248201527f4552433732313a20617070726f76656420717565727920666f72206e6f6e657860448201526b34b9ba32b73a103a37b5b2b760a11b60648201526084015b60405180910390fd5b506000908152600c60205260409020546001600160a01b031690565b60006107fa82610b0c565b9050806001600160a01b0316836001600160a01b031614156108685760405162461bcd60e51b815260206004820152602160248201527f4552433732313a20617070726f76616c20746f2063757272656e74206f776e656044820152603960f91b60648201526084016107ca565b336001600160a01b038216148061088457506108848133610603565b6108f65760405162461bcd60e51b815260206004820152603860248201527f4552433732313a20617070726f76652063616c6c6572206973206e6f74206f7760448201527f6e6572206e6f7220617070726f76656420666f7220616c6c000000000000000060648201526084016107ca565b61090083836117b6565b505050565b61090f3382611824565b61092b5760405162461bcd60e51b81526004016107ca90612a9e565b61090083838361191b565b606060006040518060400160405280601a81526020017f646174613a696d6167652f7376672b786d6c3b6261736536342c0000000000008152509050600061099c84604051602001610988919061262f565b604051602081830303815290604052611abb565b905081816040516020016109b192919061264b565b60405160208183030381529060405292505050919050565b6001546000906001600160a01b031633146109f65760405162461bcd60e51b81526004016107ca90612a69565b60008281526018602052604090206001015460ff16610a655760405162461bcd60e51b815260206004820152602560248201527f5468697320706572736f6e2068617320616c7265616479206265656e20746174604482015264746f6f642160d81b60648201526084016107ca565b6000610a7b6010543063fd68990a60e01b611c23565b601154601254919250610a9b916001600160a01b03909116908390611c48565b505060008181526015602052604090209190915590565b61090083838360405180602001604052806000815250610d51565b6060610ae582846040516020016109889291906127be565b604051602001610af591906128f3565b604051602081830303815290604052905092915050565b6000818152600a60205260408120546001600160a01b0316806106bd5760405162461bcd60e51b815260206004820152602960248201527f4552433732313a206f776e657220717565727920666f72206e6f6e657869737460448201526832b73a103a37b5b2b760b91b60648201526084016107ca565b6001546001600160a01b03163314610bad5760405162461bcd60e51b81526004016107ca90612a69565b6014805460ff1916911515919091179055565b60006001600160a01b038216610c2b5760405162461bcd60e51b815260206004820152602a60248201527f4552433732313a2062616c616e636520717565727920666f7220746865207a65604482015269726f206164647265737360b01b60648201526084016107ca565b506001600160a01b03166000908152600b602052604090205490565b6001546001600160a01b03163314610c715760405162461bcd60e51b81526004016107ca90612a69565b610c7b6000611c5f565b565b6060600980546106d290612bd6565b6001600160a01b038216331415610ce55760405162461bcd60e51b815260206004820152601960248201527f4552433732313a20617070726f766520746f2063616c6c65720000000000000060448201526064016107ca565b336000818152600d602090815260408083206001600160a01b03871680855290835292819020805460ff191686151590811790915590519081529192917f17307eab39ab6107e8899845ad3d59bd9653f200f220920489ca2b5937696c31910160405180910390a35050565b610d5b3383611824565b610d775760405162461bcd60e51b81526004016107ca90612a9e565b610d8384848484611cb1565b50505050565b60606000604051806080016040528060418152602001612ce760419139604080518082018252601f81527f7374796c653d276261636b67726f756e642d636f6c6f723a626c61636b273e0060208083019190915282518082018452600080825284518084018652818152855180870190965260068652651e17b9bb339f60d11b93860193909352949550919391929091600190610e278960e3612b74565b90505b610e358960e3612b74565b610e409060e3612b48565b8110156111fd57601654604051636ab98b8560e11b8152600481018390526001600160a01b039091169063d573170a9060240160206040518083038186803b158015610e8b57600080fd5b505afa158015610e9f573d6000803e3d6000fd5b505050506040513d601f19601f82011682018060405250810190610ec39190612467565b1561103057601654604051634002bdcd60e11b815260048101839052610f71916001600160a01b0316906380057b9a9060240160006040518083038186803b158015610f0e57600080fd5b505afa158015610f22573d6000803e3d6000fd5b505050506040513d6000823e601f3d908101601f19168201604052610f4a9190810190612531565b60405180604001604052806009815260200168677261797363616c6560b81b815250611233565b61101f57601654604051634002bdcd60e11b815260048101839052600093506001600160a01b03909116906380057b9a9060240160006040518083038186803b158015610fbd57600080fd5b505afa158015610fd1573d6000803e3d6000fd5b505050506040513d6000823e601f3d908101601f19168201604052610ff99190810190612531565b60405160200161100991906128a2565b60405160208183030381529060405295506111eb565b8560405160200161100991906126e5565b6016546040516316d7188f60e01b8152600481018390526001600160a01b03909116906316d7188f9060240160206040518083038186803b15801561107457600080fd5b505afa158015611088573d6000803e3d6000fd5b505050506040513d601f19601f820116820180604052508101906110ac9190612467565b1561114057601654604051632124bdb760e01b81526004810183905283151560248201526001600160a01b0390911690632124bdb79060440160006040518083038186803b1580156110fd57600080fd5b505afa158015611111573d6000803e3d6000fd5b505050506040513d6000823e601f3d908101601f191682016040526111399190810190612531565b94506111eb565b601654604051636de0d89b60e01b815260048101839052831515602482015285916001600160a01b031690636de0d89b9060440160006040518083038186803b15801561118c57600080fd5b505afa1580156111a0573d6000803e3d6000fd5b505050506040513d6000823e601f3d908101601f191682016040526111c89190810190612531565b6040516020016111d992919061264b565b60405160208183030381529060405293505b806111f581612c11565b915050610e2a565b50858585858560405160200161121795949392919061267a565b6040516020818303038152906040529650505050505050919050565b600081604051602001611246919061262f565b604051602081830303815290604052805190602001208360405160200161126d919061262f565b6040516020818303038152906040528051906020012014905092915050565b6060600061129983610d89565b60008481526018602052604090206001015490915060ff166112eb576112e46112c182610936565b6040518060400160405280600581526020016466616c736560d81b815250610acd565b9392505050565b6112e46112f782610936565b604051806040016040528060048152602001637472756560e01b815250610acd565b6002600054141561136c5760405162461bcd60e51b815260206004820152601f60248201527f5265656e7472616e637947756172643a207265656e7472616e742063616c6c0060448201526064016107ca565b60026000556001546001600160a01b031633148061138c575060145460ff165b6113d05760405162461bcd60e51b81526020600482015260156024820152745374696c6c20696e20626574612c20736f7272792160581b60448201526064016107ca565b600f543410156114315760405162461bcd60e51b815260206004820152602660248201527f596f75206469646e27742073656e6420656e6f75676820657468657220746f206044820152657374616b652160d01b60648201526084016107ca565b60408051606081018252348152600060208083018281523384860181815260135485526018909352928590208451815590516001909101805492516001600160a81b0319909316911515610100600160a81b031916919091176101006001600160a01b03938416021790556016549351631feefea360e11b81526004810192909252919290911690633fddfd4690602401600060405180830381600087803b1580156114dc57600080fd5b505af11580156114f0573d6000803e3d6000fd5b5050505061150033601354611ce4565b60135461150e906001612b48565b601355506001600055565b6001546001600160a01b031633146115435760405162461bcd60e51b81526004016107ca90612a69565b6001600160a01b0381166115a85760405162461bcd60e51b815260206004820152602660248201527f4f776e61626c653a206e6577206f776e657220697320746865207a65726f206160448201526564647265737360d01b60648201526084016107ca565b6115b181611c5f565b50565b60008281526007602052604090205482906001600160a01b0316331461162d5760405162461bcd60e51b815260206004820152602860248201527f536f75726365206d75737420626520746865206f7261636c65206f6620746865604482015267081c995c5d595cdd60c21b60648201526084016107ca565b60008181526007602052604080822080546001600160a01b03191690555182917f7cc135e0cebb02c3480ae5d74d377283180a2601f8f644edf7987b009316c63a91a2816116bd5760405162461bcd60e51b815260206004820152601b60248201527f54686520706572736f6e20776173206e6f7420746174746f6f6421000000000060448201526064016107ca565b600083815260156020908152604080832054808452601890925280832060018101805460ff198116881515179091559054915192936101009091046001600160a01b0316928390839060006040518083038185875af1925050503d8060008114611743576040519150601f19603f3d011682016040523d82523d6000602084013e611748565b606091505b50509050806117ad5760405162461bcd60e51b815260206004820152602b60248201527f596f7520646f6e2774206861766520656e6f75676820657468657220746f207060448201526a617920746865206665652160a81b60648201526084016107ca565b50505050505050565b6000818152600c6020526040902080546001600160a01b0319166001600160a01b03841690811790915581906117eb82610b0c565b6001600160a01b03167f8c5be1e5ebec7d5bd14f71427d1e84f3dd0314c0f7b2291e5b200ac8c7c3b92560405160405180910390a45050565b6000818152600a60205260408120546001600160a01b031661189d5760405162461bcd60e51b815260206004820152602c60248201527f4552433732313a206f70657261746f7220717565727920666f72206e6f6e657860448201526b34b9ba32b73a103a37b5b2b760a11b60648201526084016107ca565b60006118a883610b0c565b9050806001600160a01b0316846001600160a01b031614806118e35750836001600160a01b03166118d884610755565b6001600160a01b0316145b8061191357506001600160a01b038082166000908152600d602090815260408083209388168352929052205460ff165b949350505050565b826001600160a01b031661192e82610b0c565b6001600160a01b0316146119965760405162461bcd60e51b815260206004820152602960248201527f4552433732313a207472616e73666572206f6620746f6b656e2074686174206960448201526839903737ba1037bbb760b91b60648201526084016107ca565b6001600160a01b0382166119f85760405162461bcd60e51b8152602060048201526024808201527f4552433732313a207472616e7366657220746f20746865207a65726f206164646044820152637265737360e01b60648201526084016107ca565b611a036000826117b6565b6001600160a01b0383166000908152600b60205260408120805460019290611a2c908490612b93565b90915550506001600160a01b0382166000908152600b60205260408120805460019290611a5a908490612b48565b90915550506000818152600a602052604080822080546001600160a01b0319166001600160a01b0386811691821790925591518493918716917fddf252ad1be2c89b69c2b068fc378daa952ba7f163c4a11628f55a4df523b3ef91a4505050565b6060815160001415611adb57505060408051602081019091526000815290565b6000604051806060016040528060408152602001612ca76040913990506000600384516002611b0a9190612b48565b611b149190612b60565b611b1f906004612b74565b90506000611b2e826020612b48565b67ffffffffffffffff811115611b4657611b46612c6c565b6040519080825280601f01601f191660200182016040528015611b70576020820181803683370190505b509050818152600183018586518101602084015b81831015611bde5760039283018051603f601282901c811687015160f890811b8552600c83901c8216880151811b6001860152600683901c8216880151811b60028601529116860151901b93820193909352600401611b84565b600389510660018114611bf85760028114611c0957611c15565b613d3d60f01b600119830152611c15565b603d60f81b6000198301525b509398975050505050505050565b611c2b61222e565b611c3361222e565b611c3f81868686611d02565b95945050505050565b600061191384848460016320214ca360e11b611d3f565b600180546001600160a01b038381166001600160a01b0319831681179093556040519116919082907f8be0079c531659141344cd1fd0a4f28419497f9722a3daafe3b4186f6b6457e090600090a35050565b611cbc84848461191b565b611cc884848484611f4a565b610d835760405162461bcd60e51b81526004016107ca90612a17565b611cfe828260405180602001604052806000815250612054565b5050565b611d0a61222e565b611d1a8560800151610100612087565b50509183526001600160a01b031660208301526001600160e01b031916604082015290565b6006546040516bffffffffffffffffffffffff193060601b166020820152603481019190915260009060540160408051808303601f19018152918152815160209283012060065460608901526000818152600790935281832080546001600160a01b0319166001600160a01b038b16179055905190925082917fb5e6e01e79f91267dc17b4e6314d5d4d03593d2ceee0fbb452b750bd70ea5af991a2600082600080886000015189602001518a604001518b606001518a8d6080015160000151604051602401611e16989796959493929190612975565b60408051601f198184030181529181526020820180516001600160e01b03166001600160e01b031990941693909317909252600480549251630200057560e51b81529193506001600160a01b0390921691634000aea091611e7d918b918a918791016129dd565b602060405180830381600087803b158015611e9757600080fd5b505af1158015611eab573d6000803e3d6000fd5b505050506040513d601f19601f82011682018060405250810190611ecf9190612467565b611f275760405162461bcd60e51b815260206004820152602360248201527f756e61626c6520746f207472616e73666572416e6443616c6c20746f206f7261604482015262636c6560e81b60648201526084016107ca565b600160066000828254611f3a9190612b48565b9091555091979650505050505050565b60006001600160a01b0384163b1561204c57604051630a85bd0160e11b81526001600160a01b0385169063150b7a0290611f8e903390899088908890600401612938565b602060405180830381600087803b158015611fa857600080fd5b505af1925050508015611fd8575060408051601f3d908101601f19168201909252611fd5918101906124df565b60015b612032573d808015612006576040519150601f19603f3d011682016040523d82523d6000602084013e61200b565b606091505b50805161202a5760405162461bcd60e51b81526004016107ca90612a17565b805181602001fd5b6001600160e01b031916630a85bd0160e11b149050611913565b506001611913565b61205e83836120ec565b61206b6000848484611f4a565b6109005760405162461bcd60e51b81526004016107ca90612a17565b6040805180820190915260608152600060208201526120a7602083612c2c565b156120cf576120b7602083612c2c565b6120c2906020612b93565b6120cc9083612b48565b91505b506020828101829052604080518085526000815290920101905290565b6001600160a01b0382166121425760405162461bcd60e51b815260206004820181905260248201527f4552433732313a206d696e7420746f20746865207a65726f206164647265737360448201526064016107ca565b6000818152600a60205260409020546001600160a01b0316156121a75760405162461bcd60e51b815260206004820152601c60248201527f4552433732313a20746f6b656e20616c7265616479206d696e7465640000000060448201526064016107ca565b6001600160a01b0382166000908152600b602052604081208054600192906121d0908490612b48565b90915550506000818152600a602052604080822080546001600160a01b0319166001600160a01b03861690811790915590518392907fddf252ad1be2c89b69c2b068fc378daa952ba7f163c4a11628f55a4df523b3ef908290a45050565b6040805160a0810182526000808252602080830182905282840182905260608084018390528451808601909552845283015290608082015290565b600061227c61227784612b20565b612aef565b905082815283838301111561229057600080fd5b828260208301376000602084830101529392505050565b80356001600160a01b03811681146122be57600080fd5b919050565b600082601f8301126122d457600080fd5b6112e483833560208501612269565b6000602082840312156122f557600080fd5b6112e4826122a7565b6000806040838503121561231157600080fd5b61231a836122a7565b9150612328602084016122a7565b90509250929050565b60008060006060848603121561234657600080fd5b61234f846122a7565b925061235d602085016122a7565b9150604084013590509250925092565b6000806000806080858703121561238357600080fd5b61238c856122a7565b935061239a602086016122a7565b925060408501359150606085013567ffffffffffffffff8111156123bd57600080fd5b8501601f810187136123ce57600080fd5b6123dd87823560208401612269565b91505092959194509250565b600080604083850312156123fc57600080fd5b612405836122a7565b9150602083013561241581612c82565b809150509250929050565b6000806040838503121561243357600080fd5b61243c836122a7565b946020939093013593505050565b60006020828403121561245c57600080fd5b81356112e481612c82565b60006020828403121561247957600080fd5b81516112e481612c82565b60006020828403121561249657600080fd5b5035919050565b600080604083850312156124b057600080fd5b82359150602083013561241581612c82565b6000602082840312156124d457600080fd5b81356112e481612c90565b6000602082840312156124f157600080fd5b81516112e481612c90565b60006020828403121561250e57600080fd5b813567ffffffffffffffff81111561252557600080fd5b611913848285016122c3565b60006020828403121561254357600080fd5b815167ffffffffffffffff81111561255a57600080fd5b8201601f8101841361256b57600080fd5b805161257961227782612b20565b81815285602083850101111561258e57600080fd5b611c3f826020830160208601612baa565b600080604083850312156125b257600080fd5b823567ffffffffffffffff808211156125ca57600080fd5b6125d6868387016122c3565b935060208501359150808211156125ec57600080fd5b506125f9858286016122c3565b9150509250929050565b6000815180845261261b816020860160208601612baa565b601f01601f19169290920160200192915050565b60008251612641818460208701612baa565b9190910192915050565b6000835161265d818460208801612baa565b835190830190612671818360208801612baa565b01949350505050565b6000865161268c818460208b01612baa565b8651908301906126a0818360208b01612baa565b86519101906126b3818360208a01612baa565b85519101906126c6818360208901612baa565b84519101906126d9818360208801612baa565b01979650505050505050565b600082516126f7818460208701612baa565b7f3c66696c7465722069643d27677261797363616c65273e3c6665436f6c6f724d9201918252507f617472697820747970653d276d6174726978272076616c7565733d27302e333360208201527f333320302e3333333320302e333333332030203020302e3333333320302e333360408201527f333320302e333333332030203020302e3333333320302e3333333320302e333360608201527f33332030203020302030203020312030272f3e3c2f66696c7465723e000000006080820152609c01919050565b683d913730b6b2911d1160b91b815264139195185d60da1b60098201527f222c20226465736372697074696f6e223a224120746174746f6f6f6f6f6f6f6f600e8201527f222c202261747472696275746573223a5b7b2274726169745f74797065223a20602e820152730113a30ba3a37b7b2111610113b30b63ab2911d160651b604e820152825160009061285a816062850160208801612baa565b6c3eae96101134b6b0b3b2911d1160991b606291840191820152835161288781606f840160208801612baa565b61227d60f01b606f9290910191820152607101949350505050565b7f7374796c653d276261636b67726f756e642d636f6c6f723a00000000000000008152600082516128da816018850160208701612baa565b61139f60f11b6018939091019283015250601a01919050565b7f646174613a6170706c69636174696f6e2f6a736f6e3b6261736536342c00000081526000825161292b81601d850160208701612baa565b91909101601d0192915050565b6001600160a01b038581168252841660208201526040810183905260806060820181905260009061296b90830184612603565b9695505050505050565b6001600160a01b0389811682526020820189905260408201889052861660608201526001600160e01b03198516608082015260a0810184905260c0810183905261010060e082018190526000906129ce83820185612603565b9b9a5050505050505050505050565b60018060a01b0384168152826020820152606060408201526000611c3f6060830184612603565b6020815260006112e46020830184612603565b60208082526032908201527f4552433732313a207472616e7366657220746f206e6f6e20455243373231526560408201527131b2b4bb32b91034b6b83632b6b2b73a32b960711b606082015260800190565b6020808252818101527f4f776e61626c653a2063616c6c6572206973206e6f7420746865206f776e6572604082015260600190565b60208082526031908201527f4552433732313a207472616e736665722063616c6c6572206973206e6f74206f6040820152701ddb995c881b9bdc88185c1c1c9bdd9959607a1b606082015260800190565b604051601f8201601f1916810167ffffffffffffffff81118282101715612b1857612b18612c6c565b604052919050565b600067ffffffffffffffff821115612b3a57612b3a612c6c565b50601f01601f191660200190565b60008219821115612b5b57612b5b612c40565b500190565b600082612b6f57612b6f612c56565b500490565b6000816000190483118215151615612b8e57612b8e612c40565b500290565b600082821015612ba557612ba5612c40565b500390565b60005b83811015612bc5578181015183820152602001612bad565b83811115610d835750506000910152565b600181811c90821680612bea57607f821691505b60208210811415612c0b57634e487b7160e01b600052602260045260246000fd5b50919050565b6000600019821415612c2557612c25612c40565b5060010190565b600082612c3b57612c3b612c56565b500690565b634e487b7160e01b600052601160045260246000fd5b634e487b7160e01b600052601260045260246000fd5b634e487b7160e01b600052604160045260246000fd5b80151581146115b157600080fd5b6001600160e01b0319811681146115b157600080fdfe4142434445464748494a4b4c4d4e4f505152535455565758595a6162636465666768696a6b6c6d6e6f707172737475767778797a303132333435363738392b2f3c73766720786d6c6e733d27687474703a2f2f7777772e77332e6f72672f323030302f73766727206865696768743d27393030272077696474683d273930302720a2646970667358221220904c3cc4a7b26d21c3129f71608a6e0493c7920656718a56c6ffaa3cfaac510d64736f6c6343000807003360806040523480156200001157600080fd5b506040516200302a3803806200302a833981016040819052620000349162000213565b604080518082018252600a815269139195185d141a5e195b60b21b60208083019182528351808501909452600484526304e4654560e41b908401526001600081905582519293926200008792906200016d565b5080516200009d9060029060208401906200016d565b505050620000ba620000b46200011760201b60201c565b6200011b565b6000600955603c600b55600c8190556040805180820190915260198082527f66696c7465723d2775726c2823677261797363616c652927200000000000000060209092019182526200010f91600d916200016d565b50506200026a565b3390565b600880546001600160a01b038381166001600160a01b0319831681179093556040519116919082907f8be0079c531659141344cd1fd0a4f28419497f9722a3daafe3b4186f6b6457e090600090a35050565b8280546200017b906200022d565b90600052602060002090601f0160209004810192826200019f5760008555620001ea565b82601f10620001ba57805160ff1916838001178555620001ea565b82800160010185558215620001ea579182015b82811115620001ea578251825591602001919060010190620001cd565b50620001f8929150620001fc565b5090565b5b80821115620001f85760008155600101620001fd565b6000602082840312156200022657600080fd5b5051919050565b600181811c908216806200024257607f821691505b602082108114156200026457634e487b7160e01b600052602260045260246000fd5b50919050565b612db0806200027a6000396000f3fe608060405234801561001057600080fd5b50600436106102115760003560e01c806370a0823111610125578063b92bff1b116100ad578063cf68d97e1161007c578063cf68d97e14610490578063d573170a146104a3578063e985e9c5146104c6578063f2fde38b14610502578063fa358de11461051557600080fd5b8063b92bff1b14610434578063bed34bba14610457578063c4d53dea1461046a578063c87b56dd1461047d57600080fd5b80638da5cb5b116100f45780638da5cb5b146103ed57806395d89b41146103fe578063a22cb46514610406578063b8703dc914610419578063b88d4fde1461042157600080fd5b806370a08231146103b6578063715018a6146103c957806371f33b31146103d157806380057b9a146103da57600080fd5b806316d7188f116101a857806330d871c61161017757806330d871c6146103575780633fddfd461461036a57806342842e0e1461037d5780636352211e146103905780636de0d89b146103a357600080fd5b806316d7188f146102e6578063186ce8641461030e5780632124bdb71461033157806323b872dd1461034457600080fd5b8063095ea7b3116101e4578063095ea7b3146102ac5780630b21a83b146102c15780630eca5990146102ca57806312ef6b97146102d357600080fd5b806301ffc9a71461021657806306fdde031461023e578063081812fc146102535780630937542f1461027e575b600080fd5b610229610224366004612461565b610539565b60405190151581526020015b60405180910390f35b61024661058b565b6040516102359190612a80565b610266610261366004612579565b61061d565b6040516001600160a01b039091168152602001610235565b61029e61028c366004612579565b600e6020526000908152604090205481565b604051908152602001610235565b6102bf6102ba366004612437565b6106b7565b005b61029e60095481565b61029e600c5481565b6102466102e1366004612592565b6107cd565b6102296102f4366004612579565b6000908152600a6020526040902054610100900460ff1690565b61029e61031c366004612579565b6000908152600a602052604090206002015490565b61024661033f366004612592565b610940565b6102bf610352366004612355565b610b00565b61024661036536600461249b565b610b31565b6102bf610378366004612307565b610bc4565b6102bf61038b366004612355565b610f2b565b61026661039e366004612579565b610f46565b6102466103b1366004612592565b610fbd565b61029e6103c4366004612307565b611230565b6102bf6112b7565b61029e600b5481565b6102466103e8366004612579565b6112ed565b6008546001600160a01b0316610266565b610246611392565b6102bf61041436600461240d565b6113a1565b610246611466565b6102bf61042f366004612391565b6114f4565b61029e610442366004612579565b6000908152600a602052604090206001015490565b6102296104653660046124d0565b61152d565b610246610478366004612534565b611586565b61024661048b366004612579565b611635565b6102bf61049e3660046125b5565b6116e2565b6102296104b1366004612579565b6000908152600a602052604090205460ff1690565b6102296104d4366004612322565b6001600160a01b03918216600090815260066020908152604080832093909416825291909152205460ff1690565b6102bf610510366004612307565b611797565b610528610523366004612579565b611832565b604051610235959493929190612a46565b60006001600160e01b031982166380ac58cd60e01b148061056a57506001600160e01b03198216635b5e139f60e01b145b8061058557506301ffc9a760e01b6001600160e01b03198316145b92915050565b60606001805461059a90612c2c565b80601f01602080910402602001604051908101604052809291908181526020018280546105c690612c2c565b80156106135780601f106105e857610100808354040283529160200191610613565b820191906000526020600020905b8154815290600101906020018083116105f657829003601f168201915b5050505050905090565b6000818152600360205260408120546001600160a01b031661069b5760405162461bcd60e51b815260206004820152602c60248201527f4552433732313a20617070726f76656420717565727920666f72206e6f6e657860448201526b34b9ba32b73a103a37b5b2b760a11b60648201526084015b60405180910390fd5b506000908152600560205260409020546001600160a01b031690565b60006106c282610f46565b9050806001600160a01b0316836001600160a01b031614156107305760405162461bcd60e51b815260206004820152602160248201527f4552433732313a20617070726f76616c20746f2063757272656e74206f776e656044820152603960f91b6064820152608401610692565b336001600160a01b038216148061074c575061074c81336104d4565b6107be5760405162461bcd60e51b815260206004820152603860248201527f4552433732313a20617070726f76652063616c6c6572206973206e6f74206f7760448201527f6e6572206e6f7220617070726f76656420666f7220616c6c00000000000000006064820152608401610692565b6107c883836118ee565b505050565b60606000604051806080016040528060608152602001612cdb606091396000858152600a60209081526040808320815160a081018352815460ff80821615158352610100909104161515938101939093526001810154918301919091526002810154606083015260038101805494955092939192909160808401919061085290612c2c565b80601f016020809104026020016040519081016040528092919081815260200182805461087e90612c2c565b80156108cb5780601f106108a0576101008083540402835291602001916108cb565b820191906000526020600020905b8154815290600101906020018083116108ae57829003601f168201915b50505050508152505090506000604051806020016040528060008152509050816020015115610905576108fe8686610940565b9050610913565b610910866000610fbd565b90505b8281604051602001610926929190612685565b604051602081830303815290604052935050505092915050565b6000828152600a60209081526040808320815160a081018352815460ff8082161515835261010090910416151593810193909352600181015491830191909152600281015460608381019190915260038201805491949392916080840191906109a890612c2c565b80601f01602080910402602001604051908101604052809291908181526020018280546109d490612c2c565b8015610a215780601f106109f657610100808354040283529160200191610a21565b820191906000526020600020905b815481529060010190602001808311610a0457829003601f168201915b505050919092525050604080516020810190915260008152919250508315610ad157600d8054610a5090612c2c565b80601f0160208091040260200160405190810160405280929190818152602001828054610a7c90612c2c565b8015610ac95780601f10610a9e57610100808354040283529160200191610ac9565b820191906000526020600020905b815481529060010190602001808311610aac57829003601f168201915b505050505090505b6080820151604051610ae791839160200161285d565b6040516020818303038152906040529250505092915050565b610b0a338261195c565b610b265760405162461bcd60e51b815260040161069290612b1a565b6107c8838383611a4f565b606060006040518060400160405280601a81526020017f646174613a696d6167652f7376672b786d6c3b6261736536342c00000000000081525090506000610b9784604051602001610b83919061263a565b604051602081830303815290604052611bef565b90508181604051602001610bac929190612656565b60405160208183030381529060405292505050919050565b6008546001600160a01b03163314610bee5760405162461bcd60e51b815260040161069290612ae5565b600980546040805160a08101825260018152600060208083018290528284018290526060830191909152825180840190935293825268677261797363616c6560b81b93820193909352608083015290610c478383611d57565b6000828152600a6020908152604091829020835181548386015115156101000261ff00199215159290921661ffff19909116171781559183015160018301556060830151600283015560808301518051849392610cab9260038501929101906121a5565b5050506000828152600e60205260409020429055610cca826001612b6b565b915060006040518060a00160405280600015158152602001600115158152602001600081526020016000815260200160405180604001604052806005815260200164776869746560d81b8152508152509050610d268484611d57565b6000838152600a6020908152604091829020835181548386015115156101000261ff00199215159290921661ffff19909116171781559183015160018301556060830151600283015560808301518051849392610d8a9260038501929101906121a5565b5050506000838152600e60205260409020429055610da9836001612b6b565b600b5490935060005b600f811015610f075760005b600f811015610ef4576040805160a081018252600080825260208201819052918101610deb600287612ba8565b610df58787612bca565b610dff9190612b6b565b8152602001610e0f600287612ba8565b610e198786612bca565b610e239190612b6b565b81526020016040518060400160405280600b81526020016a1d1c985b9cdc185c995b9d60aa1b8152508152509050610e5b8888611d57565b6000878152600a6020908152604091829020835181548386015115156101000261ff00199215159290921661ffff19909116171781559183015160018301556060830151600283015560808301518051849392610ebf9260038501929101906121a5565b5050506000878152600e60205260409020429055610ede876001612b6b565b9650508080610eec90612c67565b915050610dbe565b5080610eff81612c67565b915050610db2565b50600954610f169060e1612b6b565b610f21906002612b6b565b6009555050505050565b6107c8838383604051806020016040528060008152506114f4565b6000818152600360205260408120546001600160a01b0316806105855760405162461bcd60e51b815260206004820152602960248201527f4552433732313a206f776e657220717565727920666f72206e6f6e657869737460448201526832b73a103a37b5b2b760b91b6064820152608401610692565b6000828152600a60209081526040808320815160a081018352815460ff80821615158352610100909104161515938101939093526001810154918301919091526002810154606083810191909152600382018054919493929160808401919061102590612c2c565b80601f016020809104026020016040519081016040528092919081815260200182805461105190612c2c565b801561109e5780601f106110735761010080835404028352916020019161109e565b820191906000526020600020905b81548152906001019060200180831161108157829003601f168201915b50505050508152505090506000604051806020016040528060008152509050600082608001516040516020016110d49190612821565b6040516020818303038152906040529050841561117957600d80546110f890612c2c565b80601f016020809104026020016040519081016040528092919081815260200182805461112490612c2c565b80156111715780601f1061114657610100808354040283529160200191611171565b820191906000526020600020905b81548152906001019060200180831161115457829003601f168201915b505050505091505b6111aa83608001516040518060400160405280600b81526020016a1d1c985b9cdc185c995b9d60aa1b81525061152d565b156111e5575060408051808201909152601881527f7374796c653d2766696c6c2d6f7061636974793a20302720000000000000000060208201525b816111f38460400151611d75565b6112008560600151611d75565b6112176002600b546112129190612ba8565b611d75565b86608001516040516020016109269594939291906128e4565b60006001600160a01b03821661129b5760405162461bcd60e51b815260206004820152602a60248201527f4552433732313a2062616c616e636520717565727920666f7220746865207a65604482015269726f206164647265737360b01b6064820152608401610692565b506001600160a01b031660009081526004602052604090205490565b6008546001600160a01b031633146112e15760405162461bcd60e51b815260040161069290612ae5565b6112eb6000611e9e565b565b6000818152600a6020526040902060030180546060919061130d90612c2c565b80601f016020809104026020016040519081016040528092919081815260200182805461133990612c2c565b80156113865780601f1061135b57610100808354040283529160200191611386565b820191906000526020600020905b81548152906001019060200180831161136957829003601f168201915b50505050509050919050565b60606002805461059a90612c2c565b6001600160a01b0382163314156113fa5760405162461bcd60e51b815260206004820152601960248201527f4552433732313a20617070726f766520746f2063616c6c6572000000000000006044820152606401610692565b3360008181526006602090815260408083206001600160a01b03871680855290835292819020805460ff191686151590811790915590519081529192917f17307eab39ab6107e8899845ad3d59bd9653f200f220920489ca2b5937696c31910160405180910390a35050565b600d805461147390612c2c565b80601f016020809104026020016040519081016040528092919081815260200182805461149f90612c2c565b80156114ec5780601f106114c1576101008083540402835291602001916114ec565b820191906000526020600020905b8154815290600101906020018083116114cf57829003601f168201915b505050505081565b6114ff335b8361195c565b61151b5760405162461bcd60e51b815260040161069290612b1a565b61152784848484611ef0565b50505050565b600081604051602001611540919061263a565b6040516020818303038152906040528051906020012083604051602001611567919061263a565b6040516020818303038152906040528051906020012014905092915050565b6000818152600a602052604090206001015460609061160e906115a890611d75565b6000848152600a60205260409020600201546115c390611d75565b6000858152600a60205260409020600101546115de90611d75565b6000868152600a60205260409020600201546115f990611d75565b87604051602001610b839594939291906126c5565b60405160200161161e91906129c4565b604051602081830303815290604052905092915050565b6000818152600360205260409020546060906001600160a01b03166116b45760405162461bcd60e51b815260206004820152602f60248201527f4552433732314d657461646174613a2055524920717565727920666f72206e6f60448201526e3732bc34b9ba32b73a103a37b5b2b760891b6064820152608401610692565b60006116c18360006107cd565b905060006116ce82610b31565b90506116da8185611586565b949350505050565b6116eb336114f9565b6117075760405162461bcd60e51b815260040161069290612b1a565b600c546000838152600e6020526040902054429161172491612b6b565b10156117725760405162461bcd60e51b815260206004820152601d60248201527f54696d652773207570206f6e206368616e67696e6720636f6c6f7273210000006044820152606401610692565b6000828152600a6020908152604090912082516107c8926003909201918401906121a5565b6008546001600160a01b031633146117c15760405162461bcd60e51b815260040161069290612ae5565b6001600160a01b0381166118265760405162461bcd60e51b815260206004820152602660248201527f4f776e61626c653a206e6577206f776e657220697320746865207a65726f206160448201526564647265737360d01b6064820152608401610692565b61182f81611e9e565b50565b600a60205260009081526040902080546001820154600283015460038401805460ff808616966101009096041694919061186b90612c2c565b80601f016020809104026020016040519081016040528092919081815260200182805461189790612c2c565b80156118e45780601f106118b9576101008083540402835291602001916118e4565b820191906000526020600020905b8154815290600101906020018083116118c757829003601f168201915b5050505050905085565b600081815260056020526040902080546001600160a01b0319166001600160a01b038416908117909155819061192382610f46565b6001600160a01b03167f8c5be1e5ebec7d5bd14f71427d1e84f3dd0314c0f7b2291e5b200ac8c7c3b92560405160405180910390a45050565b6000818152600360205260408120546001600160a01b03166119d55760405162461bcd60e51b815260206004820152602c60248201527f4552433732313a206f70657261746f7220717565727920666f72206e6f6e657860448201526b34b9ba32b73a103a37b5b2b760a11b6064820152608401610692565b60006119e083610f46565b9050806001600160a01b0316846001600160a01b03161480611a1b5750836001600160a01b0316611a108461061d565b6001600160a01b0316145b806116da57506001600160a01b0380821660009081526006602090815260408083209388168352929052205460ff166116da565b826001600160a01b0316611a6282610f46565b6001600160a01b031614611aca5760405162461bcd60e51b815260206004820152602960248201527f4552433732313a207472616e73666572206f6620746f6b656e2074686174206960448201526839903737ba1037bbb760b91b6064820152608401610692565b6001600160a01b038216611b2c5760405162461bcd60e51b8152602060048201526024808201527f4552433732313a207472616e7366657220746f20746865207a65726f206164646044820152637265737360e01b6064820152608401610692565b611b376000826118ee565b6001600160a01b0383166000908152600460205260408120805460019290611b60908490612be9565b90915550506001600160a01b0382166000908152600460205260408120805460019290611b8e908490612b6b565b909155505060008181526003602052604080822080546001600160a01b0319166001600160a01b0386811691821790925591518493918716917fddf252ad1be2c89b69c2b068fc378daa952ba7f163c4a11628f55a4df523b3ef91a4505050565b6060815160001415611c0f57505060408051602081019091526000815290565b6000604051806060016040528060408152602001612d3b6040913990506000600384516002611c3e9190612b6b565b611c489190612ba8565b611c53906004612bca565b90506000611c62826020612b6b565b67ffffffffffffffff811115611c7a57611c7a612cae565b6040519080825280601f01601f191660200182016040528015611ca4576020820181803683370190505b509050818152600183018586518101602084015b81831015611d125760039283018051603f601282901c811687015160f890811b8552600c83901c8216880151811b6001860152600683901c8216880151811b60028601529116860151901b93820193909352600401611cb8565b600389510660018114611d2c5760028114611d3d57611d49565b613d3d60f01b600119830152611d49565b603d60f81b6000198301525b509398975050505050505050565b611d71828260405180602001604052806000815250611f23565b5050565b606081611d995750506040805180820190915260018152600360fc1b602082015290565b8160005b8115611dc35780611dad81612c67565b9150611dbc9050600a83612ba8565b9150611d9d565b60008167ffffffffffffffff811115611dde57611dde612cae565b6040519080825280601f01601f191660200182016040528015611e08576020820181803683370190505b509050815b8515611e9557611e1e600182612be9565b90506000611e2d600a88612ba8565b611e3890600a612bca565b611e429088612be9565b611e4d906030612b83565b905060008160f81b905080848481518110611e6a57611e6a612c98565b60200101906001600160f81b031916908160001a905350611e8c600a89612ba8565b97505050611e0d565b50949350505050565b600880546001600160a01b038381166001600160a01b0319831681179093556040519116919082907f8be0079c531659141344cd1fd0a4f28419497f9722a3daafe3b4186f6b6457e090600090a35050565b611efb848484611a4f565b611f0784848484611f56565b6115275760405162461bcd60e51b815260040161069290612a93565b611f2d8383612063565b611f3a6000848484611f56565b6107c85760405162461bcd60e51b815260040161069290612a93565b60006001600160a01b0384163b1561205857604051630a85bd0160e11b81526001600160a01b0385169063150b7a0290611f9a903390899088908890600401612a09565b602060405180830381600087803b158015611fb457600080fd5b505af1925050508015611fe4575060408051601f3d908101601f19168201909252611fe19181019061247e565b60015b61203e573d808015612012576040519150601f19603f3d011682016040523d82523d6000602084013e612017565b606091505b5080516120365760405162461bcd60e51b815260040161069290612a93565b805181602001fd5b6001600160e01b031916630a85bd0160e11b1490506116da565b506001949350505050565b6001600160a01b0382166120b95760405162461bcd60e51b815260206004820181905260248201527f4552433732313a206d696e7420746f20746865207a65726f20616464726573736044820152606401610692565b6000818152600360205260409020546001600160a01b03161561211e5760405162461bcd60e51b815260206004820152601c60248201527f4552433732313a20746f6b656e20616c7265616479206d696e746564000000006044820152606401610692565b6001600160a01b0382166000908152600460205260408120805460019290612147908490612b6b565b909155505060008181526003602052604080822080546001600160a01b0319166001600160a01b03861690811790915590518392907fddf252ad1be2c89b69c2b068fc378daa952ba7f163c4a11628f55a4df523b3ef908290a45050565b8280546121b190612c2c565b90600052602060002090601f0160209004810192826121d35760008555612219565b82601f106121ec57805160ff1916838001178555612219565b82800160010185558215612219579182015b828111156122195782518255916020019190600101906121fe565b50612225929150612229565b5090565b5b80821115612225576000815560010161222a565b600067ffffffffffffffff8084111561225957612259612cae565b604051601f8501601f19908116603f0116810190828211818310171561228157612281612cae565b8160405280935085815286868601111561229a57600080fd5b858560208301376000602087830101525050509392505050565b80356001600160a01b03811681146122cb57600080fd5b919050565b803580151581146122cb57600080fd5b600082601f8301126122f157600080fd5b6123008383356020850161223e565b9392505050565b60006020828403121561231957600080fd5b612300826122b4565b6000806040838503121561233557600080fd5b61233e836122b4565b915061234c602084016122b4565b90509250929050565b60008060006060848603121561236a57600080fd5b612373846122b4565b9250612381602085016122b4565b9150604084013590509250925092565b600080600080608085870312156123a757600080fd5b6123b0856122b4565b93506123be602086016122b4565b925060408501359150606085013567ffffffffffffffff8111156123e157600080fd5b8501601f810187136123f257600080fd5b6124018782356020840161223e565b91505092959194509250565b6000806040838503121561242057600080fd5b612429836122b4565b915061234c602084016122d0565b6000806040838503121561244a57600080fd5b612453836122b4565b946020939093013593505050565b60006020828403121561247357600080fd5b813561230081612cc4565b60006020828403121561249057600080fd5b815161230081612cc4565b6000602082840312156124ad57600080fd5b813567ffffffffffffffff8111156124c457600080fd5b6116da848285016122e0565b600080604083850312156124e357600080fd5b823567ffffffffffffffff808211156124fb57600080fd5b612507868387016122e0565b9350602085013591508082111561251d57600080fd5b5061252a858286016122e0565b9150509250929050565b6000806040838503121561254757600080fd5b823567ffffffffffffffff81111561255e57600080fd5b61256a858286016122e0565b95602094909401359450505050565b60006020828403121561258b57600080fd5b5035919050565b600080604083850312156125a557600080fd5b8235915061234c602084016122d0565b600080604083850312156125c857600080fd5b82359150602083013567ffffffffffffffff8111156125e657600080fd5b61252a858286016122e0565b6000815180845261260a816020860160208601612c00565b601f01601f19169290920160200192915050565b60008151612630818560208601612c00565b9290920192915050565b6000825161264c818460208701612c00565b9190910192915050565b60008351612668818460208801612c00565b83519083019061267c818360208801612c00565b01949350505050565b60008351612697818460208801612c00565b8351908301906126ab818360208801612c00565b651e17b9bb339f60d11b9101908152600601949350505050565b683d913730b6b2911d1160b91b815285516000906126ea816009850160208b01612c00565b61016160f51b600991840191820152865161270c81600b840160208b01612c00565b7f222c20226465736372697074696f6e223a224120506978656c20666f7220616e600b92909101918201527f204e46546174222c202261747472696275746573223a205b7b2274726169745f602b8201527f74797065223a2022786c6f636174696f6e222c202276616c7565223a20000000604b8201528551612796816068840160208a01612c00565b7f7d2c207b2274726169745f74797065223a2022796c6f636174696f6e222c2022606892909101918201526703b30b63ab2911d160c51b60888201526128156128076128016127e8609085018961261e565b6c3eae96101134b6b0b3b2911d1160991b8152600d0190565b8661261e565b61227d60f01b815260020190565b98975050505050505050565b67272066696c6c3d2760c01b815260008251612844816008850160208701612c00565b61013960f51b6008939091019283015250600a01919050565b6701e31b4b931b632960c51b815260008351612880816008850160208801612c00565b7f2063783d27343530272063793d273435302720723d27343530272066696c6c3d600891840191820152602760f81b602882015283516128c7816029840160208801612c00565b631390179f60e11b60299290910191820152602d01949350505050565b6701e31b4b931b632960c51b81526000865160206129088260088601838c01612c00565b642063783d2760d81b600892850192830152875161292c81600d8501848c01612c00565b65272063793d2760d01b600d939091019283015286516129528160138501848b01612c00565b642720723d2760d81b6013939091019283015285516129778160188501848a01612c00565b67272066696c6c3d2760c01b60189390910192830152845161299e81838501848901612c00565b6129b68282850101631390179f60e11b815260040190565b9a9950505050505050505050565b7f646174613a6170706c69636174696f6e2f6a736f6e3b6261736536342c0000008152600082516129fc81601d850160208701612c00565b91909101601d0192915050565b6001600160a01b0385811682528416602082015260408101839052608060608201819052600090612a3c908301846125f2565b9695505050505050565b8515158152841515602082015283604082015282606082015260a060808201526000612a7560a08301846125f2565b979650505050505050565b60208152600061230060208301846125f2565b60208082526032908201527f4552433732313a207472616e7366657220746f206e6f6e20455243373231526560408201527131b2b4bb32b91034b6b83632b6b2b73a32b960711b606082015260800190565b6020808252818101527f4f776e61626c653a2063616c6c6572206973206e6f7420746865206f776e6572604082015260600190565b60208082526031908201527f4552433732313a207472616e736665722063616c6c6572206973206e6f74206f6040820152701ddb995c881b9bdc88185c1c1c9bdd9959607a1b606082015260800190565b60008219821115612b7e57612b7e612c82565b500190565b600060ff821660ff84168060ff03821115612ba057612ba0612c82565b019392505050565b600082612bc557634e487b7160e01b600052601260045260246000fd5b500490565b6000816000190483118215151615612be457612be4612c82565b500290565b600082821015612bfb57612bfb612c82565b500390565b60005b83811015612c1b578181015183820152602001612c03565b838111156115275750506000910152565b600181811c90821680612c4057607f821691505b60208210811415612c6157634e487b7160e01b600052602260045260246000fd5b50919050565b6000600019821415612c7b57612c7b612c82565b5060010190565b634e487b7160e01b600052601160045260246000fd5b634e487b7160e01b600052603260045260246000fd5b634e487b7160e01b600052604160045260246000fd5b6001600160e01b03198116811461182f57600080fdfe3c73766720786d6c6e733d27687474703a2f2f7777772e77332e6f72672f323030302f73766727206865696768743d27393030272077696474683d2739303027207374796c653d276261636b67726f756e642d636f6c6f723a626c61636b273e4142434445464748494a4b4c4d4e4f505152535455565758595a6162636465666768696a6b6c6d6e6f707172737475767778797a303132333435363738392b2fa26469706673582212206e90d469a14a301fbbd4c999a4e218f08c52a2299ed89be5ced459db9e6eebfa64736f6c63430008070033","bytecodeSha1":"0d5840badf6cac9fe3231e3a377355a237ca34ec","compiler":{"evm_version":"istanbul","optimizer":{"enabled":true,"runs":200},"version":"0.8.7+commit.e28d00a7"},"contractName":"NFTat","language":"Solidity","natspec":{"kind":"dev","methods":{"approve(address,uint256)":{"details":"See {IERC721-approve}."},"balanceOf(address)":{"details":"See {IERC721-balanceOf}."},"getApproved(uint256)":{"details":"See {IERC721-getApproved}."},"isApprovedForAll(address,address)":{"details":"See {IERC721-isApprovedForAll}."},"name()":{"details":"See {IERC721Metadata-name}."},"owner()":{"details":"Returns the address of the current owner."},"ownerOf(uint256)":{"details":"See {IERC721-ownerOf}."},"renounceOwnership()":{"details":"Leaves the contract without owner. It will not be possible to call `onlyOwner` functions anymore. Can only be called by the current owner. NOTE: Renouncing ownership will leave the contract without an owner, thereby removing any functionality that is only available to the owner."},"safeTransferFrom(address,address,uint256)":{"details":"See {IERC721-safeTransferFrom}."},"safeTransferFrom(address,address,uint256,bytes)":{"details":"See {IERC721-safeTransferFrom}."},"setApprovalForAll(address,bool)":{"details":"See {IERC721-setApprovalForAll}."},"stakeTat()":{"notice":"Create Tatoo Staker"},"supportsInterface(bytes4)":{"details":"See {IERC165-supportsInterface}."},"symbol()":{"details":"See {IERC721Metadata-symbol}."},"tokenURI(uint256)":{"details":"See {IERC721Metadata-tokenURI}."},"transferFrom(address,address,uint256)":{"details":"See {IERC721-transferFrom}."},"transferOwnership(address)":{"details":"Transfers ownership of the contract to a new account (`newOwner`). Can only be called by the current owner."}},"version":1},"opcodes":"PUSH1 0x80 PUSH1 0x40 MSTORE PUSH1 0x4 CALLDATASIZE LT PUSH2 0x1EE JUMPI PUSH1 0x0 CALLDATALOAD PUSH1 0xE0 SHR DUP1 PUSH4 0x6352211E GT PUSH2 0x10D JUMPI DUP1 PUSH4 0xA6038169 GT PUSH2 0xA0 JUMPI DUP1 PUSH4 0xC87B56DD GT PUSH2 0x6F JUMPI DUP1 PUSH4 0xC87B56DD EQ PUSH2 0x5C0 JUMPI DUP1 PUSH4 0xDD3DD8EB EQ PUSH2 0x5E0 JUMPI DUP1 PUSH4 0xE985E9C5 EQ PUSH2 0x5E8 JUMPI DUP1 PUSH4 0xF2FDE38B EQ PUSH2 0x631 JUMPI DUP1 PUSH4 0xFD68990A EQ PUSH2 0x651 JUMPI PUSH1 0x0 DUP1 REVERT JUMPDEST DUP1 PUSH4 0xA6038169 EQ PUSH2 0x533 JUMPI DUP1 PUSH4 0xB88D4FDE EQ PUSH2 0x560 JUMPI DUP1 PUSH4 0xBE985AC9 EQ PUSH2 0x580 JUMPI DUP1 PUSH4 0xBED34BBA EQ PUSH2 0x5A0 JUMPI PUSH1 0x0 DUP1 REVERT JUMPDEST DUP1 PUSH4 0x857718D9 GT PUSH2 0xDC JUMPI DUP1 PUSH4 0x857718D9 EQ PUSH2 0x475 JUMPI DUP1 PUSH4 0x8DA5CB5B EQ PUSH2 0x4E0 JUMPI DUP1 PUSH4 0x95D89B41 EQ PUSH2 0x4FE JUMPI DUP1 PUSH4 0xA22CB465 EQ PUSH2 0x513 JUMPI PUSH1 0x0 DUP1 REVERT JUMPDEST DUP1 PUSH4 0x6352211E EQ PUSH2 0x400 JUMPI DUP1 PUSH4 0x6FDCA5E0 EQ PUSH2 0x420 JUMPI DUP1 PUSH4 0x70A08231 EQ PUSH2 0x440 JUMPI DUP1 PUSH4 0x715018A6 EQ PUSH2 0x460 JUMPI PUSH1 0x0 DUP1 REVERT JUMPDEST DUP1 PUSH4 0x29ADDF09 GT PUSH2 0x185 JUMPI DUP1 PUSH4 0x42842E0E GT PUSH2 0x154 JUMPI DUP1 PUSH4 0x42842E0E EQ PUSH2 0x38A JUMPI DUP1 PUSH4 0x4C7F25B4 EQ PUSH2 0x3AA JUMPI DUP1 PUSH4 0x56029272 EQ PUSH2 0x3CA JUMPI DUP1 PUSH4 0x56074CBA EQ PUSH2 0x3EA JUMPI PUSH1 0x0 DUP1 REVERT JUMPDEST DUP1 PUSH4 0x29ADDF09 EQ PUSH2 0x31E JUMPI DUP1 PUSH4 0x30D871C6 EQ PUSH2 0x334 JUMPI DUP1 PUSH4 0x3EBACCDB EQ PUSH2 0x354 JUMPI DUP1 PUSH4 0x4088093F EQ PUSH2 0x36A JUMPI PUSH1 0x0 DUP1 REVERT JUMPDEST DUP1 PUSH4 0x95EA7B3 GT PUSH2 0x1C1 JUMPI DUP1 PUSH4 0x95EA7B3 EQ PUSH2 0x2A6 JUMPI DUP1 PUSH4 0xECA5990 EQ PUSH2 0x2C8 JUMPI DUP1 PUSH4 0x1CFB86C9 EQ PUSH2 0x2DE JUMPI DUP1 PUSH4 0x23B872DD EQ PUSH2 0x2FE JUMPI PUSH1 0x0 DUP1 REVERT JUMPDEST DUP1 PUSH4 0x1FFC9A7 EQ PUSH2 0x1F3 JUMPI DUP1 PUSH4 0x34C9C13 EQ PUSH2 0x228 JUMPI DUP1 PUSH4 0x6FDDE03 EQ PUSH2 0x24C JUMPI DUP1 PUSH4 0x81812FC EQ PUSH2 0x26E JUMPI JUMPDEST PUSH1 0x0 DUP1 REVERT JUMPDEST CALLVALUE DUP1 ISZERO PUSH2 0x1FF JUMPI PUSH1 0x0 DUP1 REVERT JUMPDEST POP PUSH2 0x213 PUSH2 0x20E CALLDATASIZE PUSH1 0x4 PUSH2 0x24C2 JUMP JUMPDEST PUSH2 0x671 JUMP JUMPDEST PUSH1 0x40 MLOAD SWAP1 ISZERO ISZERO DUP2 MSTORE PUSH1 0x20 ADD JUMPDEST PUSH1 0x40 MLOAD DUP1 SWAP2 SUB SWAP1 RETURN JUMPDEST CALLVALUE DUP1 ISZERO PUSH2 0x234 JUMPI PUSH1 0x0 DUP1 REVERT JUMPDEST POP PUSH2 0x23E PUSH1 0x13 SLOAD DUP2 JUMP JUMPDEST PUSH1 0x40 MLOAD SWAP1 DUP2 MSTORE PUSH1 0x20 ADD PUSH2 0x21F JUMP JUMPDEST CALLVALUE DUP1 ISZERO PUSH2 0x258 JUMPI PUSH1 0x0 DUP1 REVERT JUMPDEST POP PUSH2 0x261 PUSH2 0x6C3 JUMP JUMPDEST PUSH1 0x40 MLOAD PUSH2 0x21F SWAP2 SWAP1 PUSH2 0x2A04 JUMP JUMPDEST CALLVALUE DUP1 ISZERO PUSH2 0x27A JUMPI PUSH1 0x0 DUP1 REVERT JUMPDEST POP PUSH2 0x28E PUSH2 0x289 CALLDATASIZE PUSH1 0x4 PUSH2 0x2484 JUMP JUMPDEST PUSH2 0x755 JUMP JUMPDEST PUSH1 0x40 MLOAD PUSH1 0x1 PUSH1 0x1 PUSH1 0xA0 SHL SUB SWAP1 SWAP2 AND DUP2 MSTORE PUSH1 0x20 ADD PUSH2 0x21F JUMP JUMPDEST CALLVALUE DUP1 ISZERO PUSH2 0x2B2 JUMPI PUSH1 0x0 DUP1 REVERT JUMPDEST POP PUSH2 0x2C6 PUSH2 0x2C1 CALLDATASIZE PUSH1 0x4 PUSH2 0x2420 JUMP JUMPDEST PUSH2 0x7EF JUMP JUMPDEST STOP JUMPDEST CALLVALUE DUP1 ISZERO PUSH2 0x2D4 JUMPI PUSH1 0x0 DUP1 REVERT JUMPDEST POP PUSH2 0x23E PUSH1 0x17 SLOAD DUP2 JUMP JUMPDEST CALLVALUE DUP1 ISZERO PUSH2 0x2EA JUMPI PUSH1 0x0 DUP1 REVERT JUMPDEST POP PUSH1 0x16 SLOAD PUSH2 0x28E SWAP1 PUSH1 0x1 PUSH1 0x1 PUSH1 0xA0 SHL SUB AND DUP2 JUMP JUMPDEST CALLVALUE DUP1 ISZERO PUSH2 0x30A JUMPI PUSH1 0x0 DUP1 REVERT JUMPDEST POP PUSH2 0x2C6 PUSH2 0x319 CALLDATASIZE PUSH1 0x4 PUSH2 0x2331 JUMP JUMPDEST PUSH2 0x905 JUMP JUMPDEST CALLVALUE DUP1 ISZERO PUSH2 0x32A JUMPI PUSH1 0x0 DUP1 REVERT JUMPDEST POP PUSH2 0x23E PUSH1 0x10 SLOAD DUP2 JUMP JUMPDEST CALLVALUE DUP1 ISZERO PUSH2 0x340 JUMPI PUSH1 0x0 DUP1 REVERT JUMPDEST POP PUSH2 0x261 PUSH2 0x34F CALLDATASIZE PUSH1 0x4 PUSH2 0x24FC JUMP JUMPDEST PUSH2 0x936 JUMP JUMPDEST CALLVALUE DUP1 ISZERO PUSH2 0x360 JUMPI PUSH1 0x0 DUP1 REVERT JUMPDEST POP PUSH2 0x23E PUSH1 0xF SLOAD DUP2 JUMP JUMPDEST CALLVALUE DUP1 ISZERO PUSH2 0x376 JUMPI PUSH1 0x0 DUP1 REVERT JUMPDEST POP PUSH2 0x23E PUSH2 0x385 CALLDATASIZE PUSH1 0x4 PUSH2 0x2484 JUMP JUMPDEST PUSH2 0x9C9 JUMP JUMPDEST CALLVALUE DUP1 ISZERO PUSH2 0x396 JUMPI PUSH1 0x0 DUP1 REVERT JUMPDEST POP PUSH2 0x2C6 PUSH2 0x3A5 CALLDATASIZE PUSH1 0x4 PUSH2 0x2331 JUMP JUMPDEST PUSH2 0xAB2 JUMP JUMPDEST CALLVALUE DUP1 ISZERO PUSH2 0x3B6 JUMPI PUSH1 0x0 DUP1 REVERT JUMPDEST POP PUSH1 0x11 SLOAD PUSH2 0x28E SWAP1 PUSH1 0x1 PUSH1 0x1 PUSH1 0xA0 SHL SUB AND DUP2 JUMP JUMPDEST CALLVALUE DUP1 ISZERO PUSH2 0x3D6 JUMPI PUSH1 0x0 DUP1 REVERT JUMPDEST POP PUSH2 0x261 PUSH2 0x3E5 CALLDATASIZE PUSH1 0x4 PUSH2 0x259F JUMP JUMPDEST PUSH2 0xACD JUMP JUMPDEST CALLVALUE DUP1 ISZERO PUSH2 0x3F6 JUMPI PUSH1 0x0 DUP1 REVERT JUMPDEST POP PUSH2 0x23E PUSH1 0x12 SLOAD DUP2 JUMP JUMPDEST CALLVALUE DUP1 ISZERO PUSH2 0x40C JUMPI PUSH1 0x0 DUP1 REVERT JUMPDEST POP PUSH2 0x28E PUSH2 0x41B CALLDATASIZE PUSH1 0x4 PUSH2 0x2484 JUMP JUMPDEST PUSH2 0xB0C JUMP JUMPDEST CALLVALUE DUP1 ISZERO PUSH2 0x42C JUMPI PUSH1 0x0 DUP1 REVERT JUMPDEST POP PUSH2 0x2C6 PUSH2 0x43B CALLDATASIZE PUSH1 0x4 PUSH2 0x244A JUMP JUMPDEST PUSH2 0xB83 JUMP JUMPDEST CALLVALUE DUP1 ISZERO PUSH2 0x44C JUMPI PUSH1 0x0 DUP1 REVERT JUMPDEST POP PUSH2 0x23E PUSH2 0x45B CALLDATASIZE PUSH1 0x4 PUSH2 0x22E3 JUMP JUMPDEST PUSH2 0xBC0 JUMP JUMPDEST CALLVALUE DUP1 ISZERO PUSH2 0x46C JUMPI PUSH1 0x0 DUP1 REVERT JUMPDEST POP PUSH2 0x2C6 PUSH2 0xC47 JUMP JUMPDEST CALLVALUE DUP1 ISZERO PUSH2 0x481 JUMPI PUSH1 0x0 DUP1 REVERT JUMPDEST POP PUSH2 0x4BC PUSH2 0x490 CALLDATASIZE PUSH1 0x4 PUSH2 0x2484 JUMP JUMPDEST PUSH1 0x18 PUSH1 0x20 MSTORE PUSH1 0x0 SWAP1 DUP2 MSTORE PUSH1 0x40 SWAP1 KECCAK256 DUP1 SLOAD PUSH1 0x1 SWAP1 SWAP2 ADD SLOAD PUSH1 0xFF DUP2 AND SWAP1 PUSH2 0x100 SWAP1 DIV PUSH1 0x1 PUSH1 0x1 PUSH1 0xA0 SHL SUB AND DUP4 JUMP JUMPDEST PUSH1 0x40 DUP1 MLOAD SWAP4 DUP5 MSTORE SWAP2 ISZERO ISZERO PUSH1 0x20 DUP5 ADD MSTORE PUSH1 0x1 PUSH1 0x1 PUSH1 0xA0 SHL SUB AND SWAP1 DUP3 ADD MSTORE PUSH1 0x60 ADD PUSH2 0x21F JUMP JUMPDEST CALLVALUE DUP1 ISZERO PUSH2 0x4EC JUMPI PUSH1 0x0 DUP1 REVERT JUMPDEST POP PUSH1 0x1 SLOAD PUSH1 0x1 PUSH1 0x1 PUSH1 0xA0 SHL SUB AND PUSH2 0x28E JUMP JUMPDEST CALLVALUE DUP1 ISZERO PUSH2 0x50A JUMPI PUSH1 0x0 DUP1 REVERT JUMPDEST POP PUSH2 0x261 PUSH2 0xC7D JUMP JUMPDEST CALLVALUE DUP1 ISZERO PUSH2 0x51F JUMPI PUSH1 0x0 DUP1 REVERT JUMPDEST POP PUSH2 0x2C6 PUSH2 0x52E CALLDATASIZE PUSH1 0x4 PUSH2 0x23E9 JUMP JUMPDEST PUSH2 0xC8C JUMP JUMPDEST CALLVALUE DUP1 ISZERO PUSH2 0x53F JUMPI PUSH1 0x0 DUP1 REVERT JUMPDEST POP PUSH2 0x23E PUSH2 0x54E CALLDATASIZE PUSH1 0x4 PUSH2 0x2484 JUMP JUMPDEST PUSH1 0x15 PUSH1 0x20 MSTORE PUSH1 0x0 SWAP1 DUP2 MSTORE PUSH1 0x40 SWAP1 KECCAK256 SLOAD DUP2 JUMP JUMPDEST CALLVALUE DUP1 ISZERO PUSH2 0x56C JUMPI PUSH1 0x0 DUP1 REVERT JUMPDEST POP PUSH2 0x2C6 PUSH2 0x57B CALLDATASIZE PUSH1 0x4 PUSH2 0x236D JUMP JUMPDEST PUSH2 0xD51 JUMP JUMPDEST CALLVALUE DUP1 ISZERO PUSH2 0x58C JUMPI PUSH1 0x0 DUP1 REVERT JUMPDEST POP PUSH2 0x261 PUSH2 0x59B CALLDATASIZE PUSH1 0x4 PUSH2 0x2484 JUMP JUMPDEST PUSH2 0xD89 JUMP JUMPDEST CALLVALUE DUP1 ISZERO PUSH2 0x5AC JUMPI PUSH1 0x0 DUP1 REVERT JUMPDEST POP PUSH2 0x213 PUSH2 0x5BB CALLDATASIZE PUSH1 0x4 PUSH2 0x259F JUMP JUMPDEST PUSH2 0x1233 JUMP JUMPDEST CALLVALUE DUP1 ISZERO PUSH2 0x5CC JUMPI PUSH1 0x0 DUP1 REVERT JUMPDEST POP PUSH2 0x261 PUSH2 0x5DB CALLDATASIZE PUSH1 0x4 PUSH2 0x2484 JUMP JUMPDEST PUSH2 0x128C JUMP JUMPDEST PUSH2 0x2C6 PUSH2 0x1319 JUMP JUMPDEST CALLVALUE DUP1 ISZERO PUSH2 0x5F4 JUMPI PUSH1 0x0 DUP1 REVERT JUMPDEST POP PUSH2 0x213 PUSH2 0x603 CALLDATASIZE PUSH1 0x4 PUSH2 0x22FE JUMP JUMPDEST PUSH1 0x1 PUSH1 0x1 PUSH1 0xA0 SHL SUB SWAP2 DUP3 AND PUSH1 0x0 SWAP1 DUP2 MSTORE PUSH1 0xD PUSH1 0x20 SWAP1 DUP2 MSTORE PUSH1 0x40 DUP1 DUP4 KECCAK256 SWAP4 SWAP1 SWAP5 AND DUP3 MSTORE SWAP2 SWAP1 SWAP2 MSTORE KECCAK256 SLOAD PUSH1 0xFF AND SWAP1 JUMP JUMPDEST CALLVALUE DUP1 ISZERO PUSH2 0x63D JUMPI PUSH1 0x0 DUP1 REVERT JUMPDEST POP PUSH2 0x2C6 PUSH2 0x64C CALLDATASIZE PUSH1 0x4 PUSH2 0x22E3 JUMP JUMPDEST PUSH2 0x1519 JUMP JUMPDEST CALLVALUE DUP1 ISZERO PUSH2 0x65D JUMPI PUSH1 0x0 DUP1 REVERT JUMPDEST POP PUSH2 0x2C6 PUSH2 0x66C CALLDATASIZE PUSH1 0x4 PUSH2 0x249D JUMP JUMPDEST PUSH2 0x15B4 JUMP JUMPDEST PUSH1 0x0 PUSH1 0x1 PUSH1 0x1 PUSH1 0xE0 SHL SUB NOT DUP3 AND PUSH4 0x80AC58CD PUSH1 0xE0 SHL EQ DUP1 PUSH2 0x6A2 JUMPI POP PUSH1 0x1 PUSH1 0x1 PUSH1 0xE0 SHL SUB NOT DUP3 AND PUSH4 0x5B5E139F PUSH1 0xE0 SHL EQ JUMPDEST DUP1 PUSH2 0x6BD JUMPI POP PUSH4 0x1FFC9A7 PUSH1 0xE0 SHL PUSH1 0x1 PUSH1 0x1 PUSH1 0xE0 SHL SUB NOT DUP4 AND EQ JUMPDEST SWAP3 SWAP2 POP POP JUMP JUMPDEST PUSH1 0x60 PUSH1 0x8 DUP1 SLOAD PUSH2 0x6D2 SWAP1 PUSH2 0x2BD6 JUMP JUMPDEST DUP1 PUSH1 0x1F ADD PUSH1 0x20 DUP1 SWAP2 DIV MUL PUSH1 0x20 ADD PUSH1 0x40 MLOAD SWAP1 DUP2 ADD PUSH1 0x40 MSTORE DUP1 SWAP3 SWAP2 SWAP1 DUP2 DUP2 MSTORE PUSH1 0x20 ADD DUP3 DUP1 SLOAD PUSH2 0x6FE SWAP1 PUSH2 0x2BD6 JUMP JUMPDEST DUP1 ISZERO PUSH2 0x74B JUMPI DUP1 PUSH1 0x1F LT PUSH2 0x720 JUMPI PUSH2 0x100 DUP1 DUP4 SLOAD DIV MUL DUP4 MSTORE SWAP2 PUSH1 0x20 ADD SWAP2 PUSH2 0x74B JUMP JUMPDEST DUP3 ADD SWAP2 SWAP1 PUSH1 0x0 MSTORE PUSH1 0x20 PUSH1 0x0 KECCAK256 SWAP1 JUMPDEST DUP2 SLOAD DUP2 MSTORE SWAP1 PUSH1 0x1 ADD SWAP1 PUSH1 0x20 ADD DUP1 DUP4 GT PUSH2 0x72E JUMPI DUP3 SWAP1 SUB PUSH1 0x1F AND DUP3 ADD SWAP2 JUMPDEST POP POP POP POP POP SWAP1 POP SWAP1 JUMP JUMPDEST PUSH1 0x0 DUP2 DUP2 MSTORE PUSH1 0xA PUSH1 0x20 MSTORE PUSH1 0x40 DUP2 KECCAK256 SLOAD PUSH1 0x1 PUSH1 0x1 PUSH1 0xA0 SHL SUB AND PUSH2 0x7D3 JUMPI PUSH1 0x40 MLOAD PUSH3 0x461BCD PUSH1 0xE5 SHL DUP2 MSTORE PUSH1 0x20 PUSH1 0x4 DUP3 ADD MSTORE PUSH1 0x2C PUSH1 0x24 DUP3 ADD MSTORE PUSH32 0x4552433732313A20617070726F76656420717565727920666F72206E6F6E6578 PUSH1 0x44 DUP3 ADD MSTORE PUSH12 0x34B9BA32B73A103A37B5B2B7 PUSH1 0xA1 SHL PUSH1 0x64 DUP3 ADD MSTORE PUSH1 0x84 ADD JUMPDEST PUSH1 0x40 MLOAD DUP1 SWAP2 SUB SWAP1 REVERT JUMPDEST POP PUSH1 0x0 SWAP1 DUP2 MSTORE PUSH1 0xC PUSH1 0x20 MSTORE PUSH1 0x40 SWAP1 KECCAK256 SLOAD PUSH1 0x1 PUSH1 0x1 PUSH1 0xA0 SHL SUB AND SWAP1 JUMP JUMPDEST PUSH1 0x0 PUSH2 0x7FA DUP3 PUSH2 0xB0C JUMP JUMPDEST SWAP1 POP DUP1 PUSH1 0x1 PUSH1 0x1 PUSH1 0xA0 SHL SUB AND DUP4 PUSH1 0x1 PUSH1 0x1 PUSH1 0xA0 SHL SUB AND EQ ISZERO PUSH2 0x868 JUMPI PUSH1 0x40 MLOAD PUSH3 0x461BCD PUSH1 0xE5 SHL DUP2 MSTORE PUSH1 0x20 PUSH1 0x4 DUP3 ADD MSTORE PUSH1 0x21 PUSH1 0x24 DUP3 ADD MSTORE PUSH32 0x4552433732313A20617070726F76616C20746F2063757272656E74206F776E65 PUSH1 0x44 DUP3 ADD MSTORE PUSH1 0x39 PUSH1 0xF9 SHL PUSH1 0x64 DUP3 ADD MSTORE PUSH1 0x84 ADD PUSH2 0x7CA JUMP JUMPDEST CALLER PUSH1 0x1 PUSH1 0x1 PUSH1 0xA0 SHL SUB DUP3 AND EQ DUP1 PUSH2 0x884 JUMPI POP PUSH2 0x884 DUP2 CALLER PUSH2 0x603 JUMP JUMPDEST PUSH2 0x8F6 JUMPI PUSH1 0x40 MLOAD PUSH3 0x461BCD PUSH1 0xE5 SHL DUP2 MSTORE PUSH1 0x20 PUSH1 0x4 DUP3 ADD MSTORE PUSH1 0x38 PUSH1 0x24 DUP3 ADD MSTORE PUSH32 0x4552433732313A20617070726F76652063616C6C6572206973206E6F74206F77 PUSH1 0x44 DUP3 ADD MSTORE PUSH32 0x6E6572206E6F7220617070726F76656420666F7220616C6C0000000000000000 PUSH1 0x64 DUP3 ADD MSTORE PUSH1 0x84 ADD PUSH2 0x7CA JUMP JUMPDEST PUSH2 0x900 DUP4 DUP4 PUSH2 0x17B6 JUMP JUMPDEST POP POP POP JUMP JUMPDEST PUSH2 0x90F CALLER DUP3 PUSH2 0x1824 JUMP JUMPDEST PUSH2 0x92B JUMPI PUSH1 0x40 MLOAD PUSH3 0x461BCD PUSH1 0xE5 SHL DUP2 MSTORE PUSH1 0x4 ADD PUSH2 0x7CA SWAP1 PUSH2 0x2A9E JUMP JUMPDEST PUSH2 0x900 DUP4 DUP4 DUP4 PUSH2 0x191B JUMP JUMPDEST PUSH1 0x60 PUSH1 0x0 PUSH1 0x40 MLOAD DUP1 PUSH1 0x40 ADD PUSH1 0x40 MSTORE DUP1 PUSH1 0x1A DUP2 MSTORE PUSH1 0x20 ADD PUSH32 0x646174613A696D6167652F7376672B786D6C3B6261736536342C000000000000 DUP2 MSTORE POP SWAP1 POP PUSH1 0x0 PUSH2 0x99C DUP5 PUSH1 0x40 MLOAD PUSH1 0x20 ADD PUSH2 0x988 SWAP2 SWAP1 PUSH2 0x262F JUMP JUMPDEST PUSH1 0x40 MLOAD PUSH1 0x20 DUP2 DUP4 SUB SUB DUP2 MSTORE SWAP1 PUSH1 0x40 MSTORE PUSH2 0x1ABB JUMP JUMPDEST SWAP1 POP DUP2 DUP2 PUSH1 0x40 MLOAD PUSH1 0x20 ADD PUSH2 0x9B1 SWAP3 SWAP2 SWAP1 PUSH2 0x264B JUMP JUMPDEST PUSH1 0x40 MLOAD PUSH1 0x20 DUP2 DUP4 SUB SUB DUP2 MSTORE SWAP1 PUSH1 0x40 MSTORE SWAP3 POP POP POP SWAP2 SWAP1 POP JUMP JUMPDEST PUSH1 0x1 SLOAD PUSH1 0x0 SWAP1 PUSH1 0x1 PUSH1 0x1 PUSH1 0xA0 SHL SUB AND CALLER EQ PUSH2 0x9F6 JUMPI PUSH1 0x40 MLOAD PUSH3 0x461BCD PUSH1 0xE5 SHL DUP2 MSTORE PUSH1 0x4 ADD PUSH2 0x7CA SWAP1 PUSH2 0x2A69 JUMP JUMPDEST PUSH1 0x0 DUP3 DUP2 MSTORE PUSH1 0x18 PUSH1 0x20 MSTORE PUSH1 0x40 SWAP1 KECCAK256 PUSH1 0x1 ADD SLOAD PUSH1 0xFF AND PUSH2 0xA65 JUMPI PUSH1 0x40 MLOAD PUSH3 0x461BCD PUSH1 0xE5 SHL DUP2 MSTORE PUSH1 0x20 PUSH1 0x4 DUP3 ADD MSTORE PUSH1 0x25 PUSH1 0x24 DUP3 ADD MSTORE PUSH32 0x5468697320706572736F6E2068617320616C7265616479206265656E20746174 PUSH1 0x44 DUP3 ADD MSTORE PUSH5 0x746F6F6421 PUSH1 0xD8 SHL PUSH1 0x64 DUP3 ADD MSTORE PUSH1 0x84 ADD PUSH2 0x7CA JUMP JUMPDEST PUSH1 0x0 PUSH2 0xA7B PUSH1 0x10 SLOAD ADDRESS PUSH4 0xFD68990A PUSH1 0xE0 SHL PUSH2 0x1C23 JUMP JUMPDEST PUSH1 0x11 SLOAD PUSH1 0x12 SLOAD SWAP2 SWAP3 POP PUSH2 0xA9B SWAP2 PUSH1 0x1 PUSH1 0x1 PUSH1 0xA0 SHL SUB SWAP1 SWAP2 AND SWAP1 DUP4 SWAP1 PUSH2 0x1C48 JUMP JUMPDEST POP POP PUSH1 0x0 DUP2 DUP2 MSTORE PUSH1 0x15 PUSH1 0x20 MSTORE PUSH1 0x40 SWAP1 KECCAK256 SWAP2 SWAP1 SWAP2 SSTORE SWAP1 JUMP JUMPDEST PUSH2 0x900 DUP4 DUP4 DUP4 PUSH1 0x40 MLOAD DUP1 PUSH1 0x20 ADD PUSH1 0x40 MSTORE DUP1 PUSH1 0x0 DUP2 MSTORE POP PUSH2 0xD51 JUMP JUMPDEST PUSH1 0x60 PUSH2 0xAE5 DUP3 DUP5 PUSH1 0x40 MLOAD PUSH1 0x20 ADD PUSH2 0x988 SWAP3 SWAP2 SWAP1 PUSH2 0x27BE JUMP JUMPDEST PUSH1 0x40 MLOAD PUSH1 0x20 ADD PUSH2 0xAF5 SWAP2 SWAP1 PUSH2 0x28F3 JUMP JUMPDEST PUSH1 0x40 MLOAD PUSH1 0x20 DUP2 DUP4 SUB SUB DUP2 MSTORE SWAP1 PUSH1 0x40 MSTORE SWAP1 POP SWAP3 SWAP2 POP POP JUMP JUMPDEST PUSH1 0x0 DUP2 DUP2 MSTORE PUSH1 0xA PUSH1 0x20 MSTORE PUSH1 0x40 DUP2 KECCAK256 SLOAD PUSH1 0x1 PUSH1 0x1 PUSH1 0xA0 SHL SUB AND DUP1 PUSH2 0x6BD JUMPI PUSH1 0x40 MLOAD PUSH3 0x461BCD PUSH1 0xE5 SHL DUP2 MSTORE PUSH1 0x20 PUSH1 0x4 DUP3 ADD MSTORE PUSH1 0x29 PUSH1 0x24 DUP3 ADD MSTORE PUSH32 0x4552433732313A206F776E657220717565727920666F72206E6F6E6578697374 PUSH1 0x44 DUP3 ADD MSTORE PUSH9 0x32B73A103A37B5B2B7 PUSH1 0xB9 SHL PUSH1 0x64 DUP3 ADD MSTORE PUSH1 0x84 ADD PUSH2 0x7CA JUMP JUMPDEST PUSH1 0x1 SLOAD PUSH1 0x1 PUSH1 0x1 PUSH1 0xA0 SHL SUB AND CALLER EQ PUSH2 0xBAD JUMPI PUSH1 0x40 MLOAD PUSH3 0x461BCD PUSH1 0xE5 SHL DUP2 MSTORE PUSH1 0x4 ADD PUSH2 0x7CA SWAP1 PUSH2 0x2A69 JUMP JUMPDEST PUSH1 0x14 DUP1 SLOAD PUSH1 0xFF NOT AND SWAP2 ISZERO ISZERO SWAP2 SWAP1 SWAP2 OR SWAP1 SSTORE JUMP JUMPDEST PUSH1 0x0 PUSH1 0x1 PUSH1 0x1 PUSH1 0xA0 SHL SUB DUP3 AND PUSH2 0xC2B JUMPI PUSH1 0x40 MLOAD PUSH3 0x461BCD PUSH1 0xE5 SHL DUP2 MSTORE PUSH1 0x20 PUSH1 0x4 DUP3 ADD MSTORE PUSH1 0x2A PUSH1 0x24 DUP3 ADD MSTORE PUSH32 0x4552433732313A2062616C616E636520717565727920666F7220746865207A65 PUSH1 0x44 DUP3 ADD MSTORE PUSH10 0x726F2061646472657373 PUSH1 0xB0 SHL PUSH1 0x64 DUP3 ADD MSTORE PUSH1 0x84 ADD PUSH2 0x7CA JUMP JUMPDEST POP PUSH1 0x1 PUSH1 0x1 PUSH1 0xA0 SHL SUB AND PUSH1 0x0 SWAP1 DUP2 MSTORE PUSH1 0xB PUSH1 0x20 MSTORE PUSH1 0x40 SWAP1 KECCAK256 SLOAD SWAP1 JUMP JUMPDEST PUSH1 0x1 SLOAD PUSH1 0x1 PUSH1 0x1 PUSH1 0xA0 SHL SUB AND CALLER EQ PUSH2 0xC71 JUMPI PUSH1 0x40 MLOAD PUSH3 0x461BCD PUSH1 0xE5 SHL DUP2 MSTORE PUSH1 0x4 ADD PUSH2 0x7CA SWAP1 PUSH2 0x2A69 JUMP JUMPDEST PUSH2 0xC7B PUSH1 0x0 PUSH2 0x1C5F JUMP JUMPDEST JUMP JUMPDEST PUSH1 0x60 PUSH1 0x9 DUP1 SLOAD PUSH2 0x6D2 SWAP1 PUSH2 0x2BD6 JUMP JUMPDEST PUSH1 0x1 PUSH1 0x1 PUSH1 0xA0 SHL SUB DUP3 AND CALLER EQ ISZERO PUSH2 0xCE5 JUMPI PUSH1 0x40 MLOAD PUSH3 0x461BCD PUSH1 0xE5 SHL DUP2 MSTORE PUSH1 0x20 PUSH1 0x4 DUP3 ADD MSTORE PUSH1 0x19 PUSH1 0x24 DUP3 ADD MSTORE PUSH32 0x4552433732313A20617070726F766520746F2063616C6C657200000000000000 PUSH1 0x44 DUP3 ADD MSTORE PUSH1 0x64 ADD PUSH2 0x7CA JUMP JUMPDEST CALLER PUSH1 0x0 DUP2 DUP2 MSTORE PUSH1 0xD PUSH1 0x20 SWAP1 DUP2 MSTORE PUSH1 0x40 DUP1 DUP4 KECCAK256 PUSH1 0x1 PUSH1 0x1 PUSH1 0xA0 SHL SUB DUP8 AND DUP1 DUP6 MSTORE SWAP1 DUP4 MSTORE SWAP3 DUP2 SWAP1 KECCAK256 DUP1 SLOAD PUSH1 0xFF NOT AND DUP7 ISZERO ISZERO SWAP1 DUP2 OR SWAP1 SWAP2 SSTORE SWAP1 MLOAD SWAP1 DUP2 MSTORE SWAP2 SWAP3 SWAP2 PUSH32 0x17307EAB39AB6107E8899845AD3D59BD9653F200F220920489CA2B5937696C31 SWAP2 ADD PUSH1 0x40 MLOAD DUP1 SWAP2 SUB SWAP1 LOG3 POP POP JUMP JUMPDEST PUSH2 0xD5B CALLER DUP4 PUSH2 0x1824 JUMP JUMPDEST PUSH2 0xD77 JUMPI PUSH1 0x40 MLOAD PUSH3 0x461BCD PUSH1 0xE5 SHL DUP2 MSTORE PUSH1 0x4 ADD PUSH2 0x7CA SWAP1 PUSH2 0x2A9E JUMP JUMPDEST PUSH2 0xD83 DUP5 DUP5 DUP5 DUP5 PUSH2 0x1CB1 JUMP JUMPDEST POP POP POP POP JUMP JUMPDEST PUSH1 0x60 PUSH1 0x0 PUSH1 0x40 MLOAD DUP1 PUSH1 0x80 ADD PUSH1 0x40 MSTORE DUP1 PUSH1 0x41 DUP2 MSTORE PUSH1 0x20 ADD PUSH2 0x2CE7 PUSH1 0x41 SWAP2 CODECOPY PUSH1 0x40 DUP1 MLOAD DUP1 DUP3 ADD DUP3 MSTORE PUSH1 0x1F DUP2 MSTORE PUSH32 0x7374796C653D276261636B67726F756E642D636F6C6F723A626C61636B273E00 PUSH1 0x20 DUP1 DUP4 ADD SWAP2 SWAP1 SWAP2 MSTORE DUP3 MLOAD DUP1 DUP3 ADD DUP5 MSTORE PUSH1 0x0 DUP1 DUP3 MSTORE DUP5 MLOAD DUP1 DUP5 ADD DUP7 MSTORE DUP2 DUP2 MSTORE DUP6 MLOAD DUP1 DUP8 ADD SWAP1 SWAP7 MSTORE PUSH1 0x6 DUP7 MSTORE PUSH6 0x1E17B9BB339F PUSH1 0xD1 SHL SWAP4 DUP7 ADD SWAP4 SWAP1 SWAP4 MSTORE SWAP5 SWAP6 POP SWAP2 SWAP4 SWAP2 SWAP3 SWAP1 SWAP2 PUSH1 0x1 SWAP1 PUSH2 0xE27 DUP10 PUSH1 0xE3 PUSH2 0x2B74 JUMP JUMPDEST SWAP1 POP JUMPDEST PUSH2 0xE35 DUP10 PUSH1 0xE3 PUSH2 0x2B74 JUMP JUMPDEST PUSH2 0xE40 SWAP1 PUSH1 0xE3 PUSH2 0x2B48 JUMP JUMPDEST DUP2 LT ISZERO PUSH2 0x11FD JUMPI PUSH1 0x16 SLOAD PUSH1 0x40 MLOAD PUSH4 0x6AB98B85 PUSH1 0xE1 SHL DUP2 MSTORE PUSH1 0x4 DUP2 ADD DUP4 SWAP1 MSTORE PUSH1 0x1 PUSH1 0x1 PUSH1 0xA0 SHL SUB SWAP1 SWAP2 AND SWAP1 PUSH4 0xD573170A SWAP1 PUSH1 0x24 ADD PUSH1 0x20 PUSH1 0x40 MLOAD DUP1 DUP4 SUB DUP2 DUP7 DUP1 EXTCODESIZE ISZERO DUP1 ISZERO PUSH2 0xE8B JUMPI PUSH1 0x0 DUP1 REVERT JUMPDEST POP GAS STATICCALL ISZERO DUP1 ISZERO PUSH2 0xE9F JUMPI RETURNDATASIZE PUSH1 0x0 DUP1 RETURNDATACOPY RETURNDATASIZE PUSH1 0x0 REVERT JUMPDEST POP POP POP POP PUSH1 0x40 MLOAD RETURNDATASIZE PUSH1 0x1F NOT PUSH1 0x1F DUP3 ADD AND DUP3 ADD DUP1 PUSH1 0x40 MSTORE POP DUP2 ADD SWAP1 PUSH2 0xEC3 SWAP2 SWAP1 PUSH2 0x2467 JUMP JUMPDEST ISZERO PUSH2 0x1030 JUMPI PUSH1 0x16 SLOAD PUSH1 0x40 MLOAD PUSH4 0x4002BDCD PUSH1 0xE1 SHL DUP2 MSTORE PUSH1 0x4 DUP2 ADD DUP4 SWAP1 MSTORE PUSH2 0xF71 SWAP2 PUSH1 0x1 PUSH1 0x1 PUSH1 0xA0 SHL SUB AND SWAP1 PUSH4 0x80057B9A SWAP1 PUSH1 0x24 ADD PUSH1 0x0 PUSH1 0x40 MLOAD DUP1 DUP4 SUB DUP2 DUP7 DUP1 EXTCODESIZE ISZERO DUP1 ISZERO PUSH2 0xF0E JUMPI PUSH1 0x0 DUP1 REVERT JUMPDEST POP GAS STATICCALL ISZERO DUP1 ISZERO PUSH2 0xF22 JUMPI RETURNDATASIZE PUSH1 0x0 DUP1 RETURNDATACOPY RETURNDATASIZE PUSH1 0x0 REVERT JUMPDEST POP POP POP POP PUSH1 0x40 MLOAD RETURNDATASIZE PUSH1 0x0 DUP3 RETURNDATACOPY PUSH1 0x1F RETURNDATASIZE SWAP1 DUP2 ADD PUSH1 0x1F NOT AND DUP3 ADD PUSH1 0x40 MSTORE PUSH2 0xF4A SWAP2 SWAP1 DUP2 ADD SWAP1 PUSH2 0x2531 JUMP JUMPDEST PUSH1 0x40 MLOAD DUP1 PUSH1 0x40 ADD PUSH1 0x40 MSTORE DUP1 PUSH1 0x9 DUP2 MSTORE PUSH1 0x20 ADD PUSH9 0x677261797363616C65 PUSH1 0xB8 SHL DUP2 MSTORE POP PUSH2 0x1233 JUMP JUMPDEST PUSH2 0x101F JUMPI PUSH1 0x16 SLOAD PUSH1 0x40 MLOAD PUSH4 0x4002BDCD PUSH1 0xE1 SHL DUP2 MSTORE PUSH1 0x4 DUP2 ADD DUP4 SWAP1 MSTORE PUSH1 0x0 SWAP4 POP PUSH1 0x1 PUSH1 0x1 PUSH1 0xA0 SHL SUB SWAP1 SWAP2 AND SWAP1 PUSH4 0x80057B9A SWAP1 PUSH1 0x24 ADD PUSH1 0x0 PUSH1 0x40 MLOAD DUP1 DUP4 SUB DUP2 DUP7 DUP1 EXTCODESIZE ISZERO DUP1 ISZERO PUSH2 0xFBD JUMPI PUSH1 0x0 DUP1 REVERT JUMPDEST POP GAS STATICCALL ISZERO DUP1 ISZERO PUSH2 0xFD1 JUMPI RETURNDATASIZE PUSH1 0x0 DUP1 RETURNDATACOPY RETURNDATASIZE PUSH1 0x0 REVERT JUMPDEST POP POP POP POP PUSH1 0x40 MLOAD RETURNDATASIZE PUSH1 0x0 DUP3 RETURNDATACOPY PUSH1 0x1F RETURNDATASIZE SWAP1 DUP2 ADD PUSH1 0x1F NOT AND DUP3 ADD PUSH1 0x40 MSTORE PUSH2 0xFF9 SWAP2 SWAP1 DUP2 ADD SWAP1 PUSH2 0x2531 JUMP JUMPDEST PUSH1 0x40 MLOAD PUSH1 0x20 ADD PUSH2 0x1009 SWAP2 SWAP1 PUSH2 0x28A2 JUMP JUMPDEST PUSH1 0x40 MLOAD PUSH1 0x20 DUP2 DUP4 SUB SUB DUP2 MSTORE SWAP1 PUSH1 0x40 MSTORE SWAP6 POP PUSH2 0x11EB JUMP JUMPDEST DUP6 PUSH1 0x40 MLOAD PUSH1 0x20 ADD PUSH2 0x1009 SWAP2 SWAP1 PUSH2 0x26E5 JUMP JUMPDEST PUSH1 0x16 SLOAD PUSH1 0x40 MLOAD PUSH4 0x16D7188F PUSH1 0xE0 SHL DUP2 MSTORE PUSH1 0x4 DUP2 ADD DUP4 SWAP1 MSTORE PUSH1 0x1 PUSH1 0x1 PUSH1 0xA0 SHL SUB SWAP1 SWAP2 AND SWAP1 PUSH4 0x16D7188F SWAP1 PUSH1 0x24 ADD PUSH1 0x20 PUSH1 0x40 MLOAD DUP1 DUP4 SUB DUP2 DUP7 DUP1 EXTCODESIZE ISZERO DUP1 ISZERO PUSH2 0x1074 JUMPI PUSH1 0x0 DUP1 REVERT JUMPDEST POP GAS STATICCALL ISZERO DUP1 ISZERO PUSH2 0x1088 JUMPI RETURNDATASIZE PUSH1 0x0 DUP1 RETURNDATACOPY RETURNDATASIZE PUSH1 0x0 REVERT JUMPDEST POP POP POP POP PUSH1 0x40 MLOAD RETURNDATASIZE PUSH1 0x1F NOT PUSH1 0x1F DUP3 ADD AND DUP3 ADD DUP1 PUSH1 0x40 MSTORE POP DUP2 ADD SWAP1 PUSH2 0x10AC SWAP2 SWAP1 PUSH2 0x2467 JUMP JUMPDEST ISZERO PUSH2 0x1140 JUMPI PUSH1 0x16 SLOAD PUSH1 0x40 MLOAD PUSH4 0x2124BDB7 PUSH1 0xE0 SHL DUP2 MSTORE PUSH1 0x4 DUP2 ADD DUP4 SWAP1 MSTORE DUP4 ISZERO ISZERO PUSH1 0x24 DUP3 ADD MSTORE PUSH1 0x1 PUSH1 0x1 PUSH1 0xA0 SHL SUB SWAP1 SWAP2 AND SWAP1 PUSH4 0x2124BDB7 SWAP1 PUSH1 0x44 ADD PUSH1 0x0 PUSH1 0x40 MLOAD DUP1 DUP4 SUB DUP2 DUP7 DUP1 EXTCODESIZE ISZERO DUP1 ISZERO PUSH2 0x10FD JUMPI PUSH1 0x0 DUP1 REVERT JUMPDEST POP GAS STATICCALL ISZERO DUP1 ISZERO PUSH2 0x1111 JUMPI RETURNDATASIZE PUSH1 0x0 DUP1 RETURNDATACOPY RETURNDATASIZE PUSH1 0x0 REVERT JUMPDEST POP POP POP POP PUSH1 0x40 MLOAD RETURNDATASIZE PUSH1 0x0 DUP3 RETURNDATACOPY PUSH1 0x1F RETURNDATASIZE SWAP1 DUP2 ADD PUSH1 0x1F NOT AND DUP3 ADD PUSH1 0x40 MSTORE PUSH2 0x1139 SWAP2 SWAP1 DUP2 ADD SWAP1 PUSH2 0x2531 JUMP JUMPDEST SWAP5 POP PUSH2 0x11EB JUMP JUMPDEST PUSH1 0x16 SLOAD PUSH1 0x40 MLOAD PUSH4 0x6DE0D89B PUSH1 0xE0 SHL DUP2 MSTORE PUSH1 0x4 DUP2 ADD DUP4 SWAP1 MSTORE DUP4 ISZERO ISZERO PUSH1 0x24 DUP3 ADD MSTORE DUP6 SWAP2 PUSH1 0x1 PUSH1 0x1 PUSH1 0xA0 SHL SUB AND SWAP1 PUSH4 0x6DE0D89B SWAP1 PUSH1 0x44 ADD PUSH1 0x0 PUSH1 0x40 MLOAD DUP1 DUP4 SUB DUP2 DUP7 DUP1 EXTCODESIZE ISZERO DUP1 ISZERO PUSH2 0x118C JUMPI PUSH1 0x0 DUP1 REVERT JUMPDEST POP GAS STATICCALL ISZERO DUP1 ISZERO PUSH2 0x11A0 JUMPI RETURNDATASIZE PUSH1 0x0 DUP1 RETURNDATACOPY RETURNDATASIZE PUSH1 0x0 REVERT JUMPDEST POP POP POP POP PUSH1 0x40 MLOAD RETURNDATASIZE PUSH1 0x0 DUP3 RETURNDATACOPY PUSH1 0x1F RETURNDATASIZE SWAP1 DUP2 ADD PUSH1 0x1F NOT AND DUP3 ADD PUSH1 0x40 MSTORE PUSH2 0x11C8 SWAP2 SWAP1 DUP2 ADD SWAP1 PUSH2 0x2531 JUMP JUMPDEST PUSH1 0x40 MLOAD PUSH1 0x20 ADD PUSH2 0x11D9 SWAP3 SWAP2 SWAP1 PUSH2 0x264B JUMP JUMPDEST PUSH1 0x40 MLOAD PUSH1 0x20 DUP2 DUP4 SUB SUB DUP2 MSTORE SWAP1 PUSH1 0x40 MSTORE SWAP4 POP JUMPDEST DUP1 PUSH2 0x11F5 DUP2 PUSH2 0x2C11 JUMP JUMPDEST SWAP2 POP POP PUSH2 0xE2A JUMP JUMPDEST POP DUP6 DUP6 DUP6 DUP6 DUP6 PUSH1 0x40 MLOAD PUSH1 0x20 ADD PUSH2 0x1217 SWAP6 SWAP5 SWAP4 SWAP3 SWAP2 SWAP1 PUSH2 0x267A JUMP JUMPDEST PUSH1 0x40 MLOAD PUSH1 0x20 DUP2 DUP4 SUB SUB DUP2 MSTORE SWAP1 PUSH1 0x40 MSTORE SWAP7 POP POP POP POP POP POP POP SWAP2 SWAP1 POP JUMP JUMPDEST PUSH1 0x0 DUP2 PUSH1 0x40 MLOAD PUSH1 0x20 ADD PUSH2 0x1246 SWAP2 SWAP1 PUSH2 0x262F JUMP JUMPDEST PUSH1 0x40 MLOAD PUSH1 0x20 DUP2 DUP4 SUB SUB DUP2 MSTORE SWAP1 PUSH1 0x40 MSTORE DUP1 MLOAD SWAP1 PUSH1 0x20 ADD KECCAK256 DUP4 PUSH1 0x40 MLOAD PUSH1 0x20 ADD PUSH2 0x126D SWAP2 SWAP1 PUSH2 0x262F JUMP JUMPDEST PUSH1 0x40 MLOAD PUSH1 0x20 DUP2 DUP4 SUB SUB DUP2 MSTORE SWAP1 PUSH1 0x40 MSTORE DUP1 MLOAD SWAP1 PUSH1 0x20 ADD KECCAK256 EQ SWAP1 POP SWAP3 SWAP2 POP POP JUMP JUMPDEST PUSH1 0x60 PUSH1 0x0 PUSH2 0x1299 DUP4 PUSH2 0xD89 JUMP JUMPDEST PUSH1 0x0 DUP5 DUP2 MSTORE PUSH1 0x18 PUSH1 0x20 MSTORE PUSH1 0x40 SWAP1 KECCAK256 PUSH1 0x1 ADD SLOAD SWAP1 SWAP2 POP PUSH1 0xFF AND PUSH2 0x12EB JUMPI PUSH2 0x12E4 PUSH2 0x12C1 DUP3 PUSH2 0x936 JUMP JUMPDEST PUSH1 0x40 MLOAD DUP1 PUSH1 0x40 ADD PUSH1 0x40 MSTORE DUP1 PUSH1 0x5 DUP2 MSTORE PUSH1 0x20 ADD PUSH5 0x66616C7365 PUSH1 0xD8 SHL DUP2 MSTORE POP PUSH2 0xACD JUMP JUMPDEST SWAP4 SWAP3 POP POP POP JUMP JUMPDEST PUSH2 0x12E4 PUSH2 0x12F7 DUP3 PUSH2 0x936 JUMP JUMPDEST PUSH1 0x40 MLOAD DUP1 PUSH1 0x40 ADD PUSH1 0x40 MSTORE DUP1 PUSH1 0x4 DUP2 MSTORE PUSH1 0x20 ADD PUSH4 0x74727565 PUSH1 0xE0 SHL DUP2 MSTORE POP PUSH2 0xACD JUMP JUMPDEST PUSH1 0x2 PUSH1 0x0 SLOAD EQ ISZERO PUSH2 0x136C JUMPI PUSH1 0x40 MLOAD PUSH3 0x461BCD PUSH1 0xE5 SHL DUP2 MSTORE PUSH1 0x20 PUSH1 0x4 DUP3 ADD MSTORE PUSH1 0x1F PUSH1 0x24 DUP3 ADD MSTORE PUSH32 0x5265656E7472616E637947756172643A207265656E7472616E742063616C6C00 PUSH1 0x44 DUP3 ADD MSTORE PUSH1 0x64 ADD PUSH2 0x7CA JUMP JUMPDEST PUSH1 0x2 PUSH1 0x0 SSTORE PUSH1 0x1 SLOAD PUSH1 0x1 PUSH1 0x1 PUSH1 0xA0 SHL SUB AND CALLER EQ DUP1 PUSH2 0x138C JUMPI POP PUSH1 0x14 SLOAD PUSH1 0xFF AND JUMPDEST PUSH2 0x13D0 JUMPI PUSH1 0x40 MLOAD PUSH3 0x461BCD PUSH1 0xE5 SHL DUP2 MSTORE PUSH1 0x20 PUSH1 0x4 DUP3 ADD MSTORE PUSH1 0x15 PUSH1 0x24 DUP3 ADD MSTORE PUSH21 0x5374696C6C20696E20626574612C20736F72727921 PUSH1 0x58 SHL PUSH1 0x44 DUP3 ADD MSTORE PUSH1 0x64 ADD PUSH2 0x7CA JUMP JUMPDEST PUSH1 0xF SLOAD CALLVALUE LT ISZERO PUSH2 0x1431 JUMPI PUSH1 0x40 MLOAD PUSH3 0x461BCD PUSH1 0xE5 SHL DUP2 MSTORE PUSH1 0x20 PUSH1 0x4 DUP3 ADD MSTORE PUSH1 0x26 PUSH1 0x24 DUP3 ADD MSTORE PUSH32 0x596F75206469646E27742073656E6420656E6F75676820657468657220746F20 PUSH1 0x44 DUP3 ADD MSTORE PUSH6 0x7374616B6521 PUSH1 0xD0 SHL PUSH1 0x64 DUP3 ADD MSTORE PUSH1 0x84 ADD PUSH2 0x7CA JUMP JUMPDEST PUSH1 0x40 DUP1 MLOAD PUSH1 0x60 DUP2 ADD DUP3 MSTORE CALLVALUE DUP2 MSTORE PUSH1 0x0 PUSH1 0x20 DUP1 DUP4 ADD DUP3 DUP2 MSTORE CALLER DUP5 DUP7 ADD DUP2 DUP2 MSTORE PUSH1 0x13 SLOAD DUP6 MSTORE PUSH1 0x18 SWAP1 SWAP4 MSTORE SWAP3 DUP6 SWAP1 KECCAK256 DUP5 MLOAD DUP2 SSTORE SWAP1 MLOAD PUSH1 0x1 SWAP1 SWAP2 ADD DUP1 SLOAD SWAP3 MLOAD PUSH1 0x1 PUSH1 0x1 PUSH1 0xA8 SHL SUB NOT SWAP1 SWAP4 AND SWAP2 ISZERO ISZERO PUSH2 0x100 PUSH1 0x1 PUSH1 0xA8 SHL SUB NOT AND SWAP2 SWAP1 SWAP2 OR PUSH2 0x100 PUSH1 0x1 PUSH1 0x1 PUSH1 0xA0 SHL SUB SWAP4 DUP5 AND MUL OR SWAP1 SSTORE PUSH1 0x16 SLOAD SWAP4 MLOAD PUSH4 0x1FEEFEA3 PUSH1 0xE1 SHL DUP2 MSTORE PUSH1 0x4 DUP2 ADD SWAP3 SWAP1 SWAP3 MSTORE SWAP2 SWAP3 SWAP1 SWAP2 AND SWAP1 PUSH4 0x3FDDFD46 SWAP1 PUSH1 0x24 ADD PUSH1 0x0 PUSH1 0x40 MLOAD DUP1 DUP4 SUB DUP2 PUSH1 0x0 DUP8 DUP1 EXTCODESIZE ISZERO DUP1 ISZERO PUSH2 0x14DC JUMPI PUSH1 0x0 DUP1 REVERT JUMPDEST POP GAS CALL ISZERO DUP1 ISZERO PUSH2 0x14F0 JUMPI RETURNDATASIZE PUSH1 0x0 DUP1 RETURNDATACOPY RETURNDATASIZE PUSH1 0x0 REVERT JUMPDEST POP POP POP POP PUSH2 0x1500 CALLER PUSH1 0x13 SLOAD PUSH2 0x1CE4 JUMP JUMPDEST PUSH1 0x13 SLOAD PUSH2 0x150E SWAP1 PUSH1 0x1 PUSH2 0x2B48 JUMP JUMPDEST PUSH1 0x13 SSTORE POP PUSH1 0x1 PUSH1 0x0 SSTORE JUMP JUMPDEST PUSH1 0x1 SLOAD PUSH1 0x1 PUSH1 0x1 PUSH1 0xA0 SHL SUB AND CALLER EQ PUSH2 0x1543 JUMPI PUSH1 0x40 MLOAD PUSH3 0x461BCD PUSH1 0xE5 SHL DUP2 MSTORE PUSH1 0x4 ADD PUSH2 0x7CA SWAP1 PUSH2 0x2A69 JUMP JUMPDEST PUSH1 0x1 PUSH1 0x1 PUSH1 0xA0 SHL SUB DUP2 AND PUSH2 0x15A8 JUMPI PUSH1 0x40 MLOAD PUSH3 0x461BCD PUSH1 0xE5 SHL DUP2 MSTORE PUSH1 0x20 PUSH1 0x4 DUP3 ADD MSTORE PUSH1 0x26 PUSH1 0x24 DUP3 ADD MSTORE PUSH32 0x4F776E61626C653A206E6577206F776E657220697320746865207A65726F2061 PUSH1 0x44 DUP3 ADD MSTORE PUSH6 0x646472657373 PUSH1 0xD0 SHL PUSH1 0x64 DUP3 ADD MSTORE PUSH1 0x84 ADD PUSH2 0x7CA JUMP JUMPDEST PUSH2 0x15B1 DUP2 PUSH2 0x1C5F JUMP JUMPDEST POP JUMP JUMPDEST PUSH1 0x0 DUP3 DUP2 MSTORE PUSH1 0x7 PUSH1 0x20 MSTORE PUSH1 0x40 SWAP1 KECCAK256 SLOAD DUP3 SWAP1 PUSH1 0x1 PUSH1 0x1 PUSH1 0xA0 SHL SUB AND CALLER EQ PUSH2 0x162D JUMPI PUSH1 0x40 MLOAD PUSH3 0x461BCD PUSH1 0xE5 SHL DUP2 MSTORE PUSH1 0x20 PUSH1 0x4 DUP3 ADD MSTORE PUSH1 0x28 PUSH1 0x24 DUP3 ADD MSTORE PUSH32 0x536F75726365206D75737420626520746865206F7261636C65206F6620746865 PUSH1 0x44 DUP3 ADD MSTORE PUSH8 0x81C995C5D595CDD PUSH1 0xC2 SHL PUSH1 0x64 DUP3 ADD MSTORE PUSH1 0x84 ADD PUSH2 0x7CA JUMP JUMPDEST PUSH1 0x0 DUP2 DUP2 MSTORE PUSH1 0x7 PUSH1 0x20 MSTORE PUSH1 0x40 DUP1 DUP3 KECCAK256 DUP1 SLOAD PUSH1 0x1 PUSH1 0x1 PUSH1 0xA0 SHL SUB NOT AND SWAP1 SSTORE MLOAD DUP3 SWAP2 PUSH32 0x7CC135E0CEBB02C3480AE5D74D377283180A2601F8F644EDF7987B009316C63A SWAP2 LOG2 DUP2 PUSH2 0x16BD JUMPI PUSH1 0x40 MLOAD PUSH3 0x461BCD PUSH1 0xE5 SHL DUP2 MSTORE PUSH1 0x20 PUSH1 0x4 DUP3 ADD MSTORE PUSH1 0x1B PUSH1 0x24 DUP3 ADD MSTORE PUSH32 0x54686520706572736F6E20776173206E6F7420746174746F6F64210000000000 PUSH1 0x44 DUP3 ADD MSTORE PUSH1 0x64 ADD PUSH2 0x7CA JUMP JUMPDEST PUSH1 0x0 DUP4 DUP2 MSTORE PUSH1 0x15 PUSH1 0x20 SWAP1 DUP2 MSTORE PUSH1 0x40 DUP1 DUP4 KECCAK256 SLOAD DUP1 DUP5 MSTORE PUSH1 0x18 SWAP1 SWAP3 MSTORE DUP1 DUP4 KECCAK256 PUSH1 0x1 DUP2 ADD DUP1 SLOAD PUSH1 0xFF NOT DUP2 AND DUP9 ISZERO ISZERO OR SWAP1 SWAP2 SSTORE SWAP1 SLOAD SWAP2 MLOAD SWAP3 SWAP4 PUSH2 0x100 SWAP1 SWAP2 DIV PUSH1 0x1 PUSH1 0x1 PUSH1 0xA0 SHL SUB AND SWAP3 DUP4 SWAP1 DUP4 SWAP1 PUSH1 0x0 PUSH1 0x40 MLOAD DUP1 DUP4 SUB DUP2 DUP6 DUP8 GAS CALL SWAP3 POP POP POP RETURNDATASIZE DUP1 PUSH1 0x0 DUP2 EQ PUSH2 0x1743 JUMPI PUSH1 0x40 MLOAD SWAP2 POP PUSH1 0x1F NOT PUSH1 0x3F RETURNDATASIZE ADD AND DUP3 ADD PUSH1 0x40 MSTORE RETURNDATASIZE DUP3 MSTORE RETURNDATASIZE PUSH1 0x0 PUSH1 0x20 DUP5 ADD RETURNDATACOPY PUSH2 0x1748 JUMP JUMPDEST PUSH1 0x60 SWAP2 POP JUMPDEST POP POP SWAP1 POP DUP1 PUSH2 0x17AD JUMPI PUSH1 0x40 MLOAD PUSH3 0x461BCD PUSH1 0xE5 SHL DUP2 MSTORE PUSH1 0x20 PUSH1 0x4 DUP3 ADD MSTORE PUSH1 0x2B PUSH1 0x24 DUP3 ADD MSTORE PUSH32 0x596F7520646F6E2774206861766520656E6F75676820657468657220746F2070 PUSH1 0x44 DUP3 ADD MSTORE PUSH11 0x6179207468652066656521 PUSH1 0xA8 SHL PUSH1 0x64 DUP3 ADD MSTORE PUSH1 0x84 ADD PUSH2 0x7CA JUMP JUMPDEST POP POP POP POP POP POP POP JUMP JUMPDEST PUSH1 0x0 DUP2 DUP2 MSTORE PUSH1 0xC PUSH1 0x20 MSTORE PUSH1 0x40 SWAP1 KECCAK256 DUP1 SLOAD PUSH1 0x1 PUSH1 0x1 PUSH1 0xA0 SHL SUB NOT AND PUSH1 0x1 PUSH1 0x1 PUSH1 0xA0 SHL SUB DUP5 AND SWAP1 DUP2 OR SWAP1 SWAP2 SSTORE DUP2 SWAP1 PUSH2 0x17EB DUP3 PUSH2 0xB0C JUMP JUMPDEST PUSH1 0x1 PUSH1 0x1 PUSH1 0xA0 SHL SUB AND PUSH32 0x8C5BE1E5EBEC7D5BD14F71427D1E84F3DD0314C0F7B2291E5B200AC8C7C3B925 PUSH1 0x40 MLOAD PUSH1 0x40 MLOAD DUP1 SWAP2 SUB SWAP1 LOG4 POP POP JUMP JUMPDEST PUSH1 0x0 DUP2 DUP2 MSTORE PUSH1 0xA PUSH1 0x20 MSTORE PUSH1 0x40 DUP2 KECCAK256 SLOAD PUSH1 0x1 PUSH1 0x1 PUSH1 0xA0 SHL SUB AND PUSH2 0x189D JUMPI PUSH1 0x40 MLOAD PUSH3 0x461BCD PUSH1 0xE5 SHL DUP2 MSTORE PUSH1 0x20 PUSH1 0x4 DUP3 ADD MSTORE PUSH1 0x2C PUSH1 0x24 DUP3 ADD MSTORE PUSH32 0x4552433732313A206F70657261746F7220717565727920666F72206E6F6E6578 PUSH1 0x44 DUP3 ADD MSTORE PUSH12 0x34B9BA32B73A103A37B5B2B7 PUSH1 0xA1 SHL PUSH1 0x64 DUP3 ADD MSTORE PUSH1 0x84 ADD PUSH2 0x7CA JUMP JUMPDEST PUSH1 0x0 PUSH2 0x18A8 DUP4 PUSH2 0xB0C JUMP JUMPDEST SWAP1 POP DUP1 PUSH1 0x1 PUSH1 0x1 PUSH1 0xA0 SHL SUB AND DUP5 PUSH1 0x1 PUSH1 0x1 PUSH1 0xA0 SHL SUB AND EQ DUP1 PUSH2 0x18E3 JUMPI POP DUP4 PUSH1 0x1 PUSH1 0x1 PUSH1 0xA0 SHL SUB AND PUSH2 0x18D8 DUP5 PUSH2 0x755 JUMP JUMPDEST PUSH1 0x1 PUSH1 0x1 PUSH1 0xA0 SHL SUB AND EQ JUMPDEST DUP1 PUSH2 0x1913 JUMPI POP PUSH1 0x1 PUSH1 0x1 PUSH1 0xA0 SHL SUB DUP1 DUP3 AND PUSH1 0x0 SWAP1 DUP2 MSTORE PUSH1 0xD PUSH1 0x20 SWAP1 DUP2 MSTORE PUSH1 0x40 DUP1 DUP4 KECCAK256 SWAP4 DUP9 AND DUP4 MSTORE SWAP3 SWAP1 MSTORE KECCAK256 SLOAD PUSH1 0xFF AND JUMPDEST SWAP5 SWAP4 POP POP POP POP JUMP JUMPDEST DUP3 PUSH1 0x1 PUSH1 0x1 PUSH1 0xA0 SHL SUB AND PUSH2 0x192E DUP3 PUSH2 0xB0C JUMP JUMPDEST PUSH1 0x1 PUSH1 0x1 PUSH1 0xA0 SHL SUB AND EQ PUSH2 0x1996 JUMPI PUSH1 0x40 MLOAD PUSH3 0x461BCD PUSH1 0xE5 SHL DUP2 MSTORE PUSH1 0x20 PUSH1 0x4 DUP3 ADD MSTORE PUSH1 0x29 PUSH1 0x24 DUP3 ADD MSTORE PUSH32 0x4552433732313A207472616E73666572206F6620746F6B656E20746861742069 PUSH1 0x44 DUP3 ADD MSTORE PUSH9 0x39903737BA1037BBB7 PUSH1 0xB9 SHL PUSH1 0x64 DUP3 ADD MSTORE PUSH1 0x84 ADD PUSH2 0x7CA JUMP JUMPDEST PUSH1 0x1 PUSH1 0x1 PUSH1 0xA0 SHL SUB DUP3 AND PUSH2 0x19F8 JUMPI PUSH1 0x40 MLOAD PUSH3 0x461BCD PUSH1 0xE5 SHL DUP2 MSTORE PUSH1 0x20 PUSH1 0x4 DUP3 ADD MSTORE PUSH1 0x24 DUP1 DUP3 ADD MSTORE PUSH32 0x4552433732313A207472616E7366657220746F20746865207A65726F20616464 PUSH1 0x44 DUP3 ADD MSTORE PUSH4 0x72657373 PUSH1 0xE0 SHL PUSH1 0x64 DUP3 ADD MSTORE PUSH1 0x84 ADD PUSH2 0x7CA JUMP JUMPDEST PUSH2 0x1A03 PUSH1 0x0 DUP3 PUSH2 0x17B6 JUMP JUMPDEST PUSH1 0x1 PUSH1 0x1 PUSH1 0xA0 SHL SUB DUP4 AND PUSH1 0x0 SWAP1 DUP2 MSTORE PUSH1 0xB PUSH1 0x20 MSTORE PUSH1 0x40 DUP2 KECCAK256 DUP1 SLOAD PUSH1 0x1 SWAP3 SWAP1 PUSH2 0x1A2C SWAP1 DUP5 SWAP1 PUSH2 0x2B93 JUMP JUMPDEST SWAP1 SWAP2 SSTORE POP POP PUSH1 0x1 PUSH1 0x1 PUSH1 0xA0 SHL SUB DUP3 AND PUSH1 0x0 SWAP1 DUP2 MSTORE PUSH1 0xB PUSH1 0x20 MSTORE PUSH1 0x40 DUP2 KECCAK256 DUP1 SLOAD PUSH1 0x1 SWAP3 SWAP1 PUSH2 0x1A5A SWAP1 DUP5 SWAP1 PUSH2 0x2B48 JUMP JUMPDEST SWAP1 SWAP2 SSTORE POP POP PUSH1 0x0 DUP2 DUP2 MSTORE PUSH1 0xA PUSH1 0x20 MSTORE PUSH1 0x40 DUP1 DUP3 KECCAK256 DUP1 SLOAD PUSH1 0x1 PUSH1 0x1 PUSH1 0xA0 SHL SUB NOT AND PUSH1 0x1 PUSH1 0x1 PUSH1 0xA0 SHL SUB DUP7 DUP2 AND SWAP2 DUP3 OR SWAP1 SWAP3 SSTORE SWAP2 MLOAD DUP5 SWAP4 SWAP2 DUP8 AND SWAP2 PUSH32 0xDDF252AD1BE2C89B69C2B068FC378DAA952BA7F163C4A11628F55A4DF523B3EF SWAP2 LOG4 POP POP POP JUMP JUMPDEST PUSH1 0x60 DUP2 MLOAD PUSH1 0x0 EQ ISZERO PUSH2 0x1ADB JUMPI POP POP PUSH1 0x40 DUP1 MLOAD PUSH1 0x20 DUP2 ADD SWAP1 SWAP2 MSTORE PUSH1 0x0 DUP2 MSTORE SWAP1 JUMP JUMPDEST PUSH1 0x0 PUSH1 0x40 MLOAD DUP1 PUSH1 0x60 ADD PUSH1 0x40 MSTORE DUP1 PUSH1 0x40 DUP2 MSTORE PUSH1 0x20 ADD PUSH2 0x2CA7 PUSH1 0x40 SWAP2 CODECOPY SWAP1 POP PUSH1 0x0 PUSH1 0x3 DUP5 MLOAD PUSH1 0x2 PUSH2 0x1B0A SWAP2 SWAP1 PUSH2 0x2B48 JUMP JUMPDEST PUSH2 0x1B14 SWAP2 SWAP1 PUSH2 0x2B60 JUMP JUMPDEST PUSH2 0x1B1F SWAP1 PUSH1 0x4 PUSH2 0x2B74 JUMP JUMPDEST SWAP1 POP PUSH1 0x0 PUSH2 0x1B2E DUP3 PUSH1 0x20 PUSH2 0x2B48 JUMP JUMPDEST PUSH8 0xFFFFFFFFFFFFFFFF DUP2 GT ISZERO PUSH2 0x1B46 JUMPI PUSH2 0x1B46 PUSH2 0x2C6C JUMP JUMPDEST PUSH1 0x40 MLOAD SWAP1 DUP1 DUP3 MSTORE DUP1 PUSH1 0x1F ADD PUSH1 0x1F NOT AND PUSH1 0x20 ADD DUP3 ADD PUSH1 0x40 MSTORE DUP1 ISZERO PUSH2 0x1B70 JUMPI PUSH1 0x20 DUP3 ADD DUP2 DUP1 CALLDATASIZE DUP4 CALLDATACOPY ADD SWAP1 POP JUMPDEST POP SWAP1 POP DUP2 DUP2 MSTORE PUSH1 0x1 DUP4 ADD DUP6 DUP7 MLOAD DUP2 ADD PUSH1 0x20 DUP5 ADD JUMPDEST DUP2 DUP4 LT ISZERO PUSH2 0x1BDE JUMPI PUSH1 0x3 SWAP3 DUP4 ADD DUP1 MLOAD PUSH1 0x3F PUSH1 0x12 DUP3 SWAP1 SHR DUP2 AND DUP8 ADD MLOAD PUSH1 0xF8 SWAP1 DUP2 SHL DUP6 MSTORE PUSH1 0xC DUP4 SWAP1 SHR DUP3 AND DUP9 ADD MLOAD DUP2 SHL PUSH1 0x1 DUP7 ADD MSTORE PUSH1 0x6 DUP4 SWAP1 SHR DUP3 AND DUP9 ADD MLOAD DUP2 SHL PUSH1 0x2 DUP7 ADD MSTORE SWAP2 AND DUP7 ADD MLOAD SWAP1 SHL SWAP4 DUP3 ADD SWAP4 SWAP1 SWAP4 MSTORE PUSH1 0x4 ADD PUSH2 0x1B84 JUMP JUMPDEST PUSH1 0x3 DUP10 MLOAD MOD PUSH1 0x1 DUP2 EQ PUSH2 0x1BF8 JUMPI PUSH1 0x2 DUP2 EQ PUSH2 0x1C09 JUMPI PUSH2 0x1C15 JUMP JUMPDEST PUSH2 0x3D3D PUSH1 0xF0 SHL PUSH1 0x1 NOT DUP4 ADD MSTORE PUSH2 0x1C15 JUMP JUMPDEST PUSH1 0x3D PUSH1 0xF8 SHL PUSH1 0x0 NOT DUP4 ADD MSTORE JUMPDEST POP SWAP4 SWAP9 SWAP8 POP POP POP POP POP POP POP POP JUMP JUMPDEST PUSH2 0x1C2B PUSH2 0x222E JUMP JUMPDEST PUSH2 0x1C33 PUSH2 0x222E JUMP JUMPDEST PUSH2 0x1C3F DUP2 DUP7 DUP7 DUP7 PUSH2 0x1D02 JUMP JUMPDEST SWAP6 SWAP5 POP POP POP POP POP JUMP JUMPDEST PUSH1 0x0 PUSH2 0x1913 DUP5 DUP5 DUP5 PUSH1 0x1 PUSH4 0x20214CA3 PUSH1 0xE1 SHL PUSH2 0x1D3F JUMP JUMPDEST PUSH1 0x1 DUP1 SLOAD PUSH1 0x1 PUSH1 0x1 PUSH1 0xA0 SHL SUB DUP4 DUP2 AND PUSH1 0x1 PUSH1 0x1 PUSH1 0xA0 SHL SUB NOT DUP4 AND DUP2 OR SWAP1 SWAP4 SSTORE PUSH1 0x40 MLOAD SWAP2 AND SWAP2 SWAP1 DUP3 SWAP1 PUSH32 0x8BE0079C531659141344CD1FD0A4F28419497F9722A3DAAFE3B4186F6B6457E0 SWAP1 PUSH1 0x0 SWAP1 LOG3 POP POP JUMP JUMPDEST PUSH2 0x1CBC DUP5 DUP5 DUP5 PUSH2 0x191B JUMP JUMPDEST PUSH2 0x1CC8 DUP5 DUP5 DUP5 DUP5 PUSH2 0x1F4A JUMP JUMPDEST PUSH2 0xD83 JUMPI PUSH1 0x40 MLOAD PUSH3 0x461BCD PUSH1 0xE5 SHL DUP2 MSTORE PUSH1 0x4 ADD PUSH2 0x7CA SWAP1 PUSH2 0x2A17 JUMP JUMPDEST PUSH2 0x1CFE DUP3 DUP3 PUSH1 0x40 MLOAD DUP1 PUSH1 0x20 ADD PUSH1 0x40 MSTORE DUP1 PUSH1 0x0 DUP2 MSTORE POP PUSH2 0x2054 JUMP JUMPDEST POP POP JUMP JUMPDEST PUSH2 0x1D0A PUSH2 0x222E JUMP JUMPDEST PUSH2 0x1D1A DUP6 PUSH1 0x80 ADD MLOAD PUSH2 0x100 PUSH2 0x2087 JUMP JUMPDEST POP POP SWAP2 DUP4 MSTORE PUSH1 0x1 PUSH1 0x1 PUSH1 0xA0 SHL SUB AND PUSH1 0x20 DUP4 ADD MSTORE PUSH1 0x1 PUSH1 0x1 PUSH1 0xE0 SHL SUB NOT AND PUSH1 0x40 DUP3 ADD MSTORE SWAP1 JUMP JUMPDEST PUSH1 0x6 SLOAD PUSH1 0x40 MLOAD PUSH12 0xFFFFFFFFFFFFFFFFFFFFFFFF NOT ADDRESS PUSH1 0x60 SHL AND PUSH1 0x20 DUP3 ADD MSTORE PUSH1 0x34 DUP2 ADD SWAP2 SWAP1 SWAP2 MSTORE PUSH1 0x0 SWAP1 PUSH1 0x54 ADD PUSH1 0x40 DUP1 MLOAD DUP1 DUP4 SUB PUSH1 0x1F NOT ADD DUP2 MSTORE SWAP2 DUP2 MSTORE DUP2 MLOAD PUSH1 0x20 SWAP3 DUP4 ADD KECCAK256 PUSH1 0x6 SLOAD PUSH1 0x60 DUP10 ADD MSTORE PUSH1 0x0 DUP2 DUP2 MSTORE PUSH1 0x7 SWAP1 SWAP4 MSTORE DUP2 DUP4 KECCAK256 DUP1 SLOAD PUSH1 0x1 PUSH1 0x1 PUSH1 0xA0 SHL SUB NOT AND PUSH1 0x1 PUSH1 0x1 PUSH1 0xA0 SHL SUB DUP12 AND OR SWAP1 SSTORE SWAP1 MLOAD SWAP1 SWAP3 POP DUP3 SWAP2 PUSH32 0xB5E6E01E79F91267DC17B4E6314D5D4D03593D2CEEE0FBB452B750BD70EA5AF9 SWAP2 LOG2 PUSH1 0x0 DUP3 PUSH1 0x0 DUP1 DUP9 PUSH1 0x0 ADD MLOAD DUP10 PUSH1 0x20 ADD MLOAD DUP11 PUSH1 0x40 ADD MLOAD DUP12 PUSH1 0x60 ADD MLOAD DUP11 DUP14 PUSH1 0x80 ADD MLOAD PUSH1 0x0 ADD MLOAD PUSH1 0x40 MLOAD PUSH1 0x24 ADD PUSH2 0x1E16 SWAP9 SWAP8 SWAP7 SWAP6 SWAP5 SWAP4 SWAP3 SWAP2 SWAP1 PUSH2 0x2975 JUMP JUMPDEST PUSH1 0x40 DUP1 MLOAD PUSH1 0x1F NOT DUP2 DUP5 SUB ADD DUP2 MSTORE SWAP2 DUP2 MSTORE PUSH1 0x20 DUP3 ADD DUP1 MLOAD PUSH1 0x1 PUSH1 0x1 PUSH1 0xE0 SHL SUB AND PUSH1 0x1 PUSH1 0x1 PUSH1 0xE0 SHL SUB NOT SWAP1 SWAP5 AND SWAP4 SWAP1 SWAP4 OR SWAP1 SWAP3 MSTORE PUSH1 0x4 DUP1 SLOAD SWAP3 MLOAD PUSH4 0x2000575 PUSH1 0xE5 SHL DUP2 MSTORE SWAP2 SWAP4 POP PUSH1 0x1 PUSH1 0x1 PUSH1 0xA0 SHL SUB SWAP1 SWAP3 AND SWAP2 PUSH4 0x4000AEA0 SWAP2 PUSH2 0x1E7D SWAP2 DUP12 SWAP2 DUP11 SWAP2 DUP8 SWAP2 ADD PUSH2 0x29DD JUMP JUMPDEST PUSH1 0x20 PUSH1 0x40 MLOAD DUP1 DUP4 SUB DUP2 PUSH1 0x0 DUP8 DUP1 EXTCODESIZE ISZERO DUP1 ISZERO PUSH2 0x1E97 JUMPI PUSH1 0x0 DUP1 REVERT JUMPDEST POP GAS CALL ISZERO DUP1 ISZERO PUSH2 0x1EAB JUMPI RETURNDATASIZE PUSH1 0x0 DUP1 RETURNDATACOPY RETURNDATASIZE PUSH1 0x0 REVERT JUMPDEST POP POP POP POP PUSH1 0x40 MLOAD RETURNDATASIZE PUSH1 0x1F NOT PUSH1 0x1F DUP3 ADD AND DUP3 ADD DUP1 PUSH1 0x40 MSTORE POP DUP2 ADD SWAP1 PUSH2 0x1ECF SWAP2 SWAP1 PUSH2 0x2467 JUMP JUMPDEST PUSH2 0x1F27 JUMPI PUSH1 0x40 MLOAD PUSH3 0x461BCD PUSH1 0xE5 SHL DUP2 MSTORE PUSH1 0x20 PUSH1 0x4 DUP3 ADD MSTORE PUSH1 0x23 PUSH1 0x24 DUP3 ADD MSTORE PUSH32 0x756E61626C6520746F207472616E73666572416E6443616C6C20746F206F7261 PUSH1 0x44 DUP3 ADD MSTORE PUSH3 0x636C65 PUSH1 0xE8 SHL PUSH1 0x64 DUP3 ADD MSTORE PUSH1 0x84 ADD PUSH2 0x7CA JUMP JUMPDEST PUSH1 0x1 PUSH1 0x6 PUSH1 0x0 DUP3 DUP3 SLOAD PUSH2 0x1F3A SWAP2 SWAP1 PUSH2 0x2B48 JUMP JUMPDEST SWAP1 SWAP2 SSTORE POP SWAP2 SWAP8 SWAP7 POP POP POP POP POP POP POP JUMP JUMPDEST PUSH1 0x0 PUSH1 0x1 PUSH1 0x1 PUSH1 0xA0 SHL SUB DUP5 AND EXTCODESIZE ISZERO PUSH2 0x204C JUMPI PUSH1 0x40 MLOAD PUSH4 0xA85BD01 PUSH1 0xE1 SHL DUP2 MSTORE PUSH1 0x1 PUSH1 0x1 PUSH1 0xA0 SHL SUB DUP6 AND SWAP1 PUSH4 0x150B7A02 SWAP1 PUSH2 0x1F8E SWAP1 CALLER SWAP1 DUP10 SWAP1 DUP9 SWAP1 DUP9 SWAP1 PUSH1 0x4 ADD PUSH2 0x2938 JUMP JUMPDEST PUSH1 0x20 PUSH1 0x40 MLOAD DUP1 DUP4 SUB DUP2 PUSH1 0x0 DUP8 DUP1 EXTCODESIZE ISZERO DUP1 ISZERO PUSH2 0x1FA8 JUMPI PUSH1 0x0 DUP1 REVERT JUMPDEST POP GAS CALL SWAP3 POP POP POP DUP1 ISZERO PUSH2 0x1FD8 JUMPI POP PUSH1 0x40 DUP1 MLOAD PUSH1 0x1F RETURNDATASIZE SWAP1 DUP2 ADD PUSH1 0x1F NOT AND DUP3 ADD SWAP1 SWAP3 MSTORE PUSH2 0x1FD5 SWAP2 DUP2 ADD SWAP1 PUSH2 0x24DF JUMP JUMPDEST PUSH1 0x1 JUMPDEST PUSH2 0x2032 JUMPI RETURNDATASIZE DUP1 DUP1 ISZERO PUSH2 0x2006 JUMPI PUSH1 0x40 MLOAD SWAP2 POP PUSH1 0x1F NOT PUSH1 0x3F RETURNDATASIZE ADD AND DUP3 ADD PUSH1 0x40 MSTORE RETURNDATASIZE DUP3 MSTORE RETURNDATASIZE PUSH1 0x0 PUSH1 0x20 DUP5 ADD RETURNDATACOPY PUSH2 0x200B JUMP JUMPDEST PUSH1 0x60 SWAP2 POP JUMPDEST POP DUP1 MLOAD PUSH2 0x202A JUMPI PUSH1 0x40 MLOAD PUSH3 0x461BCD PUSH1 0xE5 SHL DUP2 MSTORE PUSH1 0x4 ADD PUSH2 0x7CA SWAP1 PUSH2 0x2A17 JUMP JUMPDEST DUP1 MLOAD DUP2 PUSH1 0x20 ADD REVERT JUMPDEST PUSH1 0x1 PUSH1 0x1 PUSH1 0xE0 SHL SUB NOT AND PUSH4 0xA85BD01 PUSH1 0xE1 SHL EQ SWAP1 POP PUSH2 0x1913 JUMP JUMPDEST POP PUSH1 0x1 PUSH2 0x1913 JUMP JUMPDEST PUSH2 0x205E DUP4 DUP4 PUSH2 0x20EC JUMP JUMPDEST PUSH2 0x206B PUSH1 0x0 DUP5 DUP5 DUP5 PUSH2 0x1F4A JUMP JUMPDEST PUSH2 0x900 JUMPI PUSH1 0x40 MLOAD PUSH3 0x461BCD PUSH1 0xE5 SHL DUP2 MSTORE PUSH1 0x4 ADD PUSH2 0x7CA SWAP1 PUSH2 0x2A17 JUMP JUMPDEST PUSH1 0x40 DUP1 MLOAD DUP1 DUP3 ADD SWAP1 SWAP2 MSTORE PUSH1 0x60 DUP2 MSTORE PUSH1 0x0 PUSH1 0x20 DUP3 ADD MSTORE PUSH2 0x20A7 PUSH1 0x20 DUP4 PUSH2 0x2C2C JUMP JUMPDEST ISZERO PUSH2 0x20CF JUMPI PUSH2 0x20B7 PUSH1 0x20 DUP4 PUSH2 0x2C2C JUMP JUMPDEST PUSH2 0x20C2 SWAP1 PUSH1 0x20 PUSH2 0x2B93 JUMP JUMPDEST PUSH2 0x20CC SWAP1 DUP4 PUSH2 0x2B48 JUMP JUMPDEST SWAP2 POP JUMPDEST POP PUSH1 0x20 DUP3 DUP2 ADD DUP3 SWAP1 MSTORE PUSH1 0x40 DUP1 MLOAD DUP1 DUP6 MSTORE PUSH1 0x0 DUP2 MSTORE SWAP1 SWAP3 ADD ADD SWAP1 MSTORE SWAP1 JUMP JUMPDEST PUSH1 0x1 PUSH1 0x1 PUSH1 0xA0 SHL SUB DUP3 AND PUSH2 0x2142 JUMPI PUSH1 0x40 MLOAD PUSH3 0x461BCD PUSH1 0xE5 SHL DUP2 MSTORE PUSH1 0x20 PUSH1 0x4 DUP3 ADD DUP2 SWAP1 MSTORE PUSH1 0x24 DUP3 ADD MSTORE PUSH32 0x4552433732313A206D696E7420746F20746865207A65726F2061646472657373 PUSH1 0x44 DUP3 ADD MSTORE PUSH1 0x64 ADD PUSH2 0x7CA JUMP JUMPDEST PUSH1 0x0 DUP2 DUP2 MSTORE PUSH1 0xA PUSH1 0x20 MSTORE PUSH1 0x40 SWAP1 KECCAK256 SLOAD PUSH1 0x1 PUSH1 0x1 PUSH1 0xA0 SHL SUB AND ISZERO PUSH2 0x21A7 JUMPI PUSH1 0x40 MLOAD PUSH3 0x461BCD PUSH1 0xE5 SHL DUP2 MSTORE PUSH1 0x20 PUSH1 0x4 DUP3 ADD MSTORE PUSH1 0x1C PUSH1 0x24 DUP3 ADD MSTORE PUSH32 0x4552433732313A20746F6B656E20616C7265616479206D696E74656400000000 PUSH1 0x44 DUP3 ADD MSTORE PUSH1 0x64 ADD PUSH2 0x7CA JUMP JUMPDEST PUSH1 0x1 PUSH1 0x1 PUSH1 0xA0 SHL SUB DUP3 AND PUSH1 0x0 SWAP1 DUP2 MSTORE PUSH1 0xB PUSH1 0x20 MSTORE PUSH1 0x40 DUP2 KECCAK256 DUP1 SLOAD PUSH1 0x1 SWAP3 SWAP1 PUSH2 0x21D0 SWAP1 DUP5 SWAP1 PUSH2 0x2B48 JUMP JUMPDEST SWAP1 SWAP2 SSTORE POP POP PUSH1 0x0 DUP2 DUP2 MSTORE PUSH1 0xA PUSH1 0x20 MSTORE PUSH1 0x40 DUP1 DUP3 KECCAK256 DUP1 SLOAD PUSH1 0x1 PUSH1 0x1 PUSH1 0xA0 SHL SUB NOT AND PUSH1 0x1 PUSH1 0x1 PUSH1 0xA0 SHL SUB DUP7 AND SWAP1 DUP2 OR SWAP1 SWAP2 SSTORE SWAP1 MLOAD DUP4 SWAP3 SWAP1 PUSH32 0xDDF252AD1BE2C89B69C2B068FC378DAA952BA7F163C4A11628F55A4DF523B3EF SWAP1 DUP3 SWAP1 LOG4 POP POP JUMP JUMPDEST PUSH1 0x40 DUP1 MLOAD PUSH1 0xA0 DUP2 ADD DUP3 MSTORE PUSH1 0x0 DUP1 DUP3 MSTORE PUSH1 0x20 DUP1 DUP4 ADD DUP3 SWAP1 MSTORE DUP3 DUP5 ADD DUP3 SWAP1 MSTORE PUSH1 0x60 DUP1 DUP5 ADD DUP4 SWAP1 MSTORE DUP5 MLOAD DUP1 DUP7 ADD SWAP1 SWAP6 MSTORE DUP5 MSTORE DUP4 ADD MSTORE SWAP1 PUSH1 0x80 DUP3 ADD MSTORE SWAP1 JUMP JUMPDEST PUSH1 0x0 PUSH2 0x227C PUSH2 0x2277 DUP5 PUSH2 0x2B20 JUMP JUMPDEST PUSH2 0x2AEF JUMP JUMPDEST SWAP1 POP DUP3 DUP2 MSTORE DUP4 DUP4 DUP4 ADD GT ISZERO PUSH2 0x2290 JUMPI PUSH1 0x0 DUP1 REVERT JUMPDEST DUP3 DUP3 PUSH1 0x20 DUP4 ADD CALLDATACOPY PUSH1 0x0 PUSH1 0x20 DUP5 DUP4 ADD ADD MSTORE SWAP4 SWAP3 POP POP POP JUMP JUMPDEST DUP1 CALLDATALOAD PUSH1 0x1 PUSH1 0x1 PUSH1 0xA0 SHL SUB DUP2 AND DUP2 EQ PUSH2 0x22BE JUMPI PUSH1 0x0 DUP1 REVERT JUMPDEST SWAP2 SWAP1 POP JUMP JUMPDEST PUSH1 0x0 DUP3 PUSH1 0x1F DUP4 ADD SLT PUSH2 0x22D4 JUMPI PUSH1 0x0 DUP1 REVERT JUMPDEST PUSH2 0x12E4 DUP4 DUP4 CALLDATALOAD PUSH1 0x20 DUP6 ADD PUSH2 0x2269 JUMP JUMPDEST PUSH1 0x0 PUSH1 0x20 DUP3 DUP5 SUB SLT ISZERO PUSH2 0x22F5 JUMPI PUSH1 0x0 DUP1 REVERT JUMPDEST PUSH2 0x12E4 DUP3 PUSH2 0x22A7 JUMP JUMPDEST PUSH1 0x0 DUP1 PUSH1 0x40 DUP4 DUP6 SUB SLT ISZERO PUSH2 0x2311 JUMPI PUSH1 0x0 DUP1 REVERT JUMPDEST PUSH2 0x231A DUP4 PUSH2 0x22A7 JUMP JUMPDEST SWAP2 POP PUSH2 0x2328 PUSH1 0x20 DUP5 ADD PUSH2 0x22A7 JUMP JUMPDEST SWAP1 POP SWAP3 POP SWAP3 SWAP1 POP JUMP JUMPDEST PUSH1 0x0 DUP1 PUSH1 0x0 PUSH1 0x60 DUP5 DUP7 SUB SLT ISZERO PUSH2 0x2346 JUMPI PUSH1 0x0 DUP1 REVERT JUMPDEST PUSH2 0x234F DUP5 PUSH2 0x22A7 JUMP JUMPDEST SWAP3 POP PUSH2 0x235D PUSH1 0x20 DUP6 ADD PUSH2 0x22A7 JUMP JUMPDEST SWAP2 POP PUSH1 0x40 DUP5 ADD CALLDATALOAD SWAP1 POP SWAP3 POP SWAP3 POP SWAP3 JUMP JUMPDEST PUSH1 0x0 DUP1 PUSH1 0x0 DUP1 PUSH1 0x80 DUP6 DUP8 SUB SLT ISZERO PUSH2 0x2383 JUMPI PUSH1 0x0 DUP1 REVERT JUMPDEST PUSH2 0x238C DUP6 PUSH2 0x22A7 JUMP JUMPDEST SWAP4 POP PUSH2 0x239A PUSH1 0x20 DUP7 ADD PUSH2 0x22A7 JUMP JUMPDEST SWAP3 POP PUSH1 0x40 DUP6 ADD CALLDATALOAD SWAP2 POP PUSH1 0x60 DUP6 ADD CALLDATALOAD PUSH8 0xFFFFFFFFFFFFFFFF DUP2 GT ISZERO PUSH2 0x23BD JUMPI PUSH1 0x0 DUP1 REVERT JUMPDEST DUP6 ADD PUSH1 0x1F DUP2 ADD DUP8 SGT PUSH2 0x23CE JUMPI PUSH1 0x0 DUP1 REVERT JUMPDEST PUSH2 0x23DD DUP8 DUP3 CALLDATALOAD PUSH1 0x20 DUP5 ADD PUSH2 0x2269 JUMP JUMPDEST SWAP2 POP POP SWAP3 SWAP6 SWAP2 SWAP5 POP SWAP3 POP JUMP JUMPDEST PUSH1 0x0 DUP1 PUSH1 0x40 DUP4 DUP6 SUB SLT ISZERO PUSH2 0x23FC JUMPI PUSH1 0x0 DUP1 REVERT JUMPDEST PUSH2 0x2405 DUP4 PUSH2 0x22A7 JUMP JUMPDEST SWAP2 POP PUSH1 0x20 DUP4 ADD CALLDATALOAD PUSH2 0x2415 DUP2 PUSH2 0x2C82 JUMP JUMPDEST DUP1 SWAP2 POP POP SWAP3 POP SWAP3 SWAP1 POP JUMP JUMPDEST PUSH1 0x0 DUP1 PUSH1 0x40 DUP4 DUP6 SUB SLT ISZERO PUSH2 0x2433 JUMPI PUSH1 0x0 DUP1 REVERT JUMPDEST PUSH2 0x243C DUP4 PUSH2 0x22A7 JUMP JUMPDEST SWAP5 PUSH1 0x20 SWAP4 SWAP1 SWAP4 ADD CALLDATALOAD SWAP4 POP POP POP JUMP JUMPDEST PUSH1 0x0 PUSH1 0x20 DUP3 DUP5 SUB SLT ISZERO PUSH2 0x245C JUMPI PUSH1 0x0 DUP1 REVERT JUMPDEST DUP2 CALLDATALOAD PUSH2 0x12E4 DUP2 PUSH2 0x2C82 JUMP JUMPDEST PUSH1 0x0 PUSH1 0x20 DUP3 DUP5 SUB SLT ISZERO PUSH2 0x2479 JUMPI PUSH1 0x0 DUP1 REVERT JUMPDEST DUP2 MLOAD PUSH2 0x12E4 DUP2 PUSH2 0x2C82 JUMP JUMPDEST PUSH1 0x0 PUSH1 0x20 DUP3 DUP5 SUB SLT ISZERO PUSH2 0x2496 JUMPI PUSH1 0x0 DUP1 REVERT JUMPDEST POP CALLDATALOAD SWAP2 SWAP1 POP JUMP JUMPDEST PUSH1 0x0 DUP1 PUSH1 0x40 DUP4 DUP6 SUB SLT ISZERO PUSH2 0x24B0 JUMPI PUSH1 0x0 DUP1 REVERT JUMPDEST DUP3 CALLDATALOAD SWAP2 POP PUSH1 0x20 DUP4 ADD CALLDATALOAD PUSH2 0x2415 DUP2 PUSH2 0x2C82 JUMP JUMPDEST PUSH1 0x0 PUSH1 0x20 DUP3 DUP5 SUB SLT ISZERO PUSH2 0x24D4 JUMPI PUSH1 0x0 DUP1 REVERT JUMPDEST DUP2 CALLDATALOAD PUSH2 0x12E4 DUP2 PUSH2 0x2C90 JUMP JUMPDEST PUSH1 0x0 PUSH1 0x20 DUP3 DUP5 SUB SLT ISZERO PUSH2 0x24F1 JUMPI PUSH1 0x0 DUP1 REVERT JUMPDEST DUP2 MLOAD PUSH2 0x12E4 DUP2 PUSH2 0x2C90 JUMP JUMPDEST PUSH1 0x0 PUSH1 0x20 DUP3 DUP5 SUB SLT ISZERO PUSH2 0x250E JUMPI PUSH1 0x0 DUP1 REVERT JUMPDEST DUP2 CALLDATALOAD PUSH8 0xFFFFFFFFFFFFFFFF DUP2 GT ISZERO PUSH2 0x2525 JUMPI PUSH1 0x0 DUP1 REVERT JUMPDEST PUSH2 0x1913 DUP5 DUP3 DUP6 ADD PUSH2 0x22C3 JUMP JUMPDEST PUSH1 0x0 PUSH1 0x20 DUP3 DUP5 SUB SLT ISZERO PUSH2 0x2543 JUMPI PUSH1 0x0 DUP1 REVERT JUMPDEST DUP2 MLOAD PUSH8 0xFFFFFFFFFFFFFFFF DUP2 GT ISZERO PUSH2 0x255A JUMPI PUSH1 0x0 DUP1 REVERT JUMPDEST DUP3 ADD PUSH1 0x1F DUP2 ADD DUP5 SGT PUSH2 0x256B JUMPI PUSH1 0x0 DUP1 REVERT JUMPDEST DUP1 MLOAD PUSH2 0x2579 PUSH2 0x2277 DUP3 PUSH2 0x2B20 JUMP JUMPDEST DUP2 DUP2 MSTORE DUP6 PUSH1 0x20 DUP4 DUP6 ADD ADD GT ISZERO PUSH2 0x258E JUMPI PUSH1 0x0 DUP1 REVERT JUMPDEST PUSH2 0x1C3F DUP3 PUSH1 0x20 DUP4 ADD PUSH1 0x20 DUP7 ADD PUSH2 0x2BAA JUMP JUMPDEST PUSH1 0x0 DUP1 PUSH1 0x40 DUP4 DUP6 SUB SLT ISZERO PUSH2 0x25B2 JUMPI PUSH1 0x0 DUP1 REVERT JUMPDEST DUP3 CALLDATALOAD PUSH8 0xFFFFFFFFFFFFFFFF DUP1 DUP3 GT ISZERO PUSH2 0x25CA JUMPI PUSH1 0x0 DUP1 REVERT JUMPDEST PUSH2 0x25D6 DUP7 DUP4 DUP8 ADD PUSH2 0x22C3 JUMP JUMPDEST SWAP4 POP PUSH1 0x20 DUP6 ADD CALLDATALOAD SWAP2 POP DUP1 DUP3 GT ISZERO PUSH2 0x25EC JUMPI PUSH1 0x0 DUP1 REVERT JUMPDEST POP PUSH2 0x25F9 DUP6 DUP3 DUP7 ADD PUSH2 0x22C3 JUMP JUMPDEST SWAP2 POP POP SWAP3 POP SWAP3 SWAP1 POP JUMP JUMPDEST PUSH1 0x0 DUP2 MLOAD DUP1 DUP5 MSTORE PUSH2 0x261B DUP2 PUSH1 0x20 DUP7 ADD PUSH1 0x20 DUP7 ADD PUSH2 0x2BAA JUMP JUMPDEST PUSH1 0x1F ADD PUSH1 0x1F NOT AND SWAP3 SWAP1 SWAP3 ADD PUSH1 0x20 ADD SWAP3 SWAP2 POP POP JUMP JUMPDEST PUSH1 0x0 DUP3 MLOAD PUSH2 0x2641 DUP2 DUP5 PUSH1 0x20 DUP8 ADD PUSH2 0x2BAA JUMP JUMPDEST SWAP2 SWAP1 SWAP2 ADD SWAP3 SWAP2 POP POP JUMP JUMPDEST PUSH1 0x0 DUP4 MLOAD PUSH2 0x265D DUP2 DUP5 PUSH1 0x20 DUP9 ADD PUSH2 0x2BAA JUMP JUMPDEST DUP4 MLOAD SWAP1 DUP4 ADD SWAP1 PUSH2 0x2671 DUP2 DUP4 PUSH1 0x20 DUP9 ADD PUSH2 0x2BAA JUMP JUMPDEST ADD SWAP5 SWAP4 POP POP POP POP JUMP JUMPDEST PUSH1 0x0 DUP7 MLOAD PUSH2 0x268C DUP2 DUP5 PUSH1 0x20 DUP12 ADD PUSH2 0x2BAA JUMP JUMPDEST DUP7 MLOAD SWAP1 DUP4 ADD SWAP1 PUSH2 0x26A0 DUP2 DUP4 PUSH1 0x20 DUP12 ADD PUSH2 0x2BAA JUMP JUMPDEST DUP7 MLOAD SWAP2 ADD SWAP1 PUSH2 0x26B3 DUP2 DUP4 PUSH1 0x20 DUP11 ADD PUSH2 0x2BAA JUMP JUMPDEST DUP6 MLOAD SWAP2 ADD SWAP1 PUSH2 0x26C6 DUP2 DUP4 PUSH1 0x20 DUP10 ADD PUSH2 0x2BAA JUMP JUMPDEST DUP5 MLOAD SWAP2 ADD SWAP1 PUSH2 0x26D9 DUP2 DUP4 PUSH1 0x20 DUP9 ADD PUSH2 0x2BAA JUMP JUMPDEST ADD SWAP8 SWAP7 POP POP POP POP POP POP POP JUMP JUMPDEST PUSH1 0x0 DUP3 MLOAD PUSH2 0x26F7 DUP2 DUP5 PUSH1 0x20 DUP8 ADD PUSH2 0x2BAA JUMP JUMPDEST PUSH32 0x3C66696C7465722069643D27677261797363616C65273E3C6665436F6C6F724D SWAP3 ADD SWAP2 DUP3 MSTORE POP PUSH32 0x617472697820747970653D276D6174726978272076616C7565733D27302E3333 PUSH1 0x20 DUP3 ADD MSTORE PUSH32 0x333320302E3333333320302E333333332030203020302E3333333320302E3333 PUSH1 0x40 DUP3 ADD MSTORE PUSH32 0x333320302E333333332030203020302E3333333320302E3333333320302E3333 PUSH1 0x60 DUP3 ADD MSTORE PUSH32 0x33332030203020302030203020312030272F3E3C2F66696C7465723E00000000 PUSH1 0x80 DUP3 ADD MSTORE PUSH1 0x9C ADD SWAP2 SWAP1 POP JUMP JUMPDEST PUSH9 0x3D913730B6B2911D11 PUSH1 0xB9 SHL DUP2 MSTORE PUSH5 0x139195185D PUSH1 0xDA SHL PUSH1 0x9 DUP3 ADD MSTORE PUSH32 0x222C20226465736372697074696F6E223A224120746174746F6F6F6F6F6F6F6F PUSH1 0xE DUP3 ADD MSTORE PUSH32 0x222C202261747472696275746573223A5B7B2274726169745F74797065223A20 PUSH1 0x2E DUP3 ADD MSTORE PUSH20 0x113A30BA3A37B7B2111610113B30B63AB2911D1 PUSH1 0x65 SHL PUSH1 0x4E DUP3 ADD MSTORE DUP3 MLOAD PUSH1 0x0 SWAP1 PUSH2 0x285A DUP2 PUSH1 0x62 DUP6 ADD PUSH1 0x20 DUP9 ADD PUSH2 0x2BAA JUMP JUMPDEST PUSH13 0x3EAE96101134B6B0B3B2911D11 PUSH1 0x99 SHL PUSH1 0x62 SWAP2 DUP5 ADD SWAP2 DUP3 ADD MSTORE DUP4 MLOAD PUSH2 0x2887 DUP2 PUSH1 0x6F DUP5 ADD PUSH1 0x20 DUP9 ADD PUSH2 0x2BAA JUMP JUMPDEST PUSH2 0x227D PUSH1 0xF0 SHL PUSH1 0x6F SWAP3 SWAP1 SWAP2 ADD SWAP2 DUP3 ADD MSTORE PUSH1 0x71 ADD SWAP5 SWAP4 POP POP POP POP JUMP JUMPDEST PUSH32 0x7374796C653D276261636B67726F756E642D636F6C6F723A0000000000000000 DUP2 MSTORE PUSH1 0x0 DUP3 MLOAD PUSH2 0x28DA DUP2 PUSH1 0x18 DUP6 ADD PUSH1 0x20 DUP8 ADD PUSH2 0x2BAA JUMP JUMPDEST PUSH2 0x139F PUSH1 0xF1 SHL PUSH1 0x18 SWAP4 SWAP1 SWAP2 ADD SWAP3 DUP4 ADD MSTORE POP PUSH1 0x1A ADD SWAP2 SWAP1 POP JUMP JUMPDEST PUSH32 0x646174613A6170706C69636174696F6E2F6A736F6E3B6261736536342C000000 DUP2 MSTORE PUSH1 0x0 DUP3 MLOAD PUSH2 0x292B DUP2 PUSH1 0x1D DUP6 ADD PUSH1 0x20 DUP8 ADD PUSH2 0x2BAA JUMP JUMPDEST SWAP2 SWAP1 SWAP2 ADD PUSH1 0x1D ADD SWAP3 SWAP2 POP POP JUMP JUMPDEST PUSH1 0x1 PUSH1 0x1 PUSH1 0xA0 SHL SUB DUP6 DUP2 AND DUP3 MSTORE DUP5 AND PUSH1 0x20 DUP3 ADD MSTORE PUSH1 0x40 DUP2 ADD DUP4 SWAP1 MSTORE PUSH1 0x80 PUSH1 0x60 DUP3 ADD DUP2 SWAP1 MSTORE PUSH1 0x0 SWAP1 PUSH2 0x296B SWAP1 DUP4 ADD DUP5 PUSH2 0x2603 JUMP JUMPDEST SWAP7 SWAP6 POP POP POP POP POP POP JUMP JUMPDEST PUSH1 0x1 PUSH1 0x1 PUSH1 0xA0 SHL SUB DUP10 DUP2 AND DUP3 MSTORE PUSH1 0x20 DUP3 ADD DUP10 SWAP1 MSTORE PUSH1 0x40 DUP3 ADD DUP9 SWAP1 MSTORE DUP7 AND PUSH1 0x60 DUP3 ADD MSTORE PUSH1 0x1 PUSH1 0x1 PUSH1 0xE0 SHL SUB NOT DUP6 AND PUSH1 0x80 DUP3 ADD MSTORE PUSH1 0xA0 DUP2 ADD DUP5 SWAP1 MSTORE PUSH1 0xC0 DUP2 ADD DUP4 SWAP1 MSTORE PUSH2 0x100 PUSH1 0xE0 DUP3 ADD DUP2 SWAP1 MSTORE PUSH1 0x0 SWAP1 PUSH2 0x29CE DUP4 DUP3 ADD DUP6 PUSH2 0x2603 JUMP JUMPDEST SWAP12 SWAP11 POP POP POP POP POP POP POP POP POP POP POP JUMP JUMPDEST PUSH1 0x1 DUP1 PUSH1 0xA0 SHL SUB DUP5 AND DUP2 MSTORE DUP3 PUSH1 0x20 DUP3 ADD MSTORE PUSH1 0x60 PUSH1 0x40 DUP3 ADD MSTORE PUSH1 0x0 PUSH2 0x1C3F PUSH1 0x60 DUP4 ADD DUP5 PUSH2 0x2603 JUMP JUMPDEST PUSH1 0x20 DUP2 MSTORE PUSH1 0x0 PUSH2 0x12E4 PUSH1 0x20 DUP4 ADD DUP5 PUSH2 0x2603 JUMP JUMPDEST PUSH1 0x20 DUP1 DUP3 MSTORE PUSH1 0x32 SWAP1 DUP3 ADD MSTORE PUSH32 0x4552433732313A207472616E7366657220746F206E6F6E204552433732315265 PUSH1 0x40 DUP3 ADD MSTORE PUSH18 0x31B2B4BB32B91034B6B83632B6B2B73A32B9 PUSH1 0x71 SHL PUSH1 0x60 DUP3 ADD MSTORE PUSH1 0x80 ADD SWAP1 JUMP JUMPDEST PUSH1 0x20 DUP1 DUP3 MSTORE DUP2 DUP2 ADD MSTORE PUSH32 0x4F776E61626C653A2063616C6C6572206973206E6F7420746865206F776E6572 PUSH1 0x40 DUP3 ADD MSTORE PUSH1 0x60 ADD SWAP1 JUMP JUMPDEST PUSH1 0x20 DUP1 DUP3 MSTORE PUSH1 0x31 SWAP1 DUP3 ADD MSTORE PUSH32 0x4552433732313A207472616E736665722063616C6C6572206973206E6F74206F PUSH1 0x40 DUP3 ADD MSTORE PUSH17 0x1DDB995C881B9BDC88185C1C1C9BDD9959 PUSH1 0x7A SHL PUSH1 0x60 DUP3 ADD MSTORE PUSH1 0x80 ADD SWAP1 JUMP JUMPDEST PUSH1 0x40 MLOAD PUSH1 0x1F DUP3 ADD PUSH1 0x1F NOT AND DUP2 ADD PUSH8 0xFFFFFFFFFFFFFFFF DUP2 GT DUP3 DUP3 LT OR ISZERO PUSH2 0x2B18 JUMPI PUSH2 0x2B18 PUSH2 0x2C6C JUMP JUMPDEST PUSH1 0x40 MSTORE SWAP2 SWAP1 POP JUMP JUMPDEST PUSH1 0x0 PUSH8 0xFFFFFFFFFFFFFFFF DUP3 GT ISZERO PUSH2 0x2B3A JUMPI PUSH2 0x2B3A PUSH2 0x2C6C JUMP JUMPDEST POP PUSH1 0x1F ADD PUSH1 0x1F NOT AND PUSH1 0x20 ADD SWAP1 JUMP JUMPDEST PUSH1 0x0 DUP3 NOT DUP3 GT ISZERO PUSH2 0x2B5B JUMPI PUSH2 0x2B5B PUSH2 0x2C40 JUMP JUMPDEST POP ADD SWAP1 JUMP JUMPDEST PUSH1 0x0 DUP3 PUSH2 0x2B6F JUMPI PUSH2 0x2B6F PUSH2 0x2C56 JUMP JUMPDEST POP DIV SWAP1 JUMP JUMPDEST PUSH1 0x0 DUP2 PUSH1 0x0 NOT DIV DUP4 GT DUP3 ISZERO ISZERO AND ISZERO PUSH2 0x2B8E JUMPI PUSH2 0x2B8E PUSH2 0x2C40 JUMP JUMPDEST POP MUL SWAP1 JUMP JUMPDEST PUSH1 0x0 DUP3 DUP3 LT ISZERO PUSH2 0x2BA5 JUMPI PUSH2 0x2BA5 PUSH2 0x2C40 JUMP JUMPDEST POP SUB SWAP1 JUMP JUMPDEST PUSH1 0x0 JUMPDEST DUP4 DUP2 LT ISZERO PUSH2 0x2BC5 JUMPI DUP2 DUP2 ADD MLOAD DUP4 DUP3 ADD MSTORE PUSH1 0x20 ADD PUSH2 0x2BAD JUMP JUMPDEST DUP4 DUP2 GT ISZERO PUSH2 0xD83 JUMPI POP POP PUSH1 0x0 SWAP2 ADD MSTORE JUMP JUMPDEST PUSH1 0x1 DUP2 DUP2 SHR SWAP1 DUP3 AND DUP1 PUSH2 0x2BEA JUMPI PUSH1 0x7F DUP3 AND SWAP2 POP JUMPDEST PUSH1 0x20 DUP3 LT DUP2 EQ ISZERO PUSH2 0x2C0B JUMPI PUSH4 0x4E487B71 PUSH1 0xE0 SHL PUSH1 0x0 MSTORE PUSH1 0x22 PUSH1 0x4 MSTORE PUSH1 0x24 PUSH1 0x0 REVERT JUMPDEST POP SWAP2 SWAP1 POP JUMP JUMPDEST PUSH1 0x0 PUSH1 0x0 NOT DUP3 EQ ISZERO PUSH2 0x2C25 JUMPI PUSH2 0x2C25 PUSH2 0x2C40 JUMP JUMPDEST POP PUSH1 0x1 ADD SWAP1 JUMP JUMPDEST PUSH1 0x0 DUP3 PUSH2 0x2C3B JUMPI PUSH2 0x2C3B PUSH2 0x2C56 JUMP JUMPDEST POP MOD SWAP1 JUMP JUMPDEST PUSH4 0x4E487B71 PUSH1 0xE0 SHL PUSH1 0x0 MSTORE PUSH1 0x11 PUSH1 0x4 MSTORE PUSH1 0x24 PUSH1 0x0 REVERT JUMPDEST PUSH4 0x4E487B71 PUSH1 0xE0 SHL PUSH1 0x0 MSTORE PUSH1 0x12 PUSH1 0x4 MSTORE PUSH1 0x24 PUSH1 0x0 REVERT JUMPDEST PUSH4 0x4E487B71 PUSH1 0xE0 SHL PUSH1 0x0 MSTORE PUSH1 0x41 PUSH1 0x4 MSTORE PUSH1 0x24 PUSH1 0x0 REVERT JUMPDEST DUP1 ISZERO ISZERO DUP2 EQ PUSH2 0x15B1 JUMPI PUSH1 0x0 DUP1 REVERT JUMPDEST PUSH1 0x1 PUSH1 0x1 PUSH1 0xE0 SHL SUB NOT DUP2 AND DUP2 EQ PUSH2 0x15B1 JUMPI PUSH1 0x0 DUP1 REVERT INVALID COINBASE TIMESTAMP NUMBER DIFFICULTY GASLIMIT CHAINID SELFBALANCE BASEFEE 0x49 0x4A 0x4B 0x4C 0x4D 0x4E 0x4F POP MLOAD MSTORE MSTORE8 SLOAD SSTORE JUMP JUMPI PC MSIZE GAS PUSH2 0x6263 PUSH5 0x6566676869 PUSH11 0x6B6C6D6E6F707172737475 PUSH23 0x7778797A303132333435363738392B2F3C73766720786D PUSH13 0x6E733D27687474703A2F2F7777 PUSH24 0x2E77332E6F72672F323030302F7376672720686569676874 RETURNDATASIZE 0x27 CODECOPY ADDRESS ADDRESS 0x27 KECCAK256 PUSH24 0x696474683D273930302720A2646970667358221220904C3C 0xC4 0xA7 0xB2 PUSH14 0x21C3129F71608A6E0493C7920656 PUSH18 0x8A56C6FFAA3CFAAC510D64736F6C63430008 SMOD STOP CALLER ","sha1":"c39987e6aca216c3a8d221a85fad032ae813915e","source":"// SPDX-License-Identifier: MIT\npragma solidity ^0.8.0;\n\nimport \"@chainlink/contracts/src/v0.8/ChainlinkClient.sol\"; \nimport \"@openzeppelin/contracts/access/Ownable.sol\";\nimport \"@openzeppelin/contracts/token/ERC721/extensions/ERC721URIStorage.sol\";\nimport \"./NFTatPixel.sol\";\n\n\ncontract NFTat is ReentrancyGuard, Ownable, ChainlinkClient, ERC721URIStorage {\n    using Chainlink for Chainlink.Request;\n    uint256 public s_minimumStaked;\n    bytes32 public s_subjectiveOracleJobId;\n    address public s_subjectiveOracleAddress;\n    uint256 public s_subjectiveOracleFee;\n    uint256 public s_nftCounter;\n    bool private isOpen;\n    mapping(bytes32 => uint256) public requestIdToTattoodPersonId;\n    NFTatPixel public s_pixelsContract;\n    uint public s_timeInterval;\n    struct TattoodPerson {\n        uint256 stakedAmount;\n        bool tattood;\n        address addressOfTattoodPerson;\n    }\n    mapping(uint256 => TattoodPerson) public s_tokenIdToTattoodPerson;\n\n\n    constructor(uint256 _minStaked, \n    bytes32 _subjectiveOracleJobId, \n    address _subjectiveOracleAddress, \n    address _link, \n    uint256 _subjectiveOracleFee) \n    ERC721(\"NFTat\", \"NFTAT\") {\n        if (_link == address(0)) {\n            setPublicChainlinkToken();\n        } else {\n            setChainlinkToken(_link);\n        }\n        s_timeInterval = 10 days;\n        s_minimumStaked = _minStaked;\n        s_subjectiveOracleJobId = _subjectiveOracleJobId;\n        s_subjectiveOracleAddress = _subjectiveOracleAddress;\n        s_subjectiveOracleFee = _subjectiveOracleFee;\n        s_nftCounter = 0;\n        isOpen = false;\n        NFTatPixel newPixelContract = new NFTatPixel(s_timeInterval);\n        s_pixelsContract = newPixelContract;\n    }\n\n    function setOpen(bool _isOpen) public onlyOwner {\n        isOpen = _isOpen;\n    }\n\n    // stakeTat\n    /** @notice Create Tatoo Staker\n     */ \n    function stakeTat() \n    nonReentrant public payable {\n        require(msg.sender == owner() || isOpen, \"Still in beta, sorry!\");\n        require(msg.value >= s_minimumStaked, \"You didn't send enough ether to stake!\");\n        TattoodPerson memory newTatoodPerson = TattoodPerson(msg.value, false, msg.sender);\n        s_tokenIdToTattoodPerson[s_nftCounter] = newTatoodPerson;\n        s_pixelsContract.mintSet(msg.sender);\n        _safeMint(msg.sender, s_nftCounter);\n        // update the counter\n        s_nftCounter = s_nftCounter + 1;\n    }\n\n    function updateVotes(uint256 tattoodPersonId) public onlyOwner returns (bytes32 requestId) {\n        require(s_tokenIdToTattoodPerson[tattoodPersonId].tattood != false, \"This person has already been tattood!\");\n        Chainlink.Request memory request = buildChainlinkRequest(s_subjectiveOracleJobId, address(this), this.fulfill.selector);\n        sendChainlinkRequestTo(s_subjectiveOracleAddress, request, s_subjectiveOracleFee);\n        requestIdToTattoodPersonId[requestId] = tattoodPersonId;\n    }\n\n    function fulfill(bytes32 _requestId, bool _tattoodStatus) public recordChainlinkFulfillment(_requestId){\n        require(_tattoodStatus, \"The person was not tattood!\");\n        uint256 tattoodPersonId = requestIdToTattoodPersonId[_requestId];\n        address tattoodPerson = s_tokenIdToTattoodPerson[tattoodPersonId].addressOfTattoodPerson;\n        s_tokenIdToTattoodPerson[tattoodPersonId].tattood = _tattoodStatus;\n        uint256 returnStakedAmount = s_tokenIdToTattoodPerson[tattoodPersonId].stakedAmount;\n        (bool success, ) = payable(tattoodPerson).call{value: returnStakedAmount}(\"\");\n        require(success, \"You don't have enough ether to pay the fee!\");\n    }\n\n    function tokenURI(uint256 tokenId) public view override returns (string memory) {\n        // 0th pixel is background\n        // 1st pixel is circle\n        // the next 225 are the pixels\n        string memory svg = getSVG(tokenId);\n        if (!s_tokenIdToTattoodPerson[tokenId].tattood){\n            return formatTokenURI(svgToImageURI(svg), \"false\");\n        }\n        return formatTokenURI(svgToImageURI(svg), \"true\");\n    }\n\n    function getSVG(uint256 tokenId) public view returns (string memory) {\n        string memory startSVG = \"<svg xmlns='http://www.w3.org/2000/svg' height='900' width='900' \";\n        string memory background = \"style='background-color:black'>\";\n        string memory baseCircle = \"\";\n        string memory allPixels = \"\";\n        string memory endSVG = \"</svg>\";\n        bool isGrayScale = true;\n\n        for(uint i = tokenId * 227; i < (tokenId * 227) + 227; i++) {\n            // Pixel memory pixel = s_pixelsContract.s_tokenIdToPixel(i);\n            if (s_pixelsContract.getIsBackground(i)) {\n                if (!compareStrings(s_pixelsContract.getColor(i),(\"grayscale\"))) {\n                    isGrayScale = false;\n                    background = string(abi.encodePacked(\"style='background-color:\",s_pixelsContract.getColor(i), \"'>\"));\n                } else {\n                    background = string(abi.encodePacked(background, \"<filter id='grayscale'><feColorMatrix type='matrix' values='0.3333 0.3333 0.3333 0 0 0.3333 0.3333 0.3333 0 0 0.3333 0.3333 0.3333 0 0 0 0 0 1 0'/></filter>\"));\n                }\n            } else if (s_pixelsContract.getIsBaseCircle(i)) {\n                baseCircle = s_pixelsContract.getBigCircleSVG(i, isGrayScale);\n            } else {\n                allPixels = string(abi.encodePacked(allPixels, s_pixelsContract.getBaseSVG(i, isGrayScale)));\n            }\n        }\n        return string(abi.encodePacked(startSVG, background, baseCircle, allPixels, endSVG));\n    }\n\n    function formatTokenURI(string memory imageURI, string memory _tattood) public pure returns (string memory) {\n        return string(\n                abi.encodePacked(\n                    \"data:application/json;base64,\",\n                    Base64.encode(\n                        bytes(\n                            abi.encodePacked(\n                                '{\"name\":\"',\n                                \"NFTat\", // You can add whatever name here\n                                '\", \"description\":\"A tattoooooooo\", \"attributes\":[{\"trait_type\": \"tattood\", \"value\": ', _tattood,'}], \"image\":\"',imageURI,'\"}'\n                            )\n                        )\n                    )\n                )\n            );\n    }\n\n    function svgToImageURI(string memory svg) public pure returns (string memory) {\n        string memory baseURL = \"data:image/svg+xml;base64,\";\n        string memory svgBase64Encoded = Base64.encode(bytes(string(abi.encodePacked(svg))));\n        return string(abi.encodePacked(baseURL,svgBase64Encoded));\n    }\n\n    function compareStrings(string memory a, string memory b) public pure returns (bool) {\n        return (keccak256(abi.encodePacked((a))) == keccak256(abi.encodePacked((b))));\n    }\n}\n","sourcePath":"contracts/NFTat.sol","type":"contract","deployment":{"address":"0x748F483f131405e684Bb0568027b7B947B1813b1","chainid":"42","blockHeight":27419874}}