{"abi":[{"inputs":[{"internalType":"uint256","name":"_minStaked","type":"uint256"},{"internalType":"bytes32","name":"_subjectiveOracleJobId","type":"bytes32"},{"internalType":"address","name":"_subjectiveOracleAddress","type":"address"},{"internalType":"address","name":"_link","type":"address"},{"internalType":"uint256","name":"_subjectiveOracleFee","type":"uint256"}],"stateMutability":"nonpayable","type":"constructor","name":"constructor"},{"anonymous":false,"inputs":[{"indexed":true,"internalType":"address","name":"owner","type":"address"},{"indexed":true,"internalType":"address","name":"approved","type":"address"},{"indexed":true,"internalType":"uint256","name":"tokenId","type":"uint256"}],"name":"Approval","type":"event"},{"anonymous":false,"inputs":[{"indexed":true,"internalType":"address","name":"owner","type":"address"},{"indexed":true,"internalType":"address","name":"operator","type":"address"},{"indexed":false,"internalType":"bool","name":"approved","type":"bool"}],"name":"ApprovalForAll","type":"event"},{"anonymous":false,"inputs":[{"indexed":true,"internalType":"bytes32","name":"id","type":"bytes32"}],"name":"ChainlinkCancelled","type":"event"},{"anonymous":false,"inputs":[{"indexed":true,"internalType":"bytes32","name":"id","type":"bytes32"}],"name":"ChainlinkFulfilled","type":"event"},{"anonymous":false,"inputs":[{"indexed":true,"internalType":"bytes32","name":"id","type":"bytes32"}],"name":"ChainlinkRequested","type":"event"},{"anonymous":false,"inputs":[{"indexed":true,"internalType":"address","name":"previousOwner","type":"address"},{"indexed":true,"internalType":"address","name":"newOwner","type":"address"}],"name":"OwnershipTransferred","type":"event"},{"anonymous":false,"inputs":[{"indexed":true,"internalType":"address","name":"from","type":"address"},{"indexed":true,"internalType":"address","name":"to","type":"address"},{"indexed":true,"internalType":"uint256","name":"tokenId","type":"uint256"}],"name":"Transfer","type":"event"},{"inputs":[{"internalType":"address","name":"to","type":"address"},{"internalType":"uint256","name":"tokenId","type":"uint256"}],"name":"approve","outputs":[],"stateMutability":"nonpayable","type":"function"},{"inputs":[{"internalType":"address","name":"owner","type":"address"}],"name":"balanceOf","outputs":[{"internalType":"uint256","name":"","type":"uint256"}],"stateMutability":"view","type":"function"},{"inputs":[],"name":"batchFour","outputs":[],"stateMutability":"nonpayable","type":"function"},{"inputs":[],"name":"batchOne","outputs":[],"stateMutability":"nonpayable","type":"function"},{"inputs":[],"name":"batchThree","outputs":[],"stateMutability":"nonpayable","type":"function"},{"inputs":[],"name":"batchTwo","outputs":[],"stateMutability":"nonpayable","type":"function"},{"inputs":[{"internalType":"string","name":"a","type":"string"},{"internalType":"string","name":"b","type":"string"}],"name":"compareStrings","outputs":[{"internalType":"bool","name":"","type":"bool"}],"stateMutability":"pure","type":"function"},{"inputs":[{"internalType":"bool","name":"_tattoodStatus","type":"bool"},{"internalType":"uint256","name":"tattoodPersonId","type":"uint256"}],"name":"fakeFulfill","outputs":[],"stateMutability":"nonpayable","type":"function"},{"inputs":[{"internalType":"string","name":"imageURI","type":"string"},{"internalType":"string","name":"_tattood","type":"string"}],"name":"formatTokenURI","outputs":[{"internalType":"string","name":"","type":"string"}],"stateMutability":"pure","type":"function"},{"inputs":[{"internalType":"bytes32","name":"_requestId","type":"bytes32"},{"internalType":"bool","name":"_tattoodStatus","type":"bool"}],"name":"fulfill","outputs":[],"stateMutability":"nonpayable","type":"function"},{"inputs":[{"internalType":"uint256","name":"tokenId","type":"uint256"}],"name":"getApproved","outputs":[{"internalType":"address","name":"","type":"address"}],"stateMutability":"view","type":"function"},{"inputs":[{"internalType":"uint256","name":"tokenId","type":"uint256"}],"name":"getSVG","outputs":[{"internalType":"string","name":"","type":"string"}],"stateMutability":"view","type":"function"},{"inputs":[{"internalType":"address","name":"owner","type":"address"},{"internalType":"address","name":"operator","type":"address"}],"name":"isApprovedForAll","outputs":[{"internalType":"bool","name":"","type":"bool"}],"stateMutability":"view","type":"function"},{"inputs":[],"name":"name","outputs":[{"internalType":"string","name":"","type":"string"}],"stateMutability":"view","type":"function"},{"inputs":[],"name":"owner","outputs":[{"internalType":"address","name":"","type":"address"}],"stateMutability":"view","type":"function"},{"inputs":[{"internalType":"uint256","name":"tokenId","type":"uint256"}],"name":"ownerOf","outputs":[{"internalType":"address","name":"","type":"address"}],"stateMutability":"view","type":"function"},{"inputs":[],"name":"renounceOwnership","outputs":[],"stateMutability":"nonpayable","type":"function"},{"inputs":[{"internalType":"bytes32","name":"","type":"bytes32"}],"name":"requestIdToTattoodPersonId","outputs":[{"internalType":"uint256","name":"","type":"uint256"}],"stateMutability":"view","type":"function"},{"inputs":[],"name":"s_minimumStaked","outputs":[{"internalType":"uint256","name":"","type":"uint256"}],"stateMutability":"view","type":"function"},{"inputs":[],"name":"s_nftCounter","outputs":[{"internalType":"uint256","name":"","type":"uint256"}],"stateMutability":"view","type":"function"},{"inputs":[],"name":"s_pixelsContract","outputs":[{"internalType":"contract NFTatPixel","name":"","type":"address"}],"stateMutability":"view","type":"function"},{"inputs":[],"name":"s_subjectiveOracleAddress","outputs":[{"internalType":"address","name":"","type":"address"}],"stateMutability":"view","type":"function"},{"inputs":[],"name":"s_subjectiveOracleFee","outputs":[{"internalType":"uint256","name":"","type":"uint256"}],"stateMutability":"view","type":"function"},{"inputs":[],"name":"s_subjectiveOracleJobId","outputs":[{"internalType":"bytes32","name":"","type":"bytes32"}],"stateMutability":"view","type":"function"},{"inputs":[],"name":"s_timeInterval","outputs":[{"internalType":"uint256","name":"","type":"uint256"}],"stateMutability":"view","type":"function"},{"inputs":[{"internalType":"uint256","name":"","type":"uint256"}],"name":"s_tokenIdToTattoodPerson","outputs":[{"internalType":"uint256","name":"stakedAmount","type":"uint256"},{"internalType":"bool","name":"tattood","type":"bool"},{"internalType":"address","name":"addressOfTattoodPerson","type":"address"}],"stateMutability":"view","type":"function"},{"inputs":[{"internalType":"address","name":"from","type":"address"},{"internalType":"address","name":"to","type":"address"},{"internalType":"uint256","name":"tokenId","type":"uint256"}],"name":"safeTransferFrom","outputs":[],"stateMutability":"nonpayable","type":"function"},{"inputs":[{"internalType":"address","name":"from","type":"address"},{"internalType":"address","name":"to","type":"address"},{"internalType":"uint256","name":"tokenId","type":"uint256"},{"internalType":"bytes","name":"_data","type":"bytes"}],"name":"safeTransferFrom","outputs":[],"stateMutability":"nonpayable","type":"function"},{"inputs":[{"internalType":"address","name":"operator","type":"address"},{"internalType":"bool","name":"approved","type":"bool"}],"name":"setApprovalForAll","outputs":[],"stateMutability":"nonpayable","type":"function"},{"inputs":[{"internalType":"bool","name":"_isOpen","type":"bool"}],"name":"setOpen","outputs":[],"stateMutability":"nonpayable","type":"function"},{"inputs":[],"name":"stakeTat","outputs":[],"stateMutability":"payable","type":"function"},{"inputs":[{"internalType":"bytes4","name":"interfaceId","type":"bytes4"}],"name":"supportsInterface","outputs":[{"internalType":"bool","name":"","type":"bool"}],"stateMutability":"view","type":"function"},{"inputs":[{"internalType":"string","name":"svg","type":"string"}],"name":"svgToImageURI","outputs":[{"internalType":"string","name":"","type":"string"}],"stateMutability":"pure","type":"function"},{"inputs":[],"name":"symbol","outputs":[{"internalType":"string","name":"","type":"string"}],"stateMutability":"view","type":"function"},{"inputs":[{"internalType":"uint256","name":"tokenId","type":"uint256"}],"name":"tokenURI","outputs":[{"internalType":"string","name":"","type":"string"}],"stateMutability":"view","type":"function"},{"inputs":[{"internalType":"address","name":"from","type":"address"},{"internalType":"address","name":"to","type":"address"},{"internalType":"uint256","name":"tokenId","type":"uint256"}],"name":"transferFrom","outputs":[],"stateMutability":"nonpayable","type":"function"},{"inputs":[{"internalType":"address","name":"newOwner","type":"address"}],"name":"transferOwnership","outputs":[],"stateMutability":"nonpayable","type":"function"},{"inputs":[{"internalType":"uint256","name":"tattoodPersonId","type":"uint256"}],"name":"updateVotes","outputs":[{"internalType":"bytes32","name":"requestId","type":"bytes32"}],"stateMutability":"nonpayable","type":"function"},{"inputs":[{"internalType":"uint256","name":"tattoodPersonId","type":"uint256"}],"name":"withdraw","outputs":[],"stateMutability":"nonpayable","type":"function"},{"inputs":[],"name":"withdrawLink","outputs":[],"stateMutability":"nonpayable","type":"function"}],"bytecode":"608060405260016006553480156200001657600080fd5b5060405162006d0038038062006d0083398101604081905262000039916200038a565b604080518082018252600580825264139195185d60da1b602080840191909152835180850190945290835264139195105560da1b90830152600160005590620000823362000191565b81516200009790600890602085019062000294565b508051620000ad90600990602084019062000294565b5050506001600160a01b038216620000cf57620000c9620001e3565b620000eb565b600480546001600160a01b0319166001600160a01b0384161790555b620fd2006017819055600f8690556010859055601180546001600160a01b0319166001600160a01b0386161790556012829055600060138190556014805460ff19169055604051909190620001409062000323565b908152602001604051809103906000f08015801562000163573d6000803e3d6000fd5b50601680546001600160a01b0319166001600160a01b0392909216919091179055506200041c945050505050565b600180546001600160a01b038381166001600160a01b0319831681179093556040519116919082907f8be0079c531659141344cd1fd0a4f28419497f9722a3daafe3b4186f6b6457e090600090a35050565b6200029273c89bd4e1632d3a43cb03aaad5262cbe4038bc5716001600160a01b03166338cc48316040518163ffffffff1660e01b815260040160206040518083038186803b1580156200023557600080fd5b505afa1580156200024a573d6000803e3d6000fd5b505050506040513d601f19601f8201168201806040525081019062000270919062000365565b600480546001600160a01b0319166001600160a01b0392909216919091179055565b565b828054620002a290620003df565b90600052602060002090601f016020900481019282620002c6576000855562000311565b82601f10620002e157805160ff191683800117855562000311565b8280016001018555821562000311579182015b8281111562000311578251825591602001919060010190620002f4565b506200031f92915062000331565b5090565b61355180620037af83390190565b5b808211156200031f576000815560010162000332565b80516001600160a01b03811681146200036057600080fd5b919050565b6000602082840312156200037857600080fd5b620003838262000348565b9392505050565b600080600080600060a08688031215620003a357600080fd5b8551945060208601519350620003bc6040870162000348565b9250620003cc6060870162000348565b9150608086015190509295509295909350565b600181811c90821680620003f457607f821691505b602082108114156200041657634e487b7160e01b600052602260045260246000fd5b50919050565b613383806200042c6000396000f3fe60806040526004361061023b5760003560e01c8063715018a61161012e578063a6038169116100ab578063c87b56dd1161006f578063c87b56dd146106b6578063dd3dd8eb146106d6578063e985e9c5146106de578063f2fde38b14610727578063fd68990a1461074757600080fd5b8063a603816914610614578063b88d4fde14610641578063be5f272614610661578063be985ac914610676578063bed34bba1461069657600080fd5b80638dc654a2116100f25780638dc654a21461059557806390d35afb146105aa578063956d4cf0146105ca57806395d89b41146105df578063a22cb465146105f457600080fd5b8063715018a6146104cd57806372a595a2146104e2578063764e5334146104f7578063857718d91461050c5780638da5cb5b1461057757600080fd5b806330d871c6116101bc5780635602927211610180578063560292721461043757806356074cba146104575780636352211e1461046d5780636fdca5e01461048d57806370a08231146104ad57600080fd5b806330d871c6146103a15780633ebaccdb146103c15780634088093f146103d757806342842e0e146103f75780634c7f25b41461041757600080fd5b80630eca5990116102035780630eca5990146103155780631cfb86c91461032b57806323b872dd1461034b57806329addf091461036b5780632e1a7d4d1461038157600080fd5b806301ffc9a714610240578063034c9c131461027557806306fdde0314610299578063081812fc146102bb578063095ea7b3146102f3575b600080fd5b34801561024c57600080fd5b5061026061025b366004612a84565b610767565b60405190151581526020015b60405180910390f35b34801561028157600080fd5b5061028b60135481565b60405190815260200161026c565b3480156102a557600080fd5b506102ae6107b9565b60405161026c9190612fdf565b3480156102c757600080fd5b506102db6102d6366004612a46565b61084b565b6040516001600160a01b03909116815260200161026c565b3480156102ff57600080fd5b5061031361030e3660046129c4565b6108e5565b005b34801561032157600080fd5b5061028b60175481565b34801561033757600080fd5b506016546102db906001600160a01b031681565b34801561035757600080fd5b506103136103663660046128d5565b6109fb565b34801561037757600080fd5b5061028b60105481565b34801561038d57600080fd5b5061031361039c366004612a46565b610a2c565b3480156103ad57600080fd5b506102ae6103bc366004612abe565b610ace565b3480156103cd57600080fd5b5061028b600f5481565b3480156103e357600080fd5b5061028b6103f2366004612a46565b610b61565b34801561040357600080fd5b506103136104123660046128d5565b610c4b565b34801561042357600080fd5b506011546102db906001600160a01b031681565b34801561044357600080fd5b506102ae610452366004612b61565b610c66565b34801561046357600080fd5b5061028b60125481565b34801561047957600080fd5b506102db610488366004612a46565b610ca5565b34801561049957600080fd5b506103136104a83660046129ee565b610d1c565b3480156104b957600080fd5b5061028b6104c8366004612887565b610d59565b3480156104d957600080fd5b50610313610de0565b3480156104ee57600080fd5b50610313610e16565b34801561050357600080fd5b50610313610ea0565b34801561051857600080fd5b50610553610527366004612a46565b6018602052600090815260409020805460019091015460ff81169061010090046001600160a01b031683565b6040805193845291151560208401526001600160a01b03169082015260600161026c565b34801561058357600080fd5b506001546001600160a01b03166102db565b3480156105a157600080fd5b50610313610efa565b3480156105b657600080fd5b506103136105c5366004612a28565b61107e565b3480156105d657600080fd5b50610313611199565b3480156105eb57600080fd5b506102ae6111f3565b34801561060057600080fd5b5061031361060f36600461298d565b611202565b34801561062057600080fd5b5061028b61062f366004612a46565b60156020526000908152604090205481565b34801561064d57600080fd5b5061031361065c366004612911565b6112c7565b34801561066d57600080fd5b506103136112f9565b34801561068257600080fd5b506102ae610691366004612a46565b611353565b3480156106a257600080fd5b506102606106b1366004612b61565b6117fd565b3480156106c257600080fd5b506102ae6106d1366004612a46565b611856565b6103136118e3565b3480156106ea57600080fd5b506102606106f93660046128a2565b6001600160a01b039182166000908152600d6020908152604080832093909416825291909152205460ff1690565b34801561073357600080fd5b50610313610742366004612887565b611b0d565b34801561075357600080fd5b50610313610762366004612a5f565b611ba5565b60006001600160e01b031982166380ac58cd60e01b148061079857506001600160e01b03198216635b5e139f60e01b145b806107b357506301ffc9a760e01b6001600160e01b03198316145b92915050565b6060600880546107c8906131fc565b80601f01602080910402602001604051908101604052809291908181526020018280546107f4906131fc565b80156108415780601f1061081657610100808354040283529160200191610841565b820191906000526020600020905b81548152906001019060200180831161082457829003601f168201915b5050505050905090565b6000818152600a60205260408120546001600160a01b03166108c95760405162461bcd60e51b815260206004820152602c60248201527f4552433732313a20617070726f76656420717565727920666f72206e6f6e657860448201526b34b9ba32b73a103a37b5b2b760a11b60648201526084015b60405180910390fd5b506000908152600c60205260409020546001600160a01b031690565b60006108f082610ca5565b9050806001600160a01b0316836001600160a01b0316141561095e5760405162461bcd60e51b815260206004820152602160248201527f4552433732313a20617070726f76616c20746f2063757272656e74206f776e656044820152603960f91b60648201526084016108c0565b336001600160a01b038216148061097a575061097a81336106f9565b6109ec5760405162461bcd60e51b815260206004820152603860248201527f4552433732313a20617070726f76652063616c6c6572206973206e6f74206f7760448201527f6e6572206e6f7220617070726f76656420666f7220616c6c000000000000000060648201526084016108c0565b6109f68383611d5a565b505050565b610a053382611dc8565b610a215760405162461bcd60e51b81526004016108c0906130c4565b6109f6838383611ebf565b6001546001600160a01b03163314610a565760405162461bcd60e51b81526004016108c090613044565b6000818152601860205260408082206001810154905491516101009091046001600160a01b031692908390839060006040518083038185875af1925050503d8060008114610ac0576040519150601f19603f3d011682016040523d82523d6000602084013e610ac5565b606091505b50505050505050565b606060006040518060400160405280601a81526020017f646174613a696d6167652f7376672b786d6c3b6261736536342c00000000000081525090506000610b3484604051602001610b209190612c0a565b60405160208183030381529060405261205f565b90508181604051602001610b49929190612c26565b60405160208183030381529060405292505050919050565b6001546000906001600160a01b03163314610b8e5760405162461bcd60e51b81526004016108c090613044565b60008281526018602052604090206001015460ff1615610bfe5760405162461bcd60e51b815260206004820152602560248201527f5468697320706572736f6e2068617320616c7265616479206265656e20746174604482015264746f6f642160d81b60648201526084016108c0565b6000610c146010543063fd68990a60e01b6121c7565b601154601254919250610c34916001600160a01b039091169083906121ec565b505060008181526015602052604090209190915590565b6109f6838383604051806020016040528060008152506112c7565b6060610c7e8284604051602001610b20929190612d99565b604051602001610c8e9190612ece565b604051602081830303815290604052905092915050565b6000818152600a60205260408120546001600160a01b0316806107b35760405162461bcd60e51b815260206004820152602960248201527f4552433732313a206f776e657220717565727920666f72206e6f6e657869737460448201526832b73a103a37b5b2b760b91b60648201526084016108c0565b6001546001600160a01b03163314610d465760405162461bcd60e51b81526004016108c090613044565b6014805460ff1916911515919091179055565b60006001600160a01b038216610dc45760405162461bcd60e51b815260206004820152602a60248201527f4552433732313a2062616c616e636520717565727920666f7220746865207a65604482015269726f206164647265737360b01b60648201526084016108c0565b506001600160a01b03166000908152600b602052604090205490565b6001546001600160a01b03163314610e0a5760405162461bcd60e51b81526004016108c090613044565b610e146000612203565b565b6001546001600160a01b03163314610e405760405162461bcd60e51b81526004016108c090613044565b601654604051633c4629cb60e21b81523360048201526001600160a01b039091169063f118a72c906024015b600060405180830381600087803b158015610e8657600080fd5b505af1158015610e9a573d6000803e3d6000fd5b50505050565b6001546001600160a01b03163314610eca5760405162461bcd60e51b81526004016108c090613044565b6016546040516314a028c560e01b81523360048201526001600160a01b03909116906314a028c590602401610e6c565b6001546001600160a01b03163314610f245760405162461bcd60e51b81526004016108c090613044565b6000610f386004546001600160a01b031690565b6040516370a0823160e01b81523060048201529091506001600160a01b0382169063a9059cbb90339083906370a082319060240160206040518083038186803b158015610f8457600080fd5b505afa158015610f98573d6000803e3d6000fd5b505050506040513d601f19601f82011682018060405250810190610fbc9190612bc5565b6040516001600160e01b031960e085901b1681526001600160a01b0390921660048301526024820152604401602060405180830381600087803b15801561100257600080fd5b505af1158015611016573d6000803e3d6000fd5b505050506040513d601f19601f8201168201806040525081019061103a9190612a0b565b61107b5760405162461bcd60e51b81526020600482015260126024820152712ab730b13632903a37903a3930b739b332b960711b60448201526064016108c0565b50565b6001546001600160a01b031633146110a85760405162461bcd60e51b81526004016108c090613044565b816110f55760405162461bcd60e51b815260206004820152601b60248201527f54686520706572736f6e20776173206e6f7420746174746f6f6421000000000060448201526064016108c0565b60008181526018602052604080822060018101805460ff19811687151517909155905491516101009091046001600160a01b031692908390839060006040518083038185875af1925050503d806000811461116c576040519150601f19603f3d011682016040523d82523d6000602084013e611171565b606091505b50509050806111925760405162461bcd60e51b81526004016108c090613079565b5050505050565b6001546001600160a01b031633146111c35760405162461bcd60e51b81526004016108c090613044565b60165460405163b7d290a760e01b81523360048201526001600160a01b039091169063b7d290a790602401610e6c565b6060600980546107c8906131fc565b6001600160a01b03821633141561125b5760405162461bcd60e51b815260206004820152601960248201527f4552433732313a20617070726f766520746f2063616c6c65720000000000000060448201526064016108c0565b336000818152600d602090815260408083206001600160a01b03871680855290835292819020805460ff191686151590811790915590519081529192917f17307eab39ab6107e8899845ad3d59bd9653f200f220920489ca2b5937696c31910160405180910390a35050565b6112d13383611dc8565b6112ed5760405162461bcd60e51b81526004016108c0906130c4565b610e9a84848484612255565b6001546001600160a01b031633146113235760405162461bcd60e51b81526004016108c090613044565b60165460405163d49ada6f60e01b81523360048201526001600160a01b039091169063d49ada6f90602401610e6c565b6060600060405180608001604052806041815260200161330d60419139604080518082018252601f81527f7374796c653d276261636b67726f756e642d636f6c6f723a626c61636b273e0060208083019190915282518082018452600080825284518084018652818152855180870190965260068652651e17b9bb339f60d11b938601939093529495509193919290916001906113f18960e361319a565b90505b6113ff8960e361319a565b61140a9060e361316e565b8110156117c757601654604051636ab98b8560e11b8152600481018390526001600160a01b039091169063d573170a9060240160206040518083038186803b15801561145557600080fd5b505afa158015611469573d6000803e3d6000fd5b505050506040513d601f19601f8201168201806040525081019061148d9190612a0b565b156115fa57601654604051634002bdcd60e11b81526004810183905261153b916001600160a01b0316906380057b9a9060240160006040518083038186803b1580156114d857600080fd5b505afa1580156114ec573d6000803e3d6000fd5b505050506040513d6000823e601f3d908101601f191682016040526115149190810190612af3565b60405180604001604052806009815260200168677261797363616c6560b81b8152506117fd565b6115e957601654604051634002bdcd60e11b815260048101839052600093506001600160a01b03909116906380057b9a9060240160006040518083038186803b15801561158757600080fd5b505afa15801561159b573d6000803e3d6000fd5b505050506040513d6000823e601f3d908101601f191682016040526115c39190810190612af3565b6040516020016115d39190612e7d565b60405160208183030381529060405295506117b5565b856040516020016115d39190612cc0565b6016546040516316d7188f60e01b8152600481018390526001600160a01b03909116906316d7188f9060240160206040518083038186803b15801561163e57600080fd5b505afa158015611652573d6000803e3d6000fd5b505050506040513d601f19601f820116820180604052508101906116769190612a0b565b1561170a57601654604051632124bdb760e01b81526004810183905283151560248201526001600160a01b0390911690632124bdb79060440160006040518083038186803b1580156116c757600080fd5b505afa1580156116db573d6000803e3d6000fd5b505050506040513d6000823e601f3d908101601f191682016040526117039190810190612af3565b94506117b5565b601654604051636de0d89b60e01b815260048101839052831515602482015285916001600160a01b031690636de0d89b9060440160006040518083038186803b15801561175657600080fd5b505afa15801561176a573d6000803e3d6000fd5b505050506040513d6000823e601f3d908101601f191682016040526117929190810190612af3565b6040516020016117a3929190612c26565b60405160208183030381529060405293505b806117bf81613237565b9150506113f4565b5085858585856040516020016117e1959493929190612c55565b6040516020818303038152906040529650505050505050919050565b6000816040516020016118109190612c0a565b60405160208183030381529060405280519060200120836040516020016118379190612c0a565b6040516020818303038152906040528051906020012014905092915050565b6060600061186383611353565b60008481526018602052604090206001015490915060ff166118b5576118ae61188b82610ace565b6040518060400160405280600581526020016466616c736560d81b815250610c66565b9392505050565b6118ae6118c182610ace565b604051806040016040528060048152602001637472756560e01b815250610c66565b600260005414156119365760405162461bcd60e51b815260206004820152601f60248201527f5265656e7472616e637947756172643a207265656e7472616e742063616c6c0060448201526064016108c0565b60026000556001546001600160a01b031633146119655760405162461bcd60e51b81526004016108c090613044565b6001546001600160a01b0316331480611980575060145460ff165b6119c45760405162461bcd60e51b81526020600482015260156024820152745374696c6c20696e20626574612c20736f7272792160581b60448201526064016108c0565b600f54341015611a255760405162461bcd60e51b815260206004820152602660248201527f596f75206469646e27742073656e6420656e6f75676820657468657220746f206044820152657374616b652160d01b60648201526084016108c0565b60408051606081018252348152600060208083018281523384860181815260135485526018909352928590208451815590516001909101805492516001600160a81b0319909316911515610100600160a81b031916919091176101006001600160a01b03938416021790556016549351631feefea360e11b81526004810192909252919290911690633fddfd4690602401600060405180830381600087803b158015611ad057600080fd5b505af1158015611ae4573d6000803e3d6000fd5b50505050611af433601354612288565b601354611b0290600161316e565b601355506001600055565b6001546001600160a01b03163314611b375760405162461bcd60e51b81526004016108c090613044565b6001600160a01b038116611b9c5760405162461bcd60e51b815260206004820152602660248201527f4f776e61626c653a206e6577206f776e657220697320746865207a65726f206160448201526564647265737360d01b60648201526084016108c0565b61107b81612203565b60008281526007602052604090205482906001600160a01b03163314611c1e5760405162461bcd60e51b815260206004820152602860248201527f536f75726365206d75737420626520746865206f7261636c65206f6620746865604482015267081c995c5d595cdd60c21b60648201526084016108c0565b60008181526007602052604080822080546001600160a01b03191690555182917f7cc135e0cebb02c3480ae5d74d377283180a2601f8f644edf7987b009316c63a91a281611cae5760405162461bcd60e51b815260206004820152601b60248201527f54686520706572736f6e20776173206e6f7420746174746f6f6421000000000060448201526064016108c0565b600083815260156020908152604080832054808452601890925280832060018101805460ff198116881515179091559054915192936101009091046001600160a01b0316928390839060006040518083038185875af1925050503d8060008114611d34576040519150601f19603f3d011682016040523d82523d6000602084013e611d39565b606091505b5050905080610ac55760405162461bcd60e51b81526004016108c090613079565b6000818152600c6020526040902080546001600160a01b0319166001600160a01b0384169081179091558190611d8f82610ca5565b6001600160a01b03167f8c5be1e5ebec7d5bd14f71427d1e84f3dd0314c0f7b2291e5b200ac8c7c3b92560405160405180910390a45050565b6000818152600a60205260408120546001600160a01b0316611e415760405162461bcd60e51b815260206004820152602c60248201527f4552433732313a206f70657261746f7220717565727920666f72206e6f6e657860448201526b34b9ba32b73a103a37b5b2b760a11b60648201526084016108c0565b6000611e4c83610ca5565b9050806001600160a01b0316846001600160a01b03161480611e875750836001600160a01b0316611e7c8461084b565b6001600160a01b0316145b80611eb757506001600160a01b038082166000908152600d602090815260408083209388168352929052205460ff165b949350505050565b826001600160a01b0316611ed282610ca5565b6001600160a01b031614611f3a5760405162461bcd60e51b815260206004820152602960248201527f4552433732313a207472616e73666572206f6620746f6b656e2074686174206960448201526839903737ba1037bbb760b91b60648201526084016108c0565b6001600160a01b038216611f9c5760405162461bcd60e51b8152602060048201526024808201527f4552433732313a207472616e7366657220746f20746865207a65726f206164646044820152637265737360e01b60648201526084016108c0565b611fa7600082611d5a565b6001600160a01b0383166000908152600b60205260408120805460019290611fd09084906131b9565b90915550506001600160a01b0382166000908152600b60205260408120805460019290611ffe90849061316e565b90915550506000818152600a602052604080822080546001600160a01b0319166001600160a01b0386811691821790925591518493918716917fddf252ad1be2c89b69c2b068fc378daa952ba7f163c4a11628f55a4df523b3ef91a4505050565b606081516000141561207f57505060408051602081019091526000815290565b60006040518060600160405280604081526020016132cd60409139905060006003845160026120ae919061316e565b6120b89190613186565b6120c390600461319a565b905060006120d282602061316e565b67ffffffffffffffff8111156120ea576120ea613292565b6040519080825280601f01601f191660200182016040528015612114576020820181803683370190505b509050818152600183018586518101602084015b818310156121825760039283018051603f601282901c811687015160f890811b8552600c83901c8216880151811b6001860152600683901c8216880151811b60028601529116860151901b93820193909352600401612128565b60038951066001811461219c57600281146121ad576121b9565b613d3d60f01b6001198301526121b9565b603d60f81b6000198301525b509398975050505050505050565b6121cf6127d2565b6121d76127d2565b6121e3818686866122a6565b95945050505050565b6000611eb784848460016320214ca360e11b6122e3565b600180546001600160a01b038381166001600160a01b0319831681179093556040519116919082907f8be0079c531659141344cd1fd0a4f28419497f9722a3daafe3b4186f6b6457e090600090a35050565b612260848484611ebf565b61226c848484846124ee565b610e9a5760405162461bcd60e51b81526004016108c090612ff2565b6122a28282604051806020016040528060008152506125f8565b5050565b6122ae6127d2565b6122be856080015161010061262b565b50509183526001600160a01b031660208301526001600160e01b031916604082015290565b6006546040516bffffffffffffffffffffffff193060601b166020820152603481019190915260009060540160408051808303601f19018152918152815160209283012060065460608901526000818152600790935281832080546001600160a01b0319166001600160a01b038b16179055905190925082917fb5e6e01e79f91267dc17b4e6314d5d4d03593d2ceee0fbb452b750bd70ea5af991a2600082600080886000015189602001518a604001518b606001518a8d60800151600001516040516024016123ba989796959493929190612f50565b60408051601f198184030181529181526020820180516001600160e01b03166001600160e01b031990941693909317909252600480549251630200057560e51b81529193506001600160a01b0390921691634000aea091612421918b918a91879101612fb8565b602060405180830381600087803b15801561243b57600080fd5b505af115801561244f573d6000803e3d6000fd5b505050506040513d601f19601f820116820180604052508101906124739190612a0b565b6124cb5760405162461bcd60e51b815260206004820152602360248201527f756e61626c6520746f207472616e73666572416e6443616c6c20746f206f7261604482015262636c6560e81b60648201526084016108c0565b6001600660008282546124de919061316e565b9091555091979650505050505050565b60006001600160a01b0384163b156125f057604051630a85bd0160e11b81526001600160a01b0385169063150b7a0290612532903390899088908890600401612f13565b602060405180830381600087803b15801561254c57600080fd5b505af192505050801561257c575060408051601f3d908101601f1916820190925261257991810190612aa1565b60015b6125d6573d8080156125aa576040519150601f19603f3d011682016040523d82523d6000602084013e6125af565b606091505b5080516125ce5760405162461bcd60e51b81526004016108c090612ff2565b805181602001fd5b6001600160e01b031916630a85bd0160e11b149050611eb7565b506001611eb7565b6126028383612690565b61260f60008484846124ee565b6109f65760405162461bcd60e51b81526004016108c090612ff2565b60408051808201909152606081526000602082015261264b602083613252565b156126735761265b602083613252565b6126669060206131b9565b612670908361316e565b91505b506020828101829052604080518085526000815290920101905290565b6001600160a01b0382166126e65760405162461bcd60e51b815260206004820181905260248201527f4552433732313a206d696e7420746f20746865207a65726f206164647265737360448201526064016108c0565b6000818152600a60205260409020546001600160a01b03161561274b5760405162461bcd60e51b815260206004820152601c60248201527f4552433732313a20746f6b656e20616c7265616479206d696e7465640000000060448201526064016108c0565b6001600160a01b0382166000908152600b6020526040812080546001929061277490849061316e565b90915550506000818152600a602052604080822080546001600160a01b0319166001600160a01b03861690811790915590518392907fddf252ad1be2c89b69c2b068fc378daa952ba7f163c4a11628f55a4df523b3ef908290a45050565b6040805160a0810182526000808252602080830182905282840182905260608084018390528451808601909552845283015290608082015290565b600061282061281b84613146565b613115565b905082815283838301111561283457600080fd5b828260208301376000602084830101529392505050565b80356001600160a01b038116811461286257600080fd5b919050565b600082601f83011261287857600080fd5b6118ae8383356020850161280d565b60006020828403121561289957600080fd5b6118ae8261284b565b600080604083850312156128b557600080fd5b6128be8361284b565b91506128cc6020840161284b565b90509250929050565b6000806000606084860312156128ea57600080fd5b6128f38461284b565b92506129016020850161284b565b9150604084013590509250925092565b6000806000806080858703121561292757600080fd5b6129308561284b565b935061293e6020860161284b565b925060408501359150606085013567ffffffffffffffff81111561296157600080fd5b8501601f8101871361297257600080fd5b6129818782356020840161280d565b91505092959194509250565b600080604083850312156129a057600080fd5b6129a98361284b565b915060208301356129b9816132a8565b809150509250929050565b600080604083850312156129d757600080fd5b6129e08361284b565b946020939093013593505050565b600060208284031215612a0057600080fd5b81356118ae816132a8565b600060208284031215612a1d57600080fd5b81516118ae816132a8565b60008060408385031215612a3b57600080fd5b82356129e0816132a8565b600060208284031215612a5857600080fd5b5035919050565b60008060408385031215612a7257600080fd5b8235915060208301356129b9816132a8565b600060208284031215612a9657600080fd5b81356118ae816132b6565b600060208284031215612ab357600080fd5b81516118ae816132b6565b600060208284031215612ad057600080fd5b813567ffffffffffffffff811115612ae757600080fd5b611eb784828501612867565b600060208284031215612b0557600080fd5b815167ffffffffffffffff811115612b1c57600080fd5b8201601f81018413612b2d57600080fd5b8051612b3b61281b82613146565b818152856020838501011115612b5057600080fd5b6121e38260208301602086016131d0565b60008060408385031215612b7457600080fd5b823567ffffffffffffffff80821115612b8c57600080fd5b612b9886838701612867565b93506020850135915080821115612bae57600080fd5b50612bbb85828601612867565b9150509250929050565b600060208284031215612bd757600080fd5b5051919050565b60008151808452612bf68160208601602086016131d0565b601f01601f19169290920160200192915050565b60008251612c1c8184602087016131d0565b9190910192915050565b60008351612c388184602088016131d0565b835190830190612c4c8183602088016131d0565b01949350505050565b60008651612c67818460208b016131d0565b865190830190612c7b818360208b016131d0565b8651910190612c8e818360208a016131d0565b8551910190612ca18183602089016131d0565b8451910190612cb48183602088016131d0565b01979650505050505050565b60008251612cd28184602087016131d0565b7f3c66696c7465722069643d27677261797363616c65273e3c6665436f6c6f724d9201918252507f617472697820747970653d276d6174726978272076616c7565733d27302e333360208201527f333320302e3333333320302e333333332030203020302e3333333320302e333360408201527f333320302e333333332030203020302e3333333320302e3333333320302e333360608201527f33332030203020302030203020312030272f3e3c2f66696c7465723e000000006080820152609c01919050565b683d913730b6b2911d1160b91b815264139195185d60da1b60098201527f222c20226465736372697074696f6e223a224120746174746f6f6f6f6f6f6f6f600e8201527f222c202261747472696275746573223a5b7b2274726169745f74797065223a20602e820152730113a30ba3a37b7b2111610113b30b63ab2911d160651b604e8201528251600090612e358160628501602088016131d0565b6c3eae96101134b6b0b3b2911d1160991b6062918401918201528351612e6281606f8401602088016131d0565b61227d60f01b606f9290910191820152607101949350505050565b7f7374796c653d276261636b67726f756e642d636f6c6f723a0000000000000000815260008251612eb58160188501602087016131d0565b61139f60f11b6018939091019283015250601a01919050565b7f646174613a6170706c69636174696f6e2f6a736f6e3b6261736536342c000000815260008251612f0681601d8501602087016131d0565b91909101601d0192915050565b6001600160a01b0385811682528416602082015260408101839052608060608201819052600090612f4690830184612bde565b9695505050505050565b6001600160a01b0389811682526020820189905260408201889052861660608201526001600160e01b03198516608082015260a0810184905260c0810183905261010060e08201819052600090612fa983820185612bde565b9b9a5050505050505050505050565b60018060a01b03841681528260208201526060604082015260006121e36060830184612bde565b6020815260006118ae6020830184612bde565b60208082526032908201527f4552433732313a207472616e7366657220746f206e6f6e20455243373231526560408201527131b2b4bb32b91034b6b83632b6b2b73a32b960711b606082015260800190565b6020808252818101527f4f776e61626c653a2063616c6c6572206973206e6f7420746865206f776e6572604082015260600190565b6020808252602b908201527f596f7520646f6e2774206861766520656e6f75676820657468657220746f207060408201526a617920746865206665652160a81b606082015260800190565b60208082526031908201527f4552433732313a207472616e736665722063616c6c6572206973206e6f74206f6040820152701ddb995c881b9bdc88185c1c1c9bdd9959607a1b606082015260800190565b604051601f8201601f1916810167ffffffffffffffff8111828210171561313e5761313e613292565b604052919050565b600067ffffffffffffffff82111561316057613160613292565b50601f01601f191660200190565b6000821982111561318157613181613266565b500190565b6000826131955761319561327c565b500490565b60008160001904831182151516156131b4576131b4613266565b500290565b6000828210156131cb576131cb613266565b500390565b60005b838110156131eb5781810151838201526020016131d3565b83811115610e9a5750506000910152565b600181811c9082168061321057607f821691505b6020821081141561323157634e487b7160e01b600052602260045260246000fd5b50919050565b600060001982141561324b5761324b613266565b5060010190565b6000826132615761326161327c565b500690565b634e487b7160e01b600052601160045260246000fd5b634e487b7160e01b600052601260045260246000fd5b634e487b7160e01b600052604160045260246000fd5b801515811461107b57600080fd5b6001600160e01b03198116811461107b57600080fdfe4142434445464748494a4b4c4d4e4f505152535455565758595a6162636465666768696a6b6c6d6e6f707172737475767778797a303132333435363738392b2f3c73766720786d6c6e733d27687474703a2f2f7777772e77332e6f72672f323030302f73766727206865696768743d27393030272077696474683d273930302720a26469706673582212202345ce8096038952ba15fda9141b50767e07a21d40c464e8bcbc6f7825dc52f864736f6c6343000807003360806040523480156200001157600080fd5b506040516200355138038062003551833981016040819052620000349162000213565b604080518082018252600a815269139195185d141a5e195b60b21b60208083019182528351808501909452600484526304e4654560e41b908401526001600081905582519293926200008792906200016d565b5080516200009d9060029060208401906200016d565b505050620000ba620000b46200011760201b60201c565b6200011b565b6000600955603c600b55600c8190556040805180820190915260198082527f66696c7465723d2775726c2823677261797363616c652927200000000000000060209092019182526200010f91600d916200016d565b50506200026a565b3390565b600880546001600160a01b038381166001600160a01b0319831681179093556040519116919082907f8be0079c531659141344cd1fd0a4f28419497f9722a3daafe3b4186f6b6457e090600090a35050565b8280546200017b906200022d565b90600052602060002090601f0160209004810192826200019f5760008555620001ea565b82601f10620001ba57805160ff1916838001178555620001ea565b82800160010185558215620001ea579182015b82811115620001ea578251825591602001919060010190620001cd565b50620001f8929150620001fc565b5090565b5b80821115620001f85760008155600101620001fd565b6000602082840312156200022657600080fd5b5051919050565b600181811c908216806200024257607f821691505b602082108114156200026457634e487b7160e01b600052602260045260246000fd5b50919050565b6132d7806200027a6000396000f3fe608060405234801561001057600080fd5b506004361061023d5760003560e01c8063715018a61161013b578063bed34bba116100b8578063d573170a1161007c578063d573170a14610508578063e985e9c51461052b578063f118a72c14610567578063f2fde38b1461057a578063fa358de11461058d57600080fd5b8063bed34bba146104a9578063c4d53dea146104bc578063c87b56dd146104cf578063cf68d97e146104e2578063d49ada6f146104f557600080fd5b8063a22cb465116100ff578063a22cb46514610445578063b7d290a714610458578063b8703dc91461046b578063b88d4fde14610473578063b92bff1b1461048657600080fd5b8063715018a61461040857806371f33b311461041057806380057b9a146104195780638da5cb5b1461042c57806395d89b411461043d57600080fd5b806316d7188f116101c95780633fddfd461161018d5780633fddfd46146103a957806342842e0e146103bc5780636352211e146103cf5780636de0d89b146103e257806370a08231146103f557600080fd5b806316d7188f14610325578063186ce8641461034d5780632124bdb71461037057806323b872dd1461038357806330d871c61461039657600080fd5b8063095ea7b311610210578063095ea7b3146102d85780630b21a83b146102ed5780630eca5990146102f657806312ef6b97146102ff57806314a028c51461031257600080fd5b806301ffc9a71461024257806306fdde031461026a578063081812fc1461027f5780630937542f146102aa575b600080fd5b610255610250366004612988565b6105b1565b60405190151581526020015b60405180910390f35b610272610603565b6040516102619190612fa7565b61029261028d366004612aa0565b610695565b6040516001600160a01b039091168152602001610261565b6102ca6102b8366004612aa0565b600e6020526000908152604090205481565b604051908152602001610261565b6102eb6102e636600461295e565b61072f565b005b6102ca60095481565b6102ca600c5481565b61027261030d366004612ab9565b610845565b6102eb61032036600461282e565b6109b8565b610255610333366004612aa0565b6000908152600a6020526040902054610100900460ff1690565b6102ca61035b366004612aa0565b6000908152600a602052604090206002015490565b61027261037e366004612ab9565b610b48565b6102eb61039136600461287c565b610d08565b6102726103a43660046129c2565b610d39565b6102eb6103b736600461282e565b610dcc565b6102eb6103ca36600461287c565b610fba565b6102926103dd366004612aa0565b610fd5565b6102726103f0366004612ab9565b61104c565b6102ca61040336600461282e565b6112bf565b6102eb611346565b6102ca600b5481565b610272610427366004612aa0565b61137c565b6008546001600160a01b0316610292565b610272611421565b6102eb610453366004612934565b611430565b6102eb61046636600461282e565b6114f5565b61027261167d565b6102eb6104813660046128b8565b61170b565b6102ca610494366004612aa0565b6000908152600a602052604090206001015490565b6102556104b73660046129f7565b611744565b6102726104ca366004612a5b565b61179d565b6102726104dd366004612aa0565b61184c565b6102eb6104f0366004612adc565b6118f9565b6102eb61050336600461282e565b6119ae565b610255610516366004612aa0565b6000908152600a602052604090205460ff1690565b610255610539366004612849565b6001600160a01b03918216600090815260066020908152604080832093909416825291909152205460ff1690565b6102eb61057536600461282e565b611b36565b6102eb61058836600461282e565b611cbe565b6105a061059b366004612aa0565b611d59565b604051610261959493929190612f6d565b60006001600160e01b031982166380ac58cd60e01b14806105e257506001600160e01b03198216635b5e139f60e01b145b806105fd57506301ffc9a760e01b6001600160e01b03198316145b92915050565b60606001805461061290613153565b80601f016020809104026020016040519081016040528092919081815260200182805461063e90613153565b801561068b5780601f106106605761010080835404028352916020019161068b565b820191906000526020600020905b81548152906001019060200180831161066e57829003601f168201915b5050505050905090565b6000818152600360205260408120546001600160a01b03166107135760405162461bcd60e51b815260206004820152602c60248201527f4552433732313a20617070726f76656420717565727920666f72206e6f6e657860448201526b34b9ba32b73a103a37b5b2b760a11b60648201526084015b60405180910390fd5b506000908152600560205260409020546001600160a01b031690565b600061073a82610fd5565b9050806001600160a01b0316836001600160a01b031614156107a85760405162461bcd60e51b815260206004820152602160248201527f4552433732313a20617070726f76616c20746f2063757272656e74206f776e656044820152603960f91b606482015260840161070a565b336001600160a01b03821614806107c457506107c48133610539565b6108365760405162461bcd60e51b815260206004820152603860248201527f4552433732313a20617070726f76652063616c6c6572206973206e6f74206f7760448201527f6e6572206e6f7220617070726f76656420666f7220616c6c0000000000000000606482015260840161070a565b6108408383611e15565b505050565b60606000604051806080016040528060608152602001613202606091396000858152600a60209081526040808320815160a081018352815460ff8082161515835261010090910416151593810193909352600181015491830191909152600281015460608301526003810180549495509293919290916080840191906108ca90613153565b80601f01602080910402602001604051908101604052809291908181526020018280546108f690613153565b80156109435780601f1061091857610100808354040283529160200191610943565b820191906000526020600020905b81548152906001019060200180831161092657829003601f168201915b5050505050815250509050600060405180602001604052806000815250905081602001511561097d576109768686610b48565b905061098b565b61098886600061104c565b90505b828160405160200161099e929190612bac565b604051602081830303815290604052935050505092915050565b6008546001600160a01b031633146109e25760405162461bcd60e51b815260040161070a9061300c565b600954600b5460045b6008811015610b405760005b600f811015610b2d576040805160a081018252600080825260208201819052918101610a246002876130cf565b610a2e87876130f1565b610a389190613092565b8152602001610a486002876130cf565b610a5287866130f1565b610a5c9190613092565b81526020016040518060400160405280600b81526020016a1d1c985b9cdc185c995b9d60aa1b8152508152509050610a948686611e83565b6000858152600a6020908152604091829020835181548386015115156101000261ff00199215159290921661ffff19909116171781559183015160018301556060830151600283015560808301518051849392610af89260038501929101906126cc565b5050506000858152600e60205260409020429055610b17856001613092565b9450508080610b259061318e565b9150506109f7565b5080610b388161318e565b9150506109eb565b505060095550565b6000828152600a60209081526040808320815160a081018352815460ff808216151583526101009091041615159381019390935260018101549183019190915260028101546060838101919091526003820180549194939291608084019190610bb090613153565b80601f0160208091040260200160405190810160405280929190818152602001828054610bdc90613153565b8015610c295780601f10610bfe57610100808354040283529160200191610c29565b820191906000526020600020905b815481529060010190602001808311610c0c57829003601f168201915b505050919092525050604080516020810190915260008152919250508315610cd957600d8054610c5890613153565b80601f0160208091040260200160405190810160405280929190818152602001828054610c8490613153565b8015610cd15780601f10610ca657610100808354040283529160200191610cd1565b820191906000526020600020905b815481529060010190602001808311610cb457829003601f168201915b505050505090505b6080820151604051610cef918391602001612d84565b6040516020818303038152906040529250505092915050565b610d123382611ea1565b610d2e5760405162461bcd60e51b815260040161070a90613041565b610840838383611f94565b606060006040518060400160405280601a81526020017f646174613a696d6167652f7376672b786d6c3b6261736536342c00000000000081525090506000610d9f84604051602001610d8b9190612b61565b604051602081830303815290604052612134565b90508181604051602001610db4929190612b7d565b60405160208183030381529060405292505050919050565b6008546001600160a01b03163314610df65760405162461bcd60e51b815260040161070a9061300c565b600980546040805160a08101825260018152600060208083018290528284018290526060830191909152825180840190935293825268677261797363616c6560b81b93820193909352608083015290610e4f8383611e83565b6000828152600a6020908152604091829020835181548386015115156101000261ff00199215159290921661ffff19909116171781559183015160018301556060830151600283015560808301518051849392610eb39260038501929101906126cc565b5050506000828152600e60205260409020429055610ed2826001613092565b915060006040518060a00160405280600015158152602001600115158152602001600081526020016000815260200160405180604001604052806005815260200164776869746560d81b8152508152509050610f2e8484611e83565b6000838152600a6020908152604091829020835181548386015115156101000261ff00199215159290921661ffff19909116171781559183015160018301556060830151600283015560808301518051849392610f929260038501929101906126cc565b5050506000838152600e60205260409020429055610fb1836001613092565b60095550505050565b6108408383836040518060200160405280600081525061170b565b6000818152600360205260408120546001600160a01b0316806105fd5760405162461bcd60e51b815260206004820152602960248201527f4552433732313a206f776e657220717565727920666f72206e6f6e657869737460448201526832b73a103a37b5b2b760b91b606482015260840161070a565b6000828152600a60209081526040808320815160a081018352815460ff8082161515835261010090910416151593810193909352600181015491830191909152600281015460608381019190915260038201805491949392916080840191906110b490613153565b80601f01602080910402602001604051908101604052809291908181526020018280546110e090613153565b801561112d5780601f106111025761010080835404028352916020019161112d565b820191906000526020600020905b81548152906001019060200180831161111057829003601f168201915b50505050508152505090506000604051806020016040528060008152509050600082608001516040516020016111639190612d48565b6040516020818303038152906040529050841561120857600d805461118790613153565b80601f01602080910402602001604051908101604052809291908181526020018280546111b390613153565b80156112005780601f106111d557610100808354040283529160200191611200565b820191906000526020600020905b8154815290600101906020018083116111e357829003601f168201915b505050505091505b61123983608001516040518060400160405280600b81526020016a1d1c985b9cdc185c995b9d60aa1b815250611744565b15611274575060408051808201909152601881527f7374796c653d2766696c6c2d6f7061636974793a20302720000000000000000060208201525b81611282846040015161229c565b61128f856060015161229c565b6112a66002600b546112a191906130cf565b61229c565b866080015160405160200161099e959493929190612e0b565b60006001600160a01b03821661132a5760405162461bcd60e51b815260206004820152602a60248201527f4552433732313a2062616c616e636520717565727920666f7220746865207a65604482015269726f206164647265737360b01b606482015260840161070a565b506001600160a01b031660009081526004602052604090205490565b6008546001600160a01b031633146113705760405162461bcd60e51b815260040161070a9061300c565b61137a60006123c5565b565b6000818152600a6020526040902060030180546060919061139c90613153565b80601f01602080910402602001604051908101604052809291908181526020018280546113c890613153565b80156114155780601f106113ea57610100808354040283529160200191611415565b820191906000526020600020905b8154815290600101906020018083116113f857829003601f168201915b50505050509050919050565b60606002805461061290613153565b6001600160a01b0382163314156114895760405162461bcd60e51b815260206004820152601960248201527f4552433732313a20617070726f766520746f2063616c6c657200000000000000604482015260640161070a565b3360008181526006602090815260408083206001600160a01b03871680855290835292819020805460ff191686151590811790915590519081529192917f17307eab39ab6107e8899845ad3d59bd9653f200f220920489ca2b5937696c31910160405180910390a35050565b6008546001600160a01b0316331461151f5760405162461bcd60e51b815260040161070a9061300c565b600954600b5460085b600c811015610b405760005b600f81101561166a576040805160a0810182526000808252602082018190529181016115616002876130cf565b61156b87876130f1565b6115759190613092565b81526020016115856002876130cf565b61158f87866130f1565b6115999190613092565b81526020016040518060400160405280600b81526020016a1d1c985b9cdc185c995b9d60aa1b81525081525090506115d18686611e83565b6000858152600a6020908152604091829020835181548386015115156101000261ff00199215159290921661ffff199091161717815591830151600183015560608301516002830155608083015180518493926116359260038501929101906126cc565b5050506000858152600e60205260409020429055611654856001613092565b94505080806116629061318e565b915050611534565b50806116758161318e565b915050611528565b600d805461168a90613153565b80601f01602080910402602001604051908101604052809291908181526020018280546116b690613153565b80156117035780601f106116d857610100808354040283529160200191611703565b820191906000526020600020905b8154815290600101906020018083116116e657829003601f168201915b505050505081565b611716335b83611ea1565b6117325760405162461bcd60e51b815260040161070a90613041565b61173e84848484612417565b50505050565b6000816040516020016117579190612b61565b604051602081830303815290604052805190602001208360405160200161177e9190612b61565b6040516020818303038152906040528051906020012014905092915050565b6000818152600a6020526040902060010154606090611825906117bf9061229c565b6000848152600a60205260409020600201546117da9061229c565b6000858152600a60205260409020600101546117f59061229c565b6000868152600a60205260409020600201546118109061229c565b87604051602001610d8b959493929190612bec565b6040516020016118359190612eeb565b604051602081830303815290604052905092915050565b6000818152600360205260409020546060906001600160a01b03166118cb5760405162461bcd60e51b815260206004820152602f60248201527f4552433732314d657461646174613a2055524920717565727920666f72206e6f60448201526e3732bc34b9ba32b73a103a37b5b2b760891b606482015260840161070a565b60006118d8836000610845565b905060006118e582610d39565b90506118f1818561179d565b949350505050565b61190233611710565b61191e5760405162461bcd60e51b815260040161070a90613041565b600c546000838152600e6020526040902054429161193b91613092565b10156119895760405162461bcd60e51b815260206004820152601d60248201527f54696d652773207570206f6e206368616e67696e6720636f6c6f727321000000604482015260640161070a565b6000828152600a602090815260409091208251610840926003909201918401906126cc565b6008546001600160a01b031633146119d85760405162461bcd60e51b815260040161070a9061300c565b600954600b5460005b6004811015610b405760005b600f811015611b23576040805160a081018252600080825260208201819052918101611a1a6002876130cf565b611a2487876130f1565b611a2e9190613092565b8152602001611a3e6002876130cf565b611a4887866130f1565b611a529190613092565b81526020016040518060400160405280600b81526020016a1d1c985b9cdc185c995b9d60aa1b8152508152509050611a8a8686611e83565b6000858152600a6020908152604091829020835181548386015115156101000261ff00199215159290921661ffff19909116171781559183015160018301556060830151600283015560808301518051849392611aee9260038501929101906126cc565b5050506000858152600e60205260409020429055611b0d856001613092565b9450508080611b1b9061318e565b9150506119ed565b5080611b2e8161318e565b9150506119e1565b6008546001600160a01b03163314611b605760405162461bcd60e51b815260040161070a9061300c565b600954600b54600c5b600f811015610b405760005b600f811015611cab576040805160a081018252600080825260208201819052918101611ba26002876130cf565b611bac87876130f1565b611bb69190613092565b8152602001611bc66002876130cf565b611bd087866130f1565b611bda9190613092565b81526020016040518060400160405280600b81526020016a1d1c985b9cdc185c995b9d60aa1b8152508152509050611c128686611e83565b6000858152600a6020908152604091829020835181548386015115156101000261ff00199215159290921661ffff19909116171781559183015160018301556060830151600283015560808301518051849392611c769260038501929101906126cc565b5050506000858152600e60205260409020429055611c95856001613092565b9450508080611ca39061318e565b915050611b75565b5080611cb68161318e565b915050611b69565b6008546001600160a01b03163314611ce85760405162461bcd60e51b815260040161070a9061300c565b6001600160a01b038116611d4d5760405162461bcd60e51b815260206004820152602660248201527f4f776e61626c653a206e6577206f776e657220697320746865207a65726f206160448201526564647265737360d01b606482015260840161070a565b611d56816123c5565b50565b600a60205260009081526040902080546001820154600283015460038401805460ff8086169661010090960416949190611d9290613153565b80601f0160208091040260200160405190810160405280929190818152602001828054611dbe90613153565b8015611e0b5780601f10611de057610100808354040283529160200191611e0b565b820191906000526020600020905b815481529060010190602001808311611dee57829003601f168201915b5050505050905085565b600081815260056020526040902080546001600160a01b0319166001600160a01b0384169081179091558190611e4a82610fd5565b6001600160a01b03167f8c5be1e5ebec7d5bd14f71427d1e84f3dd0314c0f7b2291e5b200ac8c7c3b92560405160405180910390a45050565b611e9d82826040518060200160405280600081525061244a565b5050565b6000818152600360205260408120546001600160a01b0316611f1a5760405162461bcd60e51b815260206004820152602c60248201527f4552433732313a206f70657261746f7220717565727920666f72206e6f6e657860448201526b34b9ba32b73a103a37b5b2b760a11b606482015260840161070a565b6000611f2583610fd5565b9050806001600160a01b0316846001600160a01b03161480611f605750836001600160a01b0316611f5584610695565b6001600160a01b0316145b806118f157506001600160a01b0380821660009081526006602090815260408083209388168352929052205460ff166118f1565b826001600160a01b0316611fa782610fd5565b6001600160a01b03161461200f5760405162461bcd60e51b815260206004820152602960248201527f4552433732313a207472616e73666572206f6620746f6b656e2074686174206960448201526839903737ba1037bbb760b91b606482015260840161070a565b6001600160a01b0382166120715760405162461bcd60e51b8152602060048201526024808201527f4552433732313a207472616e7366657220746f20746865207a65726f206164646044820152637265737360e01b606482015260840161070a565b61207c600082611e15565b6001600160a01b03831660009081526004602052604081208054600192906120a5908490613110565b90915550506001600160a01b03821660009081526004602052604081208054600192906120d3908490613092565b909155505060008181526003602052604080822080546001600160a01b0319166001600160a01b0386811691821790925591518493918716917fddf252ad1be2c89b69c2b068fc378daa952ba7f163c4a11628f55a4df523b3ef91a4505050565b606081516000141561215457505060408051602081019091526000815290565b600060405180606001604052806040815260200161326260409139905060006003845160026121839190613092565b61218d91906130cf565b6121989060046130f1565b905060006121a7826020613092565b67ffffffffffffffff8111156121bf576121bf6131d5565b6040519080825280601f01601f1916602001820160405280156121e9576020820181803683370190505b509050818152600183018586518101602084015b818310156122575760039283018051603f601282901c811687015160f890811b8552600c83901c8216880151811b6001860152600683901c8216880151811b60028601529116860151901b938201939093526004016121fd565b60038951066001811461227157600281146122825761228e565b613d3d60f01b60011983015261228e565b603d60f81b6000198301525b509398975050505050505050565b6060816122c05750506040805180820190915260018152600360fc1b602082015290565b8160005b81156122ea57806122d48161318e565b91506122e39050600a836130cf565b91506122c4565b60008167ffffffffffffffff811115612305576123056131d5565b6040519080825280601f01601f19166020018201604052801561232f576020820181803683370190505b509050815b85156123bc57612345600182613110565b90506000612354600a886130cf565b61235f90600a6130f1565b6123699088613110565b6123749060306130aa565b905060008160f81b905080848481518110612391576123916131bf565b60200101906001600160f81b031916908160001a9053506123b3600a896130cf565b97505050612334565b50949350505050565b600880546001600160a01b038381166001600160a01b0319831681179093556040519116919082907f8be0079c531659141344cd1fd0a4f28419497f9722a3daafe3b4186f6b6457e090600090a35050565b612422848484611f94565b61242e8484848461247d565b61173e5760405162461bcd60e51b815260040161070a90612fba565b612454838361258a565b612461600084848461247d565b6108405760405162461bcd60e51b815260040161070a90612fba565b60006001600160a01b0384163b1561257f57604051630a85bd0160e11b81526001600160a01b0385169063150b7a02906124c1903390899088908890600401612f30565b602060405180830381600087803b1580156124db57600080fd5b505af192505050801561250b575060408051601f3d908101601f19168201909252612508918101906129a5565b60015b612565573d808015612539576040519150601f19603f3d011682016040523d82523d6000602084013e61253e565b606091505b50805161255d5760405162461bcd60e51b815260040161070a90612fba565b805181602001fd5b6001600160e01b031916630a85bd0160e11b1490506118f1565b506001949350505050565b6001600160a01b0382166125e05760405162461bcd60e51b815260206004820181905260248201527f4552433732313a206d696e7420746f20746865207a65726f2061646472657373604482015260640161070a565b6000818152600360205260409020546001600160a01b0316156126455760405162461bcd60e51b815260206004820152601c60248201527f4552433732313a20746f6b656e20616c7265616479206d696e74656400000000604482015260640161070a565b6001600160a01b038216600090815260046020526040812080546001929061266e908490613092565b909155505060008181526003602052604080822080546001600160a01b0319166001600160a01b03861690811790915590518392907fddf252ad1be2c89b69c2b068fc378daa952ba7f163c4a11628f55a4df523b3ef908290a45050565b8280546126d890613153565b90600052602060002090601f0160209004810192826126fa5760008555612740565b82601f1061271357805160ff1916838001178555612740565b82800160010185558215612740579182015b82811115612740578251825591602001919060010190612725565b5061274c929150612750565b5090565b5b8082111561274c5760008155600101612751565b600067ffffffffffffffff80841115612780576127806131d5565b604051601f8501601f19908116603f011681019082821181831017156127a8576127a86131d5565b816040528093508581528686860111156127c157600080fd5b858560208301376000602087830101525050509392505050565b80356001600160a01b03811681146127f257600080fd5b919050565b803580151581146127f257600080fd5b600082601f83011261281857600080fd5b61282783833560208501612765565b9392505050565b60006020828403121561284057600080fd5b612827826127db565b6000806040838503121561285c57600080fd5b612865836127db565b9150612873602084016127db565b90509250929050565b60008060006060848603121561289157600080fd5b61289a846127db565b92506128a8602085016127db565b9150604084013590509250925092565b600080600080608085870312156128ce57600080fd5b6128d7856127db565b93506128e5602086016127db565b925060408501359150606085013567ffffffffffffffff81111561290857600080fd5b8501601f8101871361291957600080fd5b61292887823560208401612765565b91505092959194509250565b6000806040838503121561294757600080fd5b612950836127db565b9150612873602084016127f7565b6000806040838503121561297157600080fd5b61297a836127db565b946020939093013593505050565b60006020828403121561299a57600080fd5b8135612827816131eb565b6000602082840312156129b757600080fd5b8151612827816131eb565b6000602082840312156129d457600080fd5b813567ffffffffffffffff8111156129eb57600080fd5b6118f184828501612807565b60008060408385031215612a0a57600080fd5b823567ffffffffffffffff80821115612a2257600080fd5b612a2e86838701612807565b93506020850135915080821115612a4457600080fd5b50612a5185828601612807565b9150509250929050565b60008060408385031215612a6e57600080fd5b823567ffffffffffffffff811115612a8557600080fd5b612a9185828601612807565b95602094909401359450505050565b600060208284031215612ab257600080fd5b5035919050565b60008060408385031215612acc57600080fd5b82359150612873602084016127f7565b60008060408385031215612aef57600080fd5b82359150602083013567ffffffffffffffff811115612b0d57600080fd5b612a5185828601612807565b60008151808452612b31816020860160208601613127565b601f01601f19169290920160200192915050565b60008151612b57818560208601613127565b9290920192915050565b60008251612b73818460208701613127565b9190910192915050565b60008351612b8f818460208801613127565b835190830190612ba3818360208801613127565b01949350505050565b60008351612bbe818460208801613127565b835190830190612bd2818360208801613127565b651e17b9bb339f60d11b9101908152600601949350505050565b683d913730b6b2911d1160b91b81528551600090612c11816009850160208b01613127565b61016160f51b6009918401918201528651612c3381600b840160208b01613127565b7f222c20226465736372697074696f6e223a224120506978656c20666f7220616e600b92909101918201527f204e46546174222c202261747472696275746573223a205b7b2274726169745f602b8201527f74797065223a2022786c6f636174696f6e222c202276616c7565223a20000000604b8201528551612cbd816068840160208a01613127565b7f7d2c207b2274726169745f74797065223a2022796c6f636174696f6e222c2022606892909101918201526703b30b63ab2911d160c51b6088820152612d3c612d2e612d28612d0f6090850189612b45565b6c3eae96101134b6b0b3b2911d1160991b8152600d0190565b86612b45565b61227d60f01b815260020190565b98975050505050505050565b67272066696c6c3d2760c01b815260008251612d6b816008850160208701613127565b61013960f51b6008939091019283015250600a01919050565b6701e31b4b931b632960c51b815260008351612da7816008850160208801613127565b7f2063783d27343530272063793d273435302720723d27343530272066696c6c3d600891840191820152602760f81b60288201528351612dee816029840160208801613127565b631390179f60e11b60299290910191820152602d01949350505050565b6701e31b4b931b632960c51b8152600086516020612e2f8260088601838c01613127565b642063783d2760d81b6008928501928301528751612e5381600d8501848c01613127565b65272063793d2760d01b600d93909101928301528651612e798160138501848b01613127565b642720723d2760d81b601393909101928301528551612e9e8160188501848a01613127565b67272066696c6c3d2760c01b601893909101928301528451612ec581838501848901613127565b612edd8282850101631390179f60e11b815260040190565b9a9950505050505050505050565b7f646174613a6170706c69636174696f6e2f6a736f6e3b6261736536342c000000815260008251612f2381601d850160208701613127565b91909101601d0192915050565b6001600160a01b0385811682528416602082015260408101839052608060608201819052600090612f6390830184612b19565b9695505050505050565b8515158152841515602082015283604082015282606082015260a060808201526000612f9c60a0830184612b19565b979650505050505050565b6020815260006128276020830184612b19565b60208082526032908201527f4552433732313a207472616e7366657220746f206e6f6e20455243373231526560408201527131b2b4bb32b91034b6b83632b6b2b73a32b960711b606082015260800190565b6020808252818101527f4f776e61626c653a2063616c6c6572206973206e6f7420746865206f776e6572604082015260600190565b60208082526031908201527f4552433732313a207472616e736665722063616c6c6572206973206e6f74206f6040820152701ddb995c881b9bdc88185c1c1c9bdd9959607a1b606082015260800190565b600082198211156130a5576130a56131a9565b500190565b600060ff821660ff84168060ff038211156130c7576130c76131a9565b019392505050565b6000826130ec57634e487b7160e01b600052601260045260246000fd5b500490565b600081600019048311821515161561310b5761310b6131a9565b500290565b600082821015613122576131226131a9565b500390565b60005b8381101561314257818101518382015260200161312a565b8381111561173e5750506000910152565b600181811c9082168061316757607f821691505b6020821081141561318857634e487b7160e01b600052602260045260246000fd5b50919050565b60006000198214156131a2576131a26131a9565b5060010190565b634e487b7160e01b600052601160045260246000fd5b634e487b7160e01b600052603260045260246000fd5b634e487b7160e01b600052604160045260246000fd5b6001600160e01b031981168114611d5657600080fdfe3c73766720786d6c6e733d27687474703a2f2f7777772e77332e6f72672f323030302f73766727206865696768743d27393030272077696474683d2739303027207374796c653d276261636b67726f756e642d636f6c6f723a626c61636b273e4142434445464748494a4b4c4d4e4f505152535455565758595a6162636465666768696a6b6c6d6e6f707172737475767778797a303132333435363738392b2fa2646970667358221220cd71fc411a9a5d36425a8e8ed5bea5d7df751c65aefcb4bf70ca807476ecc89364736f6c63430008070033","bytecodeSha1":"7530098c02c4fe986730ed9772778f4a8070cfce","compiler":{"evm_version":"istanbul","optimizer":{"enabled":true,"runs":200},"version":"0.8.7+commit.e28d00a7"},"contractName":"NFTat","language":"Solidity","natspec":{"kind":"dev","methods":{"approve(address,uint256)":{"details":"See {IERC721-approve}."},"balanceOf(address)":{"details":"See {IERC721-balanceOf}."},"getApproved(uint256)":{"details":"See {IERC721-getApproved}."},"isApprovedForAll(address,address)":{"details":"See {IERC721-isApprovedForAll}."},"name()":{"details":"See {IERC721Metadata-name}."},"owner()":{"details":"Returns the address of the current owner."},"ownerOf(uint256)":{"details":"See {IERC721-ownerOf}."},"renounceOwnership()":{"details":"Leaves the contract without owner. It will not be possible to call `onlyOwner` functions anymore. Can only be called by the current owner. NOTE: Renouncing ownership will leave the contract without an owner, thereby removing any functionality that is only available to the owner."},"safeTransferFrom(address,address,uint256)":{"details":"See {IERC721-safeTransferFrom}."},"safeTransferFrom(address,address,uint256,bytes)":{"details":"See {IERC721-safeTransferFrom}."},"setApprovalForAll(address,bool)":{"details":"See {IERC721-setApprovalForAll}."},"stakeTat()":{"notice":"Create Tatoo Staker"},"supportsInterface(bytes4)":{"details":"See {IERC165-supportsInterface}."},"symbol()":{"details":"See {IERC721Metadata-symbol}."},"tokenURI(uint256)":{"details":"See {IERC721Metadata-tokenURI}."},"transferFrom(address,address,uint256)":{"details":"See {IERC721-transferFrom}."},"transferOwnership(address)":{"details":"Transfers ownership of the contract to a new account (`newOwner`). Can only be called by the current owner."}},"version":1},"opcodes":"PUSH1 0x80 PUSH1 0x40 MSTORE PUSH1 0x4 CALLDATASIZE LT PUSH2 0x23B JUMPI PUSH1 0x0 CALLDATALOAD PUSH1 0xE0 SHR DUP1 PUSH4 0x715018A6 GT PUSH2 0x12E JUMPI DUP1 PUSH4 0xA6038169 GT PUSH2 0xAB JUMPI DUP1 PUSH4 0xC87B56DD GT PUSH2 0x6F JUMPI DUP1 PUSH4 0xC87B56DD EQ PUSH2 0x6B6 JUMPI DUP1 PUSH4 0xDD3DD8EB EQ PUSH2 0x6D6 JUMPI DUP1 PUSH4 0xE985E9C5 EQ PUSH2 0x6DE JUMPI DUP1 PUSH4 0xF2FDE38B EQ PUSH2 0x727 JUMPI DUP1 PUSH4 0xFD68990A EQ PUSH2 0x747 JUMPI PUSH1 0x0 DUP1 REVERT JUMPDEST DUP1 PUSH4 0xA6038169 EQ PUSH2 0x614 JUMPI DUP1 PUSH4 0xB88D4FDE EQ PUSH2 0x641 JUMPI DUP1 PUSH4 0xBE5F2726 EQ PUSH2 0x661 JUMPI DUP1 PUSH4 0xBE985AC9 EQ PUSH2 0x676 JUMPI DUP1 PUSH4 0xBED34BBA EQ PUSH2 0x696 JUMPI PUSH1 0x0 DUP1 REVERT JUMPDEST DUP1 PUSH4 0x8DC654A2 GT PUSH2 0xF2 JUMPI DUP1 PUSH4 0x8DC654A2 EQ PUSH2 0x595 JUMPI DUP1 PUSH4 0x90D35AFB EQ PUSH2 0x5AA JUMPI DUP1 PUSH4 0x956D4CF0 EQ PUSH2 0x5CA JUMPI DUP1 PUSH4 0x95D89B41 EQ PUSH2 0x5DF JUMPI DUP1 PUSH4 0xA22CB465 EQ PUSH2 0x5F4 JUMPI PUSH1 0x0 DUP1 REVERT JUMPDEST DUP1 PUSH4 0x715018A6 EQ PUSH2 0x4CD JUMPI DUP1 PUSH4 0x72A595A2 EQ PUSH2 0x4E2 JUMPI DUP1 PUSH4 0x764E5334 EQ PUSH2 0x4F7 JUMPI DUP1 PUSH4 0x857718D9 EQ PUSH2 0x50C JUMPI DUP1 PUSH4 0x8DA5CB5B EQ PUSH2 0x577 JUMPI PUSH1 0x0 DUP1 REVERT JUMPDEST DUP1 PUSH4 0x30D871C6 GT PUSH2 0x1BC JUMPI DUP1 PUSH4 0x56029272 GT PUSH2 0x180 JUMPI DUP1 PUSH4 0x56029272 EQ PUSH2 0x437 JUMPI DUP1 PUSH4 0x56074CBA EQ PUSH2 0x457 JUMPI DUP1 PUSH4 0x6352211E EQ PUSH2 0x46D JUMPI DUP1 PUSH4 0x6FDCA5E0 EQ PUSH2 0x48D JUMPI DUP1 PUSH4 0x70A08231 EQ PUSH2 0x4AD JUMPI PUSH1 0x0 DUP1 REVERT JUMPDEST DUP1 PUSH4 0x30D871C6 EQ PUSH2 0x3A1 JUMPI DUP1 PUSH4 0x3EBACCDB EQ PUSH2 0x3C1 JUMPI DUP1 PUSH4 0x4088093F EQ PUSH2 0x3D7 JUMPI DUP1 PUSH4 0x42842E0E EQ PUSH2 0x3F7 JUMPI DUP1 PUSH4 0x4C7F25B4 EQ PUSH2 0x417 JUMPI PUSH1 0x0 DUP1 REVERT JUMPDEST DUP1 PUSH4 0xECA5990 GT PUSH2 0x203 JUMPI DUP1 PUSH4 0xECA5990 EQ PUSH2 0x315 JUMPI DUP1 PUSH4 0x1CFB86C9 EQ PUSH2 0x32B JUMPI DUP1 PUSH4 0x23B872DD EQ PUSH2 0x34B JUMPI DUP1 PUSH4 0x29ADDF09 EQ PUSH2 0x36B JUMPI DUP1 PUSH4 0x2E1A7D4D EQ PUSH2 0x381 JUMPI PUSH1 0x0 DUP1 REVERT JUMPDEST DUP1 PUSH4 0x1FFC9A7 EQ PUSH2 0x240 JUMPI DUP1 PUSH4 0x34C9C13 EQ PUSH2 0x275 JUMPI DUP1 PUSH4 0x6FDDE03 EQ PUSH2 0x299 JUMPI DUP1 PUSH4 0x81812FC EQ PUSH2 0x2BB JUMPI DUP1 PUSH4 0x95EA7B3 EQ PUSH2 0x2F3 JUMPI JUMPDEST PUSH1 0x0 DUP1 REVERT JUMPDEST CALLVALUE DUP1 ISZERO PUSH2 0x24C JUMPI PUSH1 0x0 DUP1 REVERT JUMPDEST POP PUSH2 0x260 PUSH2 0x25B CALLDATASIZE PUSH1 0x4 PUSH2 0x2A84 JUMP JUMPDEST PUSH2 0x767 JUMP JUMPDEST PUSH1 0x40 MLOAD SWAP1 ISZERO ISZERO DUP2 MSTORE PUSH1 0x20 ADD JUMPDEST PUSH1 0x40 MLOAD DUP1 SWAP2 SUB SWAP1 RETURN JUMPDEST CALLVALUE DUP1 ISZERO PUSH2 0x281 JUMPI PUSH1 0x0 DUP1 REVERT JUMPDEST POP PUSH2 0x28B PUSH1 0x13 SLOAD DUP2 JUMP JUMPDEST PUSH1 0x40 MLOAD SWAP1 DUP2 MSTORE PUSH1 0x20 ADD PUSH2 0x26C JUMP JUMPDEST CALLVALUE DUP1 ISZERO PUSH2 0x2A5 JUMPI PUSH1 0x0 DUP1 REVERT JUMPDEST POP PUSH2 0x2AE PUSH2 0x7B9 JUMP JUMPDEST PUSH1 0x40 MLOAD PUSH2 0x26C SWAP2 SWAP1 PUSH2 0x2FDF JUMP JUMPDEST CALLVALUE DUP1 ISZERO PUSH2 0x2C7 JUMPI PUSH1 0x0 DUP1 REVERT JUMPDEST POP PUSH2 0x2DB PUSH2 0x2D6 CALLDATASIZE PUSH1 0x4 PUSH2 0x2A46 JUMP JUMPDEST PUSH2 0x84B JUMP JUMPDEST PUSH1 0x40 MLOAD PUSH1 0x1 PUSH1 0x1 PUSH1 0xA0 SHL SUB SWAP1 SWAP2 AND DUP2 MSTORE PUSH1 0x20 ADD PUSH2 0x26C JUMP JUMPDEST CALLVALUE DUP1 ISZERO PUSH2 0x2FF JUMPI PUSH1 0x0 DUP1 REVERT JUMPDEST POP PUSH2 0x313 PUSH2 0x30E CALLDATASIZE PUSH1 0x4 PUSH2 0x29C4 JUMP JUMPDEST PUSH2 0x8E5 JUMP JUMPDEST STOP JUMPDEST CALLVALUE DUP1 ISZERO PUSH2 0x321 JUMPI PUSH1 0x0 DUP1 REVERT JUMPDEST POP PUSH2 0x28B PUSH1 0x17 SLOAD DUP2 JUMP JUMPDEST CALLVALUE DUP1 ISZERO PUSH2 0x337 JUMPI PUSH1 0x0 DUP1 REVERT JUMPDEST POP PUSH1 0x16 SLOAD PUSH2 0x2DB SWAP1 PUSH1 0x1 PUSH1 0x1 PUSH1 0xA0 SHL SUB AND DUP2 JUMP JUMPDEST CALLVALUE DUP1 ISZERO PUSH2 0x357 JUMPI PUSH1 0x0 DUP1 REVERT JUMPDEST POP PUSH2 0x313 PUSH2 0x366 CALLDATASIZE PUSH1 0x4 PUSH2 0x28D5 JUMP JUMPDEST PUSH2 0x9FB JUMP JUMPDEST CALLVALUE DUP1 ISZERO PUSH2 0x377 JUMPI PUSH1 0x0 DUP1 REVERT JUMPDEST POP PUSH2 0x28B PUSH1 0x10 SLOAD DUP2 JUMP JUMPDEST CALLVALUE DUP1 ISZERO PUSH2 0x38D JUMPI PUSH1 0x0 DUP1 REVERT JUMPDEST POP PUSH2 0x313 PUSH2 0x39C CALLDATASIZE PUSH1 0x4 PUSH2 0x2A46 JUMP JUMPDEST PUSH2 0xA2C JUMP JUMPDEST CALLVALUE DUP1 ISZERO PUSH2 0x3AD JUMPI PUSH1 0x0 DUP1 REVERT JUMPDEST POP PUSH2 0x2AE PUSH2 0x3BC CALLDATASIZE PUSH1 0x4 PUSH2 0x2ABE JUMP JUMPDEST PUSH2 0xACE JUMP JUMPDEST CALLVALUE DUP1 ISZERO PUSH2 0x3CD JUMPI PUSH1 0x0 DUP1 REVERT JUMPDEST POP PUSH2 0x28B PUSH1 0xF SLOAD DUP2 JUMP JUMPDEST CALLVALUE DUP1 ISZERO PUSH2 0x3E3 JUMPI PUSH1 0x0 DUP1 REVERT JUMPDEST POP PUSH2 0x28B PUSH2 0x3F2 CALLDATASIZE PUSH1 0x4 PUSH2 0x2A46 JUMP JUMPDEST PUSH2 0xB61 JUMP JUMPDEST CALLVALUE DUP1 ISZERO PUSH2 0x403 JUMPI PUSH1 0x0 DUP1 REVERT JUMPDEST POP PUSH2 0x313 PUSH2 0x412 CALLDATASIZE PUSH1 0x4 PUSH2 0x28D5 JUMP JUMPDEST PUSH2 0xC4B JUMP JUMPDEST CALLVALUE DUP1 ISZERO PUSH2 0x423 JUMPI PUSH1 0x0 DUP1 REVERT JUMPDEST POP PUSH1 0x11 SLOAD PUSH2 0x2DB SWAP1 PUSH1 0x1 PUSH1 0x1 PUSH1 0xA0 SHL SUB AND DUP2 JUMP JUMPDEST CALLVALUE DUP1 ISZERO PUSH2 0x443 JUMPI PUSH1 0x0 DUP1 REVERT JUMPDEST POP PUSH2 0x2AE PUSH2 0x452 CALLDATASIZE PUSH1 0x4 PUSH2 0x2B61 JUMP JUMPDEST PUSH2 0xC66 JUMP JUMPDEST CALLVALUE DUP1 ISZERO PUSH2 0x463 JUMPI PUSH1 0x0 DUP1 REVERT JUMPDEST POP PUSH2 0x28B PUSH1 0x12 SLOAD DUP2 JUMP JUMPDEST CALLVALUE DUP1 ISZERO PUSH2 0x479 JUMPI PUSH1 0x0 DUP1 REVERT JUMPDEST POP PUSH2 0x2DB PUSH2 0x488 CALLDATASIZE PUSH1 0x4 PUSH2 0x2A46 JUMP JUMPDEST PUSH2 0xCA5 JUMP JUMPDEST CALLVALUE DUP1 ISZERO PUSH2 0x499 JUMPI PUSH1 0x0 DUP1 REVERT JUMPDEST POP PUSH2 0x313 PUSH2 0x4A8 CALLDATASIZE PUSH1 0x4 PUSH2 0x29EE JUMP JUMPDEST PUSH2 0xD1C JUMP JUMPDEST CALLVALUE DUP1 ISZERO PUSH2 0x4B9 JUMPI PUSH1 0x0 DUP1 REVERT JUMPDEST POP PUSH2 0x28B PUSH2 0x4C8 CALLDATASIZE PUSH1 0x4 PUSH2 0x2887 JUMP JUMPDEST PUSH2 0xD59 JUMP JUMPDEST CALLVALUE DUP1 ISZERO PUSH2 0x4D9 JUMPI PUSH1 0x0 DUP1 REVERT JUMPDEST POP PUSH2 0x313 PUSH2 0xDE0 JUMP JUMPDEST CALLVALUE DUP1 ISZERO PUSH2 0x4EE JUMPI PUSH1 0x0 DUP1 REVERT JUMPDEST POP PUSH2 0x313 PUSH2 0xE16 JUMP JUMPDEST CALLVALUE DUP1 ISZERO PUSH2 0x503 JUMPI PUSH1 0x0 DUP1 REVERT JUMPDEST POP PUSH2 0x313 PUSH2 0xEA0 JUMP JUMPDEST CALLVALUE DUP1 ISZERO PUSH2 0x518 JUMPI PUSH1 0x0 DUP1 REVERT JUMPDEST POP PUSH2 0x553 PUSH2 0x527 CALLDATASIZE PUSH1 0x4 PUSH2 0x2A46 JUMP JUMPDEST PUSH1 0x18 PUSH1 0x20 MSTORE PUSH1 0x0 SWAP1 DUP2 MSTORE PUSH1 0x40 SWAP1 KECCAK256 DUP1 SLOAD PUSH1 0x1 SWAP1 SWAP2 ADD SLOAD PUSH1 0xFF DUP2 AND SWAP1 PUSH2 0x100 SWAP1 DIV PUSH1 0x1 PUSH1 0x1 PUSH1 0xA0 SHL SUB AND DUP4 JUMP JUMPDEST PUSH1 0x40 DUP1 MLOAD SWAP4 DUP5 MSTORE SWAP2 ISZERO ISZERO PUSH1 0x20 DUP5 ADD MSTORE PUSH1 0x1 PUSH1 0x1 PUSH1 0xA0 SHL SUB AND SWAP1 DUP3 ADD MSTORE PUSH1 0x60 ADD PUSH2 0x26C JUMP JUMPDEST CALLVALUE DUP1 ISZERO PUSH2 0x583 JUMPI PUSH1 0x0 DUP1 REVERT JUMPDEST POP PUSH1 0x1 SLOAD PUSH1 0x1 PUSH1 0x1 PUSH1 0xA0 SHL SUB AND PUSH2 0x2DB JUMP JUMPDEST CALLVALUE DUP1 ISZERO PUSH2 0x5A1 JUMPI PUSH1 0x0 DUP1 REVERT JUMPDEST POP PUSH2 0x313 PUSH2 0xEFA JUMP JUMPDEST CALLVALUE DUP1 ISZERO PUSH2 0x5B6 JUMPI PUSH1 0x0 DUP1 REVERT JUMPDEST POP PUSH2 0x313 PUSH2 0x5C5 CALLDATASIZE PUSH1 0x4 PUSH2 0x2A28 JUMP JUMPDEST PUSH2 0x107E JUMP JUMPDEST CALLVALUE DUP1 ISZERO PUSH2 0x5D6 JUMPI PUSH1 0x0 DUP1 REVERT JUMPDEST POP PUSH2 0x313 PUSH2 0x1199 JUMP JUMPDEST CALLVALUE DUP1 ISZERO PUSH2 0x5EB JUMPI PUSH1 0x0 DUP1 REVERT JUMPDEST POP PUSH2 0x2AE PUSH2 0x11F3 JUMP JUMPDEST CALLVALUE DUP1 ISZERO PUSH2 0x600 JUMPI PUSH1 0x0 DUP1 REVERT JUMPDEST POP PUSH2 0x313 PUSH2 0x60F CALLDATASIZE PUSH1 0x4 PUSH2 0x298D JUMP JUMPDEST PUSH2 0x1202 JUMP JUMPDEST CALLVALUE DUP1 ISZERO PUSH2 0x620 JUMPI PUSH1 0x0 DUP1 REVERT JUMPDEST POP PUSH2 0x28B PUSH2 0x62F CALLDATASIZE PUSH1 0x4 PUSH2 0x2A46 JUMP JUMPDEST PUSH1 0x15 PUSH1 0x20 MSTORE PUSH1 0x0 SWAP1 DUP2 MSTORE PUSH1 0x40 SWAP1 KECCAK256 SLOAD DUP2 JUMP JUMPDEST CALLVALUE DUP1 ISZERO PUSH2 0x64D JUMPI PUSH1 0x0 DUP1 REVERT JUMPDEST POP PUSH2 0x313 PUSH2 0x65C CALLDATASIZE PUSH1 0x4 PUSH2 0x2911 JUMP JUMPDEST PUSH2 0x12C7 JUMP JUMPDEST CALLVALUE DUP1 ISZERO PUSH2 0x66D JUMPI PUSH1 0x0 DUP1 REVERT JUMPDEST POP PUSH2 0x313 PUSH2 0x12F9 JUMP JUMPDEST CALLVALUE DUP1 ISZERO PUSH2 0x682 JUMPI PUSH1 0x0 DUP1 REVERT JUMPDEST POP PUSH2 0x2AE PUSH2 0x691 CALLDATASIZE PUSH1 0x4 PUSH2 0x2A46 JUMP JUMPDEST PUSH2 0x1353 JUMP JUMPDEST CALLVALUE DUP1 ISZERO PUSH2 0x6A2 JUMPI PUSH1 0x0 DUP1 REVERT JUMPDEST POP PUSH2 0x260 PUSH2 0x6B1 CALLDATASIZE PUSH1 0x4 PUSH2 0x2B61 JUMP JUMPDEST PUSH2 0x17FD JUMP JUMPDEST CALLVALUE DUP1 ISZERO PUSH2 0x6C2 JUMPI PUSH1 0x0 DUP1 REVERT JUMPDEST POP PUSH2 0x2AE PUSH2 0x6D1 CALLDATASIZE PUSH1 0x4 PUSH2 0x2A46 JUMP JUMPDEST PUSH2 0x1856 JUMP JUMPDEST PUSH2 0x313 PUSH2 0x18E3 JUMP JUMPDEST CALLVALUE DUP1 ISZERO PUSH2 0x6EA JUMPI PUSH1 0x0 DUP1 REVERT JUMPDEST POP PUSH2 0x260 PUSH2 0x6F9 CALLDATASIZE PUSH1 0x4 PUSH2 0x28A2 JUMP JUMPDEST PUSH1 0x1 PUSH1 0x1 PUSH1 0xA0 SHL SUB SWAP2 DUP3 AND PUSH1 0x0 SWAP1 DUP2 MSTORE PUSH1 0xD PUSH1 0x20 SWAP1 DUP2 MSTORE PUSH1 0x40 DUP1 DUP4 KECCAK256 SWAP4 SWAP1 SWAP5 AND DUP3 MSTORE SWAP2 SWAP1 SWAP2 MSTORE KECCAK256 SLOAD PUSH1 0xFF AND SWAP1 JUMP JUMPDEST CALLVALUE DUP1 ISZERO PUSH2 0x733 JUMPI PUSH1 0x0 DUP1 REVERT JUMPDEST POP PUSH2 0x313 PUSH2 0x742 CALLDATASIZE PUSH1 0x4 PUSH2 0x2887 JUMP JUMPDEST PUSH2 0x1B0D JUMP JUMPDEST CALLVALUE DUP1 ISZERO PUSH2 0x753 JUMPI PUSH1 0x0 DUP1 REVERT JUMPDEST POP PUSH2 0x313 PUSH2 0x762 CALLDATASIZE PUSH1 0x4 PUSH2 0x2A5F JUMP JUMPDEST PUSH2 0x1BA5 JUMP JUMPDEST PUSH1 0x0 PUSH1 0x1 PUSH1 0x1 PUSH1 0xE0 SHL SUB NOT DUP3 AND PUSH4 0x80AC58CD PUSH1 0xE0 SHL EQ DUP1 PUSH2 0x798 JUMPI POP PUSH1 0x1 PUSH1 0x1 PUSH1 0xE0 SHL SUB NOT DUP3 AND PUSH4 0x5B5E139F PUSH1 0xE0 SHL EQ JUMPDEST DUP1 PUSH2 0x7B3 JUMPI POP PUSH4 0x1FFC9A7 PUSH1 0xE0 SHL PUSH1 0x1 PUSH1 0x1 PUSH1 0xE0 SHL SUB NOT DUP4 AND EQ JUMPDEST SWAP3 SWAP2 POP POP JUMP JUMPDEST PUSH1 0x60 PUSH1 0x8 DUP1 SLOAD PUSH2 0x7C8 SWAP1 PUSH2 0x31FC JUMP JUMPDEST DUP1 PUSH1 0x1F ADD PUSH1 0x20 DUP1 SWAP2 DIV MUL PUSH1 0x20 ADD PUSH1 0x40 MLOAD SWAP1 DUP2 ADD PUSH1 0x40 MSTORE DUP1 SWAP3 SWAP2 SWAP1 DUP2 DUP2 MSTORE PUSH1 0x20 ADD DUP3 DUP1 SLOAD PUSH2 0x7F4 SWAP1 PUSH2 0x31FC JUMP JUMPDEST DUP1 ISZERO PUSH2 0x841 JUMPI DUP1 PUSH1 0x1F LT PUSH2 0x816 JUMPI PUSH2 0x100 DUP1 DUP4 SLOAD DIV MUL DUP4 MSTORE SWAP2 PUSH1 0x20 ADD SWAP2 PUSH2 0x841 JUMP JUMPDEST DUP3 ADD SWAP2 SWAP1 PUSH1 0x0 MSTORE PUSH1 0x20 PUSH1 0x0 KECCAK256 SWAP1 JUMPDEST DUP2 SLOAD DUP2 MSTORE SWAP1 PUSH1 0x1 ADD SWAP1 PUSH1 0x20 ADD DUP1 DUP4 GT PUSH2 0x824 JUMPI DUP3 SWAP1 SUB PUSH1 0x1F AND DUP3 ADD SWAP2 JUMPDEST POP POP POP POP POP SWAP1 POP SWAP1 JUMP JUMPDEST PUSH1 0x0 DUP2 DUP2 MSTORE PUSH1 0xA PUSH1 0x20 MSTORE PUSH1 0x40 DUP2 KECCAK256 SLOAD PUSH1 0x1 PUSH1 0x1 PUSH1 0xA0 SHL SUB AND PUSH2 0x8C9 JUMPI PUSH1 0x40 MLOAD PUSH3 0x461BCD PUSH1 0xE5 SHL DUP2 MSTORE PUSH1 0x20 PUSH1 0x4 DUP3 ADD MSTORE PUSH1 0x2C PUSH1 0x24 DUP3 ADD MSTORE PUSH32 0x4552433732313A20617070726F76656420717565727920666F72206E6F6E6578 PUSH1 0x44 DUP3 ADD MSTORE PUSH12 0x34B9BA32B73A103A37B5B2B7 PUSH1 0xA1 SHL PUSH1 0x64 DUP3 ADD MSTORE PUSH1 0x84 ADD JUMPDEST PUSH1 0x40 MLOAD DUP1 SWAP2 SUB SWAP1 REVERT JUMPDEST POP PUSH1 0x0 SWAP1 DUP2 MSTORE PUSH1 0xC PUSH1 0x20 MSTORE PUSH1 0x40 SWAP1 KECCAK256 SLOAD PUSH1 0x1 PUSH1 0x1 PUSH1 0xA0 SHL SUB AND SWAP1 JUMP JUMPDEST PUSH1 0x0 PUSH2 0x8F0 DUP3 PUSH2 0xCA5 JUMP JUMPDEST SWAP1 POP DUP1 PUSH1 0x1 PUSH1 0x1 PUSH1 0xA0 SHL SUB AND DUP4 PUSH1 0x1 PUSH1 0x1 PUSH1 0xA0 SHL SUB AND EQ ISZERO PUSH2 0x95E JUMPI PUSH1 0x40 MLOAD PUSH3 0x461BCD PUSH1 0xE5 SHL DUP2 MSTORE PUSH1 0x20 PUSH1 0x4 DUP3 ADD MSTORE PUSH1 0x21 PUSH1 0x24 DUP3 ADD MSTORE PUSH32 0x4552433732313A20617070726F76616C20746F2063757272656E74206F776E65 PUSH1 0x44 DUP3 ADD MSTORE PUSH1 0x39 PUSH1 0xF9 SHL PUSH1 0x64 DUP3 ADD MSTORE PUSH1 0x84 ADD PUSH2 0x8C0 JUMP JUMPDEST CALLER PUSH1 0x1 PUSH1 0x1 PUSH1 0xA0 SHL SUB DUP3 AND EQ DUP1 PUSH2 0x97A JUMPI POP PUSH2 0x97A DUP2 CALLER PUSH2 0x6F9 JUMP JUMPDEST PUSH2 0x9EC JUMPI PUSH1 0x40 MLOAD PUSH3 0x461BCD PUSH1 0xE5 SHL DUP2 MSTORE PUSH1 0x20 PUSH1 0x4 DUP3 ADD MSTORE PUSH1 0x38 PUSH1 0x24 DUP3 ADD MSTORE PUSH32 0x4552433732313A20617070726F76652063616C6C6572206973206E6F74206F77 PUSH1 0x44 DUP3 ADD MSTORE PUSH32 0x6E6572206E6F7220617070726F76656420666F7220616C6C0000000000000000 PUSH1 0x64 DUP3 ADD MSTORE PUSH1 0x84 ADD PUSH2 0x8C0 JUMP JUMPDEST PUSH2 0x9F6 DUP4 DUP4 PUSH2 0x1D5A JUMP JUMPDEST POP POP POP JUMP JUMPDEST PUSH2 0xA05 CALLER DUP3 PUSH2 0x1DC8 JUMP JUMPDEST PUSH2 0xA21 JUMPI PUSH1 0x40 MLOAD PUSH3 0x461BCD PUSH1 0xE5 SHL DUP2 MSTORE PUSH1 0x4 ADD PUSH2 0x8C0 SWAP1 PUSH2 0x30C4 JUMP JUMPDEST PUSH2 0x9F6 DUP4 DUP4 DUP4 PUSH2 0x1EBF JUMP JUMPDEST PUSH1 0x1 SLOAD PUSH1 0x1 PUSH1 0x1 PUSH1 0xA0 SHL SUB AND CALLER EQ PUSH2 0xA56 JUMPI PUSH1 0x40 MLOAD PUSH3 0x461BCD PUSH1 0xE5 SHL DUP2 MSTORE PUSH1 0x4 ADD PUSH2 0x8C0 SWAP1 PUSH2 0x3044 JUMP JUMPDEST PUSH1 0x0 DUP2 DUP2 MSTORE PUSH1 0x18 PUSH1 0x20 MSTORE PUSH1 0x40 DUP1 DUP3 KECCAK256 PUSH1 0x1 DUP2 ADD SLOAD SWAP1 SLOAD SWAP2 MLOAD PUSH2 0x100 SWAP1 SWAP2 DIV PUSH1 0x1 PUSH1 0x1 PUSH1 0xA0 SHL SUB AND SWAP3 SWAP1 DUP4 SWAP1 DUP4 SWAP1 PUSH1 0x0 PUSH1 0x40 MLOAD DUP1 DUP4 SUB DUP2 DUP6 DUP8 GAS CALL SWAP3 POP POP POP RETURNDATASIZE DUP1 PUSH1 0x0 DUP2 EQ PUSH2 0xAC0 JUMPI PUSH1 0x40 MLOAD SWAP2 POP PUSH1 0x1F NOT PUSH1 0x3F RETURNDATASIZE ADD AND DUP3 ADD PUSH1 0x40 MSTORE RETURNDATASIZE DUP3 MSTORE RETURNDATASIZE PUSH1 0x0 PUSH1 0x20 DUP5 ADD RETURNDATACOPY PUSH2 0xAC5 JUMP JUMPDEST PUSH1 0x60 SWAP2 POP JUMPDEST POP POP POP POP POP POP POP JUMP JUMPDEST PUSH1 0x60 PUSH1 0x0 PUSH1 0x40 MLOAD DUP1 PUSH1 0x40 ADD PUSH1 0x40 MSTORE DUP1 PUSH1 0x1A DUP2 MSTORE PUSH1 0x20 ADD PUSH32 0x646174613A696D6167652F7376672B786D6C3B6261736536342C000000000000 DUP2 MSTORE POP SWAP1 POP PUSH1 0x0 PUSH2 0xB34 DUP5 PUSH1 0x40 MLOAD PUSH1 0x20 ADD PUSH2 0xB20 SWAP2 SWAP1 PUSH2 0x2C0A JUMP JUMPDEST PUSH1 0x40 MLOAD PUSH1 0x20 DUP2 DUP4 SUB SUB DUP2 MSTORE SWAP1 PUSH1 0x40 MSTORE PUSH2 0x205F JUMP JUMPDEST SWAP1 POP DUP2 DUP2 PUSH1 0x40 MLOAD PUSH1 0x20 ADD PUSH2 0xB49 SWAP3 SWAP2 SWAP1 PUSH2 0x2C26 JUMP JUMPDEST PUSH1 0x40 MLOAD PUSH1 0x20 DUP2 DUP4 SUB SUB DUP2 MSTORE SWAP1 PUSH1 0x40 MSTORE SWAP3 POP POP POP SWAP2 SWAP1 POP JUMP JUMPDEST PUSH1 0x1 SLOAD PUSH1 0x0 SWAP1 PUSH1 0x1 PUSH1 0x1 PUSH1 0xA0 SHL SUB AND CALLER EQ PUSH2 0xB8E JUMPI PUSH1 0x40 MLOAD PUSH3 0x461BCD PUSH1 0xE5 SHL DUP2 MSTORE PUSH1 0x4 ADD PUSH2 0x8C0 SWAP1 PUSH2 0x3044 JUMP JUMPDEST PUSH1 0x0 DUP3 DUP2 MSTORE PUSH1 0x18 PUSH1 0x20 MSTORE PUSH1 0x40 SWAP1 KECCAK256 PUSH1 0x1 ADD SLOAD PUSH1 0xFF AND ISZERO PUSH2 0xBFE JUMPI PUSH1 0x40 MLOAD PUSH3 0x461BCD PUSH1 0xE5 SHL DUP2 MSTORE PUSH1 0x20 PUSH1 0x4 DUP3 ADD MSTORE PUSH1 0x25 PUSH1 0x24 DUP3 ADD MSTORE PUSH32 0x5468697320706572736F6E2068617320616C7265616479206265656E20746174 PUSH1 0x44 DUP3 ADD MSTORE PUSH5 0x746F6F6421 PUSH1 0xD8 SHL PUSH1 0x64 DUP3 ADD MSTORE PUSH1 0x84 ADD PUSH2 0x8C0 JUMP JUMPDEST PUSH1 0x0 PUSH2 0xC14 PUSH1 0x10 SLOAD ADDRESS PUSH4 0xFD68990A PUSH1 0xE0 SHL PUSH2 0x21C7 JUMP JUMPDEST PUSH1 0x11 SLOAD PUSH1 0x12 SLOAD SWAP2 SWAP3 POP PUSH2 0xC34 SWAP2 PUSH1 0x1 PUSH1 0x1 PUSH1 0xA0 SHL SUB SWAP1 SWAP2 AND SWAP1 DUP4 SWAP1 PUSH2 0x21EC JUMP JUMPDEST POP POP PUSH1 0x0 DUP2 DUP2 MSTORE PUSH1 0x15 PUSH1 0x20 MSTORE PUSH1 0x40 SWAP1 KECCAK256 SWAP2 SWAP1 SWAP2 SSTORE SWAP1 JUMP JUMPDEST PUSH2 0x9F6 DUP4 DUP4 DUP4 PUSH1 0x40 MLOAD DUP1 PUSH1 0x20 ADD PUSH1 0x40 MSTORE DUP1 PUSH1 0x0 DUP2 MSTORE POP PUSH2 0x12C7 JUMP JUMPDEST PUSH1 0x60 PUSH2 0xC7E DUP3 DUP5 PUSH1 0x40 MLOAD PUSH1 0x20 ADD PUSH2 0xB20 SWAP3 SWAP2 SWAP1 PUSH2 0x2D99 JUMP JUMPDEST PUSH1 0x40 MLOAD PUSH1 0x20 ADD PUSH2 0xC8E SWAP2 SWAP1 PUSH2 0x2ECE JUMP JUMPDEST PUSH1 0x40 MLOAD PUSH1 0x20 DUP2 DUP4 SUB SUB DUP2 MSTORE SWAP1 PUSH1 0x40 MSTORE SWAP1 POP SWAP3 SWAP2 POP POP JUMP JUMPDEST PUSH1 0x0 DUP2 DUP2 MSTORE PUSH1 0xA PUSH1 0x20 MSTORE PUSH1 0x40 DUP2 KECCAK256 SLOAD PUSH1 0x1 PUSH1 0x1 PUSH1 0xA0 SHL SUB AND DUP1 PUSH2 0x7B3 JUMPI PUSH1 0x40 MLOAD PUSH3 0x461BCD PUSH1 0xE5 SHL DUP2 MSTORE PUSH1 0x20 PUSH1 0x4 DUP3 ADD MSTORE PUSH1 0x29 PUSH1 0x24 DUP3 ADD MSTORE PUSH32 0x4552433732313A206F776E657220717565727920666F72206E6F6E6578697374 PUSH1 0x44 DUP3 ADD MSTORE PUSH9 0x32B73A103A37B5B2B7 PUSH1 0xB9 SHL PUSH1 0x64 DUP3 ADD MSTORE PUSH1 0x84 ADD PUSH2 0x8C0 JUMP JUMPDEST PUSH1 0x1 SLOAD PUSH1 0x1 PUSH1 0x1 PUSH1 0xA0 SHL SUB AND CALLER EQ PUSH2 0xD46 JUMPI PUSH1 0x40 MLOAD PUSH3 0x461BCD PUSH1 0xE5 SHL DUP2 MSTORE PUSH1 0x4 ADD PUSH2 0x8C0 SWAP1 PUSH2 0x3044 JUMP JUMPDEST PUSH1 0x14 DUP1 SLOAD PUSH1 0xFF NOT AND SWAP2 ISZERO ISZERO SWAP2 SWAP1 SWAP2 OR SWAP1 SSTORE JUMP JUMPDEST PUSH1 0x0 PUSH1 0x1 PUSH1 0x1 PUSH1 0xA0 SHL SUB DUP3 AND PUSH2 0xDC4 JUMPI PUSH1 0x40 MLOAD PUSH3 0x461BCD PUSH1 0xE5 SHL DUP2 MSTORE PUSH1 0x20 PUSH1 0x4 DUP3 ADD MSTORE PUSH1 0x2A PUSH1 0x24 DUP3 ADD MSTORE PUSH32 0x4552433732313A2062616C616E636520717565727920666F7220746865207A65 PUSH1 0x44 DUP3 ADD MSTORE PUSH10 0x726F2061646472657373 PUSH1 0xB0 SHL PUSH1 0x64 DUP3 ADD MSTORE PUSH1 0x84 ADD PUSH2 0x8C0 JUMP JUMPDEST POP PUSH1 0x1 PUSH1 0x1 PUSH1 0xA0 SHL SUB AND PUSH1 0x0 SWAP1 DUP2 MSTORE PUSH1 0xB PUSH1 0x20 MSTORE PUSH1 0x40 SWAP1 KECCAK256 SLOAD SWAP1 JUMP JUMPDEST PUSH1 0x1 SLOAD PUSH1 0x1 PUSH1 0x1 PUSH1 0xA0 SHL SUB AND CALLER EQ PUSH2 0xE0A JUMPI PUSH1 0x40 MLOAD PUSH3 0x461BCD PUSH1 0xE5 SHL DUP2 MSTORE PUSH1 0x4 ADD PUSH2 0x8C0 SWAP1 PUSH2 0x3044 JUMP JUMPDEST PUSH2 0xE14 PUSH1 0x0 PUSH2 0x2203 JUMP JUMPDEST JUMP JUMPDEST PUSH1 0x1 SLOAD PUSH1 0x1 PUSH1 0x1 PUSH1 0xA0 SHL SUB AND CALLER EQ PUSH2 0xE40 JUMPI PUSH1 0x40 MLOAD PUSH3 0x461BCD PUSH1 0xE5 SHL DUP2 MSTORE PUSH1 0x4 ADD PUSH2 0x8C0 SWAP1 PUSH2 0x3044 JUMP JUMPDEST PUSH1 0x16 SLOAD PUSH1 0x40 MLOAD PUSH4 0x3C4629CB PUSH1 0xE2 SHL DUP2 MSTORE CALLER PUSH1 0x4 DUP3 ADD MSTORE PUSH1 0x1 PUSH1 0x1 PUSH1 0xA0 SHL SUB SWAP1 SWAP2 AND SWAP1 PUSH4 0xF118A72C SWAP1 PUSH1 0x24 ADD JUMPDEST PUSH1 0x0 PUSH1 0x40 MLOAD DUP1 DUP4 SUB DUP2 PUSH1 0x0 DUP8 DUP1 EXTCODESIZE ISZERO DUP1 ISZERO PUSH2 0xE86 JUMPI PUSH1 0x0 DUP1 REVERT JUMPDEST POP GAS CALL ISZERO DUP1 ISZERO PUSH2 0xE9A JUMPI RETURNDATASIZE PUSH1 0x0 DUP1 RETURNDATACOPY RETURNDATASIZE PUSH1 0x0 REVERT JUMPDEST POP POP POP POP JUMP JUMPDEST PUSH1 0x1 SLOAD PUSH1 0x1 PUSH1 0x1 PUSH1 0xA0 SHL SUB AND CALLER EQ PUSH2 0xECA JUMPI PUSH1 0x40 MLOAD PUSH3 0x461BCD PUSH1 0xE5 SHL DUP2 MSTORE PUSH1 0x4 ADD PUSH2 0x8C0 SWAP1 PUSH2 0x3044 JUMP JUMPDEST PUSH1 0x16 SLOAD PUSH1 0x40 MLOAD PUSH4 0x14A028C5 PUSH1 0xE0 SHL DUP2 MSTORE CALLER PUSH1 0x4 DUP3 ADD MSTORE PUSH1 0x1 PUSH1 0x1 PUSH1 0xA0 SHL SUB SWAP1 SWAP2 AND SWAP1 PUSH4 0x14A028C5 SWAP1 PUSH1 0x24 ADD PUSH2 0xE6C JUMP JUMPDEST PUSH1 0x1 SLOAD PUSH1 0x1 PUSH1 0x1 PUSH1 0xA0 SHL SUB AND CALLER EQ PUSH2 0xF24 JUMPI PUSH1 0x40 MLOAD PUSH3 0x461BCD PUSH1 0xE5 SHL DUP2 MSTORE PUSH1 0x4 ADD PUSH2 0x8C0 SWAP1 PUSH2 0x3044 JUMP JUMPDEST PUSH1 0x0 PUSH2 0xF38 PUSH1 0x4 SLOAD PUSH1 0x1 PUSH1 0x1 PUSH1 0xA0 SHL SUB AND SWAP1 JUMP JUMPDEST PUSH1 0x40 MLOAD PUSH4 0x70A08231 PUSH1 0xE0 SHL DUP2 MSTORE ADDRESS PUSH1 0x4 DUP3 ADD MSTORE SWAP1 SWAP2 POP PUSH1 0x1 PUSH1 0x1 PUSH1 0xA0 SHL SUB DUP3 AND SWAP1 PUSH4 0xA9059CBB SWAP1 CALLER SWAP1 DUP4 SWAP1 PUSH4 0x70A08231 SWAP1 PUSH1 0x24 ADD PUSH1 0x20 PUSH1 0x40 MLOAD DUP1 DUP4 SUB DUP2 DUP7 DUP1 EXTCODESIZE ISZERO DUP1 ISZERO PUSH2 0xF84 JUMPI PUSH1 0x0 DUP1 REVERT JUMPDEST POP GAS STATICCALL ISZERO DUP1 ISZERO PUSH2 0xF98 JUMPI RETURNDATASIZE PUSH1 0x0 DUP1 RETURNDATACOPY RETURNDATASIZE PUSH1 0x0 REVERT JUMPDEST POP POP POP POP PUSH1 0x40 MLOAD RETURNDATASIZE PUSH1 0x1F NOT PUSH1 0x1F DUP3 ADD AND DUP3 ADD DUP1 PUSH1 0x40 MSTORE POP DUP2 ADD SWAP1 PUSH2 0xFBC SWAP2 SWAP1 PUSH2 0x2BC5 JUMP JUMPDEST PUSH1 0x40 MLOAD PUSH1 0x1 PUSH1 0x1 PUSH1 0xE0 SHL SUB NOT PUSH1 0xE0 DUP6 SWAP1 SHL AND DUP2 MSTORE PUSH1 0x1 PUSH1 0x1 PUSH1 0xA0 SHL SUB SWAP1 SWAP3 AND PUSH1 0x4 DUP4 ADD MSTORE PUSH1 0x24 DUP3 ADD MSTORE PUSH1 0x44 ADD PUSH1 0x20 PUSH1 0x40 MLOAD DUP1 DUP4 SUB DUP2 PUSH1 0x0 DUP8 DUP1 EXTCODESIZE ISZERO DUP1 ISZERO PUSH2 0x1002 JUMPI PUSH1 0x0 DUP1 REVERT JUMPDEST POP GAS CALL ISZERO DUP1 ISZERO PUSH2 0x1016 JUMPI RETURNDATASIZE PUSH1 0x0 DUP1 RETURNDATACOPY RETURNDATASIZE PUSH1 0x0 REVERT JUMPDEST POP POP POP POP PUSH1 0x40 MLOAD RETURNDATASIZE PUSH1 0x1F NOT PUSH1 0x1F DUP3 ADD AND DUP3 ADD DUP1 PUSH1 0x40 MSTORE POP DUP2 ADD SWAP1 PUSH2 0x103A SWAP2 SWAP1 PUSH2 0x2A0B JUMP JUMPDEST PUSH2 0x107B JUMPI PUSH1 0x40 MLOAD PUSH3 0x461BCD PUSH1 0xE5 SHL DUP2 MSTORE PUSH1 0x20 PUSH1 0x4 DUP3 ADD MSTORE PUSH1 0x12 PUSH1 0x24 DUP3 ADD MSTORE PUSH18 0x2AB730B13632903A37903A3930B739B332B9 PUSH1 0x71 SHL PUSH1 0x44 DUP3 ADD MSTORE PUSH1 0x64 ADD PUSH2 0x8C0 JUMP JUMPDEST POP JUMP JUMPDEST PUSH1 0x1 SLOAD PUSH1 0x1 PUSH1 0x1 PUSH1 0xA0 SHL SUB AND CALLER EQ PUSH2 0x10A8 JUMPI PUSH1 0x40 MLOAD PUSH3 0x461BCD PUSH1 0xE5 SHL DUP2 MSTORE PUSH1 0x4 ADD PUSH2 0x8C0 SWAP1 PUSH2 0x3044 JUMP JUMPDEST DUP2 PUSH2 0x10F5 JUMPI PUSH1 0x40 MLOAD PUSH3 0x461BCD PUSH1 0xE5 SHL DUP2 MSTORE PUSH1 0x20 PUSH1 0x4 DUP3 ADD MSTORE PUSH1 0x1B PUSH1 0x24 DUP3 ADD MSTORE PUSH32 0x54686520706572736F6E20776173206E6F7420746174746F6F64210000000000 PUSH1 0x44 DUP3 ADD MSTORE PUSH1 0x64 ADD PUSH2 0x8C0 JUMP JUMPDEST PUSH1 0x0 DUP2 DUP2 MSTORE PUSH1 0x18 PUSH1 0x20 MSTORE PUSH1 0x40 DUP1 DUP3 KECCAK256 PUSH1 0x1 DUP2 ADD DUP1 SLOAD PUSH1 0xFF NOT DUP2 AND DUP8 ISZERO ISZERO OR SWAP1 SWAP2 SSTORE SWAP1 SLOAD SWAP2 MLOAD PUSH2 0x100 SWAP1 SWAP2 DIV PUSH1 0x1 PUSH1 0x1 PUSH1 0xA0 SHL SUB AND SWAP3 SWAP1 DUP4 SWAP1 DUP4 SWAP1 PUSH1 0x0 PUSH1 0x40 MLOAD DUP1 DUP4 SUB DUP2 DUP6 DUP8 GAS CALL SWAP3 POP POP POP RETURNDATASIZE DUP1 PUSH1 0x0 DUP2 EQ PUSH2 0x116C JUMPI PUSH1 0x40 MLOAD SWAP2 POP PUSH1 0x1F NOT PUSH1 0x3F RETURNDATASIZE ADD AND DUP3 ADD PUSH1 0x40 MSTORE RETURNDATASIZE DUP3 MSTORE RETURNDATASIZE PUSH1 0x0 PUSH1 0x20 DUP5 ADD RETURNDATACOPY PUSH2 0x1171 JUMP JUMPDEST PUSH1 0x60 SWAP2 POP JUMPDEST POP POP SWAP1 POP DUP1 PUSH2 0x1192 JUMPI PUSH1 0x40 MLOAD PUSH3 0x461BCD PUSH1 0xE5 SHL DUP2 MSTORE PUSH1 0x4 ADD PUSH2 0x8C0 SWAP1 PUSH2 0x3079 JUMP JUMPDEST POP POP POP POP POP JUMP JUMPDEST PUSH1 0x1 SLOAD PUSH1 0x1 PUSH1 0x1 PUSH1 0xA0 SHL SUB AND CALLER EQ PUSH2 0x11C3 JUMPI PUSH1 0x40 MLOAD PUSH3 0x461BCD PUSH1 0xE5 SHL DUP2 MSTORE PUSH1 0x4 ADD PUSH2 0x8C0 SWAP1 PUSH2 0x3044 JUMP JUMPDEST PUSH1 0x16 SLOAD PUSH1 0x40 MLOAD PUSH4 0xB7D290A7 PUSH1 0xE0 SHL DUP2 MSTORE CALLER PUSH1 0x4 DUP3 ADD MSTORE PUSH1 0x1 PUSH1 0x1 PUSH1 0xA0 SHL SUB SWAP1 SWAP2 AND SWAP1 PUSH4 0xB7D290A7 SWAP1 PUSH1 0x24 ADD PUSH2 0xE6C JUMP JUMPDEST PUSH1 0x60 PUSH1 0x9 DUP1 SLOAD PUSH2 0x7C8 SWAP1 PUSH2 0x31FC JUMP JUMPDEST PUSH1 0x1 PUSH1 0x1 PUSH1 0xA0 SHL SUB DUP3 AND CALLER EQ ISZERO PUSH2 0x125B JUMPI PUSH1 0x40 MLOAD PUSH3 0x461BCD PUSH1 0xE5 SHL DUP2 MSTORE PUSH1 0x20 PUSH1 0x4 DUP3 ADD MSTORE PUSH1 0x19 PUSH1 0x24 DUP3 ADD MSTORE PUSH32 0x4552433732313A20617070726F766520746F2063616C6C657200000000000000 PUSH1 0x44 DUP3 ADD MSTORE PUSH1 0x64 ADD PUSH2 0x8C0 JUMP JUMPDEST CALLER PUSH1 0x0 DUP2 DUP2 MSTORE PUSH1 0xD PUSH1 0x20 SWAP1 DUP2 MSTORE PUSH1 0x40 DUP1 DUP4 KECCAK256 PUSH1 0x1 PUSH1 0x1 PUSH1 0xA0 SHL SUB DUP8 AND DUP1 DUP6 MSTORE SWAP1 DUP4 MSTORE SWAP3 DUP2 SWAP1 KECCAK256 DUP1 SLOAD PUSH1 0xFF NOT AND DUP7 ISZERO ISZERO SWAP1 DUP2 OR SWAP1 SWAP2 SSTORE SWAP1 MLOAD SWAP1 DUP2 MSTORE SWAP2 SWAP3 SWAP2 PUSH32 0x17307EAB39AB6107E8899845AD3D59BD9653F200F220920489CA2B5937696C31 SWAP2 ADD PUSH1 0x40 MLOAD DUP1 SWAP2 SUB SWAP1 LOG3 POP POP JUMP JUMPDEST PUSH2 0x12D1 CALLER DUP4 PUSH2 0x1DC8 JUMP JUMPDEST PUSH2 0x12ED JUMPI PUSH1 0x40 MLOAD PUSH3 0x461BCD PUSH1 0xE5 SHL DUP2 MSTORE PUSH1 0x4 ADD PUSH2 0x8C0 SWAP1 PUSH2 0x30C4 JUMP JUMPDEST PUSH2 0xE9A DUP5 DUP5 DUP5 DUP5 PUSH2 0x2255 JUMP JUMPDEST PUSH1 0x1 SLOAD PUSH1 0x1 PUSH1 0x1 PUSH1 0xA0 SHL SUB AND CALLER EQ PUSH2 0x1323 JUMPI PUSH1 0x40 MLOAD PUSH3 0x461BCD PUSH1 0xE5 SHL DUP2 MSTORE PUSH1 0x4 ADD PUSH2 0x8C0 SWAP1 PUSH2 0x3044 JUMP JUMPDEST PUSH1 0x16 SLOAD PUSH1 0x40 MLOAD PUSH4 0xD49ADA6F PUSH1 0xE0 SHL DUP2 MSTORE CALLER PUSH1 0x4 DUP3 ADD MSTORE PUSH1 0x1 PUSH1 0x1 PUSH1 0xA0 SHL SUB SWAP1 SWAP2 AND SWAP1 PUSH4 0xD49ADA6F SWAP1 PUSH1 0x24 ADD PUSH2 0xE6C JUMP JUMPDEST PUSH1 0x60 PUSH1 0x0 PUSH1 0x40 MLOAD DUP1 PUSH1 0x80 ADD PUSH1 0x40 MSTORE DUP1 PUSH1 0x41 DUP2 MSTORE PUSH1 0x20 ADD PUSH2 0x330D PUSH1 0x41 SWAP2 CODECOPY PUSH1 0x40 DUP1 MLOAD DUP1 DUP3 ADD DUP3 MSTORE PUSH1 0x1F DUP2 MSTORE PUSH32 0x7374796C653D276261636B67726F756E642D636F6C6F723A626C61636B273E00 PUSH1 0x20 DUP1 DUP4 ADD SWAP2 SWAP1 SWAP2 MSTORE DUP3 MLOAD DUP1 DUP3 ADD DUP5 MSTORE PUSH1 0x0 DUP1 DUP3 MSTORE DUP5 MLOAD DUP1 DUP5 ADD DUP7 MSTORE DUP2 DUP2 MSTORE DUP6 MLOAD DUP1 DUP8 ADD SWAP1 SWAP7 MSTORE PUSH1 0x6 DUP7 MSTORE PUSH6 0x1E17B9BB339F PUSH1 0xD1 SHL SWAP4 DUP7 ADD SWAP4 SWAP1 SWAP4 MSTORE SWAP5 SWAP6 POP SWAP2 SWAP4 SWAP2 SWAP3 SWAP1 SWAP2 PUSH1 0x1 SWAP1 PUSH2 0x13F1 DUP10 PUSH1 0xE3 PUSH2 0x319A JUMP JUMPDEST SWAP1 POP JUMPDEST PUSH2 0x13FF DUP10 PUSH1 0xE3 PUSH2 0x319A JUMP JUMPDEST PUSH2 0x140A SWAP1 PUSH1 0xE3 PUSH2 0x316E JUMP JUMPDEST DUP2 LT ISZERO PUSH2 0x17C7 JUMPI PUSH1 0x16 SLOAD PUSH1 0x40 MLOAD PUSH4 0x6AB98B85 PUSH1 0xE1 SHL DUP2 MSTORE PUSH1 0x4 DUP2 ADD DUP4 SWAP1 MSTORE PUSH1 0x1 PUSH1 0x1 PUSH1 0xA0 SHL SUB SWAP1 SWAP2 AND SWAP1 PUSH4 0xD573170A SWAP1 PUSH1 0x24 ADD PUSH1 0x20 PUSH1 0x40 MLOAD DUP1 DUP4 SUB DUP2 DUP7 DUP1 EXTCODESIZE ISZERO DUP1 ISZERO PUSH2 0x1455 JUMPI PUSH1 0x0 DUP1 REVERT JUMPDEST POP GAS STATICCALL ISZERO DUP1 ISZERO PUSH2 0x1469 JUMPI RETURNDATASIZE PUSH1 0x0 DUP1 RETURNDATACOPY RETURNDATASIZE PUSH1 0x0 REVERT JUMPDEST POP POP POP POP PUSH1 0x40 MLOAD RETURNDATASIZE PUSH1 0x1F NOT PUSH1 0x1F DUP3 ADD AND DUP3 ADD DUP1 PUSH1 0x40 MSTORE POP DUP2 ADD SWAP1 PUSH2 0x148D SWAP2 SWAP1 PUSH2 0x2A0B JUMP JUMPDEST ISZERO PUSH2 0x15FA JUMPI PUSH1 0x16 SLOAD PUSH1 0x40 MLOAD PUSH4 0x4002BDCD PUSH1 0xE1 SHL DUP2 MSTORE PUSH1 0x4 DUP2 ADD DUP4 SWAP1 MSTORE PUSH2 0x153B SWAP2 PUSH1 0x1 PUSH1 0x1 PUSH1 0xA0 SHL SUB AND SWAP1 PUSH4 0x80057B9A SWAP1 PUSH1 0x24 ADD PUSH1 0x0 PUSH1 0x40 MLOAD DUP1 DUP4 SUB DUP2 DUP7 DUP1 EXTCODESIZE ISZERO DUP1 ISZERO PUSH2 0x14D8 JUMPI PUSH1 0x0 DUP1 REVERT JUMPDEST POP GAS STATICCALL ISZERO DUP1 ISZERO PUSH2 0x14EC JUMPI RETURNDATASIZE PUSH1 0x0 DUP1 RETURNDATACOPY RETURNDATASIZE PUSH1 0x0 REVERT JUMPDEST POP POP POP POP PUSH1 0x40 MLOAD RETURNDATASIZE PUSH1 0x0 DUP3 RETURNDATACOPY PUSH1 0x1F RETURNDATASIZE SWAP1 DUP2 ADD PUSH1 0x1F NOT AND DUP3 ADD PUSH1 0x40 MSTORE PUSH2 0x1514 SWAP2 SWAP1 DUP2 ADD SWAP1 PUSH2 0x2AF3 JUMP JUMPDEST PUSH1 0x40 MLOAD DUP1 PUSH1 0x40 ADD PUSH1 0x40 MSTORE DUP1 PUSH1 0x9 DUP2 MSTORE PUSH1 0x20 ADD PUSH9 0x677261797363616C65 PUSH1 0xB8 SHL DUP2 MSTORE POP PUSH2 0x17FD JUMP JUMPDEST PUSH2 0x15E9 JUMPI PUSH1 0x16 SLOAD PUSH1 0x40 MLOAD PUSH4 0x4002BDCD PUSH1 0xE1 SHL DUP2 MSTORE PUSH1 0x4 DUP2 ADD DUP4 SWAP1 MSTORE PUSH1 0x0 SWAP4 POP PUSH1 0x1 PUSH1 0x1 PUSH1 0xA0 SHL SUB SWAP1 SWAP2 AND SWAP1 PUSH4 0x80057B9A SWAP1 PUSH1 0x24 ADD PUSH1 0x0 PUSH1 0x40 MLOAD DUP1 DUP4 SUB DUP2 DUP7 DUP1 EXTCODESIZE ISZERO DUP1 ISZERO PUSH2 0x1587 JUMPI PUSH1 0x0 DUP1 REVERT JUMPDEST POP GAS STATICCALL ISZERO DUP1 ISZERO PUSH2 0x159B JUMPI RETURNDATASIZE PUSH1 0x0 DUP1 RETURNDATACOPY RETURNDATASIZE PUSH1 0x0 REVERT JUMPDEST POP POP POP POP PUSH1 0x40 MLOAD RETURNDATASIZE PUSH1 0x0 DUP3 RETURNDATACOPY PUSH1 0x1F RETURNDATASIZE SWAP1 DUP2 ADD PUSH1 0x1F NOT AND DUP3 ADD PUSH1 0x40 MSTORE PUSH2 0x15C3 SWAP2 SWAP1 DUP2 ADD SWAP1 PUSH2 0x2AF3 JUMP JUMPDEST PUSH1 0x40 MLOAD PUSH1 0x20 ADD PUSH2 0x15D3 SWAP2 SWAP1 PUSH2 0x2E7D JUMP JUMPDEST PUSH1 0x40 MLOAD PUSH1 0x20 DUP2 DUP4 SUB SUB DUP2 MSTORE SWAP1 PUSH1 0x40 MSTORE SWAP6 POP PUSH2 0x17B5 JUMP JUMPDEST DUP6 PUSH1 0x40 MLOAD PUSH1 0x20 ADD PUSH2 0x15D3 SWAP2 SWAP1 PUSH2 0x2CC0 JUMP JUMPDEST PUSH1 0x16 SLOAD PUSH1 0x40 MLOAD PUSH4 0x16D7188F PUSH1 0xE0 SHL DUP2 MSTORE PUSH1 0x4 DUP2 ADD DUP4 SWAP1 MSTORE PUSH1 0x1 PUSH1 0x1 PUSH1 0xA0 SHL SUB SWAP1 SWAP2 AND SWAP1 PUSH4 0x16D7188F SWAP1 PUSH1 0x24 ADD PUSH1 0x20 PUSH1 0x40 MLOAD DUP1 DUP4 SUB DUP2 DUP7 DUP1 EXTCODESIZE ISZERO DUP1 ISZERO PUSH2 0x163E JUMPI PUSH1 0x0 DUP1 REVERT JUMPDEST POP GAS STATICCALL ISZERO DUP1 ISZERO PUSH2 0x1652 JUMPI RETURNDATASIZE PUSH1 0x0 DUP1 RETURNDATACOPY RETURNDATASIZE PUSH1 0x0 REVERT JUMPDEST POP POP POP POP PUSH1 0x40 MLOAD RETURNDATASIZE PUSH1 0x1F NOT PUSH1 0x1F DUP3 ADD AND DUP3 ADD DUP1 PUSH1 0x40 MSTORE POP DUP2 ADD SWAP1 PUSH2 0x1676 SWAP2 SWAP1 PUSH2 0x2A0B JUMP JUMPDEST ISZERO PUSH2 0x170A JUMPI PUSH1 0x16 SLOAD PUSH1 0x40 MLOAD PUSH4 0x2124BDB7 PUSH1 0xE0 SHL DUP2 MSTORE PUSH1 0x4 DUP2 ADD DUP4 SWAP1 MSTORE DUP4 ISZERO ISZERO PUSH1 0x24 DUP3 ADD MSTORE PUSH1 0x1 PUSH1 0x1 PUSH1 0xA0 SHL SUB SWAP1 SWAP2 AND SWAP1 PUSH4 0x2124BDB7 SWAP1 PUSH1 0x44 ADD PUSH1 0x0 PUSH1 0x40 MLOAD DUP1 DUP4 SUB DUP2 DUP7 DUP1 EXTCODESIZE ISZERO DUP1 ISZERO PUSH2 0x16C7 JUMPI PUSH1 0x0 DUP1 REVERT JUMPDEST POP GAS STATICCALL ISZERO DUP1 ISZERO PUSH2 0x16DB JUMPI RETURNDATASIZE PUSH1 0x0 DUP1 RETURNDATACOPY RETURNDATASIZE PUSH1 0x0 REVERT JUMPDEST POP POP POP POP PUSH1 0x40 MLOAD RETURNDATASIZE PUSH1 0x0 DUP3 RETURNDATACOPY PUSH1 0x1F RETURNDATASIZE SWAP1 DUP2 ADD PUSH1 0x1F NOT AND DUP3 ADD PUSH1 0x40 MSTORE PUSH2 0x1703 SWAP2 SWAP1 DUP2 ADD SWAP1 PUSH2 0x2AF3 JUMP JUMPDEST SWAP5 POP PUSH2 0x17B5 JUMP JUMPDEST PUSH1 0x16 SLOAD PUSH1 0x40 MLOAD PUSH4 0x6DE0D89B PUSH1 0xE0 SHL DUP2 MSTORE PUSH1 0x4 DUP2 ADD DUP4 SWAP1 MSTORE DUP4 ISZERO ISZERO PUSH1 0x24 DUP3 ADD MSTORE DUP6 SWAP2 PUSH1 0x1 PUSH1 0x1 PUSH1 0xA0 SHL SUB AND SWAP1 PUSH4 0x6DE0D89B SWAP1 PUSH1 0x44 ADD PUSH1 0x0 PUSH1 0x40 MLOAD DUP1 DUP4 SUB DUP2 DUP7 DUP1 EXTCODESIZE ISZERO DUP1 ISZERO PUSH2 0x1756 JUMPI PUSH1 0x0 DUP1 REVERT JUMPDEST POP GAS STATICCALL ISZERO DUP1 ISZERO PUSH2 0x176A JUMPI RETURNDATASIZE PUSH1 0x0 DUP1 RETURNDATACOPY RETURNDATASIZE PUSH1 0x0 REVERT JUMPDEST POP POP POP POP PUSH1 0x40 MLOAD RETURNDATASIZE PUSH1 0x0 DUP3 RETURNDATACOPY PUSH1 0x1F RETURNDATASIZE SWAP1 DUP2 ADD PUSH1 0x1F NOT AND DUP3 ADD PUSH1 0x40 MSTORE PUSH2 0x1792 SWAP2 SWAP1 DUP2 ADD SWAP1 PUSH2 0x2AF3 JUMP JUMPDEST PUSH1 0x40 MLOAD PUSH1 0x20 ADD PUSH2 0x17A3 SWAP3 SWAP2 SWAP1 PUSH2 0x2C26 JUMP JUMPDEST PUSH1 0x40 MLOAD PUSH1 0x20 DUP2 DUP4 SUB SUB DUP2 MSTORE SWAP1 PUSH1 0x40 MSTORE SWAP4 POP JUMPDEST DUP1 PUSH2 0x17BF DUP2 PUSH2 0x3237 JUMP JUMPDEST SWAP2 POP POP PUSH2 0x13F4 JUMP JUMPDEST POP DUP6 DUP6 DUP6 DUP6 DUP6 PUSH1 0x40 MLOAD PUSH1 0x20 ADD PUSH2 0x17E1 SWAP6 SWAP5 SWAP4 SWAP3 SWAP2 SWAP1 PUSH2 0x2C55 JUMP JUMPDEST PUSH1 0x40 MLOAD PUSH1 0x20 DUP2 DUP4 SUB SUB DUP2 MSTORE SWAP1 PUSH1 0x40 MSTORE SWAP7 POP POP POP POP POP POP POP SWAP2 SWAP1 POP JUMP JUMPDEST PUSH1 0x0 DUP2 PUSH1 0x40 MLOAD PUSH1 0x20 ADD PUSH2 0x1810 SWAP2 SWAP1 PUSH2 0x2C0A JUMP JUMPDEST PUSH1 0x40 MLOAD PUSH1 0x20 DUP2 DUP4 SUB SUB DUP2 MSTORE SWAP1 PUSH1 0x40 MSTORE DUP1 MLOAD SWAP1 PUSH1 0x20 ADD KECCAK256 DUP4 PUSH1 0x40 MLOAD PUSH1 0x20 ADD PUSH2 0x1837 SWAP2 SWAP1 PUSH2 0x2C0A JUMP JUMPDEST PUSH1 0x40 MLOAD PUSH1 0x20 DUP2 DUP4 SUB SUB DUP2 MSTORE SWAP1 PUSH1 0x40 MSTORE DUP1 MLOAD SWAP1 PUSH1 0x20 ADD KECCAK256 EQ SWAP1 POP SWAP3 SWAP2 POP POP JUMP JUMPDEST PUSH1 0x60 PUSH1 0x0 PUSH2 0x1863 DUP4 PUSH2 0x1353 JUMP JUMPDEST PUSH1 0x0 DUP5 DUP2 MSTORE PUSH1 0x18 PUSH1 0x20 MSTORE PUSH1 0x40 SWAP1 KECCAK256 PUSH1 0x1 ADD SLOAD SWAP1 SWAP2 POP PUSH1 0xFF AND PUSH2 0x18B5 JUMPI PUSH2 0x18AE PUSH2 0x188B DUP3 PUSH2 0xACE JUMP JUMPDEST PUSH1 0x40 MLOAD DUP1 PUSH1 0x40 ADD PUSH1 0x40 MSTORE DUP1 PUSH1 0x5 DUP2 MSTORE PUSH1 0x20 ADD PUSH5 0x66616C7365 PUSH1 0xD8 SHL DUP2 MSTORE POP PUSH2 0xC66 JUMP JUMPDEST SWAP4 SWAP3 POP POP POP JUMP JUMPDEST PUSH2 0x18AE PUSH2 0x18C1 DUP3 PUSH2 0xACE JUMP JUMPDEST PUSH1 0x40 MLOAD DUP1 PUSH1 0x40 ADD PUSH1 0x40 MSTORE DUP1 PUSH1 0x4 DUP2 MSTORE PUSH1 0x20 ADD PUSH4 0x74727565 PUSH1 0xE0 SHL DUP2 MSTORE POP PUSH2 0xC66 JUMP JUMPDEST PUSH1 0x2 PUSH1 0x0 SLOAD EQ ISZERO PUSH2 0x1936 JUMPI PUSH1 0x40 MLOAD PUSH3 0x461BCD PUSH1 0xE5 SHL DUP2 MSTORE PUSH1 0x20 PUSH1 0x4 DUP3 ADD MSTORE PUSH1 0x1F PUSH1 0x24 DUP3 ADD MSTORE PUSH32 0x5265656E7472616E637947756172643A207265656E7472616E742063616C6C00 PUSH1 0x44 DUP3 ADD MSTORE PUSH1 0x64 ADD PUSH2 0x8C0 JUMP JUMPDEST PUSH1 0x2 PUSH1 0x0 SSTORE PUSH1 0x1 SLOAD PUSH1 0x1 PUSH1 0x1 PUSH1 0xA0 SHL SUB AND CALLER EQ PUSH2 0x1965 JUMPI PUSH1 0x40 MLOAD PUSH3 0x461BCD PUSH1 0xE5 SHL DUP2 MSTORE PUSH1 0x4 ADD PUSH2 0x8C0 SWAP1 PUSH2 0x3044 JUMP JUMPDEST PUSH1 0x1 SLOAD PUSH1 0x1 PUSH1 0x1 PUSH1 0xA0 SHL SUB AND CALLER EQ DUP1 PUSH2 0x1980 JUMPI POP PUSH1 0x14 SLOAD PUSH1 0xFF AND JUMPDEST PUSH2 0x19C4 JUMPI PUSH1 0x40 MLOAD PUSH3 0x461BCD PUSH1 0xE5 SHL DUP2 MSTORE PUSH1 0x20 PUSH1 0x4 DUP3 ADD MSTORE PUSH1 0x15 PUSH1 0x24 DUP3 ADD MSTORE PUSH21 0x5374696C6C20696E20626574612C20736F72727921 PUSH1 0x58 SHL PUSH1 0x44 DUP3 ADD MSTORE PUSH1 0x64 ADD PUSH2 0x8C0 JUMP JUMPDEST PUSH1 0xF SLOAD CALLVALUE LT ISZERO PUSH2 0x1A25 JUMPI PUSH1 0x40 MLOAD PUSH3 0x461BCD PUSH1 0xE5 SHL DUP2 MSTORE PUSH1 0x20 PUSH1 0x4 DUP3 ADD MSTORE PUSH1 0x26 PUSH1 0x24 DUP3 ADD MSTORE PUSH32 0x596F75206469646E27742073656E6420656E6F75676820657468657220746F20 PUSH1 0x44 DUP3 ADD MSTORE PUSH6 0x7374616B6521 PUSH1 0xD0 SHL PUSH1 0x64 DUP3 ADD MSTORE PUSH1 0x84 ADD PUSH2 0x8C0 JUMP JUMPDEST PUSH1 0x40 DUP1 MLOAD PUSH1 0x60 DUP2 ADD DUP3 MSTORE CALLVALUE DUP2 MSTORE PUSH1 0x0 PUSH1 0x20 DUP1 DUP4 ADD DUP3 DUP2 MSTORE CALLER DUP5 DUP7 ADD DUP2 DUP2 MSTORE PUSH1 0x13 SLOAD DUP6 MSTORE PUSH1 0x18 SWAP1 SWAP4 MSTORE SWAP3 DUP6 SWAP1 KECCAK256 DUP5 MLOAD DUP2 SSTORE SWAP1 MLOAD PUSH1 0x1 SWAP1 SWAP2 ADD DUP1 SLOAD SWAP3 MLOAD PUSH1 0x1 PUSH1 0x1 PUSH1 0xA8 SHL SUB NOT SWAP1 SWAP4 AND SWAP2 ISZERO ISZERO PUSH2 0x100 PUSH1 0x1 PUSH1 0xA8 SHL SUB NOT AND SWAP2 SWAP1 SWAP2 OR PUSH2 0x100 PUSH1 0x1 PUSH1 0x1 PUSH1 0xA0 SHL SUB SWAP4 DUP5 AND MUL OR SWAP1 SSTORE PUSH1 0x16 SLOAD SWAP4 MLOAD PUSH4 0x1FEEFEA3 PUSH1 0xE1 SHL DUP2 MSTORE PUSH1 0x4 DUP2 ADD SWAP3 SWAP1 SWAP3 MSTORE SWAP2 SWAP3 SWAP1 SWAP2 AND SWAP1 PUSH4 0x3FDDFD46 SWAP1 PUSH1 0x24 ADD PUSH1 0x0 PUSH1 0x40 MLOAD DUP1 DUP4 SUB DUP2 PUSH1 0x0 DUP8 DUP1 EXTCODESIZE ISZERO DUP1 ISZERO PUSH2 0x1AD0 JUMPI PUSH1 0x0 DUP1 REVERT JUMPDEST POP GAS CALL ISZERO DUP1 ISZERO PUSH2 0x1AE4 JUMPI RETURNDATASIZE PUSH1 0x0 DUP1 RETURNDATACOPY RETURNDATASIZE PUSH1 0x0 REVERT JUMPDEST POP POP POP POP PUSH2 0x1AF4 CALLER PUSH1 0x13 SLOAD PUSH2 0x2288 JUMP JUMPDEST PUSH1 0x13 SLOAD PUSH2 0x1B02 SWAP1 PUSH1 0x1 PUSH2 0x316E JUMP JUMPDEST PUSH1 0x13 SSTORE POP PUSH1 0x1 PUSH1 0x0 SSTORE JUMP JUMPDEST PUSH1 0x1 SLOAD PUSH1 0x1 PUSH1 0x1 PUSH1 0xA0 SHL SUB AND CALLER EQ PUSH2 0x1B37 JUMPI PUSH1 0x40 MLOAD PUSH3 0x461BCD PUSH1 0xE5 SHL DUP2 MSTORE PUSH1 0x4 ADD PUSH2 0x8C0 SWAP1 PUSH2 0x3044 JUMP JUMPDEST PUSH1 0x1 PUSH1 0x1 PUSH1 0xA0 SHL SUB DUP2 AND PUSH2 0x1B9C JUMPI PUSH1 0x40 MLOAD PUSH3 0x461BCD PUSH1 0xE5 SHL DUP2 MSTORE PUSH1 0x20 PUSH1 0x4 DUP3 ADD MSTORE PUSH1 0x26 PUSH1 0x24 DUP3 ADD MSTORE PUSH32 0x4F776E61626C653A206E6577206F776E657220697320746865207A65726F2061 PUSH1 0x44 DUP3 ADD MSTORE PUSH6 0x646472657373 PUSH1 0xD0 SHL PUSH1 0x64 DUP3 ADD MSTORE PUSH1 0x84 ADD PUSH2 0x8C0 JUMP JUMPDEST PUSH2 0x107B DUP2 PUSH2 0x2203 JUMP JUMPDEST PUSH1 0x0 DUP3 DUP2 MSTORE PUSH1 0x7 PUSH1 0x20 MSTORE PUSH1 0x40 SWAP1 KECCAK256 SLOAD DUP3 SWAP1 PUSH1 0x1 PUSH1 0x1 PUSH1 0xA0 SHL SUB AND CALLER EQ PUSH2 0x1C1E JUMPI PUSH1 0x40 MLOAD PUSH3 0x461BCD PUSH1 0xE5 SHL DUP2 MSTORE PUSH1 0x20 PUSH1 0x4 DUP3 ADD MSTORE PUSH1 0x28 PUSH1 0x24 DUP3 ADD MSTORE PUSH32 0x536F75726365206D75737420626520746865206F7261636C65206F6620746865 PUSH1 0x44 DUP3 ADD MSTORE PUSH8 0x81C995C5D595CDD PUSH1 0xC2 SHL PUSH1 0x64 DUP3 ADD MSTORE PUSH1 0x84 ADD PUSH2 0x8C0 JUMP JUMPDEST PUSH1 0x0 DUP2 DUP2 MSTORE PUSH1 0x7 PUSH1 0x20 MSTORE PUSH1 0x40 DUP1 DUP3 KECCAK256 DUP1 SLOAD PUSH1 0x1 PUSH1 0x1 PUSH1 0xA0 SHL SUB NOT AND SWAP1 SSTORE MLOAD DUP3 SWAP2 PUSH32 0x7CC135E0CEBB02C3480AE5D74D377283180A2601F8F644EDF7987B009316C63A SWAP2 LOG2 DUP2 PUSH2 0x1CAE JUMPI PUSH1 0x40 MLOAD PUSH3 0x461BCD PUSH1 0xE5 SHL DUP2 MSTORE PUSH1 0x20 PUSH1 0x4 DUP3 ADD MSTORE PUSH1 0x1B PUSH1 0x24 DUP3 ADD MSTORE PUSH32 0x54686520706572736F6E20776173206E6F7420746174746F6F64210000000000 PUSH1 0x44 DUP3 ADD MSTORE PUSH1 0x64 ADD PUSH2 0x8C0 JUMP JUMPDEST PUSH1 0x0 DUP4 DUP2 MSTORE PUSH1 0x15 PUSH1 0x20 SWAP1 DUP2 MSTORE PUSH1 0x40 DUP1 DUP4 KECCAK256 SLOAD DUP1 DUP5 MSTORE PUSH1 0x18 SWAP1 SWAP3 MSTORE DUP1 DUP4 KECCAK256 PUSH1 0x1 DUP2 ADD DUP1 SLOAD PUSH1 0xFF NOT DUP2 AND DUP9 ISZERO ISZERO OR SWAP1 SWAP2 SSTORE SWAP1 SLOAD SWAP2 MLOAD SWAP3 SWAP4 PUSH2 0x100 SWAP1 SWAP2 DIV PUSH1 0x1 PUSH1 0x1 PUSH1 0xA0 SHL SUB AND SWAP3 DUP4 SWAP1 DUP4 SWAP1 PUSH1 0x0 PUSH1 0x40 MLOAD DUP1 DUP4 SUB DUP2 DUP6 DUP8 GAS CALL SWAP3 POP POP POP RETURNDATASIZE DUP1 PUSH1 0x0 DUP2 EQ PUSH2 0x1D34 JUMPI PUSH1 0x40 MLOAD SWAP2 POP PUSH1 0x1F NOT PUSH1 0x3F RETURNDATASIZE ADD AND DUP3 ADD PUSH1 0x40 MSTORE RETURNDATASIZE DUP3 MSTORE RETURNDATASIZE PUSH1 0x0 PUSH1 0x20 DUP5 ADD RETURNDATACOPY PUSH2 0x1D39 JUMP JUMPDEST PUSH1 0x60 SWAP2 POP JUMPDEST POP POP SWAP1 POP DUP1 PUSH2 0xAC5 JUMPI PUSH1 0x40 MLOAD PUSH3 0x461BCD PUSH1 0xE5 SHL DUP2 MSTORE PUSH1 0x4 ADD PUSH2 0x8C0 SWAP1 PUSH2 0x3079 JUMP JUMPDEST PUSH1 0x0 DUP2 DUP2 MSTORE PUSH1 0xC PUSH1 0x20 MSTORE PUSH1 0x40 SWAP1 KECCAK256 DUP1 SLOAD PUSH1 0x1 PUSH1 0x1 PUSH1 0xA0 SHL SUB NOT AND PUSH1 0x1 PUSH1 0x1 PUSH1 0xA0 SHL SUB DUP5 AND SWAP1 DUP2 OR SWAP1 SWAP2 SSTORE DUP2 SWAP1 PUSH2 0x1D8F DUP3 PUSH2 0xCA5 JUMP JUMPDEST PUSH1 0x1 PUSH1 0x1 PUSH1 0xA0 SHL SUB AND PUSH32 0x8C5BE1E5EBEC7D5BD14F71427D1E84F3DD0314C0F7B2291E5B200AC8C7C3B925 PUSH1 0x40 MLOAD PUSH1 0x40 MLOAD DUP1 SWAP2 SUB SWAP1 LOG4 POP POP JUMP JUMPDEST PUSH1 0x0 DUP2 DUP2 MSTORE PUSH1 0xA PUSH1 0x20 MSTORE PUSH1 0x40 DUP2 KECCAK256 SLOAD PUSH1 0x1 PUSH1 0x1 PUSH1 0xA0 SHL SUB AND PUSH2 0x1E41 JUMPI PUSH1 0x40 MLOAD PUSH3 0x461BCD PUSH1 0xE5 SHL DUP2 MSTORE PUSH1 0x20 PUSH1 0x4 DUP3 ADD MSTORE PUSH1 0x2C PUSH1 0x24 DUP3 ADD MSTORE PUSH32 0x4552433732313A206F70657261746F7220717565727920666F72206E6F6E6578 PUSH1 0x44 DUP3 ADD MSTORE PUSH12 0x34B9BA32B73A103A37B5B2B7 PUSH1 0xA1 SHL PUSH1 0x64 DUP3 ADD MSTORE PUSH1 0x84 ADD PUSH2 0x8C0 JUMP JUMPDEST PUSH1 0x0 PUSH2 0x1E4C DUP4 PUSH2 0xCA5 JUMP JUMPDEST SWAP1 POP DUP1 PUSH1 0x1 PUSH1 0x1 PUSH1 0xA0 SHL SUB AND DUP5 PUSH1 0x1 PUSH1 0x1 PUSH1 0xA0 SHL SUB AND EQ DUP1 PUSH2 0x1E87 JUMPI POP DUP4 PUSH1 0x1 PUSH1 0x1 PUSH1 0xA0 SHL SUB AND PUSH2 0x1E7C DUP5 PUSH2 0x84B JUMP JUMPDEST PUSH1 0x1 PUSH1 0x1 PUSH1 0xA0 SHL SUB AND EQ JUMPDEST DUP1 PUSH2 0x1EB7 JUMPI POP PUSH1 0x1 PUSH1 0x1 PUSH1 0xA0 SHL SUB DUP1 DUP3 AND PUSH1 0x0 SWAP1 DUP2 MSTORE PUSH1 0xD PUSH1 0x20 SWAP1 DUP2 MSTORE PUSH1 0x40 DUP1 DUP4 KECCAK256 SWAP4 DUP9 AND DUP4 MSTORE SWAP3 SWAP1 MSTORE KECCAK256 SLOAD PUSH1 0xFF AND JUMPDEST SWAP5 SWAP4 POP POP POP POP JUMP JUMPDEST DUP3 PUSH1 0x1 PUSH1 0x1 PUSH1 0xA0 SHL SUB AND PUSH2 0x1ED2 DUP3 PUSH2 0xCA5 JUMP JUMPDEST PUSH1 0x1 PUSH1 0x1 PUSH1 0xA0 SHL SUB AND EQ PUSH2 0x1F3A JUMPI PUSH1 0x40 MLOAD PUSH3 0x461BCD PUSH1 0xE5 SHL DUP2 MSTORE PUSH1 0x20 PUSH1 0x4 DUP3 ADD MSTORE PUSH1 0x29 PUSH1 0x24 DUP3 ADD MSTORE PUSH32 0x4552433732313A207472616E73666572206F6620746F6B656E20746861742069 PUSH1 0x44 DUP3 ADD MSTORE PUSH9 0x39903737BA1037BBB7 PUSH1 0xB9 SHL PUSH1 0x64 DUP3 ADD MSTORE PUSH1 0x84 ADD PUSH2 0x8C0 JUMP JUMPDEST PUSH1 0x1 PUSH1 0x1 PUSH1 0xA0 SHL SUB DUP3 AND PUSH2 0x1F9C JUMPI PUSH1 0x40 MLOAD PUSH3 0x461BCD PUSH1 0xE5 SHL DUP2 MSTORE PUSH1 0x20 PUSH1 0x4 DUP3 ADD MSTORE PUSH1 0x24 DUP1 DUP3 ADD MSTORE PUSH32 0x4552433732313A207472616E7366657220746F20746865207A65726F20616464 PUSH1 0x44 DUP3 ADD MSTORE PUSH4 0x72657373 PUSH1 0xE0 SHL PUSH1 0x64 DUP3 ADD MSTORE PUSH1 0x84 ADD PUSH2 0x8C0 JUMP JUMPDEST PUSH2 0x1FA7 PUSH1 0x0 DUP3 PUSH2 0x1D5A JUMP JUMPDEST PUSH1 0x1 PUSH1 0x1 PUSH1 0xA0 SHL SUB DUP4 AND PUSH1 0x0 SWAP1 DUP2 MSTORE PUSH1 0xB PUSH1 0x20 MSTORE PUSH1 0x40 DUP2 KECCAK256 DUP1 SLOAD PUSH1 0x1 SWAP3 SWAP1 PUSH2 0x1FD0 SWAP1 DUP5 SWAP1 PUSH2 0x31B9 JUMP JUMPDEST SWAP1 SWAP2 SSTORE POP POP PUSH1 0x1 PUSH1 0x1 PUSH1 0xA0 SHL SUB DUP3 AND PUSH1 0x0 SWAP1 DUP2 MSTORE PUSH1 0xB PUSH1 0x20 MSTORE PUSH1 0x40 DUP2 KECCAK256 DUP1 SLOAD PUSH1 0x1 SWAP3 SWAP1 PUSH2 0x1FFE SWAP1 DUP5 SWAP1 PUSH2 0x316E JUMP JUMPDEST SWAP1 SWAP2 SSTORE POP POP PUSH1 0x0 DUP2 DUP2 MSTORE PUSH1 0xA PUSH1 0x20 MSTORE PUSH1 0x40 DUP1 DUP3 KECCAK256 DUP1 SLOAD PUSH1 0x1 PUSH1 0x1 PUSH1 0xA0 SHL SUB NOT AND PUSH1 0x1 PUSH1 0x1 PUSH1 0xA0 SHL SUB DUP7 DUP2 AND SWAP2 DUP3 OR SWAP1 SWAP3 SSTORE SWAP2 MLOAD DUP5 SWAP4 SWAP2 DUP8 AND SWAP2 PUSH32 0xDDF252AD1BE2C89B69C2B068FC378DAA952BA7F163C4A11628F55A4DF523B3EF SWAP2 LOG4 POP POP POP JUMP JUMPDEST PUSH1 0x60 DUP2 MLOAD PUSH1 0x0 EQ ISZERO PUSH2 0x207F JUMPI POP POP PUSH1 0x40 DUP1 MLOAD PUSH1 0x20 DUP2 ADD SWAP1 SWAP2 MSTORE PUSH1 0x0 DUP2 MSTORE SWAP1 JUMP JUMPDEST PUSH1 0x0 PUSH1 0x40 MLOAD DUP1 PUSH1 0x60 ADD PUSH1 0x40 MSTORE DUP1 PUSH1 0x40 DUP2 MSTORE PUSH1 0x20 ADD PUSH2 0x32CD PUSH1 0x40 SWAP2 CODECOPY SWAP1 POP PUSH1 0x0 PUSH1 0x3 DUP5 MLOAD PUSH1 0x2 PUSH2 0x20AE SWAP2 SWAP1 PUSH2 0x316E JUMP JUMPDEST PUSH2 0x20B8 SWAP2 SWAP1 PUSH2 0x3186 JUMP JUMPDEST PUSH2 0x20C3 SWAP1 PUSH1 0x4 PUSH2 0x319A JUMP JUMPDEST SWAP1 POP PUSH1 0x0 PUSH2 0x20D2 DUP3 PUSH1 0x20 PUSH2 0x316E JUMP JUMPDEST PUSH8 0xFFFFFFFFFFFFFFFF DUP2 GT ISZERO PUSH2 0x20EA JUMPI PUSH2 0x20EA PUSH2 0x3292 JUMP JUMPDEST PUSH1 0x40 MLOAD SWAP1 DUP1 DUP3 MSTORE DUP1 PUSH1 0x1F ADD PUSH1 0x1F NOT AND PUSH1 0x20 ADD DUP3 ADD PUSH1 0x40 MSTORE DUP1 ISZERO PUSH2 0x2114 JUMPI PUSH1 0x20 DUP3 ADD DUP2 DUP1 CALLDATASIZE DUP4 CALLDATACOPY ADD SWAP1 POP JUMPDEST POP SWAP1 POP DUP2 DUP2 MSTORE PUSH1 0x1 DUP4 ADD DUP6 DUP7 MLOAD DUP2 ADD PUSH1 0x20 DUP5 ADD JUMPDEST DUP2 DUP4 LT ISZERO PUSH2 0x2182 JUMPI PUSH1 0x3 SWAP3 DUP4 ADD DUP1 MLOAD PUSH1 0x3F PUSH1 0x12 DUP3 SWAP1 SHR DUP2 AND DUP8 ADD MLOAD PUSH1 0xF8 SWAP1 DUP2 SHL DUP6 MSTORE PUSH1 0xC DUP4 SWAP1 SHR DUP3 AND DUP9 ADD MLOAD DUP2 SHL PUSH1 0x1 DUP7 ADD MSTORE PUSH1 0x6 DUP4 SWAP1 SHR DUP3 AND DUP9 ADD MLOAD DUP2 SHL PUSH1 0x2 DUP7 ADD MSTORE SWAP2 AND DUP7 ADD MLOAD SWAP1 SHL SWAP4 DUP3 ADD SWAP4 SWAP1 SWAP4 MSTORE PUSH1 0x4 ADD PUSH2 0x2128 JUMP JUMPDEST PUSH1 0x3 DUP10 MLOAD MOD PUSH1 0x1 DUP2 EQ PUSH2 0x219C JUMPI PUSH1 0x2 DUP2 EQ PUSH2 0x21AD JUMPI PUSH2 0x21B9 JUMP JUMPDEST PUSH2 0x3D3D PUSH1 0xF0 SHL PUSH1 0x1 NOT DUP4 ADD MSTORE PUSH2 0x21B9 JUMP JUMPDEST PUSH1 0x3D PUSH1 0xF8 SHL PUSH1 0x0 NOT DUP4 ADD MSTORE JUMPDEST POP SWAP4 SWAP9 SWAP8 POP POP POP POP POP POP POP POP JUMP JUMPDEST PUSH2 0x21CF PUSH2 0x27D2 JUMP JUMPDEST PUSH2 0x21D7 PUSH2 0x27D2 JUMP JUMPDEST PUSH2 0x21E3 DUP2 DUP7 DUP7 DUP7 PUSH2 0x22A6 JUMP JUMPDEST SWAP6 SWAP5 POP POP POP POP POP JUMP JUMPDEST PUSH1 0x0 PUSH2 0x1EB7 DUP5 DUP5 DUP5 PUSH1 0x1 PUSH4 0x20214CA3 PUSH1 0xE1 SHL PUSH2 0x22E3 JUMP JUMPDEST PUSH1 0x1 DUP1 SLOAD PUSH1 0x1 PUSH1 0x1 PUSH1 0xA0 SHL SUB DUP4 DUP2 AND PUSH1 0x1 PUSH1 0x1 PUSH1 0xA0 SHL SUB NOT DUP4 AND DUP2 OR SWAP1 SWAP4 SSTORE PUSH1 0x40 MLOAD SWAP2 AND SWAP2 SWAP1 DUP3 SWAP1 PUSH32 0x8BE0079C531659141344CD1FD0A4F28419497F9722A3DAAFE3B4186F6B6457E0 SWAP1 PUSH1 0x0 SWAP1 LOG3 POP POP JUMP JUMPDEST PUSH2 0x2260 DUP5 DUP5 DUP5 PUSH2 0x1EBF JUMP JUMPDEST PUSH2 0x226C DUP5 DUP5 DUP5 DUP5 PUSH2 0x24EE JUMP JUMPDEST PUSH2 0xE9A JUMPI PUSH1 0x40 MLOAD PUSH3 0x461BCD PUSH1 0xE5 SHL DUP2 MSTORE PUSH1 0x4 ADD PUSH2 0x8C0 SWAP1 PUSH2 0x2FF2 JUMP JUMPDEST PUSH2 0x22A2 DUP3 DUP3 PUSH1 0x40 MLOAD DUP1 PUSH1 0x20 ADD PUSH1 0x40 MSTORE DUP1 PUSH1 0x0 DUP2 MSTORE POP PUSH2 0x25F8 JUMP JUMPDEST POP POP JUMP JUMPDEST PUSH2 0x22AE PUSH2 0x27D2 JUMP JUMPDEST PUSH2 0x22BE DUP6 PUSH1 0x80 ADD MLOAD PUSH2 0x100 PUSH2 0x262B JUMP JUMPDEST POP POP SWAP2 DUP4 MSTORE PUSH1 0x1 PUSH1 0x1 PUSH1 0xA0 SHL SUB AND PUSH1 0x20 DUP4 ADD MSTORE PUSH1 0x1 PUSH1 0x1 PUSH1 0xE0 SHL SUB NOT AND PUSH1 0x40 DUP3 ADD MSTORE SWAP1 JUMP JUMPDEST PUSH1 0x6 SLOAD PUSH1 0x40 MLOAD PUSH12 0xFFFFFFFFFFFFFFFFFFFFFFFF NOT ADDRESS PUSH1 0x60 SHL AND PUSH1 0x20 DUP3 ADD MSTORE PUSH1 0x34 DUP2 ADD SWAP2 SWAP1 SWAP2 MSTORE PUSH1 0x0 SWAP1 PUSH1 0x54 ADD PUSH1 0x40 DUP1 MLOAD DUP1 DUP4 SUB PUSH1 0x1F NOT ADD DUP2 MSTORE SWAP2 DUP2 MSTORE DUP2 MLOAD PUSH1 0x20 SWAP3 DUP4 ADD KECCAK256 PUSH1 0x6 SLOAD PUSH1 0x60 DUP10 ADD MSTORE PUSH1 0x0 DUP2 DUP2 MSTORE PUSH1 0x7 SWAP1 SWAP4 MSTORE DUP2 DUP4 KECCAK256 DUP1 SLOAD PUSH1 0x1 PUSH1 0x1 PUSH1 0xA0 SHL SUB NOT AND PUSH1 0x1 PUSH1 0x1 PUSH1 0xA0 SHL SUB DUP12 AND OR SWAP1 SSTORE SWAP1 MLOAD SWAP1 SWAP3 POP DUP3 SWAP2 PUSH32 0xB5E6E01E79F91267DC17B4E6314D5D4D03593D2CEEE0FBB452B750BD70EA5AF9 SWAP2 LOG2 PUSH1 0x0 DUP3 PUSH1 0x0 DUP1 DUP9 PUSH1 0x0 ADD MLOAD DUP10 PUSH1 0x20 ADD MLOAD DUP11 PUSH1 0x40 ADD MLOAD DUP12 PUSH1 0x60 ADD MLOAD DUP11 DUP14 PUSH1 0x80 ADD MLOAD PUSH1 0x0 ADD MLOAD PUSH1 0x40 MLOAD PUSH1 0x24 ADD PUSH2 0x23BA SWAP9 SWAP8 SWAP7 SWAP6 SWAP5 SWAP4 SWAP3 SWAP2 SWAP1 PUSH2 0x2F50 JUMP JUMPDEST PUSH1 0x40 DUP1 MLOAD PUSH1 0x1F NOT DUP2 DUP5 SUB ADD DUP2 MSTORE SWAP2 DUP2 MSTORE PUSH1 0x20 DUP3 ADD DUP1 MLOAD PUSH1 0x1 PUSH1 0x1 PUSH1 0xE0 SHL SUB AND PUSH1 0x1 PUSH1 0x1 PUSH1 0xE0 SHL SUB NOT SWAP1 SWAP5 AND SWAP4 SWAP1 SWAP4 OR SWAP1 SWAP3 MSTORE PUSH1 0x4 DUP1 SLOAD SWAP3 MLOAD PUSH4 0x2000575 PUSH1 0xE5 SHL DUP2 MSTORE SWAP2 SWAP4 POP PUSH1 0x1 PUSH1 0x1 PUSH1 0xA0 SHL SUB SWAP1 SWAP3 AND SWAP2 PUSH4 0x4000AEA0 SWAP2 PUSH2 0x2421 SWAP2 DUP12 SWAP2 DUP11 SWAP2 DUP8 SWAP2 ADD PUSH2 0x2FB8 JUMP JUMPDEST PUSH1 0x20 PUSH1 0x40 MLOAD DUP1 DUP4 SUB DUP2 PUSH1 0x0 DUP8 DUP1 EXTCODESIZE ISZERO DUP1 ISZERO PUSH2 0x243B JUMPI PUSH1 0x0 DUP1 REVERT JUMPDEST POP GAS CALL ISZERO DUP1 ISZERO PUSH2 0x244F JUMPI RETURNDATASIZE PUSH1 0x0 DUP1 RETURNDATACOPY RETURNDATASIZE PUSH1 0x0 REVERT JUMPDEST POP POP POP POP PUSH1 0x40 MLOAD RETURNDATASIZE PUSH1 0x1F NOT PUSH1 0x1F DUP3 ADD AND DUP3 ADD DUP1 PUSH1 0x40 MSTORE POP DUP2 ADD SWAP1 PUSH2 0x2473 SWAP2 SWAP1 PUSH2 0x2A0B JUMP JUMPDEST PUSH2 0x24CB JUMPI PUSH1 0x40 MLOAD PUSH3 0x461BCD PUSH1 0xE5 SHL DUP2 MSTORE PUSH1 0x20 PUSH1 0x4 DUP3 ADD MSTORE PUSH1 0x23 PUSH1 0x24 DUP3 ADD MSTORE PUSH32 0x756E61626C6520746F207472616E73666572416E6443616C6C20746F206F7261 PUSH1 0x44 DUP3 ADD MSTORE PUSH3 0x636C65 PUSH1 0xE8 SHL PUSH1 0x64 DUP3 ADD MSTORE PUSH1 0x84 ADD PUSH2 0x8C0 JUMP JUMPDEST PUSH1 0x1 PUSH1 0x6 PUSH1 0x0 DUP3 DUP3 SLOAD PUSH2 0x24DE SWAP2 SWAP1 PUSH2 0x316E JUMP JUMPDEST SWAP1 SWAP2 SSTORE POP SWAP2 SWAP8 SWAP7 POP POP POP POP POP POP POP JUMP JUMPDEST PUSH1 0x0 PUSH1 0x1 PUSH1 0x1 PUSH1 0xA0 SHL SUB DUP5 AND EXTCODESIZE ISZERO PUSH2 0x25F0 JUMPI PUSH1 0x40 MLOAD PUSH4 0xA85BD01 PUSH1 0xE1 SHL DUP2 MSTORE PUSH1 0x1 PUSH1 0x1 PUSH1 0xA0 SHL SUB DUP6 AND SWAP1 PUSH4 0x150B7A02 SWAP1 PUSH2 0x2532 SWAP1 CALLER SWAP1 DUP10 SWAP1 DUP9 SWAP1 DUP9 SWAP1 PUSH1 0x4 ADD PUSH2 0x2F13 JUMP JUMPDEST PUSH1 0x20 PUSH1 0x40 MLOAD DUP1 DUP4 SUB DUP2 PUSH1 0x0 DUP8 DUP1 EXTCODESIZE ISZERO DUP1 ISZERO PUSH2 0x254C JUMPI PUSH1 0x0 DUP1 REVERT JUMPDEST POP GAS CALL SWAP3 POP POP POP DUP1 ISZERO PUSH2 0x257C JUMPI POP PUSH1 0x40 DUP1 MLOAD PUSH1 0x1F RETURNDATASIZE SWAP1 DUP2 ADD PUSH1 0x1F NOT AND DUP3 ADD SWAP1 SWAP3 MSTORE PUSH2 0x2579 SWAP2 DUP2 ADD SWAP1 PUSH2 0x2AA1 JUMP JUMPDEST PUSH1 0x1 JUMPDEST PUSH2 0x25D6 JUMPI RETURNDATASIZE DUP1 DUP1 ISZERO PUSH2 0x25AA JUMPI PUSH1 0x40 MLOAD SWAP2 POP PUSH1 0x1F NOT PUSH1 0x3F RETURNDATASIZE ADD AND DUP3 ADD PUSH1 0x40 MSTORE RETURNDATASIZE DUP3 MSTORE RETURNDATASIZE PUSH1 0x0 PUSH1 0x20 DUP5 ADD RETURNDATACOPY PUSH2 0x25AF JUMP JUMPDEST PUSH1 0x60 SWAP2 POP JUMPDEST POP DUP1 MLOAD PUSH2 0x25CE JUMPI PUSH1 0x40 MLOAD PUSH3 0x461BCD PUSH1 0xE5 SHL DUP2 MSTORE PUSH1 0x4 ADD PUSH2 0x8C0 SWAP1 PUSH2 0x2FF2 JUMP JUMPDEST DUP1 MLOAD DUP2 PUSH1 0x20 ADD REVERT JUMPDEST PUSH1 0x1 PUSH1 0x1 PUSH1 0xE0 SHL SUB NOT AND PUSH4 0xA85BD01 PUSH1 0xE1 SHL EQ SWAP1 POP PUSH2 0x1EB7 JUMP JUMPDEST POP PUSH1 0x1 PUSH2 0x1EB7 JUMP JUMPDEST PUSH2 0x2602 DUP4 DUP4 PUSH2 0x2690 JUMP JUMPDEST PUSH2 0x260F PUSH1 0x0 DUP5 DUP5 DUP5 PUSH2 0x24EE JUMP JUMPDEST PUSH2 0x9F6 JUMPI PUSH1 0x40 MLOAD PUSH3 0x461BCD PUSH1 0xE5 SHL DUP2 MSTORE PUSH1 0x4 ADD PUSH2 0x8C0 SWAP1 PUSH2 0x2FF2 JUMP JUMPDEST PUSH1 0x40 DUP1 MLOAD DUP1 DUP3 ADD SWAP1 SWAP2 MSTORE PUSH1 0x60 DUP2 MSTORE PUSH1 0x0 PUSH1 0x20 DUP3 ADD MSTORE PUSH2 0x264B PUSH1 0x20 DUP4 PUSH2 0x3252 JUMP JUMPDEST ISZERO PUSH2 0x2673 JUMPI PUSH2 0x265B PUSH1 0x20 DUP4 PUSH2 0x3252 JUMP JUMPDEST PUSH2 0x2666 SWAP1 PUSH1 0x20 PUSH2 0x31B9 JUMP JUMPDEST PUSH2 0x2670 SWAP1 DUP4 PUSH2 0x316E JUMP JUMPDEST SWAP2 POP JUMPDEST POP PUSH1 0x20 DUP3 DUP2 ADD DUP3 SWAP1 MSTORE PUSH1 0x40 DUP1 MLOAD DUP1 DUP6 MSTORE PUSH1 0x0 DUP2 MSTORE SWAP1 SWAP3 ADD ADD SWAP1 MSTORE SWAP1 JUMP JUMPDEST PUSH1 0x1 PUSH1 0x1 PUSH1 0xA0 SHL SUB DUP3 AND PUSH2 0x26E6 JUMPI PUSH1 0x40 MLOAD PUSH3 0x461BCD PUSH1 0xE5 SHL DUP2 MSTORE PUSH1 0x20 PUSH1 0x4 DUP3 ADD DUP2 SWAP1 MSTORE PUSH1 0x24 DUP3 ADD MSTORE PUSH32 0x4552433732313A206D696E7420746F20746865207A65726F2061646472657373 PUSH1 0x44 DUP3 ADD MSTORE PUSH1 0x64 ADD PUSH2 0x8C0 JUMP JUMPDEST PUSH1 0x0 DUP2 DUP2 MSTORE PUSH1 0xA PUSH1 0x20 MSTORE PUSH1 0x40 SWAP1 KECCAK256 SLOAD PUSH1 0x1 PUSH1 0x1 PUSH1 0xA0 SHL SUB AND ISZERO PUSH2 0x274B JUMPI PUSH1 0x40 MLOAD PUSH3 0x461BCD PUSH1 0xE5 SHL DUP2 MSTORE PUSH1 0x20 PUSH1 0x4 DUP3 ADD MSTORE PUSH1 0x1C PUSH1 0x24 DUP3 ADD MSTORE PUSH32 0x4552433732313A20746F6B656E20616C7265616479206D696E74656400000000 PUSH1 0x44 DUP3 ADD MSTORE PUSH1 0x64 ADD PUSH2 0x8C0 JUMP JUMPDEST PUSH1 0x1 PUSH1 0x1 PUSH1 0xA0 SHL SUB DUP3 AND PUSH1 0x0 SWAP1 DUP2 MSTORE PUSH1 0xB PUSH1 0x20 MSTORE PUSH1 0x40 DUP2 KECCAK256 DUP1 SLOAD PUSH1 0x1 SWAP3 SWAP1 PUSH2 0x2774 SWAP1 DUP5 SWAP1 PUSH2 0x316E JUMP JUMPDEST SWAP1 SWAP2 SSTORE POP POP PUSH1 0x0 DUP2 DUP2 MSTORE PUSH1 0xA PUSH1 0x20 MSTORE PUSH1 0x40 DUP1 DUP3 KECCAK256 DUP1 SLOAD PUSH1 0x1 PUSH1 0x1 PUSH1 0xA0 SHL SUB NOT AND PUSH1 0x1 PUSH1 0x1 PUSH1 0xA0 SHL SUB DUP7 AND SWAP1 DUP2 OR SWAP1 SWAP2 SSTORE SWAP1 MLOAD DUP4 SWAP3 SWAP1 PUSH32 0xDDF252AD1BE2C89B69C2B068FC378DAA952BA7F163C4A11628F55A4DF523B3EF SWAP1 DUP3 SWAP1 LOG4 POP POP JUMP JUMPDEST PUSH1 0x40 DUP1 MLOAD PUSH1 0xA0 DUP2 ADD DUP3 MSTORE PUSH1 0x0 DUP1 DUP3 MSTORE PUSH1 0x20 DUP1 DUP4 ADD DUP3 SWAP1 MSTORE DUP3 DUP5 ADD DUP3 SWAP1 MSTORE PUSH1 0x60 DUP1 DUP5 ADD DUP4 SWAP1 MSTORE DUP5 MLOAD DUP1 DUP7 ADD SWAP1 SWAP6 MSTORE DUP5 MSTORE DUP4 ADD MSTORE SWAP1 PUSH1 0x80 DUP3 ADD MSTORE SWAP1 JUMP JUMPDEST PUSH1 0x0 PUSH2 0x2820 PUSH2 0x281B DUP5 PUSH2 0x3146 JUMP JUMPDEST PUSH2 0x3115 JUMP JUMPDEST SWAP1 POP DUP3 DUP2 MSTORE DUP4 DUP4 DUP4 ADD GT ISZERO PUSH2 0x2834 JUMPI PUSH1 0x0 DUP1 REVERT JUMPDEST DUP3 DUP3 PUSH1 0x20 DUP4 ADD CALLDATACOPY PUSH1 0x0 PUSH1 0x20 DUP5 DUP4 ADD ADD MSTORE SWAP4 SWAP3 POP POP POP JUMP JUMPDEST DUP1 CALLDATALOAD PUSH1 0x1 PUSH1 0x1 PUSH1 0xA0 SHL SUB DUP2 AND DUP2 EQ PUSH2 0x2862 JUMPI PUSH1 0x0 DUP1 REVERT JUMPDEST SWAP2 SWAP1 POP JUMP JUMPDEST PUSH1 0x0 DUP3 PUSH1 0x1F DUP4 ADD SLT PUSH2 0x2878 JUMPI PUSH1 0x0 DUP1 REVERT JUMPDEST PUSH2 0x18AE DUP4 DUP4 CALLDATALOAD PUSH1 0x20 DUP6 ADD PUSH2 0x280D JUMP JUMPDEST PUSH1 0x0 PUSH1 0x20 DUP3 DUP5 SUB SLT ISZERO PUSH2 0x2899 JUMPI PUSH1 0x0 DUP1 REVERT JUMPDEST PUSH2 0x18AE DUP3 PUSH2 0x284B JUMP JUMPDEST PUSH1 0x0 DUP1 PUSH1 0x40 DUP4 DUP6 SUB SLT ISZERO PUSH2 0x28B5 JUMPI PUSH1 0x0 DUP1 REVERT JUMPDEST PUSH2 0x28BE DUP4 PUSH2 0x284B JUMP JUMPDEST SWAP2 POP PUSH2 0x28CC PUSH1 0x20 DUP5 ADD PUSH2 0x284B JUMP JUMPDEST SWAP1 POP SWAP3 POP SWAP3 SWAP1 POP JUMP JUMPDEST PUSH1 0x0 DUP1 PUSH1 0x0 PUSH1 0x60 DUP5 DUP7 SUB SLT ISZERO PUSH2 0x28EA JUMPI PUSH1 0x0 DUP1 REVERT JUMPDEST PUSH2 0x28F3 DUP5 PUSH2 0x284B JUMP JUMPDEST SWAP3 POP PUSH2 0x2901 PUSH1 0x20 DUP6 ADD PUSH2 0x284B JUMP JUMPDEST SWAP2 POP PUSH1 0x40 DUP5 ADD CALLDATALOAD SWAP1 POP SWAP3 POP SWAP3 POP SWAP3 JUMP JUMPDEST PUSH1 0x0 DUP1 PUSH1 0x0 DUP1 PUSH1 0x80 DUP6 DUP8 SUB SLT ISZERO PUSH2 0x2927 JUMPI PUSH1 0x0 DUP1 REVERT JUMPDEST PUSH2 0x2930 DUP6 PUSH2 0x284B JUMP JUMPDEST SWAP4 POP PUSH2 0x293E PUSH1 0x20 DUP7 ADD PUSH2 0x284B JUMP JUMPDEST SWAP3 POP PUSH1 0x40 DUP6 ADD CALLDATALOAD SWAP2 POP PUSH1 0x60 DUP6 ADD CALLDATALOAD PUSH8 0xFFFFFFFFFFFFFFFF DUP2 GT ISZERO PUSH2 0x2961 JUMPI PUSH1 0x0 DUP1 REVERT JUMPDEST DUP6 ADD PUSH1 0x1F DUP2 ADD DUP8 SGT PUSH2 0x2972 JUMPI PUSH1 0x0 DUP1 REVERT JUMPDEST PUSH2 0x2981 DUP8 DUP3 CALLDATALOAD PUSH1 0x20 DUP5 ADD PUSH2 0x280D JUMP JUMPDEST SWAP2 POP POP SWAP3 SWAP6 SWAP2 SWAP5 POP SWAP3 POP JUMP JUMPDEST PUSH1 0x0 DUP1 PUSH1 0x40 DUP4 DUP6 SUB SLT ISZERO PUSH2 0x29A0 JUMPI PUSH1 0x0 DUP1 REVERT JUMPDEST PUSH2 0x29A9 DUP4 PUSH2 0x284B JUMP JUMPDEST SWAP2 POP PUSH1 0x20 DUP4 ADD CALLDATALOAD PUSH2 0x29B9 DUP2 PUSH2 0x32A8 JUMP JUMPDEST DUP1 SWAP2 POP POP SWAP3 POP SWAP3 SWAP1 POP JUMP JUMPDEST PUSH1 0x0 DUP1 PUSH1 0x40 DUP4 DUP6 SUB SLT ISZERO PUSH2 0x29D7 JUMPI PUSH1 0x0 DUP1 REVERT JUMPDEST PUSH2 0x29E0 DUP4 PUSH2 0x284B JUMP JUMPDEST SWAP5 PUSH1 0x20 SWAP4 SWAP1 SWAP4 ADD CALLDATALOAD SWAP4 POP POP POP JUMP JUMPDEST PUSH1 0x0 PUSH1 0x20 DUP3 DUP5 SUB SLT ISZERO PUSH2 0x2A00 JUMPI PUSH1 0x0 DUP1 REVERT JUMPDEST DUP2 CALLDATALOAD PUSH2 0x18AE DUP2 PUSH2 0x32A8 JUMP JUMPDEST PUSH1 0x0 PUSH1 0x20 DUP3 DUP5 SUB SLT ISZERO PUSH2 0x2A1D JUMPI PUSH1 0x0 DUP1 REVERT JUMPDEST DUP2 MLOAD PUSH2 0x18AE DUP2 PUSH2 0x32A8 JUMP JUMPDEST PUSH1 0x0 DUP1 PUSH1 0x40 DUP4 DUP6 SUB SLT ISZERO PUSH2 0x2A3B JUMPI PUSH1 0x0 DUP1 REVERT JUMPDEST DUP3 CALLDATALOAD PUSH2 0x29E0 DUP2 PUSH2 0x32A8 JUMP JUMPDEST PUSH1 0x0 PUSH1 0x20 DUP3 DUP5 SUB SLT ISZERO PUSH2 0x2A58 JUMPI PUSH1 0x0 DUP1 REVERT JUMPDEST POP CALLDATALOAD SWAP2 SWAP1 POP JUMP JUMPDEST PUSH1 0x0 DUP1 PUSH1 0x40 DUP4 DUP6 SUB SLT ISZERO PUSH2 0x2A72 JUMPI PUSH1 0x0 DUP1 REVERT JUMPDEST DUP3 CALLDATALOAD SWAP2 POP PUSH1 0x20 DUP4 ADD CALLDATALOAD PUSH2 0x29B9 DUP2 PUSH2 0x32A8 JUMP JUMPDEST PUSH1 0x0 PUSH1 0x20 DUP3 DUP5 SUB SLT ISZERO PUSH2 0x2A96 JUMPI PUSH1 0x0 DUP1 REVERT JUMPDEST DUP2 CALLDATALOAD PUSH2 0x18AE DUP2 PUSH2 0x32B6 JUMP JUMPDEST PUSH1 0x0 PUSH1 0x20 DUP3 DUP5 SUB SLT ISZERO PUSH2 0x2AB3 JUMPI PUSH1 0x0 DUP1 REVERT JUMPDEST DUP2 MLOAD PUSH2 0x18AE DUP2 PUSH2 0x32B6 JUMP JUMPDEST PUSH1 0x0 PUSH1 0x20 DUP3 DUP5 SUB SLT ISZERO PUSH2 0x2AD0 JUMPI PUSH1 0x0 DUP1 REVERT JUMPDEST DUP2 CALLDATALOAD PUSH8 0xFFFFFFFFFFFFFFFF DUP2 GT ISZERO PUSH2 0x2AE7 JUMPI PUSH1 0x0 DUP1 REVERT JUMPDEST PUSH2 0x1EB7 DUP5 DUP3 DUP6 ADD PUSH2 0x2867 JUMP JUMPDEST PUSH1 0x0 PUSH1 0x20 DUP3 DUP5 SUB SLT ISZERO PUSH2 0x2B05 JUMPI PUSH1 0x0 DUP1 REVERT JUMPDEST DUP2 MLOAD PUSH8 0xFFFFFFFFFFFFFFFF DUP2 GT ISZERO PUSH2 0x2B1C JUMPI PUSH1 0x0 DUP1 REVERT JUMPDEST DUP3 ADD PUSH1 0x1F DUP2 ADD DUP5 SGT PUSH2 0x2B2D JUMPI PUSH1 0x0 DUP1 REVERT JUMPDEST DUP1 MLOAD PUSH2 0x2B3B PUSH2 0x281B DUP3 PUSH2 0x3146 JUMP JUMPDEST DUP2 DUP2 MSTORE DUP6 PUSH1 0x20 DUP4 DUP6 ADD ADD GT ISZERO PUSH2 0x2B50 JUMPI PUSH1 0x0 DUP1 REVERT JUMPDEST PUSH2 0x21E3 DUP3 PUSH1 0x20 DUP4 ADD PUSH1 0x20 DUP7 ADD PUSH2 0x31D0 JUMP JUMPDEST PUSH1 0x0 DUP1 PUSH1 0x40 DUP4 DUP6 SUB SLT ISZERO PUSH2 0x2B74 JUMPI PUSH1 0x0 DUP1 REVERT JUMPDEST DUP3 CALLDATALOAD PUSH8 0xFFFFFFFFFFFFFFFF DUP1 DUP3 GT ISZERO PUSH2 0x2B8C JUMPI PUSH1 0x0 DUP1 REVERT JUMPDEST PUSH2 0x2B98 DUP7 DUP4 DUP8 ADD PUSH2 0x2867 JUMP JUMPDEST SWAP4 POP PUSH1 0x20 DUP6 ADD CALLDATALOAD SWAP2 POP DUP1 DUP3 GT ISZERO PUSH2 0x2BAE JUMPI PUSH1 0x0 DUP1 REVERT JUMPDEST POP PUSH2 0x2BBB DUP6 DUP3 DUP7 ADD PUSH2 0x2867 JUMP JUMPDEST SWAP2 POP POP SWAP3 POP SWAP3 SWAP1 POP JUMP JUMPDEST PUSH1 0x0 PUSH1 0x20 DUP3 DUP5 SUB SLT ISZERO PUSH2 0x2BD7 JUMPI PUSH1 0x0 DUP1 REVERT JUMPDEST POP MLOAD SWAP2 SWAP1 POP JUMP JUMPDEST PUSH1 0x0 DUP2 MLOAD DUP1 DUP5 MSTORE PUSH2 0x2BF6 DUP2 PUSH1 0x20 DUP7 ADD PUSH1 0x20 DUP7 ADD PUSH2 0x31D0 JUMP JUMPDEST PUSH1 0x1F ADD PUSH1 0x1F NOT AND SWAP3 SWAP1 SWAP3 ADD PUSH1 0x20 ADD SWAP3 SWAP2 POP POP JUMP JUMPDEST PUSH1 0x0 DUP3 MLOAD PUSH2 0x2C1C DUP2 DUP5 PUSH1 0x20 DUP8 ADD PUSH2 0x31D0 JUMP JUMPDEST SWAP2 SWAP1 SWAP2 ADD SWAP3 SWAP2 POP POP JUMP JUMPDEST PUSH1 0x0 DUP4 MLOAD PUSH2 0x2C38 DUP2 DUP5 PUSH1 0x20 DUP9 ADD PUSH2 0x31D0 JUMP JUMPDEST DUP4 MLOAD SWAP1 DUP4 ADD SWAP1 PUSH2 0x2C4C DUP2 DUP4 PUSH1 0x20 DUP9 ADD PUSH2 0x31D0 JUMP JUMPDEST ADD SWAP5 SWAP4 POP POP POP POP JUMP JUMPDEST PUSH1 0x0 DUP7 MLOAD PUSH2 0x2C67 DUP2 DUP5 PUSH1 0x20 DUP12 ADD PUSH2 0x31D0 JUMP JUMPDEST DUP7 MLOAD SWAP1 DUP4 ADD SWAP1 PUSH2 0x2C7B DUP2 DUP4 PUSH1 0x20 DUP12 ADD PUSH2 0x31D0 JUMP JUMPDEST DUP7 MLOAD SWAP2 ADD SWAP1 PUSH2 0x2C8E DUP2 DUP4 PUSH1 0x20 DUP11 ADD PUSH2 0x31D0 JUMP JUMPDEST DUP6 MLOAD SWAP2 ADD SWAP1 PUSH2 0x2CA1 DUP2 DUP4 PUSH1 0x20 DUP10 ADD PUSH2 0x31D0 JUMP JUMPDEST DUP5 MLOAD SWAP2 ADD SWAP1 PUSH2 0x2CB4 DUP2 DUP4 PUSH1 0x20 DUP9 ADD PUSH2 0x31D0 JUMP JUMPDEST ADD SWAP8 SWAP7 POP POP POP POP POP POP POP JUMP JUMPDEST PUSH1 0x0 DUP3 MLOAD PUSH2 0x2CD2 DUP2 DUP5 PUSH1 0x20 DUP8 ADD PUSH2 0x31D0 JUMP JUMPDEST PUSH32 0x3C66696C7465722069643D27677261797363616C65273E3C6665436F6C6F724D SWAP3 ADD SWAP2 DUP3 MSTORE POP PUSH32 0x617472697820747970653D276D6174726978272076616C7565733D27302E3333 PUSH1 0x20 DUP3 ADD MSTORE PUSH32 0x333320302E3333333320302E333333332030203020302E3333333320302E3333 PUSH1 0x40 DUP3 ADD MSTORE PUSH32 0x333320302E333333332030203020302E3333333320302E3333333320302E3333 PUSH1 0x60 DUP3 ADD MSTORE PUSH32 0x33332030203020302030203020312030272F3E3C2F66696C7465723E00000000 PUSH1 0x80 DUP3 ADD MSTORE PUSH1 0x9C ADD SWAP2 SWAP1 POP JUMP JUMPDEST PUSH9 0x3D913730B6B2911D11 PUSH1 0xB9 SHL DUP2 MSTORE PUSH5 0x139195185D PUSH1 0xDA SHL PUSH1 0x9 DUP3 ADD MSTORE PUSH32 0x222C20226465736372697074696F6E223A224120746174746F6F6F6F6F6F6F6F PUSH1 0xE DUP3 ADD MSTORE PUSH32 0x222C202261747472696275746573223A5B7B2274726169745F74797065223A20 PUSH1 0x2E DUP3 ADD MSTORE PUSH20 0x113A30BA3A37B7B2111610113B30B63AB2911D1 PUSH1 0x65 SHL PUSH1 0x4E DUP3 ADD MSTORE DUP3 MLOAD PUSH1 0x0 SWAP1 PUSH2 0x2E35 DUP2 PUSH1 0x62 DUP6 ADD PUSH1 0x20 DUP9 ADD PUSH2 0x31D0 JUMP JUMPDEST PUSH13 0x3EAE96101134B6B0B3B2911D11 PUSH1 0x99 SHL PUSH1 0x62 SWAP2 DUP5 ADD SWAP2 DUP3 ADD MSTORE DUP4 MLOAD PUSH2 0x2E62 DUP2 PUSH1 0x6F DUP5 ADD PUSH1 0x20 DUP9 ADD PUSH2 0x31D0 JUMP JUMPDEST PUSH2 0x227D PUSH1 0xF0 SHL PUSH1 0x6F SWAP3 SWAP1 SWAP2 ADD SWAP2 DUP3 ADD MSTORE PUSH1 0x71 ADD SWAP5 SWAP4 POP POP POP POP JUMP JUMPDEST PUSH32 0x7374796C653D276261636B67726F756E642D636F6C6F723A0000000000000000 DUP2 MSTORE PUSH1 0x0 DUP3 MLOAD PUSH2 0x2EB5 DUP2 PUSH1 0x18 DUP6 ADD PUSH1 0x20 DUP8 ADD PUSH2 0x31D0 JUMP JUMPDEST PUSH2 0x139F PUSH1 0xF1 SHL PUSH1 0x18 SWAP4 SWAP1 SWAP2 ADD SWAP3 DUP4 ADD MSTORE POP PUSH1 0x1A ADD SWAP2 SWAP1 POP JUMP JUMPDEST PUSH32 0x646174613A6170706C69636174696F6E2F6A736F6E3B6261736536342C000000 DUP2 MSTORE PUSH1 0x0 DUP3 MLOAD PUSH2 0x2F06 DUP2 PUSH1 0x1D DUP6 ADD PUSH1 0x20 DUP8 ADD PUSH2 0x31D0 JUMP JUMPDEST SWAP2 SWAP1 SWAP2 ADD PUSH1 0x1D ADD SWAP3 SWAP2 POP POP JUMP JUMPDEST PUSH1 0x1 PUSH1 0x1 PUSH1 0xA0 SHL SUB DUP6 DUP2 AND DUP3 MSTORE DUP5 AND PUSH1 0x20 DUP3 ADD MSTORE PUSH1 0x40 DUP2 ADD DUP4 SWAP1 MSTORE PUSH1 0x80 PUSH1 0x60 DUP3 ADD DUP2 SWAP1 MSTORE PUSH1 0x0 SWAP1 PUSH2 0x2F46 SWAP1 DUP4 ADD DUP5 PUSH2 0x2BDE JUMP JUMPDEST SWAP7 SWAP6 POP POP POP POP POP POP JUMP JUMPDEST PUSH1 0x1 PUSH1 0x1 PUSH1 0xA0 SHL SUB DUP10 DUP2 AND DUP3 MSTORE PUSH1 0x20 DUP3 ADD DUP10 SWAP1 MSTORE PUSH1 0x40 DUP3 ADD DUP9 SWAP1 MSTORE DUP7 AND PUSH1 0x60 DUP3 ADD MSTORE PUSH1 0x1 PUSH1 0x1 PUSH1 0xE0 SHL SUB NOT DUP6 AND PUSH1 0x80 DUP3 ADD MSTORE PUSH1 0xA0 DUP2 ADD DUP5 SWAP1 MSTORE PUSH1 0xC0 DUP2 ADD DUP4 SWAP1 MSTORE PUSH2 0x100 PUSH1 0xE0 DUP3 ADD DUP2 SWAP1 MSTORE PUSH1 0x0 SWAP1 PUSH2 0x2FA9 DUP4 DUP3 ADD DUP6 PUSH2 0x2BDE JUMP JUMPDEST SWAP12 SWAP11 POP POP POP POP POP POP POP POP POP POP POP JUMP JUMPDEST PUSH1 0x1 DUP1 PUSH1 0xA0 SHL SUB DUP5 AND DUP2 MSTORE DUP3 PUSH1 0x20 DUP3 ADD MSTORE PUSH1 0x60 PUSH1 0x40 DUP3 ADD MSTORE PUSH1 0x0 PUSH2 0x21E3 PUSH1 0x60 DUP4 ADD DUP5 PUSH2 0x2BDE JUMP JUMPDEST PUSH1 0x20 DUP2 MSTORE PUSH1 0x0 PUSH2 0x18AE PUSH1 0x20 DUP4 ADD DUP5 PUSH2 0x2BDE JUMP JUMPDEST PUSH1 0x20 DUP1 DUP3 MSTORE PUSH1 0x32 SWAP1 DUP3 ADD MSTORE PUSH32 0x4552433732313A207472616E7366657220746F206E6F6E204552433732315265 PUSH1 0x40 DUP3 ADD MSTORE PUSH18 0x31B2B4BB32B91034B6B83632B6B2B73A32B9 PUSH1 0x71 SHL PUSH1 0x60 DUP3 ADD MSTORE PUSH1 0x80 ADD SWAP1 JUMP JUMPDEST PUSH1 0x20 DUP1 DUP3 MSTORE DUP2 DUP2 ADD MSTORE PUSH32 0x4F776E61626C653A2063616C6C6572206973206E6F7420746865206F776E6572 PUSH1 0x40 DUP3 ADD MSTORE PUSH1 0x60 ADD SWAP1 JUMP JUMPDEST PUSH1 0x20 DUP1 DUP3 MSTORE PUSH1 0x2B SWAP1 DUP3 ADD MSTORE PUSH32 0x596F7520646F6E2774206861766520656E6F75676820657468657220746F2070 PUSH1 0x40 DUP3 ADD MSTORE PUSH11 0x6179207468652066656521 PUSH1 0xA8 SHL PUSH1 0x60 DUP3 ADD MSTORE PUSH1 0x80 ADD SWAP1 JUMP JUMPDEST PUSH1 0x20 DUP1 DUP3 MSTORE PUSH1 0x31 SWAP1 DUP3 ADD MSTORE PUSH32 0x4552433732313A207472616E736665722063616C6C6572206973206E6F74206F PUSH1 0x40 DUP3 ADD MSTORE PUSH17 0x1DDB995C881B9BDC88185C1C1C9BDD9959 PUSH1 0x7A SHL PUSH1 0x60 DUP3 ADD MSTORE PUSH1 0x80 ADD SWAP1 JUMP JUMPDEST PUSH1 0x40 MLOAD PUSH1 0x1F DUP3 ADD PUSH1 0x1F NOT AND DUP2 ADD PUSH8 0xFFFFFFFFFFFFFFFF DUP2 GT DUP3 DUP3 LT OR ISZERO PUSH2 0x313E JUMPI PUSH2 0x313E PUSH2 0x3292 JUMP JUMPDEST PUSH1 0x40 MSTORE SWAP2 SWAP1 POP JUMP JUMPDEST PUSH1 0x0 PUSH8 0xFFFFFFFFFFFFFFFF DUP3 GT ISZERO PUSH2 0x3160 JUMPI PUSH2 0x3160 PUSH2 0x3292 JUMP JUMPDEST POP PUSH1 0x1F ADD PUSH1 0x1F NOT AND PUSH1 0x20 ADD SWAP1 JUMP JUMPDEST PUSH1 0x0 DUP3 NOT DUP3 GT ISZERO PUSH2 0x3181 JUMPI PUSH2 0x3181 PUSH2 0x3266 JUMP JUMPDEST POP ADD SWAP1 JUMP JUMPDEST PUSH1 0x0 DUP3 PUSH2 0x3195 JUMPI PUSH2 0x3195 PUSH2 0x327C JUMP JUMPDEST POP DIV SWAP1 JUMP JUMPDEST PUSH1 0x0 DUP2 PUSH1 0x0 NOT DIV DUP4 GT DUP3 ISZERO ISZERO AND ISZERO PUSH2 0x31B4 JUMPI PUSH2 0x31B4 PUSH2 0x3266 JUMP JUMPDEST POP MUL SWAP1 JUMP JUMPDEST PUSH1 0x0 DUP3 DUP3 LT ISZERO PUSH2 0x31CB JUMPI PUSH2 0x31CB PUSH2 0x3266 JUMP JUMPDEST POP SUB SWAP1 JUMP JUMPDEST PUSH1 0x0 JUMPDEST DUP4 DUP2 LT ISZERO PUSH2 0x31EB JUMPI DUP2 DUP2 ADD MLOAD DUP4 DUP3 ADD MSTORE PUSH1 0x20 ADD PUSH2 0x31D3 JUMP JUMPDEST DUP4 DUP2 GT ISZERO PUSH2 0xE9A JUMPI POP POP PUSH1 0x0 SWAP2 ADD MSTORE JUMP JUMPDEST PUSH1 0x1 DUP2 DUP2 SHR SWAP1 DUP3 AND DUP1 PUSH2 0x3210 JUMPI PUSH1 0x7F DUP3 AND SWAP2 POP JUMPDEST PUSH1 0x20 DUP3 LT DUP2 EQ ISZERO PUSH2 0x3231 JUMPI PUSH4 0x4E487B71 PUSH1 0xE0 SHL PUSH1 0x0 MSTORE PUSH1 0x22 PUSH1 0x4 MSTORE PUSH1 0x24 PUSH1 0x0 REVERT JUMPDEST POP SWAP2 SWAP1 POP JUMP JUMPDEST PUSH1 0x0 PUSH1 0x0 NOT DUP3 EQ ISZERO PUSH2 0x324B JUMPI PUSH2 0x324B PUSH2 0x3266 JUMP JUMPDEST POP PUSH1 0x1 ADD SWAP1 JUMP JUMPDEST PUSH1 0x0 DUP3 PUSH2 0x3261 JUMPI PUSH2 0x3261 PUSH2 0x327C JUMP JUMPDEST POP MOD SWAP1 JUMP JUMPDEST PUSH4 0x4E487B71 PUSH1 0xE0 SHL PUSH1 0x0 MSTORE PUSH1 0x11 PUSH1 0x4 MSTORE PUSH1 0x24 PUSH1 0x0 REVERT JUMPDEST PUSH4 0x4E487B71 PUSH1 0xE0 SHL PUSH1 0x0 MSTORE PUSH1 0x12 PUSH1 0x4 MSTORE PUSH1 0x24 PUSH1 0x0 REVERT JUMPDEST PUSH4 0x4E487B71 PUSH1 0xE0 SHL PUSH1 0x0 MSTORE PUSH1 0x41 PUSH1 0x4 MSTORE PUSH1 0x24 PUSH1 0x0 REVERT JUMPDEST DUP1 ISZERO ISZERO DUP2 EQ PUSH2 0x107B JUMPI PUSH1 0x0 DUP1 REVERT JUMPDEST PUSH1 0x1 PUSH1 0x1 PUSH1 0xE0 SHL SUB NOT DUP2 AND DUP2 EQ PUSH2 0x107B JUMPI PUSH1 0x0 DUP1 REVERT INVALID COINBASE TIMESTAMP NUMBER DIFFICULTY GASLIMIT CHAINID SELFBALANCE BASEFEE 0x49 0x4A 0x4B 0x4C 0x4D 0x4E 0x4F POP MLOAD MSTORE MSTORE8 SLOAD SSTORE JUMP JUMPI PC MSIZE GAS PUSH2 0x6263 PUSH5 0x6566676869 PUSH11 0x6B6C6D6E6F707172737475 PUSH23 0x7778797A303132333435363738392B2F3C73766720786D PUSH13 0x6E733D27687474703A2F2F7777 PUSH24 0x2E77332E6F72672F323030302F7376672720686569676874 RETURNDATASIZE 0x27 CODECOPY ADDRESS ADDRESS 0x27 KECCAK256 PUSH24 0x696474683D273930302720A26469706673582212202345CE DUP1 SWAP7 SUB DUP10 MSTORE 0xBA ISZERO REVERT 0xA9 EQ SHL POP PUSH23 0x7E07A21D40C464E8BCBC6F7825DC52F864736F6C634300 ADDMOD SMOD STOP CALLER ","sha1":"36afe05794148533d008f14048237989dbe33046","source":"// SPDX-License-Identifier: MIT\npragma solidity ^0.8.0;\n\nimport \"@chainlink/contracts/src/v0.8/ChainlinkClient.sol\"; \nimport \"@openzeppelin/contracts/access/Ownable.sol\";\nimport \"@openzeppelin/contracts/token/ERC721/extensions/ERC721URIStorage.sol\";\nimport \"./NFTatPixel.sol\";\n\n\ncontract NFTat is ReentrancyGuard, Ownable, ChainlinkClient, ERC721URIStorage {\n    using Chainlink for Chainlink.Request;\n    uint256 public s_minimumStaked;\n    bytes32 public s_subjectiveOracleJobId;\n    address public s_subjectiveOracleAddress;\n    uint256 public s_subjectiveOracleFee;\n    uint256 public s_nftCounter;\n    bool private isOpen;\n    mapping(bytes32 => uint256) public requestIdToTattoodPersonId;\n    NFTatPixel public s_pixelsContract;\n    uint public s_timeInterval;\n    struct TattoodPerson {\n        uint256 stakedAmount;\n        bool tattood;\n        address addressOfTattoodPerson;\n    }\n    mapping(uint256 => TattoodPerson) public s_tokenIdToTattoodPerson;\n\n\n    constructor(uint256 _minStaked, \n    bytes32 _subjectiveOracleJobId, \n    address _subjectiveOracleAddress, \n    address _link, \n    uint256 _subjectiveOracleFee) \n    ERC721(\"NFTat\", \"NFTAT\") {\n        if (_link == address(0)) {\n            setPublicChainlinkToken();\n        } else {\n            setChainlinkToken(_link);\n        }\n        s_timeInterval = 12 days;\n        s_minimumStaked = _minStaked;\n        s_subjectiveOracleJobId = _subjectiveOracleJobId;\n        s_subjectiveOracleAddress = _subjectiveOracleAddress;\n        s_subjectiveOracleFee = _subjectiveOracleFee;\n        s_nftCounter = 0;\n        isOpen = false;\n        NFTatPixel newPixelContract = new NFTatPixel(s_timeInterval);\n        s_pixelsContract = newPixelContract;\n    }\n\n    function setOpen(bool _isOpen) public onlyOwner {\n        isOpen = _isOpen;\n    }\n\n    // stakeTat\n    /** @notice Create Tatoo Staker\n     */ \n    function stakeTat() \n    nonReentrant onlyOwner public payable {\n        require(msg.sender == owner() || isOpen, \"Still in beta, sorry!\");\n        require(msg.value >= s_minimumStaked, \"You didn't send enough ether to stake!\");\n        TattoodPerson memory newTatoodPerson = TattoodPerson(msg.value, false, msg.sender);\n        s_tokenIdToTattoodPerson[s_nftCounter] = newTatoodPerson;\n        s_pixelsContract.mintSet(msg.sender);\n        _safeMint(msg.sender, s_nftCounter);\n        // update the counter\n        s_nftCounter = s_nftCounter + 1;\n    }\n\n    function batchOne() public onlyOwner {\n        s_pixelsContract.mintBatchOne(msg.sender);\n    }\n    function batchTwo() public onlyOwner {\n        s_pixelsContract.mintBatchTwo(msg.sender);\n    }\n    function batchThree() public onlyOwner {\n        s_pixelsContract.mintBatchThree(msg.sender);\n    }\n    function batchFour() public onlyOwner {\n        s_pixelsContract.mintBatchFour(msg.sender);\n    }\n\n    function updateVotes(uint256 tattoodPersonId) public onlyOwner returns (bytes32 requestId) {\n        require(s_tokenIdToTattoodPerson[tattoodPersonId].tattood == false, \"This person has already been tattood!\");\n        Chainlink.Request memory request = buildChainlinkRequest(s_subjectiveOracleJobId, address(this), this.fulfill.selector);\n        sendChainlinkRequestTo(s_subjectiveOracleAddress, request, s_subjectiveOracleFee);\n        requestIdToTattoodPersonId[requestId] = tattoodPersonId;\n    }\n\n    function fulfill(bytes32 _requestId, bool _tattoodStatus) public recordChainlinkFulfillment(_requestId){\n        require(_tattoodStatus, \"The person was not tattood!\");\n        uint256 tattoodPersonId = requestIdToTattoodPersonId[_requestId];\n        address tattoodPerson = s_tokenIdToTattoodPerson[tattoodPersonId].addressOfTattoodPerson;\n        s_tokenIdToTattoodPerson[tattoodPersonId].tattood = _tattoodStatus;\n        uint256 returnStakedAmount = s_tokenIdToTattoodPerson[tattoodPersonId].stakedAmount;\n        (bool success, ) = payable(tattoodPerson).call{value: returnStakedAmount}(\"\");\n        require(success, \"You don't have enough ether to pay the fee!\");\n    }\n\n    function fakeFulfill(bool _tattoodStatus, uint256 tattoodPersonId) public onlyOwner{\n        // Just in case... polygon keeps causing me issues. \n        require(_tattoodStatus, \"The person was not tattood!\");\n        address tattoodPerson = s_tokenIdToTattoodPerson[tattoodPersonId].addressOfTattoodPerson;\n        s_tokenIdToTattoodPerson[tattoodPersonId].tattood = _tattoodStatus;\n        uint256 returnStakedAmount = s_tokenIdToTattoodPerson[tattoodPersonId].stakedAmount;\n        (bool success, ) = payable(tattoodPerson).call{value: returnStakedAmount}(\"\");\n        require(success, \"You don't have enough ether to pay the fee!\");\n    }\n\n    function withdraw(uint256 tattoodPersonId) public onlyOwner {\n        // this is just in case I fuck up\n        address tattoodPerson = s_tokenIdToTattoodPerson[tattoodPersonId].addressOfTattoodPerson;\n        uint256 returnStakedAmount = s_tokenIdToTattoodPerson[tattoodPersonId].stakedAmount;\n        (bool success, ) = payable(tattoodPerson).call{value: returnStakedAmount}(\"\");\n    }\n\n    function withdrawLink() public onlyOwner {\n        LinkTokenInterface link = LinkTokenInterface(chainlinkTokenAddress());\n        require(link.transfer(msg.sender, link.balanceOf(address(this))), \"Unable to transfer\");\n    }\n\n    function tokenURI(uint256 tokenId) public view override returns (string memory) {\n        // 0th pixel is background\n        // 1st pixel is circle`\n        // the next 225 are the pixels\n        string memory svg = getSVG(tokenId);\n        if (!s_tokenIdToTattoodPerson[tokenId].tattood){\n            return formatTokenURI(svgToImageURI(svg), \"false\");\n        }\n        return formatTokenURI(svgToImageURI(svg), \"true\");\n    }\n\n    function getSVG(uint256 tokenId) public view returns (string memory) {\n        string memory startSVG = \"<svg xmlns='http://www.w3.org/2000/svg' height='900' width='900' \";\n        string memory background = \"style='background-color:black'>\";\n        string memory baseCircle = \"\";\n        string memory allPixels = \"\";\n        string memory endSVG = \"</svg>\";\n        bool isGrayScale = true;\n\n        for(uint i = tokenId * 227; i < (tokenId * 227) + 227; i++) {\n            // Pixel memory pixel = s_pixelsContract.s_tokenIdToPixel(i);\n            if (s_pixelsContract.getIsBackground(i)) {\n                if (!compareStrings(s_pixelsContract.getColor(i),(\"grayscale\"))) {\n                    isGrayScale = false;\n                    background = string(abi.encodePacked(\"style='background-color:\",s_pixelsContract.getColor(i), \"'>\"));\n                } else {\n                    background = string(abi.encodePacked(background, \"<filter id='grayscale'><feColorMatrix type='matrix' values='0.3333 0.3333 0.3333 0 0 0.3333 0.3333 0.3333 0 0 0.3333 0.3333 0.3333 0 0 0 0 0 1 0'/></filter>\"));\n                }\n            } else if (s_pixelsContract.getIsBaseCircle(i)) {\n                baseCircle = s_pixelsContract.getBigCircleSVG(i, isGrayScale);\n            } else {\n                allPixels = string(abi.encodePacked(allPixels, s_pixelsContract.getBaseSVG(i, isGrayScale)));\n            }\n        }\n        return string(abi.encodePacked(startSVG, background, baseCircle, allPixels, endSVG));\n    }\n\n    function formatTokenURI(string memory imageURI, string memory _tattood) public pure returns (string memory) {\n        return string(\n                abi.encodePacked(\n                    \"data:application/json;base64,\",\n                    Base64.encode(\n                        bytes(\n                            abi.encodePacked(\n                                '{\"name\":\"',\n                                \"NFTat\", // You can add whatever name here\n                                '\", \"description\":\"A tattoooooooo\", \"attributes\":[{\"trait_type\": \"tattood\", \"value\": ', _tattood,'}], \"image\":\"',imageURI,'\"}'\n                            )\n                        )\n                    )\n                )\n            );\n    }\n\n    function svgToImageURI(string memory svg) public pure returns (string memory) {\n        string memory baseURL = \"data:image/svg+xml;base64,\";\n        string memory svgBase64Encoded = Base64.encode(bytes(string(abi.encodePacked(svg))));\n        return string(abi.encodePacked(baseURL,svgBase64Encoded));\n    }\n\n    function compareStrings(string memory a, string memory b) public pure returns (bool) {\n        return (keccak256(abi.encodePacked((a))) == keccak256(abi.encodePacked((b))));\n    }\n}\n","sourcePath":"contracts/NFTat.sol","type":"contract","deployment":{"address":"0x65F055444125f8764a8405404c898Edc0399F703","chainid":"137","blockHeight":19706101}}